:02000000ff00ff
:080002004c6174746963650030
:17000a00694345637562653220323031372e30382e32373934300069
:15002100506172743a2069434534304c50384b2d434d3831003f
:1b003600446174653a2053657020313220323031392032313a31323a34390079
:0200510000ffae
:040053007eaa997e6a
:02005700510056
:0200590001059f
:03005b00920020f0
:03005e00620367d3
:0300610072011019
:0300640082000017
:02006700110086
:02006900010193
:20006b00000000000000000000000000000000000000000000000000000000000000000075
:20008b00000000000000000000000000000000000000000000000000000000000000000055
:2000ab00000000000000000000000000000000000000000000000000000000000000000035
:0d00cb000000000000000000000000000028
:2000d800000000000000000000000000000000000000000000000000000000000000000008
:2000f8000000000000000000000000000000000000000000000000000000000000000000e8
:200118000000000000000000000000000000000000000000000000000000000000000000c7
:0d01380000000000000000000000000000ba
:20014500000000000000000000000000000000000002c000000000000000000000000000d8
:2001650000000000000000000000000000000000000000000000000000000000000000007a
:20018500000000000000000004000000000000000000000000000000000000000000000056
:0d01a500000000100000000000000000003d
:2001b20000000000000000000000000000000000000200000000000000000000000000002b
:2001d20000000000000000000000000000000000000000000000000000000000000000000d
:2001f2000000000000000000000000000000000000000000000040000000000000000000ad
:0d02120000000000000000000000000000df
:20021f000000000000000000000000000000000000000000000000000000000000000000bf
:20023f0000000000000000000000000000000000000000000000000000000000000000009f
:20025f0000000000000000000000000000000000000000000000000000000000000000007f
:0d027f000000000000000000000000000072
:20028c00000000000000000000000000000000000000000000000000000000000000000052
:2002ac00000000000000000000000000000000000000000000000000000000000000000032
:2002cc00000000000000000000000000000000000000000000000000000000000000000012
:0d02ec000000000000000000000000000005
:2002f9000000000000000000000000000000000000002080900000000000000000000000b5
:200319000000000000000000000000000000000000000000000000000000000000000000c4
:200339000000000000000000000000000000000000000000000000000000000000000000a4
:0d0359000000000000000000000000000097
:20036600000000000000000000000000000000000001c00080000000000000000000000036
:20038600000000000000000000000000000000000000000000000000000000000000000057
:2003a600000000000000000000000000000000000000000000000000000000000000000037
:0d03c600000000000000000000000000002a
:2003d3000000000000000000000000000000000000000040000000000000000000000000ca
:2003f3000000000000000000000000000000000000000000000000000000000000000000ea
:200413000000000000000000000000000000000000000000000000000000000000000000c9
:0d04330000000000000000000000000000bc
:2004400000000000000000000000000000000000000000000000000000000000000000009c
:200460000000000000000000000000000000000000000000000000000000018000000000fb
:2004800000000000000000000000000000000000000000000000000000000000000000005c
:0d04a000000000000000000000000000004f
:2004ad000000000000000000000000000000000000000001400000000000000000000000ee
:2004cd0000000000000000000000000000000000000000000000000000000000000000000f
:2004ed000000000000000000000000000000000000000000000000000000000000000000ef
:0d050d0000000000000000000000000000e1
:20051a0000000000000000000000000000000000100000038000000000000000000000002e
:20053a000000000000000000000000000000000000000000000000000000000000000000a1
:20055a00000000000000000000000000000000000000000000000000000000000000000081
:0d057a000000000000000000000000000074
:20058700000000000000000000000000000000000000000000000000000000000000000054
:2005a700000000000000000000000000000000000000000000000000000000000000000034
:2005c700000000000000000000000000000000000000000000000000000000000000000014
:0d05e7000000000000000000000000000007
:2005f4000000000000000000000000000000000010000000000000000000000000000000d7
:200614000000000000000000000000000000000000000000000000000000000000000000c6
:20063400000000000000000000000000000000600000000000000000000000000000000046
:0d0654000000000000000000000000000099
:20066100000000000000000000000000000000000000000000000000000000000000000079
:20068100000000000000000000000000000000000000000000000000000000000000000059
:2006a100000000000000000000000000000000000000000000000000000000000000000039
:0d06c100000000000000000000000000002c
:2006ce000000000000000000000000000000000020000000000000000000000000000000ec
:2006ee000000000000000000000000000000000000000000000000000000000000000000ec
:20070e000000000000000000000000000000000000000000000000000000000000000000cb
:0d072e0000000000000000000000000000be
:20073b000000000000053a81010200001caa0404000000562810000000014ea0600200002e
:20075b00053a81020000003caa0400000000d32810200000000000000019b21400000000c8
:20077b002efca2000000589920cc00040147a0bd140400281d5f4cc00000047ceb330000a6
:0d079b0000388d36840000000200000000d0
:2007a800000000000000028280040400000a080000000004282c0000000010a0800100008a
:2007c800000282000000002dd9080400000033242010000000000000100f9ef8800000249b
:2007e8007bebf1000011198f7f30000000262c8e200000011afef300000b426e4bcc004014
:0d08080000080b32448000000400000000d6
:20081500000028050000000000a000000000000280001e0000000a00200000000028000004
:2008350000000000a00000000000028000000000000000000000028001007e35400a0020e1
:200855007bfe0342a8000008225908a001c03dca54028000011295400a00800400000000de
:0d087500008089f6c400a001e7f4ad50003a
:200882000000200200000000008000000000000200000000000008002c000000002000005e
:2008a200000000008000000000000200000000000000000000000200008ef6b40008001c56
:2008c200416053002000000b41a400c0e1c34505501200070f0815404801403800000000ce
:0d08e20000b50379c4208000174dad000063
:2008ef000000000080000000000002000000000000080000000000002000000000000080bf
:20090f00000000000000004000000000580000000000000000000300079f5739800500046e
:20092f00386ad500100030833ccc0000020074ef5403010d8b928cc080002e025da4000082
:0d094f000090e963c000c00043878c1020b9
:20095c000000000010000000000000c00000000000010000000000003c000000000000105e
:20097c00000000000000034000000000010000000000000000000100031e9ab08004000027
:20099c00797ed00032000101333000000043ef0a010120151bfc330000002c01f9e6000014
:0d09bc0000b805403c004000e0160e600051
:2009c90000000000000000000000000000000000000000000000000000000000000000000e
:2009e900000000000000400000000000050000000000000000000000000177a440800020ad
:200a090002589102010000077ad4000001401fdf100000001a9b331480000071d8c50200af
:0d0a290000781538cc080000c074e03420bf
:200a36000000000000000000000000000000000000000000000000000000000000000000a0
:200a5600000000000000000000000000008000000000000000000000000edc38c00000041a
:200a76000240e300008000007ed4400003600cda2000000718580cc000000001f0c90101c1
:0d0a96002008a703308000002235053080c5
:200aa300000000000000000000000000000000000000000000000000000000000000000033
:200ac300000000000000004000000000030000000000004000000000a99fdb7800000000f5
:200ae30071de47020108b8070204000001c024cc5120102800d73c00002140705e331000ae
:0d0b030005f8013954020003479edd500043
:200b10000000000000000000000000000000000000000000000000000000000000000000c5
:200b3000000000000000030000000000010000000000000000000020010f7b7540008000c1
:200b500026f08100000070fbba64020021c3e60c600000050e1003c000440003dacc20003a
:0d0b7000023000c154000000e7cfad0000ce
:200b7d0000000000000000000000000000000000282000000000000000000000000005000b
:200b9d000000000000000000000000000800000000000000000000000580fb1090c00e063c
:200bbd0069ecd500000081a770400000c2025cc5500040030812b310a0000677eea56000b1
:0d0bdd000070c7a8cc080401c027e9102053
:200bea00000000009000000000000000000000001049000000000000000000000000000002
:200c0a000000000000000240000000000b0000000000000000000000008910344000000070
:200c2a0042f9d000000030f07c40800203c700055004000090f40cc000000078e0aa0100cb
:0d0c4a0018f9f7c330410200003f0e3000e2
:200c570000000000800000000000020000000000000000000000000000000000000000807b
:200c7700000000000002000000000040000000000000000000000001000f000000000616ef
:200c970000000000000078f70108000000605ee3302050500d00598000000422c9b10002ac
:0d0cb700a49003ef90200000020c84702038
:200cc40000000000b000000000000040000000000000000000000000003c0000000000b034
:200ce400000000000060400000000000000000000000000000000000001d00000000000033
:200d040020000000000010e3b968200004022d0cc08000000b93a64040003f02f97100018c
:0d0d24000070f3f3500000000035081000cf
:200d3100000030000000000000c001e000000003005000000000040000000000003000103a
:200d5100000000004000000000000100000000000000000000000000039c00000000000e94
:200d710024000000000200e72ad4000801c025a3300010039c000000000004381c5510002a
:0d0d91000000e02a5840000007400000006c
:200d9e00000010000000000000c000200000000100200000000004000000000000300000f0
:200dbe0000000000c000000000000300000000000000000000000000000000000000000052
:200dde007c000000000501003ed48000a1c0168cc0002000100000000000003ad0aa00003a
:0d0dfe0000f00f65a4000000078000000059
:200e0b0000000000000572810200000015ca0408100000572810200000015ca040000000e6
:200e2b00057281000000001dda0604000801f6704000000000000000010bb7754000000087
:200e4b0003fd3300400200f9f0cc0000c0024000000010c00c9e331400002079df330000ef
:0d0e6b0005381178cc0000000000000000e8
:200e7800000000000000028240000000010a08102a0000042820000a000000a080000000d3
:200e9800000282040000002db90900000508b2108800000000000010179e57340000000418
:200eb80001c8cc200000f08f7330000a00c600000000283019db8cc000002c60e9cc00009a
:0d0ed80018388b33300000000000000000cf
:200ee500000028000000000000a00000000000028000000000000a00000000000028000071
:200f050000000000a000000000000280090192a80000000000000283000076a440800020e7
:200f250079cc5500280050016b31081009c01fc55002800388573c000a0c2005fc33022cb0
:0d0f4500000401233108a009c79db330004e
:200f52000000200000000000008001c00000000200000000000008000000000000200000f4
:200f7200000000008000000000000200018e743c000000000000020000003438c000003c34
:200f9200002055002000080b80cc0000136002055002000b90b403c008000c3cd0cc002061
:0d0fb20008000340cc008414c42dbcc00016
:200fbf00000000008000000000000200000000000058000000000040a000000000000480d4
:200fdf00000000000000000005a00000401e5abdc0800a00000001000f805711c080005cfa
:200fff00007a33123400808f28cc000051e2369330032061007a9540040020244a334230a6
:0d101f002870157ccc00401403b7e334208a
:20102c0000000000100000000000004000000000000100000000000004000000000002103d
:20104c00000000000000003c0a5100000510303fc0400000000001000d8050204000000229
:20106c0025f0cc003000f10db7300008082217dcc003206d80081540040a442470cc10302a
:0d108c000000c7ff3000c04000040cc01081
:201099000000000000000000000000000000000000038000000000000400000000000000b0
:2010b9000000000000000700000000000b8e1bbf4880000000000000011e12fc4000400e1a
:2010d90000fbf50000003883f3c00000084006af0200038018de0cc08001807a185500006d
:0d10f90030100df0cc08000a03a1c5500016
:20110600000000000000000000004000000000000000000000000000000000000000000089
:201126000000000000000400000000000100083f4200000000000000000093944000a02ee6
:2011460030ed810000000909403c00000422ad00f00000000078330200014040c0aa000002
:0d1166000090030330000010438d0aa0002c
:20117300000000000000000000000000000000002800000000000000000000000000000034
:201193000000000000040000000000000800dfe81000000000000000070017a44080400592
:2011b30079da5510000181887954800010070ee5500000039e33954800004c00fe33020083
:0d11d3008131bdb0cd0c0a01c686c33020ad
:2011e0000000000000000000000004100000000000000000000000000000000000000000db
:201200000000000000080280000000000900d7a4200000000000000000001438c00004068a
:20122000002055000221f08302a804000006c005500040071004154000002c0370cc0001be
:0d12400002f0e74330000401c00c0cc000b8
:20124d0000000000b8000000000000020000000000001c000000000044000000000000382f
:20126d000000000000a00700000000000001ff2900000000000000000b8c1380d0c0403463
:20128d00725c330a000001a928cc080001c014ef000000039ebb3c0000000e74fa3342043f
:0d12ad000098157154000400407fef001000
:2012ba0000000000f80000000000c0040000000002a010000000000082000000000000d84c
:2012da00000000000000040000000000000e1fa800000080000000000f00f414c000a00c18
:2012fa002bc0cc200238f09f433001000242b500f00002871eb003c00000047d50cc100010
:0d131a000074d0415400026023a500f000d3
:201327000000000000000000000000000000000000000000000000000000000000000000a6
:201347000000000000020200000000000f00f6304040000000000000d11f00000000001ebf
:2013670020ce5510000000800000000a0a0707e330202b819c97331080000000000000029a
:0d1387000871c00000000000e0218550004a
:20139400000000000000000000000000000000000000000000000000000000000000000039
:2013b4000000000000004000000000000f80b31080000000000000002018000000000000cf
:2013d400643055000000008000000000b4c2440cc00010100fd80cc40000003800000000fb
:0d13f4000001000000000000203d0aa000e4
:20140100000030000000000000440000000000010000000000000400000000000030000022
:2014210000000000c001e00000000100090d0203c0400000000000000000000000000004ea
:20144100015ef000000000e0000000040a038c83302010080c1795400000040400000000d4
:0d1461000070d00000000003c780000000f4
:20146e00000010000000000000420000000000030000000000000c000000000000100000ed
:20148e0000000000c000000000000300038b0403c000000000000000090f00000000208668
:2014ae003b400f20000050c00000000812c03f0cc20008011f0c154000003e38000000007e
:0d14ce002818c00000000009e00000000028
:2014db000070000000053a810000000014aa040800000053a810000000014cf700000000a8
:2014fb00053a810000000014ea0604000b801a2120000a000000000289019eb9dc00001644
:20151b0000408100008000a32bd5000048029caf55042a4001d3295400a40079fd330002d4
:0d153b002850083154400a0003ac000000a5
:20154800004000000000028204000000010a080001800004282800001400c8ff01000000f7
:2015680000028200000803fd990800000580f00480c04000000000000f887a28000040368e
:2015880002cce7004008010f8280600c0000340a008010290d941544004024404fcc000117
:0d15a8000808bf42a8010440c0040ff00075
:2015b500000028000000000000a00000000000029000000000000a0020001ea0402800006c
:2015d50000000000a000000000000000010ada212010000000000280000a3e64400a01e4c3
:2015f50002ea64002800700ff3c000a0000014aa5402800b8a53bd580b0e2023dc33522816
:0d1615003271ed729540a002004fc55000eb
:201622000000200000000000008000000000000208000000000008003c00c050802000000a
:20164200000000008000000000000000058098048000000000000200091c1304000801c65a
:20166200244ca4102000000b003c008000001d055102000d99b8280028000c4250cc0020b0
:0d1682000031094154028001c341055000b0
:20168f000000000080000000000002000000000000080000000000000000dca02000008095
:2016af0000000000000200000000000320007221200000000000000010007729d0902246cb
:2016cf00060e550080108189f8cc080c02729eef540802a90e1e4cc00c0020301a55000015
:0d16ef000019c1ff8001c0000795a960200f
:2016fc00000000001000000000000042400000000001000000000000740000a00000001017
:20171c00000000000003c000000000000000f00480000000000000002000900680404e1e94
:20173c003e40aa000101100b433000000444370a028800519096b3000c0c0c4340aa000047
:0d175c0038710b33a80040e2c64009600060
:201769000000000010000000000000000000000000258000000000001e0240a500000000a6
:20178900000000000000000000000000000f922120002000000000000100f368800000065c
:2017a900046ef0100304199d3a9500040202fcaa5400000b181b0cc8a0008e00600001017e
:0d17c90000001960cc0200100025e3302064
:2017d6000000000008000000000000000000000000508000000000000000c000004000001b
:2017f600000000000000000000000000000f900480004000000000000d897ffc40000024fb
:2018160031f00f000380d0fdc154000a0047f7055200000b8070330000816600c0ff0000aa
:0d1836008000ddb330000443402c0cc000e6
:201843000068000300000000000000000000000000200000000000002605dca00000010052
:2018630000000000000000000000002801005a2120400000000000400000bbc00850203ef0
:20188300014f0260008079c5b3d4001209e38daf560000d00b7b295840001e03de33024033
:0d18a30002d8a96284020217c34c833420ce
:2018b000000000000000000000000000000000000010000000000000242c20a000000200f6
:2018d0000000000000000000000000000000f80480000000000000608108130200408016a8
:2018f00038582521000001872e0400040444340a008008191f141540000a002570cc000624
:0d19100000f1e13aac0014c067cf0cc0102c
:20191d004200000000000000000000000000000000000000000000000602ddf5000000008e
:20193d0000000000000000000000000000009a2120000000000000000f00be79c000002089
:20195d00036ea5400080588dba95800008e016e5500403000057bd5201040704ec960200ac
:0d197d0000001032580000000267f3300037
:20198a000a00000000000000000000000000000000000000000000000c03eee50000000051
:2019aa00000000000000000000000000000090048200000000000000058a7ee802000014fc
:2019ca00034055008100589341548000102002055000000f00b02800000004281096100193
:0d19ea0000d0e539a401002b47ffdcc00050
:2019f70000000000000000000000000000000000000001000000000020000ec0020000805f
:201a170000000000000006c000000000081c32212000000000000000200e873d40000024fc
:201a37003d6aa000028090a13ac40020816645c33020038180d6bc0000400e3c4a55100069
:0d1a570000b01fb8cc000205e014a3300859
:201a64008000000070000000000000000000000000000c0000000000142000c00040003002
:201a84000000000000000300000000000910f0048200000000000000051c303e8000021c83
:201aa40076d0f5000038300bb9c4000a01e20e0cc0040019003003c01088026020550000b1
:0d1ac40028b8a7ef300004e0001ebcc000f1
:201ad100800010000000000000c001e00000000100000000000004401e021aa010300070f5
:201af10000000000c001e000000000001000722100000000000000000d805b160080088487
:201b110003ec81020000101dba95010000065eaa540010098036bd581040807c0000000231
:0d1b310000f1f00000000001e7800000005e
:201b3e00000030000000000000c000000000000300000000000004a01e38c050003000005a
:201b5e0000000000c0002000000000000000180842000000000000000388f016805001447f
:201b7e0001d0e208000008a3c15400002003ef055008080100bc28000027642000000000c5
:0d1b9e000078f0000000000026c0000000ec
:201bab000000000000072a810000000014ea0400010f005b7dc0000000014ea0400110007e
:201bcb00002a810000006075aa5400000000beb8c0000a000000000200007b280801411e2f
:201beb00055d0040000470002f45400c884316ef55002225807bbd5010c000035ea560005a
:0d1c0b002a000bba800004160296aa5400ad
:201c180000000000000002828000a000000a0810000580b3bfc0008a000000a08000005035
:201c380083014220000243ec0aa00000000c36b88000000000000000050004280001800e91
:201c580031db40090000080f378801000004360a000429c000d0280400c20022d05500000a
:0d1c78003b000d03d400000844070aa190b2
:201c8500000028000000000000a00000000000028009813abdc08a0000000000002808708a
:201ca5000133d400a001638caa1402800980ba9090a00b4000000280080a3afc400a0020c5
:201cc5006378a400280201c73a9500a009e79caa5482900800f2a9502b0c1e02cef5482905
:0d1ce5003838e7eac400a002000d8a500064
:201cf2000000200000000000008003400000000200078ff43fc008000000000000200090ac
:201d12000003d40080000404b5b0120005003c3880000000000002000710b6bc0008003c13
:201d320024c8d9002001010d4154208006c00d055002080500b4154008000003c0a001229a
:0d1d52008509fd71c400800bc3af05500072
:201d5f000000000200000000000002000000000040051816fdc0004020000000000000fcd4
:201d7f000363dc080043402eeff00001019abeb8c000004000000001801877381080007e02
:201d9f0001da9102001281973bd5810001c606ef540023501b3bbd500000a061dea540024f
:0d1dbf0080d9b029540008000354d330002f
:201dcc0000000000d00000000000005000000000000580367fc00000440000000000007821
:201dec00ff83fc000000624e9b700000000e37f88000008000000000200bbc3a8240020676
:201e0c000170e308000c14ff4280000401e0370a020010290fdc2802200004027055018196
:0d1e2c0010f0f302a8000023c7cdfcc01089
:201e39000000000000000000000000000000000000099cf6fdc000000000000000000079b8
:201e59008d70cc000003e637ef7020000599ba9090d00c00000000282001b3948000001e7f
:201e7900384d3320000039953a952000020316a0020000280072a958004006276af54080d0
:0d1e99008099cf2bc000000153deef000048
:201ea60000000000000000000000000000000000028f1e737fc000000000000000000008b3
:201ec600033b3080000040050ff280000f0e3c388000000000000000570872e9440006240f
:201ee6003dfacc00000008ebc154000ac0439690831c025100dc154000a00023f0a0000028
:0d1f060008110b003c40002007ed00f10425
:201f13000000000000000000000000000000000000070153bdc001008000000000000a80cb
:201f3300c87154000040070d8ff00000070037fdc00000000000001008097b38c080001609
:201f530000dd8110002850efb604000049c021ab152000170a36bd5040420003fea5408089
:0d1f73002c701de295040061e22e933000f9
:201f800000000000000000000008000000000000000f8c523fc00000000000000000391004
:201fa0000302a8000001c38fdfd00000000092bf480000000000002807181430c00002008c
:201fc0002949e200000200053fe80000b42004072080201580d8280060a22c3cd0550002ba
:0d1fe0001a38eb4154020003e385bcc00039
:201fed000000000080000000000008000000000000081c5ea81000000000000000000030e2
:20200d0081e9dc0800020280ee4420000f1dfba8580000000000000000193afc40000004d5
:20202d00724ba1000000000fba9500000003beaa561000001e7aa950402c2007faf5404172
:0d204d0000318f6bd5040001c66fa3322057
:20205a0000000000f00000000000000000000000038100042820000000000000000000792d
:20207a00dd4374000002c6fd0d800400079e13d6c0000000000000100f08b6fc0000001421
:20209a0040c9a208000000ed4154070000042d055000100b1034154820403433c0a000027f
:0d20ba008000b9828020000823ae0cc00019
:2020c70000000000800000000000080000000000000d018628000000200000000000000194
:2020e700ebf778000000021deb04000385185abd4400000000000000079ff7381080002ee3
:202107003bdcb100022099b1fbd50004026045ef540010099907b4506000067d7ea5404182
:0d21270001f9c1f8cc000000e7bcca00803f
:202134000000000010000000000807400000000000098850140800003c00000000000051a2
:2021540003b5ec000003c757cf101001808e043d4000000100000000009bbc3a860000947b
:202174007cca710002b0308fc28020000042350a0018000108d7388220000063f0550000c6
:0d21940003710b6f30040003c4240f5000d2
:2021a100000030000000000000440000000000010009000000000c00140000000010007000
:2021c10007a15440000003e5aa0410020700de29500000000000000000007659c00001002c
:2021e1007bdea540000019d5ba95000000667eaa56001001811f0cc0200eae75eda401001f
:0d2201000078186789040011c21ca5500068
:20220e0000001000000000000042000000000001030b800000000c00020000000030000091
:20222e0000415404000002150f5000000d00b82a80400000000000000f00fa60c0000000a9
:20224e000270aa110000f081c1542000000207055004080f085233000000467ff8e60000f4
:0d226e000000f977448004000001055000d5
:20227b0000000002f1912e942000020034ec100000580077304000003e37ccff0002000129
:20229b008d3285000004000eee240000058cd3800000400000000090018c16f9400000200b
:2022bb00054cf500028000032bd5000061e216af548000000053295020004001c896e0826f
:0d22db000118d968cc000000e3e6cf000038
:2022e80000000005b8c5f794e40001403ce8100800290e72a04020001c674afb08010100ed
:202308000d3e9c000019425c9f010020000b33c04000800000000000000cd6f98000000c32
:202328002020f5110002000d8280e0000024360a0010005100f415400005c00000961201e2
:0d2348000008c3ab30040000222d00f0009f
:202355000000280000e0020508a0000004ea04028100015328100a44007c4ef730280080c9
:202375000f373c00a000e22dcff002800800b23c08000240000002800780db80d28a0000d6
:2023950001ea0002280079a0000000a004001caa540280200103b4520a400101c896d08096
:0d23b5000091af68cc04a810c017e96024a7
:2023c2001000200001f3010a00800000000a080210800c002820082c00666aff0020001021
:2023e200bf70fc008001643c0f5002000d003403c0000080000002230000f814c0180000a1
:202402002ff02000200001000000008008001d05500210100eb33880082000000096000007
:0d24220018b90337300180002382096000e3
:20242f000000000071f333dc401001e034fc100000019c77304000003e024e00020010f88d
:20244f00176a95000000060f8a162002001a12795000004000000002000a373fc002000007
:20246f007ceec74a010081973bd500120602c4ef540002c818f32950008c00654896d0801b
:0d248f0000380b7bc000c000c03fc332000e
:20249c000000000008e1a7fc000003603ce8108000001073e04200002c0340201100001028
:2024bc00ff82a8000003402c07a000000f00b612801000000000000305009b7ec000001465
:2024dc002360cf08000811ed428001040042f50a0104032100bc15404040002020960900df
:0d24fc00005003403c20c0e0001cecc080fc
:2025090000000000700d6200000001c797e85010000000d3a14010000c715a1210041299c0
:20252900b5f30d0000200634ea7400000d807700000000000000000003195af8c0000020d3
:2025490020de50100280818f2a95200002065caa560000498072bd54000006054896e880a2
:0d2569002871e32204020002070eb33000c7
:20257600000000000009fc00000000001fa810000000003ba04000000040de00010400919a
:20259600a3e788000008100eca10800181007801404000000000000000885fb88000002ccd
:2025b6004010500001001009c154400482c3a7055084006100bc2802100000202096000000
:0d25d6000550076b440004a1402e8cc0008e
:2025e3000000000018c1738c8c00020034fc10000000007730400000062bf8305200005848
:20260300cd378d400003407ca33000038001dfa950000000000000100d8fb7909090001cc9
:202623002afaa301040001c56bd5000400000fef54043885985b295000410001e896c08042
:0d2643000139e779540000000604e330205f
:2026500000000000000d030c020006403ca81000000f007260420000000150b101000000ec
:20267000a7e10c440004c22c8cc000430908f02a8010008000000068058fd4388200403cb0
:20269000424903000400000d8280a40801c0360a00003a801014154a000080000096000089
:0d26b000037900c15400000004250cc00097
:2026bd000000028018186280000002001de85008000f8093a140000000395a002803807158
:2026dd00b5ef890000c2e3fefa740000090077ac10420e000000000007895ab8c8000006a3
:2026fd0076faa52000003807aa9500000007beaa56040018007ebd54400000016896e081fa
:0d271d0080900de4cc0000014027e3302047
:20272a0000000100008f4140000001c01fa8100000270033a04000000040de801143800139
:20274a0083b7c0000002c20c9a1010000b40127c4000000000000000009f5e7880000200db
:20276a0077fdda080000080d41542004000015055208022508b828000000000000960042d0
:0d278a00809801bb3020000023d70cc00058
:2027970000000000000ffa800000006334ec101000010c77704000402604ce5500000078bd
:2027b7009d7f8d84000a600fdc140000039cffa950000c000000000005809620000001008d
:2027d700056af52300048191fbd50004066641ed151011818bfb2950408166016896c080bb
:0d27f70005f8116284000005c73c833428fa
:202804000000000000898000000003c03cc81000000d0073a04010001e3830550000000188
:2028240087b50c000004401edc701000098f182a80100000000000038080f3280000013cc9
:202844003c40fe000000b08d428024020bc235ce22000b80087c15400006040020961100ae
:0d2864000270e97244040000c2f50cc000cf
:2028710000001000800d660002c0004795e850034387009ba1400000000258fe0200323069
:202891001d60cc0000e060378a540012899d5abc0400014000000008080ebec1424c001ead
:2028b1007218c7220000181daa9500000a7056aa56000015093e3d5000002061e896d08018
:0d28d1003080e7795402000047000000004d
:2028de000000300030d77c00004000041da810814000803ba04010003c02d0fb0000059004
:2028fe00ad6bfc00000002460aa0002b8908f403c0000080000000100119ba01000c0002ce
:20291e006550cb0100000083c154a00084423705500800a018b4280a4000040020960000ee
:0d293e000071f04154000003e400000000af
:20294b000000000000072a81000400002cfa5000005800d7704000011e005e00200000784c
:20296b00ad3a9500025562e5f330000001819f10980020800000000000007225b00000005f
:20298b00034ea058000000eda8cc020082038ee5518050070082f45001808001c896c080fa
:0d29ab0005000f7a950200000000000000fa
:2029b8000000000000000282400003400cfe5000002900936040200014214c203000000150
:2029d8000f415480040002afacc00000090fb7048200414000000000000000258080021489
:2029f80002d890880100000f2b30000023c001055000421080d338842041000000961c00b5
:0d2a180000700901540400c000000000001f
:202a250000002800000000000000020007c8502282818092c00000845c28cb020028005004
:202a45000db8cc0010080005e96022828f801638d2200000000002a800007225b00a01404b
:202a65000000000028000091e3c000a002003eef548280050076a9500a000001c896c0290a
:0d2a850000000d3bd500a002000000000085
:202a92000000200000000000000000c01d08101200008b13e900204082004e0030200008ee
:202ab200bff7fc00101003820960020007805220c0400000000002118000002580080a807f
:202ad2000000000020005183403c028203c3360a000200000a14154018004000009619224c
:0d2af2008000f78280008800400000000096
:202aff000000000000000000000003e034fc100000098c77a0448000143bf9dd000000807f
:202b1f00bd22950008000016e96020000018b3b8900000000000030000195225b0000060e5
:202b3f00000000000000f809bbd520200c061daa540010080a3e4cc4008000654896c08005
:0d2b5f000039b3795400c0000681f9600010
:202b6c000000000050000000000000402ce8101000059010284000060043eabb000000107a
:202b8c0083c2a82000014003096000000500567c00000000000003000008082580000004dc
:202bac00000000000000980bc28064000c000705520000010ad3b3000000002020960140ae
:0d2bcc0000b0d0c15402c0c2c24cd690006f
:202bd90000000000000000000000000025c8500800000093300000008626eaff02000071cc
:202bf90097860580002142adcf0000000f005af8900000000000000021815225b000000c75
:202c19000000000000020180000000000a067caf540000081c76a95a000c06054896c880af
:0d2c39000219d3abc020020060378334289d
:202c46000000000000000000000000000da810000000007734020001366250df000000092b
:202c6600f9af9c000000069e00f01000010037fc04400000000000404008082580000002b7
:202c860000000000000090a00000000005c3770a00040001103c15404000002020960000f9
:0d2ca600040185003c000428002c0cc00037
:202cb3000000000400000000000001e034ec100000018137b040000000797af70200005106
:202cd300e1f3300000c06074cf0000000980b6f8900000000000000000007a25b0000080e4
:202cf300000000000204780ffbd50100000017aa570011078086f45402000001e896c04064
:0d2d13000179ed339c0400020015d330005f
:202d20000000000000000000000003402ca8101000010d13a04040003c41e0ff01000008b6
:202d40008b2ffc00000002b400f00008018053fc04000000000000000000002580000a7c10
:202d6000000000000100000b828000008003ed055080280008d33888100001000096200274
:0d2d80003a0807a280000002c3f6fcc00064
:202d8d000000000000000000000007c02dc850000009019330000000160040e70301029872
:202dad0003e3c000000346a7ec00200001880000000000000000000000005a25b01000aeee
:202dcd00041ca000000001e83f1401000260219e240000018086b150000040016896e880f5
:0d2ded000080edebd5030401e21cc5500091
:202dfa000000000090000000000009e28da8100000078873340200003c0000e7000001306d
:202e1a00a3c03c00000162ce00300000009800000000000000000000070000258000002e26
:202e3a003dc050004000018d2b280002034035cd101000050037f2803000800000960000af
:0d2e5a0020f10782804002000201055000b7
:202e670000000000800000000004006335cc1000000f8080605000e10402dccc0000007095
:202e8700b028cc0800006045cfd020002019bebc000000000000002009885a25b000000088
:202ea70002eea000000070182789000400627e9e500000a199ffbd50500026016896c08076
:0d2ec7000498edfa95020000e75ca33008c6
:202ed4000000000010000000000002602cf81008000700b390a20000800369ff0000000851
:202ef400d040cc000000225d0ff010005f187003c000000000000000011008258040002488
:202f140038c000000000008b6744230280161fc6408002d00ad4280000000400209620005d
:0d2f34000011ff8154220000274edcc00078
:202f41000000300000000000000001e7bdc85003035b8092b0040040003ccaf5010100011e
:202f6100f5bbd4800000600000000000038e72bcc08000000000031008187a25b014010056
:202f810002dca5000000809df2958000816727af54005009811b3c0000002061e896c0c1c6
:0d2fa10000b987be88040000078000000012
:202fae0000001000000000000000c0240da8120100258d77340000a01c2800f50000800091
:202fce0091014000000262800000000010897c33c00000000000012001000825800c0080ca
:202fee003fc05500000011dbc15400000007b50a0210028588dc03c00000040020960040ee
:0d300e008031ff77c8000022440000000060
:20301b000000000000072a8101000002148a040000050032abc00000267948a060010000b4
:20303b00a53295000203468fca540000500a337fc00000000000000000005225900000003e
:20305b00034eff0000008007025b00001402afdcc40013070fdb3c0200204001c896e000db
:0d307b002900d56754000001e00edd500073
:20308800000000000000028200000004010a090000100e002bc00000040070fa0000810094
:2030a8000f02a80000a063860aa00400000a96ccc400000000000000000000258300404cb4
:2030c80003f050100000100022580000000716b3320000090d9803c000408000009624001e
:0d30e8000000d73b40000000023dce00007c
:2030f500000028010000000000a00000000000028000015628408a001c05ccf5402800805d
:20311500003f8900a00203969ff00290000087954000000000000280000000000000014453
:2031350003dce50028000007225b00a40040000000028298003729000a804001c896c02899
:0d315500001015324408a0020015e91020fa
:203162000000200200000000008000000000000200090ff0388048003e2460502920001036
:20318200033344208001441d9fb002280500d42a80000000000002000000000000000002b1
:2031a200006e98002000000002580082002000000002020b0a52398008408000009620a0a9
:0d31c2000008d5038c008000c31f0e3000f4
:2031cf000000000080000000000002000000000000019e92b00800201603dca540400081ba
:2031ef009532950000106040ee442028059af31dc280000000000100080e00000000000032
:20320f0006eec50230020195225b0240020755bf7000000001932440900000654896c090b5
:0d322f0000500b791c0840000384cd5000b6
:20323c0000000008b0000000000000400000000000298856f94000400231605500003010d2
:20325c008382a800000822950d810000000e7c3b80000000000003000110000000000000ff
:20327c003340c60030040080825800c001436deff00000050cf434c0000000202096281014
:0d329c0000700f4204004000003dde000005
:2032a900000000001800000000001400000000000001805ba818200c3e06d83300002c0195
:2032c9008377dc000040e606e5500000081980598000000000000000000000000000000034
:2032e9002acc800000001815225b000000e6400000000070189b2c40000006054896e00027
:0d330900088001fb54000000001de91020a9
:203316000000000008000000000008000000000000000000282000001c3b7eff00000070fb
:203336000ffffc000000000105510000050a5366400000000000000000000000000000000e
:2033560001ec0000800000808258010000268000000000200b721c404000002020961100c9
:0d337600003007f740000000020e0d30008f
:20338300000000000000000000000000000000000009003be008004056077ecf02000058ba
:2033a300087ac50800a00005cf54000051983a9dc08001400000000000000000000000268c
:2033c300660c800280040007a25b02000000258b520010699883954000000001e896c000c2
:0d33e30000b9c96b04080801c757ed502060
:2033f00000000000000000000000000000000000000980fa400000009429c0ff000000f08e
:20341000f101c8200063401f05000401a000d43b840000800000000000000000000000261d
:2034300065d0400000000000025800080002cee91000001390f02a801000000000960100f8
:0d3450000071e98398000400079f0d000043
:20345d000000000000000000000000000000000000001cd73d4a60001401d8c0000002d0f6
:20347d00a3e95400000342cfcff00000010a16154000000000000000000000000000000600
:20349d00024ea50000000005a25b0400016200000000000009fa0cc0000000016896c142e0
:0d34bd00100001b00d080003e027cc102026
:2034ca0000000000000000000000000000000000000110f03fc050000001cc0300000c5066
:2034ea0090415400000262758ed0800000100815400040000000000009000000000000042c
:20350a003bc05500000000000258000000c000000000000f18f673000000000000960040d1
:0d352a0038000fc14c010003c2370e6000d5
:2035370000000000800000000000000000000000000f9f1036c08000266d78fe020000189d
:20355700aba0cc0800004665ea0600480000968cc080000000000000100000000000000ed2
:203577006c00000000009885a25b0008004014ef010011580082b150500c26016896c10034
:0d35970000f01000000004006237e034a0d6
:2035a400000000001000000000000000000000000007880036c05000142140ff008000002e
:2035c40081c330000000663f0fa010510f0ffc330000000000000000000000000000003c35
:2035e400600000000002b100825800000003df0f5000280b00b632800000040020960080c4
:0d36040028d88000000008004006053000b6
:20361100000010000000000000c800c00000000300038013290080001600000000000200a7
:203631001d6a81020000026daf540000211e5aa954000080000003000000000000000126bd
:20365100741c0f0800008187a25b0400154004e0510000038e06f45000002061e896c10084
:0d367100007880000000000047c00000004d
:20367e00000030000000000000c400200000000300008e58280200003c000000000004b015
:20369e00f5c3e8001008060d0a0000008000782a800000400000010000000000000000a6ae
:2036be006c100f21000010008258000000203e00f00000031cd7788200000400209630002e
:0d36de000001f00000000002674000000045
:2036eb000000000000e522810000000020aa040010079a33a81820000003dba0504000b9de
:20370b00812b8d040402c6dcd0050800400a1759000000000000000000001825a000014004
:20372b00054afd0000000007225b0000c1602ecf500000080ede754800400001c896c00030
:0d374b0000f80fe214002a000780000000c3
:203758000000000000004282030000000c05080808009a90002010000037589080c0001890
:2037780003e20c0100c04207e8000800001cbbf680000000000000000100022588110080b8
:203798002b5ffc00013900900258101000029e0f010000090e53b40000a0000000960444fb
:0d37b80000180d7ba8000400024000000076
:2037c500000028000000000000a40000000000028005000000000a402c03c8f52028b078eb
:2037e500072a9520a001605caa54028007807f22408000000000001005003a25a00a003ebd
:2038050002da0a42a8000007225b00a000005c8f50028003808378800a004001c896d02952
:0d3825000879a56fc400a002070000000094
:203832000000200000000000008000000000000200000f00000008202e00f0a00021800836
:203852000102a800800003d40aa082000d00f431c000000000000028008908258808001cac
:2038720000f0180120000000025800800003850ff082000080177440080a80000096202077
:0d389200020105a144008003c400000000f5
:20389f000000000080000000000002000000000003000e5ea80000000000f8f510000099da
:2038bf00e7729500000347a08a000000181c0280d4a000000000000000003a25a000003628
:2038df006a0cf70010000195225b000012e73dea540000001e5e3c00000600654896c8b04c
:0d38ff000001c13304084000020000000079
:20390c000000000110000000000000400000000000101008280040000001c050000008f8a9
:20392c00ff8154200001401d05000003a50c0000c020000000000000000008258800001cbf
:20394c002dcefb00100800808258001003600f05520c000010903e840000002020960010c6
:0d396c0002700d039800c000040000000070
:203979000000000000000000000000000000000000080182a80000001e38def53000280179
:203999009802958400e06007ee76b0100f80fe3fc80000000000000120007a25a0000000fc
:2039b90039def50000000005225b000001c277ae500000098a3e9540000006654896c080f9
:0d39d9000111d93fd4000000000d885000fe
:2039e60000000000000000000000000000000000000d0e54140040000063e0ff00000000bc
:203a0600870168400000000e0850040a81001af7c000000000000000000000258200000003
:203a26000000f500400000008258000000020ea980000003000415400000002020960940bd
:0d3a46000209f96e0400000b401ecd500077
:203a53000000000000000000000000000000000000070016abc040002005fea00100008047
:203a7300ed30000100094285e400000208015a795042000000000000050a3225a000000cdf
:203a93000400000004000007a25b000403e015ce5000000f0d330cc080008001e896e14032
:0d3ab30000300bf11c08080140668c10204b
:203ac00000000000000000000000000000000000000080082bc000003c3820a000000071ce
:203ae0000b42800200e4c20c900000000b0897c04400000000000040090008258000000011
:203b0000200000000400000002580002236034a4020000058dd83302400300000096000050
:0d3b20000008e5420400040023470e600089
:203b2d00000000400000000000010000000000000400008039c400101e021ea000485a988e
:203b4d008ff4000011040616ae34385401995e280800020000000004000a3225a0001406ed
:203b6d00001c0b0000400007a25900010047a0cf51000408185fa950001000016896e1005b
:0d3b8d004011e5791528010000268034a0c4
:203b9a00000000000000000000000040000000000010405276c010000401d050000001714c
:203bba00ab3c0424100800010e309048100f00280000000000000000100a00258010002473
:203bda0000cf0700000000000258000002400c0fa20c028d00941540000000000096000082
:0d3bfa0000010fc12800000000150530007b
:203c070000000002000000000000000000000000008000963fc000003e261ea0010000184b
:203c2700d06ac50c0000665f8a54000050001f81400000400000000000003225a000000662
:203c470023cca0000201980000000000006257ea541c10000087b4522000a6016896c143ba
:0d3c67008110f0000000000a0000000000c5
:203c740000000000000000000000000000000000000100902bc80000063cc0500000000159
:203c94008d41c800000006ae05500800600ed4000000008000000000000000258000000002
:203cb40078e00020010210000000000000223f055080000000f73880000104002096004382
:0d3cd40082008000000000e5c0000000003c
:203ce100000030007800000000c001e00000000300078000000004a01e760ca0004000705c
:203d01000daa95020060407ccf540000030cbb2952c000000000004005001a258004800e7a
:203d21000348a000000098000000000001e23f8f540000031d97a9500000200168964000eb
:0d3d41000081c00000000000000000000034
:203d4e00000030000000000000c00020000000030000000000000c00167dc050000000f89b
:203d6e009182a8010001622f05001000008bb81640000080000000400000082580140002b6
:203d8e000050000800001000000000000003bf0a0204000098b42a802000040020961800f3
:0d3dae000270000000000000000000000096
:203dbb000000010080e873940000000014ea040801070e832bc000000060eea009000000f3
:203ddb00abfffce00400064fc8000000000053295800000000000000038efaa91a500000af
:203dfb0060000000010000a7f3dc000a02000db8060000000100000000002065c096c0015d
:0d3e1b0005000736800000000000000000d8
:203e2800000000007105336800000000030a08140000803017c40000003bc00008001001a1
:203e480009b7f46400014225d00000000f0e94154000060000000000191bd21026104a0068
:203e68002c000000028000e3a7fc000003c00787000000000c0000000000042008961006d1
:0d3e88000200032f9c00000000000000005d
:203e950000002800780faa9400a000000000000280080abe014000012e006a0d020038d03d
:203eb50003e28080a002e01fcfd02280079e9e7dc000000000000280038e0000000a000089
:203ed50063c9054000000003794000a002473ddf500000401a7a15400a000100c896c08079
:0d3ef5000400033b040800004380000000af
:203f020018002000900d42800080000000000002000d10582940008e9600100d000000184f
:203f2200f0028000800242e70ff002000d19dbbfc000000000000200009b0000000800003c
:203f420003dc0600000050ed8168008800e43cdfe1000020000c1540080000002c960000a1
:0d3f620000000f436400002020000000005c
:203f6f000000000081812a80000a000000000000006001ffbf808000202148f20a00058053
:203f8f00a963e800000002418e440003080033bd50000000000000102800161544000020f7
:203faf002bfdf7200008f81d2bd4000014070000000000051cb60cc281000001e896c08097
:0d3fcf0020000000000000040700000000ba
:203fdc0000000000d0008280000400020000000000500dd43d401000bc4250f000000011e0
:203ffc000781684400000664fd8000000100fc140000008000000000510000154200803c95
:20401c0001fcff00000a90a76bc80000180200000000000000d43300010000000996000053
:0d403c0000f000000000000800000000007f
:2040490000000000901963440800000000000000002808f3a900000020726ca5000100008f
:20406900073b44080002025d8a040000019997e9400000000000000007080000000000064b
:2040890000e9054000000007fbd4000003e2c000000000500a00000000202064e896e00111
:0d40a9000001e00000000000001cbf5000fe
:2040b6000000000018db0284000000000000000000470077d40000001c41400a00008000b8
:2040d60005414800000046270fa01000050a127940400000000000000000000000000000f6
:2040f600025c09014000000d43fc001000430000000000200a000000004004202996000214
:0d41160080f1000000000000025f84200026
:2041230000000000900f721408004000000000000007019abfd0c000206cef800100000022
:2041430011aa8084000006d4d5801000000f5ea000800000000000010040163d48000026cf
:204163006dcc1000043819d338080800e003b7be060008030e3f4cc0000026016896e000bc
:0d418300007805aa800000000017803020a1
:2041900000000000580f4108000000000000000000008edc3dc02000042bce0000000000db
:2041b000fd00000000000287b0000002800c0820000000000000000000000c3d4000001664
:2041d000275c00000404b8c040082000000405a2001000001edb7300200034300c96000017
:0d41f0000070000280050000001f05300077
:2041fd000000004070f1728400010000000000002fb801360000201a14016c800000400071
:20421d00a033000c0101663f8250202c080036bd50400000000000040000160140001034b3
:20423d006768014180401801e7dc000b020395af010404050e00000000102001e896c101d3
:0d425d004000000000000100000000000013
:20426a000000000009bf7280000000000000000010770e9a200000000029ff0000000030d3
:20428a0090430000000002340da00010030eb8280000000000000000000e0c0140000026dc
:2042aa0060da0700400000097bfc000403c03700f00000009f000000000034300f9600005d
:0d42ca0000000000000000000000000000e7
:2042d700000000009811ebfd480000004000000000059a0000000000342c6ce702000071e9
:2042f700c83a800400400237ad142000001df3295000000000000080200000000000400658
:2043170000ed4248c102180d2b2c000017e706ef5000100b8e76a040400e00056996e0005c
:0d4337000080d00000000014c20000000053
:2043440000000000108703ecc200000380000000000d0d00000000001635d0e30000281836
:2043640001014000000004350420040000183c2a8040000000000000400000000000a83c34
:20438400024de201400100f7773c00000a44020f5000080780b6b88000000d2c2c960000d5
:0d43a40000f0f00000000009e4000000003f
:2043b10000000000108de2bc02c001e000000000000001360000000c1e017c800080081018
:2043d100c7e280000014e6bcaa0400000b805f28180000000000010000000703c000000644
:2043f10006c92541c000f195391c0c0000067eea540000001873bc00400006056996c100bc
:0d441100000000000000000000000000009e
:20441e0000000000000b016880c000200000000000090a9ba00200000001ff0008000058fa
:20443e00008280040008202f0fa000010b80bc3d40000140000003000f000403c800000269
:20445e00267c19000000d9ab00140000e003c7055010000010b403c000000c2c2f96000058
:0d447e000000000000000000000000000031
:20448b00000000000003e2810000000021ca060008001c7a6c0000000001ea200004001988
:2044ab0097a60080000202deaf540000000a3e295000000000000000010e13c000000000ac
:2044cb003d4f2568800080033a8d0100000035aa040000000000000000002065c896c00067
:0d44eb0000000000000000000000000000c4
:2044f80000000000000082828400000034050800102010b7680020000001ef000084005890
:20451800e1e800000002427e05000000070b3c2a80000000000000000099b3c206400000a7
:20453800255a260040007001300c41000000340f51000000000000000100042008960440f5
:0d4558000000000000000000000000000056
:20456500000028007800000000a0000000000002801000f348000a4020047aa04028101811
:2045850007628080a20062979ff002818008d27fc0000000000002800100d301500a0016a0
:2045a50028f8f50028008001bb8900a400c015aa56028000000000000a2d0605c896e00079
:0d45c5008000000000000000000000000069
:2045d20000002000000000000080000000000002002f005380040820243030a088211850c4
:2045f2009002800084036414cfe00200001adf7f84000000000002000d80302bc0480014e5
:204612004020f500200070a72a04018800238d0550020380000000000840c0200c960001f0
:0d463200000000000000000000000000007b
:20463f000000008000000000000000000000000000819806a800000020020ca00000000046
:20465f00172a95800a060396eff0200008187abd4000000000000000019807bc1000012e0b
:20467f00667c0502302800a778000000026616ea000300000057140800002005e896c0007a
:0d469f00000000000000000000000000000e
:2046ac0000000000000000000000040000000000000090301404000024004050000000005e
:2046cc00c3c15400040046850f7000100100083d40000000000000000000043c0000003e94
:2046ec00356002003000d107001400000040020a001128000e7c000000002c3009960000f1
:0d470c0000000000000000000000000000a0
:2047190000000000000000000000000200000000400800f32b4090000029cd000002001838
:2047390001bfdc00000062b4eff020000181d62810000140000000000818d3a818000a160b
:204759003b5a204a000000a1ebd400000207758a540000018000000000a00060e896c001c5
:0d4779000000000000000000000000000033
:2047860000000000000000000000000000000000400100741680000000416f4008000000d0
:2047a60001f3fc240003c0270fb00003800e9c3d40000080000000000100183d4400000072
:2047c6000070340002800007c3fc000003c7af055008002000000000000000002996000230
:0d47e6008000000000000000000000000046
:2047f300000000000000000000000000000000008808003ba81240000603ea20000000804e
:2048130011ba000c000000358f7020000f00022bc04000000000000385003e9410000000b4
:204833002e4f25400000d00779f8080a01e027ef560000000072a800000006054996c00018
:0d4853000000000000000000000000000058
:204860000000000000000000000000000000000030090b002820400e1c02ef002000003001
:20488000a1000000000002b60ff0000181001417c2000000000000000508303d4000001c7b
:2048a00034fa19080000380d02f000040000240a00000000090c28000000002c0c960044f1
:0d48c00000000000000000000000000000eb
:2048cd000000000000e00000000008e000000000010581f32bc000006020f8a00100005035
:2048ed00e323d48400016041bb140000000bf6bd500000000000000003887b14000000268e
:20490d0022e80200000000000000000400021f8a5488000008f3a050c0202000c996c100e8
:0d492d00020000000000000000000000007b
:20493a000000000001000000000014200000000001108877d782000c9c3820a0000010000f
:20495a0001c3fc0000000224f720000000199028000000000000000000c030294000000412
:20497a0022fd4200000000000000000c00443d055000002010b411c00140043028960000f2
:0d499a00050000000000000000000000000b
:2049a7000000000000000000000000000000000000030106a0000000062a1ca000000079e1
:2049c700b023004c040006f5ea540010038802500400800000000000078097dd10400000b8
:2049e70004000000000051cb3d480000020021fd148000011f00000000000e014996c00089
:0d4a070000000000000000000000000000a2
:204a1400000000000000000000000000000000002005883390000000004050500100001021
:204a340080430004000002af0aa0000280801760000040000000000009801fed00202000b2
:204a5400200000000080d80d2400000403c3e5ce208000000a00000000000c0029960100a6
:0d4a74000000000000000000000000000035
:204a8100000030007800000000c001e00000000100080052a9008c015c05f8a000800000c2
:204aa100016e000000020024cff000000000038040a0000000000000011d96a810000000d2
:204ac10000cc0000001880006bd4000a0260400000000001007e9540000000056996c0006e
:0d4ae10002000000000000000000000000c6
:204aee00000030000800000000c0002000000001000b009414000400822800a00000080086
:204b0e00f93400000001c25f0f500000000b340080000000000000000018bc028050000074
:204b2e0003600a200038900743e8000400420000000000000000154800000c2c2f9601003f
:0d4b4e000500000000000000000000000055
:204b5b000000000000056281400000033fdf7000000018bb200000210039e995800001181d
:204b7b00000000000415400caf540010051800000000008000000002880ab729400000064b
:204b9b00785e8150803800e53814000004c72ffc00000007019ff454000020654896e00042
:0d4bbb0000000000000000000000000000ed
:204bc8000000000000008282000000442deff0000001083b800010008042c856020000b013
:204be800000000000008201e05000020058e0000000000000000000009109c1540000000a5
:204c080000df7d01c00000af8140000008040f8e4000000088dbe8020000043008960400f3
:0d4c2800000000000000000000000000007f
:204c3500000028007000000000000200158f702293580013281010002060c995802d08d0e6
:204c550005ea8100a000001daa0402800800d6ff80000000000002800100faa8800a00a036
:204c75006d78d161280071c0000000a0020017aa040680001c3b01400a4006044896c00137
:0d4c95000200a00000000000000000000070
:204ca200000020003800000000000043de0ff002082f0004282000001c424a56012080f066
:204cc200a08282048000028e0fa00a0181005b7fc000000000000203858ff73c400800644d
:204ce2002069a000e01830a00000008001c00e0fa0020000003c2800082100202c96200032
:0d4d0200050100000000000000000000009e
:204d0f000000000000100000000000c6548f72a080001e1780080000140368b788028080bc
:204d2f00a92c808000126000c0f01000071b923fc080000000000000001ef23fc0000c14fb
:204d4f002b6a4700000010a164040000c002d6c5500300000196389880002001e896c00059
:0d4d6f000000000000000000000000000037
:204d7c000000000000c0000000000343950ff0000007107c1400000000294f12000100b09b
:204d9c00093400000000400100f194000f4f743ec0000000000000000000fc2800000016ea
:204dbc0042ca42000000f9f3f56c000000060005500300000fd4204000020c000d960100e9
:0d4ddc0000000000000000000000000000ca
:204de90000000004000000000000020004ff7000100780133e0020002401e99580000859a5
:204e0900c133d44110154617ea0000000d0013a9500000000000004020003bb15880016076
:204e29006618a000000001c1611de50a02476de3312000210c13294000404001c896c000ea
:0d4e49008001c36a804000000000000000ee
:204e56000000000200000000000002c034aff000080080bebc0840001c00ca5610013800d6
:204e76000103fc0010e86005000000008380942a8200000000000040000008314240048cf1
:204e9600625050000000010be828000400660d0cc004004089d815400000000029960041a1
:0d4eb600000100428000000000000000002c
:204ec3000000000000000000000009c00ddf700003870d07880080402e36e9958000000062
:204ee30001aa000000c0629ebff00028000057d29060000000000000011f9f000000016034
:204f03003bfce0420000f181e61400000066fdaf0410000108bb280000014674c996c000dd
:0d4f23000079833a800000000000000000cb
:204f30000000000000000000000013400c9ff00000008bd4040800201c3ce8561000003012
:204f50000d200000000000169ef00001800052010200000000000000008cf0140000868400
:204f700000c02000000058056354000003c3aedd101803079dbc0280000000202c960000ed
:0d4f90000079008280000000000000000099
:204f9d000000000000000000000001e38000000000401c5f88000045203fc9958002300099
:204fbd0003e0000004000057ff700000001877bd50000a00000000000719163e8040002627
:204fdd00015cf0000000800ff304080400c2d5e33010000d8fdb014000002e64e996c00092
:0d4ffd0000000000000000c00000000000e7
:20500a00000000000000000000000007c0000000000f1c36400040a6947e4a560000000086
:20502a00f5f900800a000205aff000020000d8140000000000000000000d003e8000002c63
:20504a003ee0fa000010b0d90398000a03c7b7ecc00002050ff414000000063428960000ad
:0d506a000000000000000000000000000039
:20507700000000000000000000002940000000001021809340004000167ac99580800000fe
:205097001f2c8020000042bcca541000001d77bd5040000000000000030b9f16000000003e
:2050b7006b78c14200000181611c08000203d68a540800001cbe389080000038e996c00092
:0d50d700008009b3d420000000000000009c
:2050e4000000000000000000000015c000000000285000fb500000000002e85600000030a4
:20510400f9b400000000626d0aa00000001dfc280000000000000000008cf3400000000065
:2051240000f001000000100dc108000002c7ff055010000000d42040100100000996200063
:0d51440000b00d828000000000000000009f
:205151000000100000000000000002400000000100038d7f880040803e0149958014027869
:2051710007ae0000000002ddaf5400004981f22810400100000000000388b38910800a6091
:2051910001ccaf0000027187e8058800000687cd500000581bbee8d0400e0071e996c00082
:0d51b10004000000000000000000000000ed
:2051be000000100000000000000001e00000000100001c364000000024034a5600142d083d
:2051de0005600080000002bf050000002b08bc3e80000000000000000088bc06401001843a
:2051fe002020af2000050803c29c00000003c4dd010000210f96c0c0000a8c402d96000090
:0d521e000200000000001000000000000071
:20522b000000002001e722812004006604df70001000007e080000001e02e895a000000008
:20524b0017e3c1c00002003782349400081c77a002000000000000002000000000000000e8
:20526b007000000002808003e954000010000ee55000000000728cd0000020654896c0002d
:0d528b000000100000000000000000000006
:2052980000000000000042828000a0240c9ff000081d0f52c000200000006e560400000025
:2052b800b7803c000000400c883008000b007bc00040000000000000550000000000001c60
:2052d800300000000018b0008154000000024105500000000f7ab30400000430089604003b
:0d52f8000000f000000000000000000000b9
:20530500000028080000000000a003c017ca040280070177a81000042421c9b780a800382e
:2053250007ea8080a002e63cef5402a8081b1f280000000000000280000a0000000a0000c6
:20534500284ef50000850003fccc80a000623e83342293858e1e95400a0d46044896c02834
:0d536500000000000000a00000000000009b
:2053720000002000000000000080c3e3c20a098200000e04282000060e434b120020000848
:2053920000028000800847be05000200050a0428000000000000020000100000000800147c
:2053b20068e0a0000112b0f57330008000041d0cc00228001a081540088080202c9601207f
:0d53d200000000000000800000000000004e
:2053df000000000000000000000003e02c80120000018a37280010000079c89580100000ad
:2053ff00083280800000060ff80000000718da4600000000000000038d090000000001402e
:20541f002549254002803800000000c40606278f000100019c768cd090008001e896c0108b
:0d543f000000a000000000000000000000c0
:20544c000000000000000000000805601da000000000000028000000243b6e5601100000ba
:20546c000541400000000437a0000000070037d900000000000000000b0900000000008014
:20548c0066fb191000009800000000ca01431d00f001000510d43300000024000d960110ce
:0d54ac0000010000000000000000000000f2
:2054b90000000000000000000000020215f00004001100d24000002d0039c9b780001238f3
:2054d90007ea808000026027cfd0a0000918d7991a80000000000000080897790000802609
:2054f9007a78a000000481f92d1c000000032facc524000701f7a94000020060e896c000eb
:0d5519000001c00000000002600000000062
:2055260000000000000000000000c1c7e48800000020801f90004000007ac812000000008e
:20554600f0828000000260250ff0000003805c2902300000000000000900b6ba00000c14fa
:2055660002e00000000211eb2d08000000078d03300000000e101544000000002996010012
:0d5586000051000000000040c000000000c7
:20559300000000000000000000000060368012000001807e08000000002b48958000000140
:2055b300e86a800400020680da34000000187abfc00000800000000000081fbd40000004b3
:2055d30006eed1020000800f3ccc0000000055e33000018000863d40400a0625c996c000da
:0d55f30000000000000000000000000000ab
:205600000000000000000000000000c01fa0000000000012c00000000001ce56010200f120
:20562000054140000000c01d8530080000001abf40000040000000000009bc280000000004
:2056400022d0a0000000b00d6330000000029fbcc000000000743e80000000200c96200037
:0d566000000000000000000000000000003d
:20566d0000000000000000000000000015f00000000f00dac04010801e21c9b7a00104003b
:20568d00036a800404000657ef5400000001863d4000000000000000101b56914000a0046e
:2056ad00665a5242000070bb70cc090002c00dfcc40000000000000000816001e996c00168
:0d56cd000001e00000001000001fbd16905d
:2056da000000000010000000000003c024a8001000078f178000000000404f1200028200af
:2056fa00000280000a0242ac0a0000000308943e8000000000000000000ab6e14000460086
:20571a0070c002080000908b4330000009e017b33010000000000000000084302896000240
:0d573a008001000000000000003ca5000000
:2057470000000004000000000000200024a000000005807e400000001e07c895a00000787d
:20576700000000000000668def5400000d0ab3a8100000000000000000005794108000846b
:205787000379e5000000001829540400c1c700000000000181000000000e0001e996c100af
:0d57a70000000000000000000040000000b5
:2057b4000000000270000000000003401ea40080000080d3600800003c3b4e560000000008
:2057d400000000000000000f05000000099bb83e80000000000000000000d434400000023d
:2057f400325898000000f0e302a80000002780000000000d8f00000000021c0029960000d6
:0d5814000000000000000000038000000004
:2058210000003000000000000040004015e2000300000a9ac04000001403c9b78002007987
:20584100e00000000400607d8a040000001a5ebd5000004000000000000100000000002012
:20586100635ea500018000e9aa940008074200000000008380000000000c003968f04002e6
:0d58810000000dae05000401c00000000095
:20588e000000100000000000004000001c900081000f001f80001000003e4c1210002801ea
:2058ae00d00000000000022f0fa000080d19b42800000000000000000008000000000a1cf2
:2058ce0041f05500038000df82a8000400670000000000000000000000000c26e00f00001c
:0d58ee0000000bea2c200a00200000000042
:2058fb00000000000003e281210000069edf700010000053a81a0000000168b788000080c6
:20591b000732814000000014896e8000001bfb284000000000000008051f161548000020aa
:20593b00055f2540020219b36ccc000001404dc5500000080000000000014004000000008b
:0d595b001800072a81400000e00000000055
:20596800000000000000028280040007dceff0800180000c2820000000014f120401381051
:2059880000c28220000403c009602020050a1bb8c000000000000010009800154000000488
:2059a800287f19000100088b2330800000c3c3055000000500000000000080200000000038
:0d59c800000000028204000000000000004a
:2059d500000028005800000000a003e7808a060280000000000000001e0269b7902800b866
:2059f500e1029400a000005c896c0280458173b15080000000000290070a5a01921a081428
:205a15003e6ef5002a868000000000ac02004f85500280499c0000000a0280700000002843
:0d5a3500000000000000a0020000000000c2
:205a42000000200008000000008003e03d05080202850000000000002c01cc12002001f8c2
:205a62000503fc009000038009600200050c0431424000000000022009907700c0080000e0
:205a82003ae0a0002106700000000084a14340055002008190000000080074000000002007
:0d5aa2000200000000008001c000000000b4
:205aaf000000000000000000000000000d92020000000000000000016e03c995a0000000c6
:205acf0009e3dc0a40020654896c000005803b008000000000000020018033c0100000165a
:205aef0002cef56000008091695400402003b7e3302100000e000000000054206e85403071
:0d5b0f000080000000000000000000000009
:205b1c000000000000000000000000000dd0000000000e00000000002e014856000000d0e1
:205b3c000743fc004003c20209600000000037c00020000000000010000092a0002000001a
:205b5c002ef0a0000000d1a04154004000039f0cc003300510000000000002426b8a0932fb
:0d5b7c0080b00000000000000000000000ec
:205b89000000000000000000000000002ed000100000000000000000040269b7a0000038f0
:205ba9000902940000026014896c0000080052280000000000000000099856bd400000005c
:205bc90003ecf50004051805315400000340558cc420282f9c000000000020006a05080398
:0d5be9000400007a8180000207b7800208e6
:205bf60000000000000000000000000026e4000000000000000000002c3b481200000008bc
:205c1600030000000001c002096000000500042800000000000000000180003d4200060008
:205c360002c0a000040050f08154040003c23703310000458000000000000402c0500001c3
:0d5c56001200054142600000440e0a009457
:205c63000000000200000000000000600792000000000000000000000e7369b7a000008164
:205c830081f280000000001e896c00000b0c96a00080000000000000018016bd500000800a
:205ca3003fdca5000000b817b8cc080014c624a334000010001ba81040000073daf56040ec
:0d5cc30005000000000000000005ab14a06b
:205cd0000000000000000000000000400dd0001000000000000000000240cf12000000f173
:205cf0000082800000000000096000000900780000000000000000038000f8280800013cc0
:205d100030f05500000078e9833080001003ed8cc010002f0004282420000042e0a000802d
:0d5d3000020000000000000000000b101039
:205d3d000000000038000000000001e03fd0100000200000000000003e0068b7a000007081
:205d5d00086a800000080016896c00205380863f40a00000000000000708f6514000001ed5
:205d7d00740000000000800df08508040a060fe33004000000de0cc040001c040000000143
:0d5d9d002800000000000000c00000000011
:205daa0000000000000000000000042225c0000000000000000000001420cf1200000000b9
:205dca000301400000100000096080002080143f80000000000000000019b3a14000001448
:205dea007c0000000000500702dc040014438ffcc0000000005ab3000000803c0000000277
:0d5e0a0080000000000000002000000000eb
:205e17000000000000000000000000e01d9200100000000000000041263ec9958000000049
:205e37001572800000006016896c0000019c7b3bc080000000000000059e9b804080801434
:205e5700047ca7000008b9c52bc0000014020da3300000080e1b8cc080000000fef00000b2
:0d5e77002880e00000000000000000000096
:205e84000000000000000000000001c20dd0000000000a00000000809e3ee85601000000b9
:205ea400d0028000000000000962000000100c3bc2000000000000000f09fc29c000000209
:205ec400224aff080000f10f803c00000802c6dcc00000071f18330000009c32400f100085
:0d5ee4000091000000000000000000000020
:205ef1000000300078000000004002402ec0020100100000000000002021c99580100038ff
:205f110008328000c003c00689640000070097a800000000000000000808df0050800156e4
:205f3100264cf50002803817791c040a006716e964210100007325808000000000000030c1
:0d5f5100007980000000000000000000004a
:205f5e000000300008000000004000e02694000100200000000000002c014a56001000080b
:205f7e0003014000c00040020962000000891000000000000000000007103c29c0000080fd
:205f9e003650a00001049881250800040002c109600300000008258000003c000000003026
:0d5fbe0004090000000000000000000000c9
:205fcb000000000001a522810100000020aa05800000001f281c00000002e99590000001a9
:205feb00a1a281800000001fc5000000000ab38000000000000000100f003aa8020000002e
:20600b007aecd50000007080000000000a031e93348000038a00000000000000000000004b
:0d602b000000000000000000000000000068
:2060380000000000010042828400000035050884018000082820400004014d56040000007c
:2060580000c282000001c000050010000d1f582800000000000000200f8a04280000000479
:2060780038ded000001809900000000010442facc000000d10000000000000200000000045
:0d60980000000000000000000000000000fb
:2060a500000028000000000000a000000000000280001c00000000001c72e9b7802800801f
:2060c500e0000000a0014295ea000000150a00000000000000000280001c9bbd58000020ec
:2060e5007a59a200280050e5b0cc00a4000645e5520280e01e0000000a02200218a0402859
:0d610500000000000000000000000000008d
:206112000000200000000000008000000000000200000000000000000203ea12102000f0aa
:2061320000000000800002800a0000006d90000000000000000002000900d028000000043d
:2061520000ebf100200001097f300080000681055002007000000000080a6c02c050892071
:0d6172000000000000000000000000000020
:20617f000000000000000000000000004000000000000000000000002033c995800000008f
:20619f00000000004005c20dcdb62000051800000000000000000000000012bc0400001c1e
:2061bf0002dc470212800003733108400007ccc55003000000fb3c00040001017ca0603044
:0d61df000030000000000000000000000083
:2061ec00000000007000000000000003800000000180000000000000bc034d5600000000bd
:20620c0000000000c00944070d100000008b000000000000000000200f091003c000004269
:20622c003f4042001000000300cc00c000028205500300000e3403c00400000010a090903d
:0d624c000000000000000000000000000045
:206259000000000000000000000000020000000028000000000000001c66e9b78000000059
:206279000000000000006626c400000003809aa00000000000000000800900000000001e51
:20629900644af5000000f0000000000000e71ce3343000100a968cc0800000040000000088
:0d62b90008000000000000000000000000d0
:2062c6000000000000000000000000000000000000000000000000000c67681200000000cb
:2062e6000000000000002426a0000000100b12c00000000000000000001f0000000000148e
:206306003b40500000007800000000000004250cc01000000094330000001c340000000018
:0d632600000000000000000000000000006a
:20633300000000000000000000000000000000000040000000000000047148b78000000016
:20635300000000000000031d8a60200000081ebd400000000000000058000000000000166f
:2063730068ecd50200001011fccd000001474000000028080f000000000000017ca04100d0
:0d639300000013baa9000000000000000087
:2063a0000000000000000000000000000000000000200000000000000227c812004000007a
:2063c000000000000000441e05a0000007103c3fc000000000000000250000000000003e01
:2063e00043d0d000000050f7b3306000004740000000118f0a0000000000000030a090801f
:0d6400000000c582940400000000000000b0
:20640d000000000000000000000000000000000000058000000000005e014895800000002e
:20642d000000000000006236ee702000080012b8c8c000000000000007000203c8200016d5
:20644d00005af50000003c0dbbc00000000006c330000008003b0cc00000002000000000f4
:0d646d000001c00000000000000000000061
:20647a00000000009000000000000000000000000000000000000000003cea5600000000f6
:20649a00000000000800003f0d10000081009430c00000000000000000000403c00000169c
:2064ba00024050000000d801403c000000002fbcc000000500b6730240002440000000005c
:0d64da0000010000000000000000000000b4
:2064e7000000000000000000000000000000000000000000000000403c20c995800000001b
:20650700000000000002423de0f0300000000220000000000000000001800000000000143c
:20652700386cc502040019f968cc080001c6ad833420000008000000000000000000000044
:0d6547000000000000000000000000000047
:206554000000000000000000000000000000000000000000000000a02402ed56010000001d
:20657400000000000001461400b000000300d6100000000000000000000000000000000211
:206594000070c008000000cf033000000820350cc0801000000000000000000000000000f4
:0d65b400007000000000000000000000006a
:2065c100000030000000000000c000400000000340018000000000000005c9d10112800094
:2065e1000000000000024000000000000000ba3c00a00000000000000001b6e9c000000062
:20660100004d4200040001a00000000001e6cde550000021007b34500c0000000000000030
:0d6621000000000000000008000000000064
