:02000000ff00ff
:080002004c6174746963650030
:17000a00694345637562653220323031372e30382e32373934300069
:15002100506172743a2069434534304c50384b2d434d3831003f
:1b003600446174653a2053657020313620323031392031383a34353a32310073
:0200510000ffae
:040053007eaa997e6a
:02005700510056
:0200590001059f
:03005b00920020f0
:03005e00620367d3
:0300610072011019
:0300640082000017
:02006700110086
:02006900010193
:20006b00000000000000000000000000000000000000000000000000000000000000000075
:20008b00000000000000000000000000000000000000000000000000000000000000000055
:2000ab00000000000000000000000000000000000000000000000000000000000000000035
:0d00cb000000000000000000000000000028
:2000d800000000000000000000000000000000000000000000000000000000000000000008
:2000f8000000000000000000000000000000000000000000000000000000000000000000e8
:200118000000000000000000000000000000000000000000000000000000000000000000c7
:0d01380000000000000000000000000000ba
:2001450000000000000000000000000000000000100000000000000000000000000000008a
:2001650000000000000000000000000000000000000000000000000000000000000000007a
:2001850000000000000000000000000000000000000000000000000000000000000000005a
:0d01a500000000000000000000000000004d
:2001b20000000000000000000000000000000000000000000000000000000000000000002d
:2001d20000000000000000000000000000000000000000000000000000000000000000000d
:2001f2000000000000000000000000000000000000000000000000000000000000000000ed
:0d02120000000000000000000000000000df
:20021f000000000000000000000000000000000000000000000000000000000000000000bf
:20023f0000000000000000000000000000000000000000000000000000000000000000009f
:20025f0000000000000000000000000000000000000000000000000000000000000000007f
:0d027f000000000000000000000000000072
:20028c00000000000000000000000000000000000000010000000000000000000000000051
:2002ac00000000000000000000000000000000000000000000000000000000000000000032
:2002cc00000000000000000000000000000000000000000000000000000000000000000012
:0d02ec000000000000000000000000000005
:2002f900000000000000000000000000000000001000004000000000000000000000000095
:200319000000000000000000000000000000000000000000000000000000000000000000c4
:200339000000000000000000000000000000000000000000000000000000000000000000a4
:0d0359000000000000000000000000000097
:20036600000000000000000000000000000000000000000000000000000000000000000077
:20038600000000000000000000000000000000000000000000000000000000000000000057
:2003a600000000000000000000000000000000000000000000000000000000000000000037
:0d03c600000000000000000000000000002a
:2003d3000000000000000000000000000000000000000040000000000000000000000000ca
:2003f3000000000000000000000000000000000000000000000000000000000000000000ea
:200413000000000000000000000000000000000000000000000000000000000000000000c9
:0d04330000000000000000000000000000bc
:2004400000000000000000000000000000000000000000000000000000000000000000009c
:2004600000000000000000000000000000000020000000000000000000000000000000005c
:2004800000000000000000001000000000000000000000000000000000000000000000004c
:0d04a000000000000000000000000000004f
:2004ad0000000000000000000000000000000000100000000000000000000000000000001f
:2004cd0000000000000000000000000000000000000000000000000000000000000000000f
:2004ed000000000000000000000000000000000000000000000000000000000000000000ef
:0d050d0000000000000000000000000000e1
:20051a000000000000000000000000000000000000000000000000000000000000000000c1
:20053a000000000000000000000000000000000000000000000000000000000000000000a1
:20055a00000000000000000000000000000000000000000000000000000000000000000081
:0d057a000000000000000000000000000074
:20058700000000000000000000000000000000000000000000000000000000000000000054
:2005a700000000000000000000000000000000000000000000000000000000000000000034
:2005c700000000000000000000000000000000000000000000000000000000000000000014
:0d05e7000000000000000000000000000007
:2005f4000000000000000000000000000000000010000000000000000000000000000000d7
:200614000000000000000000000000000000000000000000000000000000000000000000c6
:200634000000000000000000000000000000000000000000000000000000000000000000a6
:0d0654000000000000000000000000000099
:20066100000000000000000000000000000000000000004000000000000000000000000039
:20068100000000000000000000000000000000000000000000000000000000000000000059
:2006a100000000000000000000000000000000000000000000000000000000000000000039
:0d06c100000000000000000000000000002c
:2006ce0000000000000000000000000000000000000000000000000000000000000000000c
:20154800800000000000000000000000000000000000000000000000000000000000000003
:20156800000000000000000000000000000000000000000000000000000000000000000063
:20158800000000000000000000000000000000000000000000000000000000000000000043
:0d15a8000000000000000000000000000036
:2015b500000000000000000000000000000000000000000000000000000000000000000016
:2015d5000000000000000000000000000000000000000000000000000000000000000000f6
:2015f5000000000000040000000000000000000000000000000000000000000000000000d2
:0d16150000000000000000000000000000c8
:201622008038000000000000000000000000000000000000000000000000000000000000f0
:20164200000000000000000000000000000000000000000000000000000000000000000088
:20166200000000000000000000000000000000000000000000000000000000000000000068
:0d168200000000000000000000000000005b
:20168f0000000000000000000000000000000000000000000000000000000000000000003b
:2016af0000000000000000000000000000000000000000000000000000000000000000001b
:2016cf0000000000000000000000000a0000000000000000000000000000000000000000f1
:0d16ef0000000000000000000000000000ee
:2016fc000000000000000000000000000000000000000000000000000000000000000000ce
:20171c000000000000000000000000000000000000000000000000000000000000000000ad
:20173c00000000000000000000000000a000000000000000000000000000000000000000ed
:0d175c000000000000000000000000000080
:2017690000010000000000000000000000000000000000000000000000000000000000005f
:20178900000000000000000000000000000000000000000000000000000000000000000040
:2017a900000000000000000000000000000000000000000000000000000000000000000020
:0d17c9000000000000000000000000000013
:2017d6000000000000000000000000000000000000000000000000000000000000000000f3
:2017f6000000000000000000000000000000000000000000000000000000000000000000d3
:201816000000000000000000000000000000000000000000000000000000000000000000b2
:0d18360000000000000000000000000000a5
:20184300000000000000000000000000400000000000000000000000000000000000000045
:20186300000000000000000000000000000000000002000000000000000000000000000063
:20188300000000000000000000000000000000000000000000000000000000000000000045
:0d18a3000000000000000000000000000038
:2018b000000200000000000000000003800000000000000000000000000000000000000093
:2018d0000000000000000000000000000000000000000000000000000000000000000000f8
:2018f0000000000000000000000000000000000000000000000000000000000000000000d8
:0d19100000000000000000000000000000ca
:20191d0044040000000000000000000000c0f00000000000000000000000000000000000b2
:20193d0000000000000000000000000000000000000000000000000000000000000000008a
:20195d0000000000000000000000000000000000000000000000000000000000000000006a
:0d197d00000000000000000000000000005d
:20198a000f34000000000000000000000100f1000000000000000000000000000000000008
:2019aa0000000000000000000000000000000000000000000000000000000000000000001d
:2019ca00000000000000000000000000a0000000000000000000000000000000000000005d
:0d19ea0000000000000000000000000000f0
:2019f7000000000000000000000000000000000000000000000000000000000000000000d0
:201a17000000000000000000000000000000000000000000000000000000000000000000af
:201a370000000000000000000000000000000000000000000000000000000000000000008f
:0d1a57000000000000000000000000000082
:201a64008000000000000000000000000000000000000000000000000000000000000000e2
:201a8400000000000000000000000000000000000000000000000000000000000000000042
:201aa400000000000000000000000000000000000000000000000000000000000000000022
:0d1ac4000000000000000000000000000015
:201ad10080000000000000000000000000000000000000000000000c000000000000000069
:201af1000000000000000000000000000000000000000000000000000000000000000000d5
:201b11000000000000000000000000001400000000000000000000000000000000000000a0
:0d1b310000000000000000000000000000a7
:201b3e00000000000000000000000000000000000000000000000000000000000000000087
:201b5e00000000000000000000000000000000000000000000000000000000000000000067
:201b7e00000000000000000000000000000000000000000000000000000000000000000047
:0d1b9e00000000000000000000000000003a
:201bab0000000000000000000000000000000000000000000000000000000000000000001a
:201bcb000000000000000000000000000000000000000000000000000000000000000000fa
:201beb0000000000000000083154010000000000000000000000000000000000000000004c
:0d1c0b0000000000000000000000000000cc
:201c18000000000000000000000000000000000000000000000000000000000000000000ac
:201c380000000000000000000000000000000000000000000000000000000000000000008c
:201c5800000000000000000f02a804000000000000000000000000000000000000000000af
:0d1c7800000000000000000000000000005f
:201c850000000000000000000000000000000000000000000000000000000000000000003f
:201ca50000000000000000000000000000000000000000000000000000000000000a000015
:201cc50000000000280000007bc1000000000000000000000000000000000000000000009b
:0d1ce50000000000000000000000000000f2
:201cf2000000000000000000000000000000000000000000000000000000000000000000d2
:201d12000000000000000000000000000000000000000000000000000000000000080000a9
:201d3200000000002000000043c0000000000000000000000000000000000000000000006e
:0d1d52000000000000000000000000000084
:201d5f00000000000000000000000000000000000000000000000000000000000000000064
:201d7f00000000000000000000000000000000000000000000000000000000000000000044
:201d9f00000000000000000000000000000000000000000000000000000000000000000024
:0d1dbf000000000000000000000000000017
:201dcc000000000000000000000000000000000000000000000000000000000000000000f7
:201dec000000000000000000000000000000000000000000000000000000000000000004d3
:201e0c000000000000000000000000000000000000000000000000000000000000000000b6
:0d1e2c0000000000000000000000000000a9
:201e3900000000000000000000000000000000000000000000000000000000000000000089
:201e5900000000000000000000000000000000000000000000000000000000000000000069
:201e79000000a5400000000000000000000000000000000000000000000000000000000064
:0d1e9900000000000000000000000000003c
:201ea60000000000000000000000000000000000000000000000000000000000000000001c
:201ec6000000000000000000000000000000000000000000000000000000000000000000fc
:201ee60001405a010000000000000000000000000000000000000000000000000000000040
:0d1f060000000000000000000000000000ce
:201f13000000000000000000000000000000000000000000000000000000000000000000ae
:201f330000000000000000000000000000000000000000000000000000000000000000008e
:201f5300000000000000180000000000000000000000000000000000000000000000000056
:0d1f73000000000000000000000000000061
:201f8000000000000000000000000000000000000000000000000000000000000000000041
:201fa000000000000000000000000000000000000000000000000000000000000000000021
:201fc000000000000000000000000000000000000000000000000000000000000000000001
:0d1fe00000000000000000000000000000f4
:201fed000000000000000000000000000000000000000000000000000000000000000000d4
:20200d000000000000000000000000000000000000000000000000000000000000000000b3
:20202d0000000000000500000000000000000000000000000000000000000000000000008e
:0d204d000000000000000000000000000086
:20205a00000000000000000000000000000000000000000000000000000000000000000066
:20207a00000000000000000000000000000000000000000000000000000000000000000046
:20209a00000000000000000000000000000000000000000000000000000000000000000026
:0d20ba000000000000000000000000000019
:2020c7000000000000000000000000000000000000000000000000000000000000000000f9
:2020e7000000000000000000000000000000000000000000000000000000000000000000d9
:202107000000000000000000000000000000000000000000000000000000000000000000b8
:0d21270000000000000000000000000000ab
:2021340000000000000000000000000000000000000000000000000000000000000000008b
:2021540000000000000000000000000000000000000000000000000000000000000000006b
:2021740000000000000000000000000000000000000000000000000000000000000000004b
:0d219400000000000000000000000000003e
:2021a10000000000000000000000000000000000000000000000000000000000000000001e
:2021c1000000000000000000000000000000000000000000000000000000000000000000fe
:2021e10000000000000001c00000000000000000000000000000000000000000000000001d
:0d22010000000000000000000000000000d0
:20220e000000000000000000000000000000000000000000000000000000000000000000b0
:20222e00000000000000000000000000000000000000000000000000000000000000000090
:20224e0000000000000001000000000000000000000000000000000000000000000000006f
:0d226e000000000000000000000000000063
:20227b00000000000000000000000000000000000000000000000000000000000000000043
:20229b00000000000000000000000000000000000000000000000000000000000000000023
:2022bb0000000000000001800000000000000689680000000000000000000002e1848000a4
:0d22db0000000000000000000000000000f6
:2022e8000000000000000000000000000000000000000000000000000000000000000000d6
:202308000000000000000000000000000000000000000000000000000000000000000000b5
:20232800000000000000d0000000000000000009602000000000000000000003491200409e
:0d2348000000000000000000000000000088
:20235500000000000000000000000000000000000000000000000000000000000000000068
:20237500000000000000000000000000000000000000000000000000000000000000000048
:202395000000000028000000000000aa03601c896c000000000000000a00003bc884d184fc
:0d23b500000000000000000000000000001b
:2023c2000000000000000000000000000000000000000000000000000000000000000000fb
:2023e2000000000000000000000000000000000000000000000000000000000000000000db
:2024020000000000200000000000008000c000096000000000000000080000664012a10090
:0d24220000000000000000000000000000ad
:20242f0000000000000000000000000000000000000000000000000000000000000000008d
:20244f0000000000000000000000000000000000000000000000000000000000000000006d
:20246f00000000000000500377bc00c0000654896c0000000000000000000003c8848000e9
:0d248f000000000000000000000000000040
:20249c00000000000000000000000000000000000000000000000000000000000000000020
:2024bc00000000000000000000000000000000000000000000000000000000000000000000
:2024dc000000000000005007b7fc00c0000202096000000000000000000000036012000034
:0d24fc0000000000000000000000000000d3
:202509000000000000000000000000000000000000000000000000000000000000000000b2
:20252900000000000000000000000000000000000000000000000000000000000000000092
:2025490000000000000070b96bdc0800006054896c0000000000000000001e3ac88480002d
:0d2569000000000000000000000000000065
:20257600000000000000000000000000000000000000000000000000000000000000000045
:20259600000000000000000000000000000000000000000000000000000000000000000025
:2025b600000000000000018d43fc0000000202096000000000000000000002424012000035
:0d25d60000000000000000000000000000f8
:2025e3000000000000000000000000000000000000000000000000000000000000000000d8
:202603000000000000000000000000000000000000000000000000000000000000000000b7
:2026230000000000080081b72bcc090000001e896c0000000000000000000022c884800056
:0d264300000000000000000000000000008a
:2026500000000000000000000000000000000000000000000000000000000000000000006a
:2026700000000000000000000000000000000000000000000000000000000000000000004a
:2026900000000000000050a583c00000000000096000000000000000000034436012004060
:0d26b000000000000000000000000000001d
:2026bd000000000000000000000000000000000000000000000000000000000000000000fd
:2026dd000000000000000000000000000000000000000000000000000000000000000000dd
:2026fd0000000000000019bdb1010800000016896c0000000000000000000401c0008000dd
:0d271d0000000000000000000000000000af
:20272a0000000000000000000000000000000000000000000000000000000000000000008f
:20274a0000000000000000000000000000000000000000000000000000000000000000006f
:20276a0000000000000000a301600000000000096000000000000000000c020020000000b4
:0d278a000000000000000000000000000042
:20279700000000000000000000000000000000000000000000000000000000000000000022
:2027b700000000000000000000000000000000000000000000000000000000000000000002
:2027d700000000000000501bfbf40000006716896c00000000000000000006380000800058
:0d27f70000000000000000000000000000d5
:202804000000000000000000000000000000000000000000000000000000000000000000b4
:20282400000000000000000000000000000000000000000000000000000000000000000094
:2028440000000000000000c7f7fc00000004020960000000000000000000002c0f00000010
:0d2864000000000000000000000000000067
:20287100000000000000000000000000000000000000000000000000000000000000000047
:20289100000000000000000000000000000000000000000000000000000000000000000027
:2028b1000000000000005987aa95044002061e896c0000000000000004000001c000800044
:0d28d10000000000000000000000000000fa
:2028de000000000000000000000000000000000000000000000000000000000000000000da
:2028fe000000000000000000000000000000000000000000000000000000000000000000ba
:20291e0000000000000000afa6c404400040020960000000000000000c4000002000000025
:0d293e00000000000000000000000000008c
:20294b0000000000000000000000000000000000000000000000000000000000000000006c
:20296b0000000000000000000000000000000000000000000000000000000000000000004c
:20298b00021e55000000000bbbdc000000001c896c00000018fa3ed020000001c884c04077
:0d29ab00000000000000000000000000001f
:2029b8000000000000000000000000000000000000000000000000000000000000000000ff
:2029d8000000000000000000000000000000000000000000000000000000000000000000df
:2029f8002f50aa010000000f2bfc0000000380096040000010b73d6200000002c012944025
:0d2a180000000000000000000000000000b1
:202a2500000000000000000000000000000000000000000000000000000000000000000091
:202a450000000000000000000000000000000000000000000000028000000000000a0000e5
:202a65000000000000008000000000a000001c896c0280001e8020400a000000e000800036
:0d2a85000000000000000000000000000044
:202a9200000000000000000000000000000000000000000000000000000000000000000024
:202ab2000000000000000000000000000000000000000000000002000000000000080000fa
:202ad20000000000000090000000008000000009600200001073d08008000000200000006e
:0d2af20000000000000000200000000000b7
:202aff000000000000000000000000000000000000000000000000000000000000000000b7
:202b1f00000000000000000000000000000000000000000000000000000000000000000096
:202b3f0001efe0400000180000000040000654896c00000181d639d0c0000000010080001d
:0d2b5f000000000000000060000000000009
:202b6c00000000000000000000000000000000000000000000000000000000000000000049
:202b8c000000000000000000000000000000000000000000000000000d000000000000001c
:202bac00027bf10140000800000000400002020960000000893c3be2000000000d000000b6
:0d2bcc0000000000000000000000000000fc
:202bd9000000000000000000000000000000000000000000000000000000000000000000dc
:202bf9000000000000000000000000000000000000000000000000000000000000000000bc
:202c19002368f0200000000000000000006654896c0000000053280020000000e000800056
:0d2c3900000000000000000000000000008e
:202c460000000000000000000000000000000000000000000000000000000000000000006e
:202c660000000000000000000000000000000000000000000000000000000000000000004e
:202c860043f0ff000000000000000000000202096000000000f0000000000000200000007f
:0d2ca6000000000000000000000000000021
:202cb300000000000000000000000000000000000000000000000000000000000000000001
:202cd300000000000000000000000000000000000000000000000000081a000000000000bf
:202cf30000000000000001b00000000000001e896c00000800000000000000000100800074
:0d2d130000000000000000000000000000b3
:202d2000000000000000000000000000000000000000000000000000000000000000000093
:202d400000000000000000000000000000000000000000000000000005000000000000006e
:202d600000000000000000a000000000000000096000000100000000000000380d00000004
:0d2d80000000000000000000000000000046
:202d8d00000000000000000000000000000000000000000000000000010000000000000025
:202dad00000000000000000000000000000000000000000000000000000100000000000005
:202dcd00000000000000580000000000000016896c0000000000000000000004e00080001f
:0d2ded0000000000000000000000000000d9
:202dfa000000000000000000000000000000000000000000000000000000000000000000b9
:202e1a00000000000000000000000000000000000000000000000000000800000000000090
:202e3a00000000000000000000000000000000096000000b0c000000000024302000000084
:0d2e5a000004000000000000000000000067
:202e670000000000000000000000000000000000000000000000000000000000000000004b
:202e8700000000000000000000000000000000000000000000000000000053409000000008
:202ea7000600a5400000800000000000426016896c0000038103bbc041002000010080000f
:0d2ec70000000000000000000000000000fe
:202ed4000000000000000000000000000000000000000000000000000000000000000000de
:202ef4000000000000000000000000000000000000000000000000000000376840000000df
:202f140023405a00000050000000000000400209600000000857b7c8010004000d000000f5
:0d2f34000000000000000000000000000090
:202f4100000000000000000000000000000000000000000000000000000000000000000070
:202f6100000000000000000000000000000000000000000000000000100000000000000040
:202f810004000000000081a367dc00c002e01689640300070072bfc40c000000e0008000b5
:0d2fa1000000000000000000000000000023
:202fae00000000000000000000000000000000000000000000000000000000000000000003
:202fce000000000000000000000000000000000000000000000000002000000000000000c3
:202fee00200000000000500bbbfc00c0006002096003000900f017c004000000200000000f
:0d300e0000000000000000000000000000b5
:20301b00000000000000000000000000000000000000000000000000000000000000000095
:20303b0000000000000000000000000000000000000000000000000000005a25a000000056
:20305b0003daf7000000000000000000000304c5500800000000000000000003c884d080be
:0d307b000000000000000000000eeff20851
:20308800000000000000000000000000000000000000000000000000000000000000000028
:2030a8000000000000000000000000000000000000000000000000000000082580800000db
:2030c80003daff0000000000000000000006c205501000100000000000000003c0128c402e
:0d30e8000000000000000000000f05f004d3
:2030f5000000000000000000000000000000000000000000000000000000000000000000bb
:2031150000000000000000000000000000000000000000000000028000007225b0000016bb
:20313500017af7022800f000000000a000001da244228000000000000a00000140008000de
:0d31550080000000000000000000000000ed
:2031620000000000000000000000000000000000000000000000000000000000000000004d
:20318200000000000000000000000000000000000000000000000200000000258000000086
:2031a2002ce0ff002000f00000000080c00015014002000000000000080000002000000131
:0d31c2000000000000000000000000000000
:2031cf000000000000000000000000000000000040000000000000000000000000000000a0
:2031ef0000000000000000000000000000000000000000000000010000195225b000001669
:20320f006feaff02000000000000000000000000000000000000000000000038000080008d
:0d322f000000000000000000000000000092
:20323c00000000000000000000000000000000004000000000000000000000000000000032
:20325c0000000000000000000000000000000000000000000000030000180825800000008a
:20327c002a70df00000000000000000003400000000000000b000000000000000b00000060
:0d329c00000000000000080000000000001d
:2032a900000000000000000000000000000000000000000000000000000000000000000005
:2032c90000000000000000000000000000000000000000000000000001807225b000000617
:2032e9006c000000000000a00000000000069c8ff0000000000000000000000140008000d7
:0d33090000000000000000080000000000af
:20331600000000000000000000000000000000000000000000000000000000000000000097
:20333600000000000000000000000000000000000000000000000000000a082580000000c0
:2033560028000000000001000000000000003d05f0000000000000000000000020000000dc
:0d337600000000000000001000000000003a
:2033830000000000000000000000000000000000000000000000000000000000000000002a
:2033a30000000000000000000000000000000000000000000000000000007a25b0000014a7
:2033c30000000000010000000000000001e000000000000000d74cc450000000000080024f
:0d33e300800000000000000000000000005d
:2033f0000000000000000000000000000000000000000000000000000000000000000000bd
:203410000000000000000000000000000000000000000000000000000000002580000002f5
:203430002c0000000080000000000000000000000000000000bf3300000000000b000000d3
:0d3450000000000000000007400000000028
:20345d0000000000000000000000000000000000000000000000000000000000000000004f
:20347d0000000000000000000000000000000000000000000000000000005a25b000000000
:20349d0002cbf700000000000000000000000000000000081800000000000001400080006a
:0d34bd000000000000000200078000000079
:2034ca000000000000000000000000000000000000000000000000000000000000000000e2
:2034ea0000000000000000000000000000000000000000000000000000000025800000001d
:20350a00007eff00000000000000000000000000000000070f0000000000000020000000ee
:0d352a000000000000000000000000000094
:20353700000000000000000000000000000000000000000000000000000000000000000074
:2035570000000000000000000000000000000000000000000000000001987a25b00040002c
:203577000000000000000009ff810000006000000000002000000000000c2000000080007f
:0d359700380400000000004000400000006b
:2035a400000000000000000000000000000000000000000000000000000000000000000007
:2035c400000000000000000000000000000000000000000000000000000008258000a03466
:2035e400000000000000000d63c4a000000380000000005040000000000004000b000000d1
:0d3604000000000000000000038000000036
:20361100000000000000000000000000000000000000000000000000000000000000000099
:2036310000000000000000000000000000000000000000000000030009197a25b000000005
:203651002c00000004000019ebc00100000000000000200000073c100c001c714000800098
:0d367100000000000000000000000000004c
:20367e0000000000000000000000000000000000000000000000000000000000000000002c
:20369e0000000000000000000000000000000000000000000000030001080825800000341f
:2036be00640000000400008143fc0400000000000000000000003c000c0002002000000056
:0d36de0000000000000000000000000000df
:2036eb000000000000000000000000000000000000000000000000000000000000000000bf
:20370b0000000000000000000000000000000000000000000000000000007225b000000057
:20372b0068000000000000000000000001400489680000000000000000000001c884d000c3
:0d374b00008005f3d5200000038000000081
:20375800000000000000000000000000000000000000000000000000000000000000000051
:2037780000000000000000000000000000000000000000000000000000000025810000008b
:203798002c000000000000b0000000000003800960200080000000000000003a4012940089
:0d37b80000140f23dcc50000040000000019
:2037c5000000000000000000000000000000000000000000000000000000000000000000e4
:2037e50000000000000000000000000000000000000000000000028000007225b00a0216d9
:2038050004000000000000a0000000a000001c896c028050003795400a000001c0008028fd
:0d3825000000073a8000000007800000004e
:20383200000000000000000000000000000000000000000000000000000000000000000076
:20385200000000000000000000000000000000000000000000000200000000258008003473
:203872002800000000000100000000800000000960020020000c1540080000000000002079
:0d3892000000004280010000040000000062
:20389f000000000000000000001000000000000000000000000000000000000000000000f9
:2038bf0000000000000000000000000000000000000200000000030000195225b0000000a4
:2038df00000000000002018000000040000654896c00000000073c10000080000000800064
:0d38ff000001800000000400000000000037
:20390c0000000000000000000000000000000000000000000000000000000000000000009b
:20392c000000000000000000000000000000000000000000000003000008082580000000c3
:20394c00000000000005010000000040000202096000000000003c00000100000e0000005d
:0d396c00000000000000000000000000004e
:2039790000000000000000000000000000000000000000000000000000000000000000002e
:2039990000000000000000000000000000000000000000000000002001995225b00100002c
:2039b90060000000000000000000000001c054896c0040000000000000000001c000800003
:0d39d90005000572950000080000000000c8
:2039e6000000000000000000000000000000000000000000000000000000000000000000c1
:203a06000000000000000000000000000000000000000000000000100008082580010000da
:203a2600000000000000000000000000000202096000000000000000000000000000000013
:0d3a460010b00bc154800010000000000003
:203a5300000000000000000000000000000000000000000000000000000000000000000053
:203a730000000000000000000000000000000000000000000000000000007a25b0000014d0
:203a930000000000003858a00000000000001e896c000000010000000080000000008004cb
:0d3ab3000078eb7bd50400000005ca001070
:203ac0000000000000000000000000000000000000000000000000000000000000000000e6
:203ae000000000000000000000000000000000000000000000000020000000258000000001
:203b0000000000000030000000000000000000096000000008000000000000000e000004f2
:0d3b200000000b028000000000020a0000ff
:203b2d00000000000000000000000000000000000000000000000000000000000000000078
:203b4d0000000000000000000000000000000000000000000000000408005a25b0001020ed
:203b6d0001e8a0400040000fa3dc000100001e896c0004070000000000114001c0008002ee
:0d3b8d004038000000000001c000000000f2
:203b9a0000000000000000000000000000000000000000000000000000000000000000000b
:203bba0000000000000000000000000000000000000000000000000007000025800000241b
:203bda0000d0f50040000007f7fc0000000000096000000080000000000080000000000162
:0d3bfa000008d000000000082000000000be
:203c070000000000000000000000000000000000000000000000000000000000000000009d
:203c2700000000000000000000000000000000000000000000000000099c5a25b0000000a9
:203c47000259f700000001a7e3dc0800006016896c0010000000000000003c000000800065
:0d3c67000870c000000000000007cf5008ea
:203c7400000000000000000000000000000000000000000000000000000000000000000030
:203c9400000000000000000000000000000000000000000000000000011008258000000052
:203cb40000e9ff000000000fc3fc0000000002096000200000000000000004000e0000009d
:0d3cd400000100000000000000020f500081
:203ce1000000000000000000000000000000000000000000000000000000000000000000c3
:203d010000000000000000000000000000000000000000000000030008005a259000000682
:203d21000178a0410000d0b7abdc084002661e896c0000000e37aa806c001c01c00080001f
:0d3d410000800000000010000000000000e5
:203d4e00000000000000000000000000000000000000000000000000000000000000000055
:203d6e00000000000000000000000000000000000000000000000100010008258000000086
:203d8e0000e0f520000050a343fc00c00040020960000000100c2a800c00020000000000af
:0d3dae0000100000000010000000000000e8
:203dbb000000000000000000000000000000000000000000000000000000000000000000e8
:203ddb0000000000000003c000000000000000000000000000000000000002bc180000002f
:203dfb0005400080000081853281800000001c896c0000000118402000000003c884c040d1
:0d3e1b000078f00000000000000000000032
:203e280000000000000000000000000000000000000000000000000000000000000000007a
:203e480000000000000006c0000000000000000000000000000000000000043c0000000054
:203e6800282900000000300543d4000000000009604000000e0ac000000000034012840043
:0d3e88000008e00000000000000000000045
:203e950000000000000000000000000000000000000000000000000000000000000000000d
:203eb50000000000a000001c8a06000000000000000000000000028005807e79580000004b
:203ed5007c6996902800018130cc83a000001c896c0008000a5265a02a000001c0008028ec
:0d3ef50030018f728102a001403cca040c14
:203f020000000000000000000000000000000000000000000000000000000000000000009f
:203f220000000000800000250f5000000000000000000000000002000089d61480000e0078
:203f420068299600200001093f30008000000009608010000003a5800804000020000021b1
:0d3f620000000d03d4408000203d0f5000f2
:203f6f00000000000000000000000000000000000000000000000000000000000000000032
:203f8f00000000000000000000000000000000000000000000000000090102aa80000000dc
:203faf000549968000009007e3d400400007d4896c000085011a25a000000000000080004b
:0d3fcf000081813a14000002c000000000d3
:203fdc000000000000000000000000000000000000000000000000000000000000000000c5
:203ffc00000000000000000000000000000000000000000000000000010f501540100000e0
:20401c00282a96000000f800c3d400c000060209600000000f0ba582000000000f0000008c
:0d403c0000500dff54200002400000000065
:20404900000000000000000000000000000000004000000000000000000000000000000017
:2040690000000000000000000000000000000000000000000000000000180000000000140b
:2040890069689680000218010295000800665c896c0010000b5a25a000000071c0008000d4
:0d40a90005000d3295000000000000000031
:2040b6000000000000000000000000000000000000000000000000000000000000000000ea
:2040d600000000000000000000000000000000000000000000000000000000000000ae001c
:2040f600002b96000004080002940004000202096000080f0f0ae5804000000020000000e1
:0d41160000009b815400000000000000002c
:2041230000000000000000000000000000000000000000000000000000000000000000007c
:2041430000000000000000000000000000000000000000000000000000000000000000005c
:2041630001489680010080f00000000020001e896c000100001a25a80000000000008000d1
:0d418300008000000000000000400000006f
:2041900000000000000000000000000000000000000000000000000000000000000000000f
:2041b0000000000000000000000000000000000000000000000000000000000000000000ef
:2041d000002f96000080f1a0000000000000000960000020000be580000000000f000000f1
:0d41f000007000000000000003c00000008f
:2041fd000000000000000000000000000000000000000000000000000000000000000000a2
:20421d00000000000100000000000004000000000000000000000004000000000000100068
:20423d00004896800040000000000001001016896c000400005a65a040100001c0008000b3
:0d425d004080800000000100000000000013
:20426a00000000000000000000000000000000000000000000000000000000000000000034
:20428a00000000000000000000000000000000000000000000000000000000000000002ce8
:2042aa00002e9620000000000000000000c0000960000000000ae580000404002000000050
:0d42ca000071000000000000000000000076
:2042d7000000000000000000000000000000000000000000000000000000000000000000c7
:2042f700000000000000600000000040000000000000000000000001801a02954000002075
:20431700714996808000801000000010026616896c0050071e1a25a00000203800008000f7
:0d4337000018c72a80000040621587400072
:20434400000000000000000000000000000000000000000000000000000000000000000059
:204364000000000000000000000000000000000000000000000000000000502a8000003c03
:20438400402c9600000050f0000000000440020960000800800a6588000004000f00000096
:0d43a40000b1800280200000043caa00103f
:2043b1000000000000000000000000000000000000000000000000000000000000000000ec
:2043d1000000000000000000000000000000000000000000000000000301dba810010160d3
:2043f100004996800100801db3dc00c00200168964000000005a65a00ca00001c00080000f
:0d4411000200093195040000104000000079
:20441e0000000000000000000000000000000000000000000000000000000000000000007e
:20443e00000000000000000000000000000000000000000000000000000efc3d400100bc1a
:20445e00002e9600428050a77bfc00400040020960000203000aa5880442000020000000bd
:0d447e00340009a1a80000000300000000a8
:20448b00000000000000000000000000000000000000000000000000000000000000000011
:2044ab00000000000000000000000000000000000000000000000000000000000000001ed3
:2044cb0001c99680800019a5228100000067b4ea0400000d9f5a65a000000001c884c040af
:0d44eb00007805fa10000001e0400000001c
:2044f8000000000000000000000000000000000000000000000000000000000000000000a4
:20451800000000000000000000000000000000000000000000000000000000000000000083
:20453800002f96040000000543d400000004150f510000050a0b258140000002c01284406d
:0d455800007001b91004000003c000000055
:20456500000000000000000000000000000000000000000000000000000000000000000036
:20458500000000000000000000000000000000000000000000000280000af729500000001a
:2045a50000c896802800d9b5628100a0000616ea0408000d801a25a00a000000e0008028cf
:0d45c5003800e0000000a000001c8a540037
:2045d2000000000000000000000000000000000000000000000000000000000000000000c9
:2045f2000000000000000000000000000000000000000000000002000000901548000000ba
:20461200002d9610200050a103e801800000050fa00001850e0b6580480000002000002078
:0d4632000001000000008000003505500070
:20463f0000000000000000000000000000000000000000000000000000000000000000005b
:20465f00000000000000000000000000000000000000000000000000001e77a814000000ea
:20467f0079c896804010d005e281800003e075ea04001020005a25a00000000001008001a5
:0d469f00000183b281000000000000000057
:2046ac000000000000000000000000000000000000000000000000000000000000000000ee
:2046cc000000000000000000000000000000000000000000000000000010dc3d4000004025
:2046ec00402b96000000100503d400000042160f50102840000a2580000000000d000002d4
:0d470c0080000b43e8040000038000000063
:20471900000000000000000000000000000000000000000000000000000000000000000080
:20473900000000000000000000000000000000000000000000000000000000000000a001bf
:2047590000c896800018800562810012024075c910000000001a25a000000000e000800001
:0d47790000019fa9d10000340700000000de
:20478600000000000000000000000000000000000000000000000000000000000000000013
:2047a6000000000000000000000000000000000000000000000000000000000000004000b3
:2047c600002e96000000f00b43e8401000422d9d300000000e0a258000000000200000047c
:0d47e6001000c9e38820000002c0000000a0
:2047f3000000000000000000000000000000000000000000000000000000000000000000a6
:20481300000000000000000000000000000000000000000000000000000000000000000085
:204833007dc8968000005187e2810204000037ea040000001e5a25a0000080000100800264
:0d4853009000f000000000020000000000d6
:20486000000000000000000000000000000000000000000000000000000000000000000038
:20488000000000000000000000000000000000000000000000000000000000000000000018
:2048a000242e96000000d8b543d400020000150f50100000000a6580000040380d00000072
:0d48c0000001800000000041c00000000069
:2048cd000000000000000000000000000000000000000000000000000000000000000000cb
:2048ed000000000000000000000000000000000000000000000000000000000000000000ab
:20490d0000c896800000198d3281440c1067b7ea04101000001a25a040000004e000800143
:0d492d000071e00000000a000037df1000fc
:20493a0000000000000000000000000000000000000000000000000000000000000000005d
:20495a000000000000000000000000000000000000000000000000000f000000000000002e
:20497a00002896000000000303e800060002cd0fa000080f000a65800000bc3020000002d9
:0d499a00000990000000040003b7e70000d2
:2049a7000000000000000000000000000000000000000000000000000000000000000000f0
:2049c700000000000000000000000000000000000000000000000000018100000000003618
:2049e7006dc8968000000007b28104000146f6ea04080000005a65a00000200001008000f4
:0d4a070010780872bc400400600000000040
:204a1400000000000000000000000000000000000000000000000000000000000000000082
:204a3400000000000000000000000000000000000000000000000000000800000000001446
:204a5400242f96000001000583d400000142960f50000000000a2580000004000d00000004
:0d4a740000000b417c8008000000000000e5
:204a8100000000000000000000000000000000000000000000000000000000000000000015
:204aa1000000000000000000000000000000000000000000000000000000000000010020d4
:204ac10038c996800000801d328100000e06f6ea04100000001a65a00c000000e0008000db
:0d4ae10004b8edfa81041ee2061eca0400ae
:204aee000000000000000000000000000000000000000000000000000000000000000000a8
:204b0e00000000000000000000000000000000000000000000000000000a00000001001468
:204b2e00002e96000000108b43e801001d42a40fa0000000000a2580040000002000000057
:0d4b4e0002f80383d4401a03c0060f501074
:204b5b0000000000000000000000000000000000000000000000000000000000000000003a
:204b7b00000000000000000000000000000000000000000000000000018053281800000006
:204b9b00006996800010000000000000a0e28000000000001c1265a000440003c884c000e3
:0d4bbb0000000d3a95000003400eea500086
:204bc8000000000000000000000000000000000000000000000000000000000000000000cd
:204be8000000000000000000000000000000000000000000000000000000543d40000000dc
:204c0800000b960400000000000000000000000000000000100b658100800003c0128440cd
:0d4c280000d0094154000001600705500054
:204c350000000000000000000000000000000000000000000000000000000000000000005f
:204c5500000000000000000000000000000000000000000000000280000057281400000e1c
:204c7500616996802a001015628180a000600000000008001b5265a00a00800140008028a0
:0d4c95000400afb740000000000000000068
:204ca2000000000000000000000000000000000000000000000000000000000000000000f2
:204cc2000000000000000000000000000000000000000000000002000000103e8000000200
:204ce200400b96002100f8ed43e8808043c00000000010000e0b6580080100002000002046
:0d4d020002d1d327940000c0038000000000
:204d0f00000000000000000000000000000000000000000000000000000000000000000084
:204d2f0000000000100000000000000000000000000000000000000009015728180000367d
:204d4f00046996800008119000000000000005a2000000201c1225a00000003800008000a6
:0d4d6f0000818f738c0808014000000000d7
:204d7c00000000000000000000000000000000000000000000000000000000000000000017
:204d9c000000000000000000000000000000000000000000000000000188583d4000001485
:204dbc00282a9600000050f00000000000001edb50000000100b2580000400000b00000097
:0d4ddc0000100b020c01000400000000009c
:204de9000000000000000000000000000000000000000000000000000000000000000000aa
:204e09000000000000000000000000000000000000000000000000000818ff3c1000002ef0
:204e290025689680000081856295800001e63f8f00200008005225a0000000014000800094
:0d4e490000798dabd5200040004000000036
:204e560000000000000000000000000000000000000000000000000000000000000000003c
:204e76000000000000000000000000000000000000000000000000000108dc0000400016e1
:204e9600640a9600000010078154000002601c0e20040005000be5840000000020000000c3
:0d4eb60000008d42804000000280000000de
:204ec3000000000000000000000000000000000000000000000000000000000000000000cf
:204ee300000000000000000000000001000000000000000000000001051a5f2810000000f7
:204f03000468968000020009ebd50000000025ca04000200001225a8004a000000008000a3
:0d4f23000000000000000000038db74000fa
:204f3000000000000000000000000000000000000000000000000000000000000000000061
:204f50000000000000000000000000000000000000000000000000000000543d4000000070
:204f7000240a960000040001028004000003cc0fa010000d000ba580000000000b000000fc
:0d4f900000700000000000e0033f9a0000e8
:204f9d000000000000000000000000000000000000000000000000000000000000000000f4
:204fbd000000000000000000000000000000000000000000000000000d9a7aa9504000007a
:204fdd00016896800000181be295040003603daa04000000195265a0000000014000800008
:0d4ffd00007001601420080213acec70205d
:20500a00000000000000000000000000000000000000000000000000000000000000000086
:20502a00000000000000000000000000000000000000000000000000050c70154000000090
:20504a00000b9600000000e382a800000040060fa0040000190aa580000024002000000013
:0d506a000818900014200003c43f0c101023
:20507700000000000000000000000000000000000000000000000000000000000000000019
:2050970000000000000000000000000000000000000000000000000000007b281000000046
:2050b700006896800000000d7bd500040043800000001007011265a0000020000000800068
:0d50d70000800ff694000001c204ea5000b2
:2050e4000000000000000000000000000000000000000000000000000000000000000000ac
:20510400000000000000000000000000000000000000000000000000050a583d42000000a5
:20512400000d9600000010014280000000200000000008008f0a6584000004000b0000003c
:0d5144000050ef3668000041e215055000f4
:2051510000000000000000000000000000000000000000000000000000000000000000003e
:20517100000000001000000000000000000000000000000000000000018f5aa9500000002b
:20519100016996800080801de2950000004697ea04000000005265a00c000071400080008b
:0d51b1000190edf281000000000eefa10062
:2051be000000000000000000000000000000000000000000000000000000000000000000d1
:2051de000000000010000000000000000000000000000000000000000018f8154800000034
:2051fe00000a96000100f087815404000260070f50000000000a65800400000020000000c5
:0d521e0002f90d83d421000003dc0ff20023
:20522b00000000000000000000000000000000000000000000000000000000000000000063
:20524b00000000000000000000000000000000000000000000000000001c72b45000002091
:20526b0005499680000091ad22814000024044aa04000000017a25a800000001c884c00015
:0d528b000098c7f00d410017e69dc26400b9
:205298000000000000000000000000000000000000000000000000000000000000000000f6
:2052b8000000000000000000000000000000000000000000000000000f0002344000000c45
:2052d800380e96040000700943d4000a0042050fa10000070a0be5810000003a4012844073
:0d52f80000100ba28c440069c42c825000f1
:20530500000000000000000000000000000000000000000000000000000000000000000088
:205325000000000000000000000000000000000000000000000002800f00d029500000008e
:2053450000499680280001a3fa8101a000028fca04000018001265a00a000001c000802800
:0d536500b800087b8900a001e034af5400bf
:2053720000000000000000000000000000000000000000000000000000000000000000001b
:205392000000000000000000000000000000000000000000000002000180d399800000008c
:2053b200000f96002000009343e8008000003e0fa1040005000be580080200000000002146
:0d53d20000000b2344008000002e0a0000a4
:2053df000000000000000000000000000000000000000000000000000000000000000000ae
:2053ff000000000000000000000000000000000000000000000000000980d62940000020a6
:20541f00014996800000800f72810000564640ce24040000407a65a000000000000080007a
:0d543f0000f0933354000210630ce50000f0
:20544c00000000000000000000000000000000000000000000000000000000000000000040
:20546c000000000000000000000000000000000000000000000000000100b0154010000cfe
:20548c00000f96000000109383d4040008e2549d10000000000ae580000000000e000000f5
:0d54ac000011fd7f8040040804020500008f
:2054b9000000000000000000000000000000000000000000000000000000000000000000d3
:2054d900000000000000000000000000000000000000000000000000100000000000200083
:2054f900004896800000800000000000226615ea540008258a1a65a000000001c0008001c2
:0d5519000100bf2a9c80000047cece20205c
:20552600000000000000000000000000000000000000000000000000000000000000000065
:20554600000000000000000000000000000000000000000000000000250f000000004000d1
:20556600000e9600000010000000000000401705500020501003e5800006000000000000d7
:0d5586001031c56288000068060e0000802c
:205593000000000000000000000000000000000000000000000000000000000000000000f8
:2055b300000000000000000000000000000000000000000000000000000093a95400020046
:2055d300014896800000180de2818000016696ca04000000007a65a000280000000080005f
:0d55f3000079e02bc104000047000000001b
:2056000000000000000000000000000000000000000000000000000000000000000000008a
:205620000000000000000000000000000000000000000000000000000000182a80000000a8
:20564000000f96010000000943d400000000150f52000000000aa580004000000e00000091
:0d56600000008003c0010006e20000000011
:20566d0000000000000000000000000000000000000000000000000000000000000000001d
:20568d000000000000000000000000000000000000000000000000000001d729404000007c
:2056ad0000489680028039817a940400020075af54081920001265a000000001c00080001e
:0d56cd000231c5ae14000001f277f7440071
:2056da000000000000000000000000000000000000000000000000000000000000000000b0
:2056fa000000000000000000000000000000000000000000000000000708100280000000ef
:20571a00000f9600000098012d940000e1c31c05000030000003e58800000000000000000b
:0d573a0000080befa800000003ee8e210018
:20574700000000000000000000000000000000000000000000000000000000000000000042
:20576700000000000000000000000000000000000000000000000000000076f89000002004
:2057870079489680000080ffba81000002007def550010270e7a25a000003c00000080006e
:0d57a700007ca12b04880007e017c26400fd
:2057b4000000000000000000000000000000000000000000000000000000000000000000d5
:2057d40000000000000000000000000000000000000000000000000007000378800000149f
:2057f400280996200000718383d4050002c3bd0a00000000900ba582000004000e000000fe
:0d58140000080dc398000000402e825000d7
:20582100000000000000000000000000000000000000000000000000000000000000000067
:20584100000000000000000000000000000000000001000000000000000000000000002620
:2058610064499680000070fbba8101100203f7ea54100180097a65a00c004401c0008000c9
:0d58810001798d7bd50000006016e330003a
:20588e000000000000000000000000000000000000000000000000000000000000000000fa
:2058ae000000000000000000000000000000000000010000000000000000000000000016c3
:2058ce00640e96000000098b43e8041011422705500000000b0be5820c0082000000000005
:0d58ee000000fb428000000400248cc2007a
:2058fb0000000000000000000000000000000000000000000000000000000000000000008d
:20591b0000000000000000000000000000000000000000000000000005003ba94000000e35
:20593b0063e8f0000000381d6a9400000203e4af54000328003a3c0000000003c884c00022
:0d595b0000380000000020036034cd14006f
:2059680000000000000000000000000000000000000000000000000000000000000000001f
:205988000000000000000000000000000000000000000000000000000988f01548000024fd
:2059a80003600f040000088bc154010000c36605008000110a7003c10000000340129400da
:0d59c8000008e00000000000401c8c3100d1
:2059d5000000000000000000000000000000000000000000000000000000000000000000b2
:2059f500000000000000000000000280000000000000000000000280000a97a8100a01002a
:205a150005d8a54128003807329500a000025cea048280000013bd500a000000e0008028e0
:0d5a35003800e5259500a01003ac0a5000d4
:205a4200000000000000000000000000000000000000000000000000000000000000000044
:205a620000000000000000000000020000000000000000000000020000195401404800a486
:205a820022c05500200000034154408000074d0f5006000000b0280008000000200000207c
:0d5aa20018000b7254008a20001ed6600010
:205aaf000000000000000000000000000000000000000000000000000000000000000000d7
:205acf00000000000000000000000000000000000000000000000000000096a81000000e5b
:205aef0001daa040020001877281001002071d8a540001001e36bd58400000000100800020
:0d5b0f00001995b8140102000615ae24001f
:205b1c00000000000000000000000000000000000000000000000000000000000000000069
:205b3c000000000000000000000000000000000000000000000000000000f0014000000018
:205b5c000160f500800000e983e80200004007055010002010b81400000000000d00000048
:0d5b7c002000f0c0140004004202de2000f2
:205b89000000000000000000000000000000000000000000000000000000000000000000fc
:205ba90000000000000000000000000000000000000000000000000008190000000001605a
:205bc900605c05600005000532950100024737fd500000099877294010000070e00080009b
:0d5be90005181baa81000412e0340a5400c4
:205bf60000000000000000000000000000000000000000000000000000000000000000008f
:205c16000000000000000000000000000000000000000000000000000f0d00000000008cc6
:205c360002505f00000300e1c1540000a0602dcd0010000f00fc154000000000200000001a
:0d5c560028049fc3e8840a4ae026b66000d7
:205c6300000000000000000000000000000000000000000000000000000000000000000021
:205c830000000000000000000000000000000000000000000000000001805ffdc000002044
:205ca30078000000000039a37bd5000400e3378a541050001e000000000e00000100800034
:0d5cc3000038efe3c0000000e27eef540067
:205cd0000000000000000000000000000000000000000000000000000000000000000000b4
:205cf00000000000000000000000000000000000000000000000000000009effc010000423
:205d1000000000000000099b8280000200043505500028001c000000000000000d000000ec
:0d5d30000001074140800000060e0501043f
:205d3d00000000000000000000000000000000000000000000000000000000000000000046
:205d5d0000000000000000000000000000000000000000000000000007001fbdc00001067c
:205d7d00074ea040400018100000000001e71eaa040828159cd6bd5000802004e0008000ed
:0d5d9d00007995ba81040000603c0a5400b2
:205daa000000000000000000000000000000000000000000000000000000000000000000d9
:205dca000000000000000000000000000000000000000000000000000080fb3fc01000002f
:205dea002cd0fa08000008a00000000000000d0f500800008eb8280040c41c34200000009d
:0d5e0a000000ed03d4000002438eb99000ab
:205e170000000000000000000000000000000000000000000000000000000000000000006b
:205e3700000000000000000000000000001e00000000000000000000001f00000000000608
:205e5700341fe24080001801fbd5000000625f8a54004001997f29504000200001008000fb
:0d5e7700007001328000040206a4ca500031
:205e840000000000000000000000000000000000000000000000008000000000000000007e
:205ea40000000000000000000000000000000000000020000000000007080000000001406e
:205ec4002149d100000000cb4280200000062705500000001d7c1540000004000d00000055
:0d5ee4000008800280200003c23d05500030
:205ef100000000000000000000000000000000000000000000000000000000000000000091
:205f1100000000000000000000000000081cfbbc1000000000000000271d87e110000020a9
:205f3100056ca0500000801000000000086241aa00000000015a28100c800000e00080008b
:0d5f510007581da295000015c7cfa502201e
:205f5e00000000000000000000000000000000000000000000000000000000000000000023
:205f7e000000000000000000000000000f007c000800000000000000501e969200000034a6
:205f9e003460f500000110800000000000022c050000020008bc3d4004000000200000002f
:0d5fbe0003f0cb42a8000008e33e0e2000d7
:205fcb000000000000000000000000000000000000000000000000000000000000000000b6
:205feb000000000000000000000000000000000000000000000000000000fa6560000000d7
:20600b0000000000003050076940000005e004af5400008800f7909000000001c884c000ad
:0d602b00381800000000000216618e2400ed
:20603800000000000000000000000000000000000000000000000000000000000000000048
:20605800000000000000000000000000000000000000000000000000000a33558090000086
:20607800000000000000d80fe344000082602c0500000001001a344040000102c0129500ae
:0d6098000008e000000000e443c48d10008b
:2060a5000000000000000000000000000000000000000000000000000000000000000000db
:2060c500000000000000000000000000000000000000000000000000000a1265600a002ea2
:2060e5002b7ae30028000190000000a0000040ae240280280b5ba9400a000001c000802a3a
:0d6105008001cfbbd500a20263848a000098
:2061120000000000000000000000000000000000000000000000000000000000000000006d
:206132000000000000000000000000000000000000000000000000000000dbd580080026ef
:20615200406e43082000f1d000000080000285cd1002005f0f3c1544080000002000002022
:0d6172000000090280048421e4010a00807d
:20617f00000000000000000000000000000000000000000000000000000000000000000000
:20619f000000000000000000000000000000000000000000000000000000326560004000a9
:2061bf000000000000000009aac40000e20764ef5400012801dabd50000000000000800028
:0d61df0004008333d4000a000740000000d4
:2061ec00000000000000000000000000000000000000000000000000000000000000000093
:20620c00000000000000000000000000000000000000000000000000000afb558010200068
:20622c0000000000000000ebf4c000000047ad050000015f08bc2800400000000f0000001f
:0d624c000230cd42804000400240000000c2
:20625900000000000000000000000000000000000000000000000000000000000000000025
:20627900000000000000000000000000000000000000000000000000000afa656000001e1e
:20629900780000000000809dfad4000000660000000040081b9f295800000001c000800850
:0d62b9001d80e0000000100a001f8a540044
:2062c6000000000000000000000000000000000000000000000000000000000000000000b8
:2062e6000000000000000000000000000000000000000000000000000000bbd58040000246
:20630600680000000030b1a3b644000000000000000000010c3c15400000000020000000d3
:0d632600001100000000001640260aa00033
:2063330000000000000000000000000000000000000000000000000000000000000000004a
:20635300000000000000000000000000000000000000000000000000031ff2656040000011
:2063730000000000000001e1380c0800c0600def500000170eda855000000000000080011b
:0d6393000879a5e2950200004226aa5600f6
:2063a0000000000000000000000000000000000000000000000000000000000000000000dd
:2063c000000000000000000000000000000000000000000000000000008d735580000000e8
:2063e00000000000000001ff428c04000003050a0010000780330940000000380f0000005f
:0d6400000008094154000040240f05500021
:20640d0000000000000000000000000000000000000000000000000000000000000000006f
:20642d00000000000000000000000000000000000000000000000008001c726560400000b4
:20644d0063eea54000001819e295000002004faf54000027007f295000a04001c0008000bd
:0d646d0000000daa14000a02065ca0100831
:20647a00000000000000000000000000000000000000000000000000000000000000000002
:20649a00000000000000000000000000000000000000000000000011071a33d58000000028
:2064ba0027405501000000f382a8000a0342c40a000000590e741548004000002000000033
:0d64da0000f00fef54000400438df5b000fa
:2064e700000000000000000000000000000000000000000000000000000000000000000095
:20650700000000000000000000000000000000000000000000000000031f72656001000416
:2065270002f9a200000401fdfbd500040003d4f8100008081cb7bd54000c207000008000f2
:0d6547000218172b04080001e077ef54083c
:20655400000000000000000000000000000000000000000000000000000000000000000027
:20657400000000000000000000000000000000000000000000000000098dbb55804100247c
:206594000178f100000201e1428000000006079fa01031891dbc2800000004000f000000ad
:0d65b4001c00ed839800000023850a000004
:2065c1000000000000000000000000000000000000000000000000000000000000000000ba
:2065e100000000000000000000000000000000000001000000000000011cda6560000006d7
:2066010002eea540000270100000000008005daf5400038999ff29500c000e01c0008000c2
:0d662100047013a91c0800c1c6cffd1408a9
:20662e0000000000000000000000000000000000000000000000000000000000000000004c
:20664e00000000000000000000000000000000000001000000000000079a9bd5800000009a
:20666e0002e0aa0000350080000000001403470a00000183089c15400c00000020000000ba
:0d668e00020cf14108200000222edc300833
:20669b000000000000000000000000000000000000000000000000000000000000000000df
:2066bb00000000000000000000000000000000000000000000000000000bda656000000015
:2066db003c000000000001fb3bd4000000004000000010a19c3238900041c003c884c000c1
:0d66fb00021809e3d4400042c006aa0400c2
:20670800000000000000000000000000000000000000000000000000000000000000000071
:206728000000000000000000000000000000000000000000000000000d1d1355810000241a
:2067480028000000000001e7028000000003400000000000100f388000000003c0128440ec
:0d67680028000743fc000001c2060fa2003c
:20677500000000000000000000000000000000000000000000000000000000000000000004
:20679500000000000000000000000000000000000000000000000000000ada65600a000031
:2067b5000048f0480000101dfa9400a00160748a540280000a3829500a000000e000802867
:0d67d5003279e52bfd84a800439fa5040840
:2067e200000000000000000000000000000000000000000000000000000000000000000097
:206802000000000000000000000000000000000000000000000000000d109bd58008000061
:206822003fd00000000008d10154008000037d05500200000e1366400800000020000020b3
:0d68420000000f6396028000200105000099
:20684f00000000000000000000000000000000000000000000000000000000000000000029
:20686f00000000000000000000000000000000000000000000000000000b32656000003ccb
:20688f00000000000000000000000000006617fa500000f00083b4404000000001008000fa
:0d68af000070e000000000020660e5040833
:2068bc000000000000000000000000000000000000000000000000000000000000000000bc
:2068dc000000000000000000000000000000000000000000000000002d1d73558000003cce
:2068fc0000000000001800000000000000002ee6a000000d00933880000600000d00000243
:0d691c00000100000000000043dc0a000044
:2069290000000000000000000000000000000000000000000000000000000000000000004e
:20694900000000000000000000000000000000000000000000000000030a7265604000208a
:20696900685af05800001809fa9400002207e6fa70000828009f2140010e0000e00080013c
:0d698900040000000000180047b48a54000c
:206996000000000000000000000000000000000000000000000000000000000000000000e1
:2069b6000000000000000000000000000000000000000000000000000d18bbd58000000488
:2069d60003d00000000008bb8154000002438eaa0000105d009e3540000000002000000019
:0d69f60000000000000000404007055000b8
:206a0300000000000000000000000000000000000000000000000000000000000000000073
:206a2300000000000000000000000001000000000000000000000040058e526560000c1448
:206a4300056aa540001058016940080003c06dd50000000f1d5afbc800a000000100800056
:0d6a6300050000000000000200000000001f
:206a7000000000000000000000000000000000000000000000000000000000000000000006
:206a90000000000000000000000000010000000000000000000000400000135580000002bb
:206ab00032c0550000000007c388000082425dde200001819eb3f6c0000000000d00000177
:0d6ad0000000000000000001400000000078
:206add00000000000000000000000000000000000000000000000000000000000000000099
:206afd000000000000000000000000000000000000000000000000000001126560000000a1
:206b1d00015cf710000000e7bb0408000043adec702000800078295000402000e0008002a7
:0d6b3d00000000000000004000000000000b
:206b4a0000000000000000000000000000000000000000000000000000000000000000002b
:206b6a00000000000000000000000000000000000000000000000000000adbd580200000b1
:206b8a002e5cff0000000109831c000000261c0c1000000109335982002c3c2c200000018e
:0d6baa0018f00000000000000000000000d6
:206bb7000000000000000000000000000000000000000000000000000000000000000000be
:206bd700000000000000000000000000000000000000000000000000058e12656000000034
:206bf700040e2802000c78a00000001000402d9500000008005ac2006000200001008000e7
:0d6c1700021000000000004203b6a3300090
:206c2400000000000000000000000000000000000000000000000000000000000000000050
:206c44000000000000000000000000000000000000000000000000100000db558000000070
:206c64003c501400000211000000000040201cbe2000000900b3c000000004000d00000076
:0d6c84000500f00000000042c015fcc0003b
:206c91000000000000000000000000000000000000000000000000000000000000000000e3
:206cb1000000000000000000000000000000000000000000000000000001da65400000043f
:206cd10003f98500000070e72140000010407ead103010018e0000000da00070e000803162
:0d6cf1000070053a80000a01c75ed1001056
:206cfe00000000000000000000000000000000000000000000000000000000000000000076
:206d1e00000000000000000000000000000000000000000000000000000ad3d58000003ee5
:206d3e00015ed50000000000c14000000be2dd0c30000800100000000500000020000012ab
:0d6d5e0080000082800204000706f0008023
:206d6b00000000000000000000000000000000000000000000000000000000000000000008
:206d8b000000000000000000000000000000000000000000000000001d18d6bc10000020f1
:206dab00604c05404100d9a00000000441c3beaf540040000a7f600000040001c884c0001a
:0d6dcb000018896f8800080002c000000059
:206dd80000000000000000000000000000000000000000000000000000000000000000009b
:206df8000000000000000000000000000000000000000000000000002180f80000000004de
:206e180003e00021008050000000000200063e0a00800000003340000000003a40128440f3
:0d6e380080000dbf0c00000403c00000002e
:206e450000000000000000000000000000000000000000000000000000000000000000002d
:206e6500000000000000000000000280000000000000000000000280080016ff400a000e94
:206e850001d8a5402800981172bc00a001401ccf50028008005bcc000aa1000460008028ac
:0d6ea500000003ba9500a00800641a560012
:206eb2000000000000000000000000000000000000000000000000000000000000000000c0
:206ed200000000000000000000000200000000000000000000000200230a93ffc0080026ef
:206ef20003405500200010c5429400800002420f5002038b0bf3ac40080000282000002010
:0d6f120000000102a8008014d3f6d6600034
:206f1f00000000000000000000000000000000000000000000000000000000000000000052
:206f3f000000000000000000000000000000000000000000000000000501d33c100000808d
:206f5f0006eef5404000900020c00800020025af500000001800000000a040016000800032
:0d6f7f00000197f3d40000020045cf000090
:206f8c000000000000000000000000000000000000000000000000000000000000000000e5
:206fac00000000000000000000000000000000000000000000000000050cf80002000000ba
:206fcc003c50a0000100f00040c000000040160a00800080000000000040000020000000c8
:0d6fec000000dbc28000000142be0a000070
:206ff900000000000000000000000000000000000000000000000000000000000000000078
:2070190000000000000000000000000000000000000000000000000005187e3c1000000070
:20703900025e7260000078a1e9090800034600000000004f8ed348100002000460008002b9
:0d70590003808d3495000001e05dee3020d5
:2070660000000000000000000000000000000000000000000000000000000000000000000a
:207086000000000000000000000000000000000000000000000000000580dc000000000089
:2070a60001c930014000000b022c400000600000000000a7005fed40000000282000000239
:0d70c600851103b898400000c37704300026
:2070d30000000000000000000000000000000000000000000000000000000000000000009d
:2070f3000000000000000000000000000000000000000000000000000100d2bc10010016c7
:2071130000000000000001892a94000000001792040000280193e9c0000000016000800021
:0d7133000080112bd4000001c016c03020d8
:2071400000000000000000000000000000000000000000000000000000000000000000002f
:207160000000000000000000000000000000000000000000000000000000f8000201000014
:20718000000000000000900b8280000003c01ceb5000000b09de288000000000200000007e
:0d71a00000b0cb4280001a00201c0530001a
:2071ad000000000000000000000000000000000000000000000000000000000000000000c2
:2071cd0000000000000000000000000001008029586000000000000000007e3c1000000c6a
:2071ed007800000000005805b50d04001000268fa00801a7013e10828000000060008000a1
:0d720d000559f00000000001e25fac3020e8
:20721a00000000000000000000000000000000000000000000000000000000000000000054
:20723a000000000000000000000000000000301688000000000000000000d800020000008c
:20725a0040000000000008bba28c000000001f0ff20000578cf43880000000002000000014
:0d727a00003080000000000022cc0e20003b
:207287000000000000000000000000000000000000000000000000000000000000000000e7
:2072a700000000000000000000000000000000000000000000000000000193fbc000000672
:2072c7006ef8f040400080013a94000000e680ef3120004781003fc0000020016000800014
:0d72e700027007bd09001010c72cb5000093
:2072f40000000000000000000000000000000000000000000000000000000000000000007a
:207314000000000000000000000000000000000000000000000000000008d7bfc0000000fb
:2073340023e000000000b005015400000260000f301000208c003fc4100004002000000098
:0d735400041083378801006000049d1000c4
:2073610000000000000000000000000000000000000000000000000000000000000000000c
:2073810000000000000000000000000000000000000000000000000001897abc1000001408
:2073a100380000000000018fe281000001e397ea54000047805781400c0104006000800018
:0d73c1000081836a04000000e71fcc30202b
:2073ce0000000000000000000000000000000000000000000000000000000000000000009f
:2073ee00000000000000000000000000000000000000000000000000001ad8000000002469
:20740e000000000000000003c3d4200002638705508000270c0801420c00820020000000b7
:0d742e000070c9fc14000000100d0e2100bc
:02743b0000004f
:02743d0011013b
:02743f00010149
:20744100000000000000000000080000000000000000000000000000000000000002000021
:2074610000000000000000000000000000000000000000000000000000000000000000000b
