:02000000ff00ff
:080002004c6174746963650030
:17000a00694345637562653220323031372e30382e32373934300069
:15002100506172743a2069434534304c50384b2d434d3831003f
:1b003600446174653a2053657020313820323031392032333a32393a30330073
:0200510000ffae
:040053007eaa997e6a
:02005700510056
:0200590001059f
:03005b00920020f0
:03005e00620367d3
:0300610072011019
:0300640082000017
:02006700110086
:02006900010193
:20006b00000000000000000000000000000000000000000000000000000000000000000075
:20008b00000000000000000000000000000000000000000000000000000000000000000055
:2000ab00000000000000000000000000000000000000000000000000000000000000000035
:0d00cb000000000000000000000000000028
:2000d800000000000000000000000000000000000000000000000000000000000000000008
:2000f8000000000000000000000000000000000000000000000000000000000000000000e8
:200118000000000000000000000000000000000000000000000000000000000000000000c7
:0d01380000000000000000000000000000ba
:2001450000000000000000000000000000000000100000000000000000000000000000008a
:2001650000000000000000000000000000000000000000000000000000000000000000007a
:2001850000000000000000000000000000000010000000000000000000000000000000004a
:0d01a5000000000000000400000000000049
:2001b20000000000000000000000000000000000000000000000000000000000000000002d
:2001d20000000000000000000000000000000000000000000000000000000000000000000d
:2001f2000000000000000000000000000000000000000000000000000000000000000000ed
:0d02120000000000000000000000000000df
:20021f000000000000000000000000000000000000000000000000000000000000000000bf
:20023f0000000000000000000000000000000000000000000000000000000000000000009f
:20025f0000000000000000000000000000000000000000000000000000000000000000007f
:0d027f000000000000000000000000000072
:20028c00000000000000000000000000000000000000000000000000000000000000000052
:2002ac00000000000000000000000000000000000000000000000000000000000000000032
:2002cc00000000000000000000000000000000000000000000000000000000000000000012
:0d02ec000000000000000000000000000005
:2002f900000000000000000000000000000000001000004000000000000000000000000095
:200319000000000000000000000000000000000000000000000000000000000000000000c4
:200339000000000000000000000000000000000000000000000000000000000000000000a4
:0d0359000000000000000000000000000097
:20036600000000000000000000000000000000000000000000000000000000000000000077
:20038600000000000000000000000000000000000000000000000000000000000000000057
:2003a600000000000000000000000000000000000000000000000000000000000000000037
:0d03c600000000000000000000000000002a
:2003d3000000000000000000000000000000000000000040000000000000000000000000ca
:2003f3000000000000000000000000000000000000000000000000000000000000000000ea
:20041300000000000000000000000000000000000000000140000000000000000000000088
:0d04330000000000000000000000000000bc
:2004400000000000000000000000000000000000000000000000000000000000000000009c
:2004600000000000000000000000000000000000000000000000000000000000000000007c
:2004800000000000000000000000000000000000000000002000000000000000000000003c
:0d04a000000004000000000000000000004b
:2004ad0000000000000000000000000000000000100000000000000000000000000000001f
:2004cd0000000000000000000000000000000000000000000000000000000000000000000f
:2004ed000000000000000000000000000000000000000000000010000000000000000000df
:0d050d0000000400000000000010000000cd
:20051a000000000000000000000000000000000000000000000000000000000000000000c1
:20053a000000000000000000000000000000000000000000000000000000000000000000a1
:20055a00000000000000000000000000000000000000000000003000000000000000000051
:0d057a000000000000000000002000000054
:20058700000000000000000000000000000000000000000000000000000000000000000054
:2005a700000000000000000000000000000000000000000000000000000000000000000034
:2005c700000000000000000000000000000000000000000000000000000000010000000013
:0d05e70000000800000000000010000000ef
:2005f4000000000000000000000000000000000010000000000000000000000000000000d7
:200614000000000000000000000000000000000000000000000000000000000000000000c6
:200634000000000000000000000000000000000000000000000000000000000000000000a6
:0d0654000000040000000000000000000095
:20066100000000000000000000000000000000000000004000000000000000000000000039
:20068100000000000000000000000000000000000000000000000000000000000000000059
:2006a100000000000000000000000000000000000000000000000000000000000000000039
:0d06c100000000000000000000000000002c
:2006ce0000000000000000000000000000000000000000000000000000000000000000000c
:0d101f0000000000000010000000000000b4
:20102c000000000000000000000000000000000000000000000000000000000000000000a4
:20104c00000000000000000000000000000000000000000000000000000000000000000084
:20106c00000000000000000000000000000000000000000000000000000000000000000064
:0d108c000000000000000000000000000057
:0d13f40000000000000000001000000000dc
:201401000000000000000000000000000000000000000000000000000000000000000000cb
:201421000000000000000000000000000000000000000000000000000000000000000000ab
:2014410000000000000000000000000000000000000000000000000000000000000000008b
:0d146100000000000000000000000000007e
:20146e0000000000000000000000000000000000000000000000000000000000000000005e
:20148e0000000000000000000000000000000000000000000000000000000000000000003e
:2014ae0000000000000000000000000000000000000000000000000000000000000000001e
:0d14ce000000000000000000000000000011
:2014db000000000000000000000000000000000000000000000000000000000000000000f1
:2014fb000000000000000000000000000000000000000000000000000000000000000000d1
:20151b000000000000000000000000000000000000000000000000000000000000000000b0
:0d153b0000000000000000000000000000a3
:20154800000000000000000000000000000000000000000000000000000000000000000083
:20156800000000000000000000000000000000000000000000000000000000000000000063
:20158800000000000000000000000000000000000000000000000000000000000000000043
:0d15a8000000000000000000000000000036
:2015b500800000000000000000000000000000000000000000000000000000000000000096
:2015d5000000000000000000000000000000000000000000000000000000000000000000f6
:2015f5000000000000000000000000000000000000000000000000000000000000000000d6
:0d16150000000000000000000000000000c8
:20162200800000000000000000000000000000000000000000000000000000000000000028
:20164200000000000000000000000000000000000000000000000000000000000000000088
:20166200000000000000000000000000000000000000000000000000000000000000000068
:0d168200000000000000000000000000005b
:20168f0000000000000000000000000000000000000000000000000000000000000000003b
:2016af0000000000000000000000000000000000000000000000000000000000000000001b
:2016cf000000000000000000000000000000000000000000000000000000000000000000fb
:0d16ef0000000000000000000000000000ee
:2016fc000000000000000000000000000000000000000000000000000000000000000000ce
:20171c000000000000000000000000000000000000000000000000000000000000000000ad
:20173c0000000000000000000000000000000000000000000000000000000000000000008d
:0d175c000000000000000000000000000080
:201769000005000001c000000000000000000000000000000000000000000000000000009a
:20178900000000000000000000000000000000000000000000000000000000000000000040
:2017a900000000000000000000000000000000000000000000000000000000000000000020
:0d17c9000000000000000000000000000013
:2017d6000024000001000000000000000000000000000000000000000000000000000000ce
:2017f6000000000000000000000000000000000000010000000000000000000000000000d2
:201816000000000000000000000000000000000000000000000000000000000000000000b2
:0d18360000000000000000000000000000a5
:20184300000000000000000000000000000000000000000000000000000000000000000085
:20186300000000000000000000000000000000000000000000000000000000000000000065
:20188300000000000000000000000000000000000000000000000000000000000000000045
:0d18a3000000000000000000000000000038
:2018b000000200000000000000000000000000000000000000000000000000000000000016
:2018d0000000000000000000000000000000000000000000000000000000000000000000f8
:2018f0000000000000000000000000000000000000000000000000000000000000000000d8
:0d19100000000000000000000000000000ca
:20191d004d000000000000000000000000000000000000000000000000000000000000005d
:20193d0000000000000000000000000000000000000000000000000000000000000000008a
:20195d0000000000000000000000000000000000000000000000000000000000000000006a
:0d197d00000000000000000000000000005d
:20198a000f000000000000000000000000000000000000000000000000000000000000002e
:2019aa0000000000000000000000000000000000000000000000000000000000000000001d
:2019ca000000000000000000000000000000000000000000000000000000000000000000fd
:0d19ea0000000000000000000000000000f0
:2019f70000000000000801680000000000000000000000000000000000000000000000005f
:201a17000000000000000000000000000000000000000000000000000000000000000000af
:201a370000000000000000000000000000000000000000000000000000000000000000008f
:0d1a57000000000000000000000000000082
:201a640080000000000d02940000000000000000000000000000000000000000000000003f
:201a8400000000000000000000000000000000000000000000000000000000000000000042
:201aa400000000000000000000000000000000000000000000000000000000000000000220
:0d1ac4000000000000000000000000000015
:201ad100800000000000000000000000000000000000000000000000000000000000000075
:201af1000000000000000000000000000000000000000000000000000000000000000000d5
:201b11000000000000000000000000000000000000000000000000000000000000000000b4
:0d1b310000000000000000000000000000a7
:201b3e00002c0000000000000000000000000000000000000000000000000000000000005b
:201b5e00000000000000000000000000000000000000000000000000000000000000000067
:201b7e00000000000000000000000000000000000000000000000000000000000000000047
:0d1b9e00000000000000000000000000003a
:201bab0000000000000000000000000000000000000000000000000000000000000000001a
:201bcb000000000000000000000000000000000000000000000000000000000000000000fa
:201beb000000000000000000000000000000000000000000000000000000000000000000da
:0d1c0b0000000000000000000000000000cc
:201c18000000000200000000000000000000000000000000000000000000000000000000aa
:201c380000000000000000000000000000000000000000000000000000000000000000008c
:201c580000000000000000000000000000000000000000000000000000000000000000006c
:0d1c7800000000000000000000000000005f
:201c850000000000000000000000000000000000000000000000000000000000000000003f
:201ca50000000000000000000000000000000000000000000000000000000000000000001f
:201cc5000000000000000000000000000000000000000000000000000000000000000000ff
:0d1ce50000000000000000000000000000f2
:201cf2000000020000000000000000000000000000000000000000000000000000000000d0
:201d12000000000000000000000000000000000000000000000000000000000000000000b1
:201d3200000000000000000000000000000000000000000000000000000000000000000091
:0d1d52000000000000000000000000000084
:201d5f00000000000000000000000000000000000000000000000000000000000000000064
:201d7f00000000000000000000000000000000000000000000000000000000000000000044
:201d9f00000000000000000000000000000000000000000000000000000000000000000024
:0d1dbf000000000000000000000000000017
:201dcc000000000000000000000000000000000000000000000000000000000000000000f7
:201dec000000000000000000000000000000000000000000000000000000000000000000d7
:201e0c000000000000000000000000000000000000000000000000000000000000000000b6
:0d1e2c0000000000000000000000000000a9
:201e3900000000000000000000000000000000000000000000000000000000000000000089
:201e5900000000000000000000000000000000000000000000000000000000000000000069
:201e7900000000000000000000000000000000000000000000000000000000000000000049
:0d1e9900000000000000000000000000003c
:201ea600080000000000000000000000000000000000000000000000000000000000000014
:201ec6000000000000000000000000000000000000000000000000000000000000000000fc
:201ee6000000000000000000000000000000000000000000000000000000000000000000dc
:0d1f060000000000000000000000000000ce
:201f13000000000000000000000000000000000000000000000000000000000000000000ae
:201f330000000000000000000000000000000000000000000000000000000000000000008e
:201f530000000000000000000000000a000000000000000000000000000000000000000064
:0d1f73000000000000000000000000000061
:201f8000000000080000000000000000000000000000000000000000000000000000000039
:201fa000000000000000000000000000000000000000000000000000000000000000000021
:201fc000000000000000000000000000000000000000000000000000000000000000000001
:0d1fe00000000000000000000000000000f4
:201fed000000000000000000000000000000000000000000000000000000000000000000d4
:20200d000000000000000000000000000000000000000000000000000000000000000000b3
:20202d0000000000040000000000000000000000000000000000000000000000000000008f
:0d204d000000000000000000000000000086
:20205a00000000000000000000000000000000000000000000000000000000000000000066
:20207a00000000000000000000000000000000000000000000000000000000000000000046
:20209a00000000000000000000000000000000000000000000000000000000000000000026
:0d20ba000000000000000000000000000019
:2020c7000000000000000000000000000000000000000000000000000000000000000000f9
:2020e7000000000000000000000000000000000000000000000000000000000000000000d9
:202107000000000000000000000000000000000000000000000000000000000000000000b8
:0d21270000000000000000000000000000ab
:2021340000000000000000000000000000000000000000000000000000000000000000008b
:2021540000000000000000000000000000000000000000000000000000000000000000006b
:2021740000000000000000000000000000000000000000000000000000000000000000004b
:0d219400000000000000000000000000003e
:2021a10000000000000000000000001000000000000000000000000000000000000000000e
:2021c1000000000000000000000000000000000000000000000000000000000000000000fe
:2021e1000000000000000000000000000000000000000000000000000000000000000000de
:0d22010000000000000000000000000000d0
:20220e000000000000000000000000000000000000000000000000000000000000000000b0
:20222e00000000000000000000000000000000000000000000000000000000000000000090
:20224e00000000000000000000000000000000000000000000000000000000000000000070
:0d226e000000000000000000000000000063
:20227b00000000000000000000000000000000000000000000000000000000000000000043
:20229b00000000000000000000000000000000000000000000000000000000000000000023
:2022bb00000000000000000000000000000000000000000000000000000000000000000003
:0d22db0000000000000000000000000000f6
:2022e8000000000000000000000000000000000000000000000000000000000000000000d6
:202308000000000000000000000000000000000000000000000000000000000000000000b5
:20232800000000000000000000000000000000000000000000000000000000000000000095
:0d2348000000000000000000000000000088
:20235500000000000000000000000000000000000000000000000000000000000000000068
:20237500000000000000000000000000000000000000000000000000000000000000000048
:20239500000000000000000000000000000000000000000000000000000100000000000027
:0d23b500000000000000000000000000001b
:2023c2000000000000000000000000000000000000000000000000000000000000000000fb
:2023e2000000000000000000000000000000000000000000000000000000000000000000db
:202402000000000000000000000000000000000000000000000000000000000000000000ba
:0d24220000000000000000000000000000ad
:20242f0000000000000000000000000000000000400000000000000000000000000000004d
:20244f0000000000000000000000000000000000000000000000000000000000000000006d
:20246f0000000000000000000000000000000000000000000000000000000000000000004d
:0d248f000000000000000000000000000040
:20249c00000000000000000000000000000000000000000000000000000000000000000020
:2024bc00000000000000000000000000000000000000000000000000000000000000000000
:2024dc000000000000000000000000000000000000000000000000000000000000000000e0
:0d24fc0000000000000000000000000000d3
:202509000000000000000000000000000000000000000000000000000000000000000000b2
:20252900000000000000000000000000000000000000000000000000000000000000a000f2
:20254900000000000000000000000000000000000000000000000000000000000000000072
:0d2569000000000000000a0000000000005b
:20257600000000000000000000000000000000000000000000000000000000000000000045
:202596000000000000000000000000000000000000000000000000000000000000004000e5
:2025b600000000000000000000000000000000000000000000000000000000000000000005
:0d25d60000000000000004000000000000f4
:2025e3000000000000000000000000000000000000000000000000000000000000000000d8
:202603000000000000000000000000000000000000000000000000000000000000000000b7
:2026230000000000080000000000000000000000000000000000000000000000000000008f
:0d264300000000000000000000000000008a
:2026500000000000000000000000000000000000000000000000000000000000000000006a
:2026700000000000000000000000000000000000000000000000000000000000000000004a
:2026900000000000000000000000000000000000000000000000000000000000000000002a
:0d26b000000000000000000000000000001d
:2026bd000000000000000000000000000000000000000000000000000000000000000000fd
:2026dd000000000000000000000000000000000000000000000000000000000000000000dd
:2026fd000000000000000000000000000000000000000000000000000000000000000000bd
:0d271d0000000000000000000000000000af
:20272a0000000000000000000000000000000000000000000000000000000000000000008f
:20274a0000000000000000000000000000000000000000000000000000000000000000006f
:20276a0000000000000000000000000000000000000000000000000000000000000000004f
:0d278a000000000000000000000000000042
:20279700000000000000000000000000000000000000000000000000000000000000000022
:2027b7000000000000000000000000000000000000000000000000400000000000000000c2
:2027d7000000000000000000000000000000000000000000000000000000000000000000e2
:0d27f70000000000000000000000000000d5
:202804000000000000000000000000000000000000000000000000000000000000000000b4
:20282400000000000000000000000000000000000000000000000000000000000000000094
:20284400000000000000000000000000000000000000000000000000000000000000000074
:0d2864000000000000000000000000000067
:20287100000000000000000000000000000000000000000000000000000000000000000047
:20289100000000000000000000000000000000000000000000000000000000000000000027
:2028b100000000000000000000000000000000000000000000000000000000000000000007
:0d28d10000000000000000000000000000fa
:2028de000000000000000000000000000000000000000000000000000000000000000000da
:2028fe000000000000000000000000000000000000000000000000000000000000000000ba
:20291e00000000000000000000000000000000000000000000000000000000000000000099
:0d293e00000000000000000000000000008c
:20294b0000000000000000000000000000000000000040000000000000000000000000002c
:20296b0000000000000000000000000000000000000000000000000000000000000000004c
:20298b000000000000000000000000000000000000000000003fccc0000000000000000061
:0d29ab001800000000000000000000000007
:2029b8000000000000000000000000000000000000000000000000000000000000000000ff
:2029d8000000000000000000000000000000000000000000000000000000000000000000df
:2029f800000000000000000000000000000000000000000000f3f3000000000000000000d9
:0d2a180000000000000000000000000000b1
:202a2500000000000000000000000000000000000000000000000000000000000000000091
:202a4500000000000000000000000000000000000000000000000000000000000000000071
:202a65000000000000000000000000e0000000000000000000000000000000000000000071
:0d2a85000000000000000000000000000044
:202a9200000000000000000000000000000000000000000000000000000000000000000024
:202ab200000000000000000000000000000000000000000000000000000000000000000004
:202ad2000000000000000000000000000000000000000000000000000000000000000000e4
:0d2af20000000000000000000000000000d7
:202aff000000000000000000000000000000000000000000000000000000000000000000b7
:202b1f00000000000000000000000000000000000000000000000000000000000000040092
:202b3f000000000000000000000000400007800000000000000000000000000000000000af
:0d2b5f00080400000000000000000000005d
:202b6c00000000000000000000000000000000000000000000000000000000000000000049
:202b8c00000000000000000000000000000000000000000000000000000000000000000029
:202bac000000000000000000000000c0000000000000000000000000000000000000000049
:0d2bcc0000000000000000000000000000fc
:202bd9000000000000000000000000000000000000000000000000000000000000000000dc
:202bf9000000000000000000000000000000000000000000000000000000000000000000bc
:202c190000000000000000000000000000000000000000000000000000000000000000009b
:0d2c3900000000000000000000000000008e
:202c460000000000000000000000000000000000000000000000000000000000000000006e
:202c660000000000000000000000000000000000000000000000000000000000000000004e
:202c860000000000000000000000000000000000000000000000000000000000000000002e
:0d2ca6000000000000000000000000000021
:202cb300000000000000000000000000000000000000000000000000000000000000000001
:202cd3000000000000000000000000000000000000000001000000000000000000000000e0
:202cf30000000000000000000000000000002efcc4000000000000000000000000000000d3
:0d2d130000000000000000000000000000b3
:202d2000000000000000000000000000000000000000000000000000000000000000000093
:202d4000000000000000000000000000000000000000000000000000000000000000000073
:202d600000000000000000000000000000003cc33004000000000000000000000000000020
:0d2d80000000000000000000000000000046
:202d8d00000000000000000000000000000000000000000000000000000000000000000026
:202dad00000000000000000000000000000000000000000000000000000000000000000006
:202dcd00000000000000000000000000014000000000000500000000004000000000000060
:0d2ded0000000000000000000000000000d9
:202dfa000000000000000000000000000000000000000000000000000000000000000000b9
:202e1a00000000000000000000000000000000000000000000000000000000000000000098
:202e3a0000000000000000000000000003e000000000000000000000002000000000000075
:0d2e5a00000000000000000000000000006b
:202e670000000000000000000000000000000000000000000000000000000000000000004b
:202e870000000000000000000000000000000000000000000000000000000000000000002b
:202ea70000000000001000000000000002000000000000001e0000000000000000000000db
:0d2ec70000000000000000000000000000fe
:202ed4000000000000000000000000000000000000000000000000000000000000000000de
:202ef4000000000000000000000000000000000000000000000000000000000000000000be
:202f140000000000000000000000000001400000000000001000000000000000000000004c
:0d2f34000000000000000000000000000090
:202f4100000000000000000000000000000000000000000000000000000000000000000070
:202f6100000000000000000000000000000000000000000000000000000000000000000050
:202f810000000000000000000000000000070000000000001c00000000000000000000000d
:0d2fa100000000000000000800000000001b
:202fae00000000000000000000000000000000000000000000000000000000000000000003
:202fce000000000000000000000000000000000000000000000000000000000000000000e3
:202fee000000000000000000000000000000000000000009100000000000000000000000aa
:0d300e0000000000000000100000000000a5
:20301b00000000000000000000000000000000001000000000000000000000000000000085
:20303b00000000000000000000000000000002bc10000000000000000000000000000000a7
:20305b0000000000000230000000000000020fe55000000000b783c00000140000000000cf
:0d307b000000000000000000000000000048
:20308800000000000000000000000000000000000800000000000000000000000000000020
:2030a8000000000000000000000000000000003c08100000000000000000000000000000b4
:2030c800000000000000000000000000000002055000000000fc3c00000036000000000023
:0d30e80000000000000000000000000000db
:2030f5000000000000000000000000000000000000000000000000000000000000000000bb
:20311500000000000000000000000380000000000000000000000000000000000000000017
:2031350000000000000000000000000800001dccc00000001e000000000016000000000095
:0d315500000000000000000000000000006d
:2031620000000000000000000000000000000000000000000000000000000000000000004d
:2031820000000000000000000000000000000000000000000000000000000000000000002d
:2031a20000000000010000000000000400003f93311000001900000000001c0000000000c0
:0d31c2000000000000000000000000000000
:2031cf000000000000000000000000000000000040000000000000000000000000000000a0
:2031ef000000000000000000000000100000000000000000000000000000000000000000b0
:20320f0000000000000000000000000000000000000000058000000000000001dccc00046d
:0d322f000000000000000000000000000092
:20323c00000000000000000000000000000000004000000000000000000000000000000032
:20325c0000000000000000000000002003000000000000000000000000000000000000002f
:20327c0000000000020000000000000000000000000000000000000000001c387c3300002d
:0d329c000000000000000000000000000025
:2032a900000000000000000000000000000000000000000000000000000000000000000005
:2032c9000000000000000000000000000000000000000000000000000000000000000000e5
:2032e9000000000000000000000000000000000000000000085783c000001c6a5a2d100006
:0d33090000000000000000100000000000a7
:20331600000000000000000000000000000000000000000000000000000000000000000097
:203336000000000000000000000000000000000000000000000000000000000000000e0069
:20335600000000000100000000000000000000000000000010743c004000003f4a7808004d
:0d337600000000000000000000000000004a
:2033830000000000000000000000000000000000000000000000000000000000000000002a
:2033a30000000000000000000000000000000000000000000000000000000000000000000a
:2033c30000000000081000000000000000000000000000070eb38cc0c000003e6c33200001
:0d33e30000000000000000000000000000dd
:2033f0000000000000000000000000000000000000000000000000000000000000000000bd
:2034100000000000000000000000000000000000000000000000000000000000000000009c
:2034300000000000000000000000000000000000000000001f9c330000801c385dcc000091
:0d345000000000000000000000000000006f
:20345d0000000000000000000000000000000000000000000000000000000000000000004f
:20347d0000000000000000000000000000000000000000000000000000000000000000002f
:20349d000000000000000007783c0000001680000000000000329a40800000797e960300a2
:0d34bd000000000000000000000000000002
:2034ca000000000000000000000000000000000000000000000000000000000000000000e2
:2034ea000000000000000000000000000000000000000000000000000000000000000000c2
:20350a00000000000000000183c08000000380000000000000081a400000004030960000f2
:0d352a000000000000000000000000000094
:20353700000000000000000000000000000000000000000000000000000000000000000074
:20355700000000000000000000000000000000000000000000000000000000000000000054
:20357700000000000000008000000000200380000000000001000000000000044a3300008f
:0d3597000000000000000000000000000027
:2035a400000000000000000000000000000000000000000000000000000000000000000007
:2035c4000000000000000000000000000000000000000000000000000000000000000000e7
:2035e40000000000000001000000000000024000000000090a000000000000385ccc000011
:0d36040000000000000000000000000000b9
:20361100000000000000000000000000000000000000000000000000000000000000000099
:203631000000000000000000000000000000000000000100000000000000000000008000f8
:2036510000000000000030000000000002000000000010000ffe8cc040000030000000004e
:0d367100000000000000000000000000004c
:20367e0000000000000000000000000000000000000000000000000000000000000000002c
:20369e0000000000000000000000000000000000000000800000000000000000000040004c
:2036be0000000000000008000000000003c00000000028001a9f3300000800000000000005
:0d36de0000000000000000000000000000df
:2036eb000000000000000000000000000000000000000000000000000000000000000000bf
:20370b00000000000000000000000000000000000000000000000000000f0000000000206f
:20372b000000000000007815b3c00000434287ea500000018bf3ccc000000005ec552000c7
:0d374b000000000000000001e025aa0100c0
:20375800000000000000000000000000000000000000000000000000000000000000000051
:20377800000000000000000000000000000000000000000000000000000b00000000001c0a
:20379800000000000000f8af003c000002641c0aa01000000f76b300000000203055000015
:0d37b8000000000000000000203d000300a4
:2037c5000000000000000000000000000000000000000000000000000000000000000000e4
:2037e500000000000000000000000000000000000000000000000380001800295020000090
:203805000000000038387811f8cc080003633ffcc003c28001528cd080001e021c96000037
:0d382500000000000000e0000000000000b6
:20383200000000000000000000000000000000000000000000000000000000000000000076
:203852000000000000000000000000000000000000000000000000000000701680000c0044
:2038720000000000000008a18330000001c78d93308000000a983300000002285e6900007c
:0d3892000400000000000000000000000025
:20389f00000000000000000000000000000000000000000000000000000000000000000009
:2038bf000000000000000000000000000000000000000000000000000000000000000000e9
:2038df0005fcf0001000808000000000014005ccc02100059e17294000014003d8f00000a6
:0d38ff00000000000000100160000000004b
:20390c0000000000000000000000000000000000000000000000000000000000000000009b
:20392c00000000000000000000000000000000000000000000000000000c0000000000006f
:20394c003be00f00300091000000000000000e03300100001074154400000c24c00f18003a
:0d396c00000000000000000020000000002e
:2039790000000000000000000000000000000000000000000000000000000000000000002e
:2039990000000000000000000000000000000000000000010000000000000000000000000d
:2039b90000000000000080eb683c00100000658cc020000901378cc000020000000000046b
:0d39d9000000000000000a02004000000095
:2039e6000000000000000000000000000000000000000000000000000000000000000000c1
:203a06000000000000000000000000000000000000000000000000000000000000000000a0
:203a2600000000000000f101c3c00010000234033010000789f333000000000000000004c8
:0d3a46000000000000000402c3400000006a
:203a5300000000000000000000000000000000000000000000000000000000000000000053
:203a7300000000000000000000000000000000000000000000000000000000000000000033
:203a93000000000001007813f330080400000000000000078ab6b308c0010078000000001d
:0d3ab30000000000000000000017ef0404f8
:203ac0000000000000000000000000000000000000000000000000000000000000000000e6
:203ae0000000000000000000000000000000000000000000000000000000000000000000c6
:203b000000000000000000e940cc000041c000000000001d1b980cc0000a80400000000049
:0d3b200000000000000000000014ee200076
:203b2d00000000000000000000000000000000000000000000000000000000000000000078
:203b4d00000000000000000000000000000000000000000000000000000000000000000c4c
:203b6d0000000000000510e138cd080002401ffcc000038009bbccd20000a0000000000093
:0d3b8d0038000000000000c0000000000033
:203b9a0000000000000000000000000000000000000000000000000000000000000000000b
:203bba000000000000000000000000000000000000000000000000000008000000000003e0
:203bda0000000000000209050330000001e0059330000000085ff30000017c3800000000d0
:0d3bfa0000000000000000001000000000ae
:203c070000000000000000000000000000000000000000000000000000000000000000009d
:203c2700000000000000000000000000000000000000000000000000070092a80020001c00
:203c470039ea3300000018c00000000000403d8cc12000050ab683c000a000034e0f00003d
:0d3c67000000000000000000e00000000070
:203c7400000000000000000000000000000000000000000000000000000000000000000030
:203c94000000000000000000000000000000000000000000000000000180bc3d40008000d6
:203cb40001d8cc00020001000000000001c00d033000000d18543c0000002c3af0f000004c
:0d3cd40000000000000000002000000000c3
:203ce1000000000000000000000000000000000000000000000000000000000000000000c3
:203d0100000000000000000000000000000000000001000000000000000093e850000000d6
:203d2100040000000000580000000000024206a55000138381030cd0800e000068cc02002d
:0d3d41000000000000001002020000000061
:203d4e00000000000000000000000000000000000000000000000000000000000000000055
:203d6e0000000000000000000000000400000000000100000000000400099bd6c200002cc4
:203d8e0034000000004000000000000100e4020550080c008a040cc0000000217033000033
:0d3dae0000000000000011004000000000b7
:203dbb000000000000000000000000000000000000000000000000000000000000000000e8
:203ddb000000000000000000000000800000000000000000000000000000b37bc00000005a
:203dfb0005c89680000001892a94000000603fc33204010000b783c0000014021a55000065
:0d3e1b0000119de7dc0000000705aa001063
:203e280000000000000000000000000000000000000000000000000000000000000000007a
:203e480000000000000000000000000000000000000000000000000000097b3fc0000000d7
:203e68003c00960300000099c154040800423c9cc000000000b83c0000000024c0aa00024d
:0d3e88000008a17bfc000040001e000000af
:203e950000000000000000000000000000000000000000000000000000000000000000808d
:203eb50000603c020000000000000380080000000000000000000380090ed7bdc00e0000c8
:203ed500004896e03800780b783c0100006605c690238008013b33108e4c3c235ecc4238d7
:0d3ef5000011edb0cc000000000000000046
:203f020000000000000000000000000000000000000000000000000000000000000000d0cf
:203f220000003c0000000000000000000100000000000000000000000d90ffffc000001ccb
:203f4200002096000000f0b303c0040000000206900000010df00cc000a01e43e0330000c9
:0d3f6200009801fb3000000000000000008e
:203f6f000000000000000000000000000000000040000000000000000000000000000000f2
:203f8f00000000000000000000000000000000000000400000000000001e1e3f400c00c04b
:203faf00654896c010001813e954000001e026ccc02128000ebbccc80c008032ffcc003085
:0d3fcf0000000ba0cd080000000000000065
:203fdc00000000000000000000000000000000004000000000000000000000000000000085
:203ffc00000000000000000000000000000000000000a000000000000010f77fc00401c0fa
:20401c0020209600100000e08154000003e01c03300700000837f3000c0000287d3300306a
:0d403c0000f00bc330000000000000000089
:20404900000000000000000000000000000000000000000000000000000000000000000057
:204069000000000000000000000000000180000000000000000000000801733dc0800c06ab
:20408900054896c0000081e5a8cd0800000004c3300010000a00000000002072dc330200dd
:0d40a90038f1c16ccc0010020000000000d6
:2040b6000000000000000000000000000000000000000000000000000000000000000000ea
:2040d600000000000000000000000000000800000000000000000000010e703fc200000042
:2040f600202096000000f10783300000000015ecc00028000e0000000000044040cc0000e2
:0d41160000f101bb30000001c000000000fe
:2041230000000000000000000000000000000000000000000000000000000000000000007c
:204143000000000000000000000000000000dfe954400000000000000f8b5eb910a000009f
:2041630001e896c000000007603c8000c1c20dc5500000080a06e59000803e004c33020069
:0d4183000800f33bd4010000000000000024
:2041900000000000000000000000000000000000000000000000000000000000000000000f
:2041b00000000000000000000000000000001e94c000000000000010018a983c00400000ce
:2041d000280096000000b08783c00000002643055200000b00f65a4000061c0340cc00000b
:0d41f00000b1f3c2800000000000000000dc
:2041fd000000000000000000000000000000000000000000000000000000000000000000a2
:20421d00000000000000000000000000000080295010000000000000081800000000000058
:20423d00016896c00000109b3f30000001c3b5ccc020000b005e3d42000c00256e55000087
:0d425d000001973294800200000000000074
:20426a00000000000000000000000000000000000000000000000000000000000000000034
:20428a000000000000000000000000000000d01680000000000000000500000000000c009d
:2042aa0000009600000008a770cc070001e424033000000f89d8280000003474205500007b
:0d42ca000001d501540004000000000000b8
:2042d7000000000000000000000000000000000000000000000000000000000000000000c7
:2042f700000000000000000000000000000000000000000000000010019a3eaa880002008a
:20431700016896c0000810f061a448000240040ff00000001c00000000001c7958cc020056
:0d43370005f89000000000004000000000ac
:20434400000000000000000000000000000000000000000000000000000000000000000059
:20436400000000000000000000000000000000000000000000000028010a082a8010002c18
:20438400002096000000f9cb0258000000601c00001008000e0000000000000270330000fe
:0d43a40002908000000000000000000000fa
:2043b1000000000000000000000000000000000000000000000001000000000000000000eb
:2043d100000000000000000000000000000000000000000000000000058a063c10040020c7
:2043f10061e896e000803801f1a5880000c3a016600000080a00000000400e761e694000a0
:0d4411000010000000000008000000000086
:20441e0000000000000000000000000000000000000000000000010000000000000000007d
:20443e00000000000000000000000004000e00000000000000000004000a003c00141004da
:20445e00002096000040980041a4000102c00ce99000040700000000003002615c962000d3
:0d447e0040d8000000000100000000000018
:20448b00000000000000000000000000000000000000000000000000000000000000000011
:2044ab0000000000000000000000000000010000000000000000000000007225a4000000b5
:2044cb0001c896c000020009fbdc800400665efcc000000000df3c000001607d5aa1400098
:0d44eb0001000f6e0000000067868550087c
:2044f8000000000000000000000000000000000000000000000000000000000000000000a4
:204518000000000000000000000000000f0e00000000000000000000000000258080000041
:204538000000960c0000d0b76bfc000a08223fc3318000000e7c03c400009c6148a710009f
:0d45580002000f6800800003c00105500044
:20456500000000000000000000000000000000000000000000000000000000000000000036
:2045850000000000000000000000038018000000000000000000038000007225b00e8040e3
:2045a50001c896c0380058f8695440e0140700e55000001f9e7e03c00e0080005bcc003837
:0d45c500008003abd50200c1c02fc800006c
:2045d2000000000000000000000000000000000000000000000000000000000000000000c9
:2045f2000000000000000000000000002d000000000000000000000000000025820040bcd9
:20461200000096001000918d02a8000008043d0aa00000270f5c3c00000040027e33000066
:0d463200001003814000000003f6d00000de
:20463f0000000000000000000000000000000000000000000000000000000000000000005b
:20465f000000000000000000000000000000dfbbc00004000000030020015225b00c400046
:20467f00654896c00000580df3cc08400803e5acc42000080e1f8cc080017e01fc0f0000a0
:0d469f000018157a850000000077ef70000c
:2046ac000000000000000000000000000000000000000000000000000000000000000000ee
:2046cc000000000000000000000000000d00da3fc000000000000100500808258204068056
:2046ec002020960000000005830c00c4c1479703300000050090330000000600f0f0000000
:0d470c0000008bba9c04000003be8ff0007b
:20471900000000000000000000000000000000000000000000000000000000000000000080
:20473900000000000000000000000000000f0000000000000000000007017225b0000006fc
:20475900654896c000003810000000000262edf33000000018568cc080000069fc690a006f
:0d4779000070fde3d4800401e067cf700004
:20478600000000000000000000000000000000000000000000000000000000000000000013
:2047a600000000000000000000000000000e0000000000000000000000080825840000002c
:2047c60020209600000008d00000000000c76f9cc00000000e3c3300000024000069000089
:0d47e6000008eb828000020003fedff000ff
:2047f3000000000000000000000000000000000000000000000000000000000000000000a6
:204813000000000000000000000000000000fa81500000000000000000017a25b800000062
:2048330005e896e00000000000000004400045aa52003801801f0cc080003e74dc33004058
:0d485300019007bf0d0006020724e520209c
:20486000000000000000000000000000000000000000000000000000000000000000000038
:20488000000000000000000000000000000012418800000000000000000e0025800000008a
:2048a0002800960000000000000000000002a405500002808ff8330000006c30cfcc0000cc
:0d48c00002f8fb634400040240150f3010a5
:2048cd000000000000000000000000000000000000000000000000000000000000000000cb
:2048ed0000000000000000000000000000000000000000000000000000007a25b800000054
:20490d00016896c0000071c12140000000038fa3300000718ab703c000040e38ce332200f1
:0d492d000000c00000000002000def70242b
:20493a0000000000000000000000000000000000000000000000000000000000000000005d
:20495a00000000000000000000000000000000000000000000000000000000258000000098
:20497a0000009600000008804140200001c637acc00000601b1c3c0000001c0260cc1000c7
:0d499a000000800000000001c2b40ff0001a
:2049a7000000000000000000000000000000000000000000000000000000000000000000f0
:2049c70000000000000000000000000080000000000000000000000009985a25b00020a6ba
:2049e700016896c00100b81f771d000040038000000000050e00000000000e70cc55000010
:0d4a070001b017fa850108140040000000fe
:204a1400000000000000000000000000000000000000000000000000000000000000000082
:204a34000000000000000000000000000000000000000000000000000700082582000004a8
:204a540000209600000070eb6708000808078000000000008000000000000000205508002e
:0d4a74000078fbb29c000000020000000072
:204a8100000000000000000000000000000000000000000000000000000000000000000015
:204aa10000000000000000000000000008000000000000000000010009987a25b0040020d8
:204ac100016896400000781f63300500100280000000008d099b83c0000026020caa000083
:0d4ae1000080f00000000008e2000000006e
:204aee000000000000000000000000000000000000000000000000000000000000000000a8
:204b0e000000000000000000000000000100000000000000000003000100082582040004cb
:204b2e0000209600000000993ccc00000802c000000000058ff03c0000003c3fc0550040b6
:0d4b4e0000d1800000000012628000000015
:204b5b0000000000000000000000000000000000000000000000000000000000000000003a
:204b7b0000000000000000000000000008000315440000000000001000007225b000000659
:204b9b00006c3320400000002bc100001a069decc00002a000f3f302100000036b33100556
:0d4bbb000010182954c00000000000000088
:204bc8000000000000000000000000000000000000000000000000000000000000000000cd
:204be800000000000000000000000000070ad42a8400000000000008000000258500000068
:204c080001dccc00000010f043c0040009c7ed933000283000570cc00001443d79cc00001a
:0d4c280000008f42a8000000000000000006
:204c350000000000000000000000000000000000000000000000000000000000000000005f
:204c550000000000000000000000000008000000000000000000038100007225b00e001e40
:204c750001eec340380071f000000000016075a330200003805eaa80000e807258f000393f
:0d4c9500320003abd500f0000280000000eb
:204ca2000000000000000000000000000000000000000000000000000000000000000000f2
:204cc200000000000000000000000000070f0000000000000000000003000025840000020e
:204ce20003d8e201000008b0000000400023860cc000002080042a8200010073500f000262
:0d4d02008400030140210002440000000075
:204d0f00000000000000000000000000000000000000000000000000000000000000000084
:204d2f000000000000000000000000000008d33dc000000000000110800f5225b00020267f
:204d4f0064000000000039956d91430022078ea96220400580db33008000146fcecc02007d
:0d4d6f000019e16b0d800a000040000000fb
:204d7c00000000000000000000000000000000000000000000000000000000000000000017
:204d9c000000000000000000000000000f0c1a3fc000000000000320001808258400402e69
:204dbc002400000000010881ea900000024000096000100d00f00cc20000003d6033000059
:0d4ddc000001cd27440004800240000000cb
:204de9000000000000000000000000000000000000000000000000000000000000000000aa
:204e09000000000000000000000000000001fa3dc08000000000001001997225b401017e9c
:204e2900380bb1680000d8cbabd5800001e000000000000d9a3ab30080005e3f4a33020158
:0d4e49000099f77ccc400002000000000042
:204e560000000000000000000000000000000000000000000000000000000000000000003c
:204e76000000000000000000000000000f08d43fc2000000000000000008082580010084f6
:204e960001de72010002189b42802000000000000000000500700cc02000b43dd0cc0080a5
:0d4eb60080d0873f30000000400000000069
:204ec3000000000000000000000000000000000000000000000000000000000000000000cf
:204ee300000000000000000000000000070833bcc8c000000000000010007a25b8000020a2
:204f03007fdaf0400002300dba85000003c05efcc00089070080198000000002fa330000d2
:0d4f23000031e771540000140017ea040883
:204f3000000000000000000000000000000000000000000000000000000000000000000061
:204f50000000000000000000000000000080d83c0000000000000000200000258000801c4c
:204f700039ede2100010b80b6ad4040001e36e93300001008052a6420000002f49cc0000e0
:0d4f900000f800c15400000000010a0800f4
:204f9d000000000000000000000000000000000000000000000000000000000000000000f4
:204fbd00000000000000000000000000001cf63dc00000000000000100005a25b000002075
:204fdd00057a550100008089e8ccc0000866ccc330000020003eb30000009e000000000086
:0d4ffd000081c56bc1000008029f9ff000fd
:20500a00000000000000000000000000000000000000000000000000000000000000000086
:20502a0000000000000000000000000000105ebfc000000000000000000000258200002ca6
:20504a00201055000000b081f330000014034d9cc000004f00f78cc220013e0000000000ba
:0d506a0000f101b744200014c034db7010c9
:20507700000000000000000000000000000000000000000000000000000000000000000019
:205097000000000000000000000000000f8ff73f400000000000004009985a25b8000024a9
:2050b700394b02408080001760cc0c02e06015ccc02000518156258080002004000000024e
:0d50d7000010016fc10100000006a550008f
:2050e4000000000000000000000000000000000000000000000000000000000000000000ac
:20510400000000000000000000000002011effbfc00000000000000001000825800000ae90
:20512400215da101010070e94330020401c01d033080003f0800258220002438000000017c
:0d51440000989d6f880000c0000305500812
:2051510000000000000000000000000000000000000000000000000000000000000000003e
:20517100000000000000000000000000018e0000000000000000011108005a25980000045a
:2051910062fef55100040187b2810200e80025cf000008878dfbf30000802002dcf0010042
:0d51b1000070e3795400ca014000000000c6
:2051be000000000000000000000000000000000000000000000000000000000000000000d1
:2051de000000000000000000000000000010000000000000000001000100082580000034be
:2051fe0001d0a0080002000d83d4000014020500f00000079f73ccc200400402600f21002a
:0d521e000009c04154404000024000000063
:20522b00000000000000000000000000000000000000000000000000000000000000000063
:20524b00000000000000000000000000000000000000000000000000001e00295000001c90
:20526b002d4bcc00000000fda4cca000504026b330000001811f4cc0200156685e550004f6
:0d528b00005000000000000003dd83310032
:205298000000000000000000000000000000000000000000000000000000000000000000f6
:2052b800000000000000000000000000000000000000000000000000001ef016800080169c
:2052d80020693309002071a9773000000003df9cc100000f0f133300108cb40010550800b0
:0d52f8000008000000000000421fbcc000c4
:20530500000000000000000000000000000000000000000000000000000000000000000088
:2053250000000000000000000000000000000000000000000000038008001711400e006007
:20534500006ca06039388000000000e00006c0e3302008058f87a580000000005acc0000a4
:0d536500007803b8cc20f003c636fe24000b
:2053720000000000000000000000000000000000000000000000000000000000000000001b
:205392000000000000000000000000000000000000000000000000000f003ed28040009488
:2053b2003cd0fa010200d0b00000000000020103311003801a971a4220002c03de33088093
:0d53d200000007f730010003c7c6ef000020
:2053df000000000000000000000000000000000000000000000000000000000000000000ae
:2053ff00000000000000000000000000000000000000000000000000080093e85800002093
:20541f00020ee248000200a7f3d40002600066af00000000005ba58280004001683303006b
:0d543f000000000000000002e626ad140091
:20544c00000000000000000000000000000000000000000000000000000000000000000040
:20546c0000000000000000000000000000000000000000000000000001091f96c000001c85
:20548c003859d10100050101428004042003df00f00000000008258600008003d0cc1800f0
:0d54ac001000900000000001e0049c30049e
:2054b9000000000000000000000000000000000000000000000000000000000000000000d3
:2054d90000000000000000000000000000000000000000000000000000187f9548008000bf
:2054f90006f8a56080008011b95400000a06bd83303000001b1e8cc890002068000000011c
:0d5519000001a7eccc00020067e78d150033
:20552600000000000000000000000000000000000000000000000000000000000000000065
:205546000000000000000000000000000000000000000000000000000000041540004600a6
:205566003f60aa00000050e0c154000017c40d0cc00040000a1c3300000004000000000244
:0d5586008050016b300004000345dc300054
:205593000000000000000000000000000000000000000000000000000000000000000000f8
:2055b300000000000000000000000000000000000000000000000000071e530cc640000648
:2055d30000ec5500008071873330080000e60de55018120781b64cc000001639fc330080fa
:0d55f3000011e1b258080011c604dfb10834
:2056000000000000000000000000000000000000000000000000000000000000000000008a
:205620000000000000000000000000000000000000000000000000000088b7f30000000038
:20564000340055000128910900cc020007e40305500020000897f3002000342eeccc0800f9
:0d56600000080002580000402006cff000b6
:20566d0000000000000000000000000000000000000000000000000000000000000000001d
:20568d00000000000000000000000000000000000000000000000000080a77ac5080001eda
:2056ad0060e85500000001f029a40e06046036ca0600005900723c00000006007d33210026
:0d56cd0008800770cc8800e00027be241084
:2056da000000000000000000000000000000000000000000000000000000000000000000b0
:2056fa000000000000000000000000000000000000000000000000000108002c4000001407
:20571a0030105500000001fb4258040a00000e0fa084002f80f403c00000142ececc0000b3
:0d573a0000709d03300000004204ef0200eb
:20574700000000000000000000000000000000000000000000000000000000000000000042
:20576700000000000000000000000000200000000000000000000000051b000000004000a2
:205787000248cc02800081a0000000000162b6cf0000004b00078cc0800020720c6902003a
:0d57a7000050e000000002006047fe040416
:2057b4000000000000000000000000000000000000000000000000000000000000000000d5
:2057d400000000000000000000000000500000000000000000000000005e00000000a00067
:2057f40023d033004000f1000000000a00041c00f010004f0c040cc2400c3c6ec096080093
:0d58140000910000000000000215df800080
:20582100000000000000000000000000000000000000000000000000000000000000000067
:20584100000000000000000000000000000000000000000000000000019cbebd5040a00cf3
:2058610033f8a5410038800b6295010081607e83321000001d36bc00200020040c330201a2
:0d5881000078000000000221e067fd140027
:20588e000000000000000000000000000000000000000000000000000000000000000000fa
:2058ae000000000000000000000000000000000000000000000000000010b4140000000200
:2058ce0042c0aa210000f00d02a88000e003a58cc01000001e7c03c040002c2010330002b4
:0d58ee00a8080000000000026204bc308029
:2058fb0000000000000000000000000000000000000000000000000000000000000000008d
:20591b00000000000000000000000000000000000000000000000000030000000000000069
:20593b0000c10080040090037ccc0002200680000000002018f6ccc000000002f93300009c
:0d595b0085781d78cc400a000000c5510081
:2059680000000000000000000000000000000000000000000000000000000000000000001f
:205988000000000000000000000000000000000000000000000000000000000000000000ff
:2059a800280c00000400d80db7302004000000000000000009fbb3004000002ce8cc0100df
:0d59c80005008ff3300004c1c0050aa000e7
:2059d5000000000000000000000000000000000000000000000000000000000000000000b2
:2059f50000000000000000000000000000000000000000000000038005000000000000000a
:205a150001e89680380401ef2bc10000000340000003a0099c0000000e001431cca0408050
:0d5a35001259f5e15400e006003caf5400aa
:205a4200000000000000000000000000000000000000000000000000000000000000000044
:205a62000000000000000000000000000000000000000000000000000080000000000000a4
:205a8200380b9600000201032b88040003424000000010071000000000003c40e0fa010269
:0d5aa2008401a04154000003c01e0a001042
:205aaf000000000000000000000000000000000000000000000000000000000000000000d7
:205acf00000000000000000000000000000000000000400000000000001800000000e0007f
:205aef0001e99680001119f7b3c000000202e5c3300002a001babd50200000600eb140003e
:0d5b0f0008100978cc08200062afe33100d7
:205b1c00000000000000000000000000000000000000000000000000000000000000000069
:205b3c000000000000000000000000201000000000000000000000200000000000000000f9
:205b5c00380c96000006f0ad403c000003468eccc010000008bc140200a03c365f720100ff
:0d5b7c000008ff0330000007441fdcc104d7
:205b89000000000000000000000000000000000000000000000000000000000000000000fc
:205ba900000000000000000000000000000000000000000000000000079d5afc10000000d2
:205bc900044896800085800128cc800005c795af0000000f9e9fb0d0000026014fa14000ad
:0d5be90000580331540004a8000000000023
:205bf60000000000000000000000000000000000000000000000000000000000000000008f
:205c1600000000000000000000000000000000000000000000000000009e177880000000c1
:205c3600342c96008100100173300600c8203e00f000030f909674400000040369a7008084
:0d5c56000000004154000a10000000000092
:205c6300000000000000000000000000000000000000000000000000000000000000000021
:205c8300000000000000000000000000200000000000000000000010081a5f3540000204d5
:205ca300016996800100b8ed6bd5220a000634a330200800009bbc10000006061ab161017a
:0d5cc30000800bf0cc080015c31cc552007a
:205cd0000000000000000000000000000000000000000000000000000000000000000000b4
:205cf0000000000000000000000000000000000000000000000000028718db74080000009c
:205d1000002c96080000390f8280020001c2fd0cc0000000001bb44040002c2bcf720000ea
:0d5d300000b0f7433000001407420550009a
:205d3d00000000000000000000000000000000000000000000000000000000000000000046
:205d5d00000000000000000000000000000000000000000000000000070e5fbc1040002086
:205d7d0061e896810039100729540000094027e3302000070d9ef0d02000242fdaf54080c2
:0d5d9d00301193a4cc0000080201855200d3
:205daa000000000000000000000000000000000000000000000000000000000000000000d9
:205dca00000000000000000000000000000000000000000000000000009013f88000003c62
:205dea00402c9600003808f0c15400001240260cc080030f9e92344000003e20e050010049
:0d5e0a00000ce1e730040a10000c0aa000b3
:205e170000000000000000000000000000000000000000000000000000000000000000006b
:205e3700000000000000000000000000000000000000000000000000000f9b190000000088
:205e570000c99680010070c1f8cc0800000000099020000b80bfbd50000444241fe2400091
:0d5e770000300862580c040343c0a552001f
:205e84000000000000000000000000000000000000000000000000000000000000000000fe
:205ea400000000000000000000000000000000000000000000000000001ed72900000000c0
:205ec4000009960800000103c330000000022c06600000038e3c140200008223ddd109420b
:0d5ee4000008a901a4000a02e79c0aa00022
:205ef100000000000000000000000000000000000000000000000000000000000000000091
:205f11000000000000000000000000000000000000000000000000000199fb805081002664
:205f310070e996800120009000000000084687a3302000038fda3d44000a003cec33000016
:0d5f510030f1a538cc080425e715e3300039
:205f5e00000000000000000000000000000000000000000000000000000000000000000023
:205f7e00000000000000000000000000000000000000000000000000000cfc29c0110016eb
:205f9e00400d9600000071f00000000004242d0cc0800000183c2800000000357ccc1000f5
:0d5fbe0000b8cf0330000a01c79facc0003f
:205fcb000000000000000000000000000000000000000000000000000000000000000000b6
:205feb00000000000000000000000000000000000000000000000000500ff3dd0000000067
:20600b0005c996a00000d80b3b0d000000060eff040002819bf24cc020000000c0008000b3
:0d602b0004d8037154401008002ec330004b
:20603800000000000000000000000000000000000000000000000000000000000000000048
:20605800000000000000000000000000100000000000000000000000001dfb140000001cd0
:20607800340a960400301007e388000a0046ccde2000000f0957b300000000002f00000013
:0d6098000210a0415400002c000fdcc000dd
:2060a5000000000000000000000000000000000000000000000000000000000000000000db
:2060c5000000000000000000000000000000000000000000000003800001b029400000001e
:2060e50000c896803a000011729480e40207ecaf0403901f9a57295400000004c896803826
:0d61050030181d33c0000000004ecf5208be
:2061120000000000000000000000000000000000000000000000000000000000000000006d
:206132000000000000000000000000000000000000000000000000038f0e5000000002005b
:20615200002e96000100308d01540008c1c3ccbd1100083b00102a82200000342e96000019
:0d61720001f0a1003c20000002820f50004f
:20617f00000000000000000000000000000000000000000000000000000000000000000000
:20619f00000000000000000000000000000000000000000000000000001efbb9408000004e
:2061bf0079c89680000080017bd5200000604000000000070a9bbd58000020014896800098
:0d61df002850192bd50008100000e55000d5
:2061ec00000000000000000000000000000000000000000000000000000000000000000093
:20620c00000000000000000000000000000000000000040000000000000094114000000089
:20622c00400896100000d08b028042000003c000000000009034280000001c282f9600008d
:0d624c000008814280200068039c0aa00029
:20625900000000000000000000000000000000000000000000000000000000000000000025
:20627900000000000000000000000000000000000000000000000000081ebb3040800a1614
:20629900796896800000800b72940000020007ef000433cf9996ccc800000001c8968000bd
:0d62b9000001a3a154000000000f8330205d
:2062c6000000000000000000000000000000000000000000000000000000000000000000b8
:2062e6000000000000000000000000000000000000000000000000000f105c31800000026a
:20630600002e9601000010050154400000402e00f0003aa18e7eb300000000000d9600006d
:0d632600000000c154000000003d0cc0103c
:2063330000000000000000000000000000000000000000000000000000000000000000004a
:2063530000000000000000000000000000000000000000000000000000007ba9c000000046
:2063730005c89680010001eb6bc100003403a7af560001081a86ec580000007d4896800261
:0d63930080500770cc88008007f5cf000413
:2063a0000000000000000000000000000000000000000000000000000000000000000000dd
:2063c000000000000000000000000000000000000000000000000000090f97948000003cbe
:2063e000280b96004000f097bb4400000843be0a0000008700131c80000140680f960080f7
:0d64000000300183300004a3c7fe00f0004f
:20640d0000000000000000000000000000000000000000000000000000000000000000006f
:20642d00000000000000000000000000000000000000000000000000080176b140802140fe
:20644d0001c896a0000081c00000000001c01cca700021800192bc00000080686896a00062
:0d646d003a1999ea81040201c7c00000003d
:20647a00000000000000000000000000000000000000000000000000000000000000000002
:20649a000000000000000000000000000000000000000000000000000b0f0c3140004740c4
:2064ba00002e96000000f1a0000000000003e5ea2010300b0d9403c0008100002d96000088
:0d64da003408e143e8000032e30000000058
:2064e700000000000000000000000000000000000000000000000000000000000000000095
:206507000000000000000000000000000000000000000400000000100f9817fc1040000056
:2065270071c896a00000100b770d020002400fef040000000137bd5000001c78e896800425
:0d654700000017f95420080040000000007b
:20655400000000000000000000000000000000000000000000000000000000000000000027
:206574000000000000000000000000000000000000008000000000000b89de388000002439
:20659400000c960000009887e788000400600d8e20800081083c2808000026402f960000f8
:0d65b40000009041542004026380000000ac
:2065c1000000000000000000000000000000000000000000000000000000000000000000ba
:2065e100000000000000000000000000000000000000000000000000081f000000000680ed
:206601000048968080009003e0cc0000074765933000000381bb295000001601e896800019
:0d662100028009e281040000020000000078
:20662e0000000000000000000000000000000000000000000000000000000000000000004c
:20664e000000000000000000000000000000000000000000000000000b1800000000010008
:20666e00002e960000007807ab30020003c21eacc000005988d82a8a100800000d96000075
:0d668e000590fb43e8200000040000000020
:20669b000000000000000000000000000000000000000000000000000000000000000000df
:2066bb00000000000000000000000010000000000000000000000000001e0000000000167b
:2066db007049968000005801e954200003c6ddac34000001813abd5000802004e896800029
:0d66fb008019a730cc4000006616af54088f
:20670800000000000000000000000000000000000000000000000000000000000000000071
:206728000000000000000000000000000000000000000000000000000510000000004000fc
:20674800400a960400000000c15400000047e48e210003090ff0280220401c300a960401d8
:0d67680005b10dff30020400001e0a0110f3
:20677500000000000000000000000000000000000000000000000000000000000000000004
:206795000000000000000000000000000000000000000000000003801b80b3bd5a000000fc
:2067b50001699680380039ed3a9400e007c035aa0403800000026c5800002001c9969038fd
:0d67d500320003fa9500e000001cca0480a9
:2067e200000000000000000000000000000000000000000000000000000000000000000097
:20680200000000000000000000000000000000000000000000000001af0f1028004000003f
:20682200000e96000000010181542000ebc0040f5200100000779c8204001c002c96000222
:0d684200010001c2a824000000050fa10004
:20684f00000000000000000000000000000000000000000000000000000000000000000029
:20686f000000000000000000000000000000000000000000000000000000bb894000002065
:20688f0000e99680000071913bd52000026024ef540010080013154000601678e896800182
:0d68af000001fd7bd5010806005eef5408d6
:2068bc000000000000000000000000000000000000000000000000000000000000000000bc
:2068dc0000000000000000000000000000000000000000000000000010001bc54000003c30
:2068fc00002a9600000138af42802400e1c2f50a0088080100041540000000000d960000bf
:0d691c000101af8280040000435f0a01000a
:2069290000000000000000000000000000000000000000000000000000000000000000004e
:20694900000000000000000000000000000000000000000000000000010016a0c080000433
:20696900016896800000818d2a85000003e386e55000000180b38cc0800c00006996a00086
:0d69890005d017879d84140203ddaa0600c7
:206996000000000000000000000000000000000000000000000000000000000000000000e1
:2069b60000000000000000000000000000000000000000000000000000807038c2000002d5
:2069d600000a9601002810c3aa9c000002600005508000000ad03300000e00000c960000cb
:0d69f6000018f9ad08000a0042e50fa0806e
:206a0300000000000000000000000000000000000000000000000000000000000000000073
:206a230000000000000000000000000000000000000000000000000808089329400000142b
:206a430000e996900080000febd5820002001483322810078e00000000a00004e896900009
:0d6a63008001a06ec50400020304cf0000f6
:206a7000000000000000000000000000000000000000000000000000000000000000000006
:206a900000000000000000000000000000000000000000000000001005109c1540000000d0
:206ab000000a96000000000302800404c3c00f0cc000280f80000000008000280b96000239
:0d6ad0000000bb3dc8200001478f00f08092
:206add00000000000000000000000000000000000000000000000000000000000000000099
:206afd00000000000000000000000000000000000000000000000000050900000000004427
:206b1d00696896800285100d7fc18000000200e33020000719bebd50400004004996900139
:0d6b3d003a10a82954021408e05dcf0000b2
:206b4a0000000000000000000000000000000000000000000000000000000000000000002b
:206b6a00000000000000000000000000000000000000000000000000001800000000008271
:206b8a00000f9601001a30033f88000800040103308008058d702800400002000c96000259
:0d6baa008408b342a804020423b700f000e1
:206bb7000000000000000000000000000000000000000000000000000000000000000000be
:206bd700000000000000000000000000000000000000000000000000018ebe295440000094
:206bf70004c99680000010900000000001e76eaf0004130f8c3fbd4000000038e8968000d2
:0d6c17000000e3eccc04000043e5a33020b6
:206c2400000000000000000000000000000000000000000000000000000000000000000050
:206c44000000000000000000000000000000000000000000000000000f00b02a80000001c6
:206c6400380a9600010008800000000002461e00f0002805101c2800100000400996008069
:0d6c84000001ad2b30200000223c0cc200ae
:206c91000000000000000000000000000000000000000000000000000000000000000000e3
:206cb1000000000000000000000000000000000000000000000000000000000000000000c3
:206cd1000168968080001815ba95000088e00000000000080f7f60d000040401e9968001f1
:0d6cf10000d0e97ccc00044007cef3300851
:206cfe00000000000000000000000000000000000000000000000000000000000000000076
:206d1e00000000000000000000000000000000000000000000000000000000000000000451
:206d3e0000099600000090fdc1540502042000000000000b1b3f74c0008000000c96080006
:0d6d5e0000b00b2f3020000007f7ccc00064
:206d6b00000000000000000000000000000000000000000000000000000000000000000008
:206d8b00000000000000000000000011000000000000000000000000071f5b19000000201d
:206dab0001c89680002019836281000eaa02018e240010050000000000022004e9968000a3
:0d6dcb000081900000000003c015ef008063
:206dd80000000000000000000000000000000000000000000000000000000000000000009b
:206df800000000000000000000000000000000000000000000000000000f3b690000003c8c
:206e1800000d96040000300303d4010a1443e58d101000000000000000003c3c099604009a
:0d6e38000050d00000000022c00500f00056
:206e450000000000000000000000000000000000000000000000000000000000000000002d
:206e65000000000000000000000000000000000000000000000000000001000000000020ec
:206e850001c89680380071b3b29503e00607c7845003805781fbbd54404020006996803822
:0d6ea5000110cf3a8104e0000001c330a0cd
:206eb2000000000000000000000000000000000000000000000000000000000000000000c0
:206ed200000000000000000000000000000000000000000000000000070d000000000a0c76
:206ef200000e9610000098a1c2a8000009c75ef4a00428600f102800402424242e96100212
:0d6f120002090983d40010000001033000c3
:206f1f00000000000000000000000000000000000000000000000000000000000000000052
:206f3f000000000000000000000000000000000000000000000000000f8097f54000001cbb
:206f5f0001c89680000080053bd5000003e05ea5500000070efbfc100004060169968000c2
:0d6f7f0000700973dc0010000016ef548054
:206f8c000000000000000000000000000000000000000000000000000000000000000000e5
:206fac00000000000000000000000000000000000000000000000000010017b400000002f7
:206fcc00000896004020500b42802204e263c305500000008097f88040a0020028960000d8
:0d6fec0010000ba7fc201a0142bd0501801a
:206ff900000000000000000000000000000000000000000000000000000000000000000078
:207019000000000000000000000000000000000000000000000000000700dab94000001667
:2070390000e8968100008011b29504000000000000000029089bfc1000000e004996800017
:0d705900329987b2818008200685e550003d
:2070660000000000000000000000000000000000000000000000000000000000000000000a
:20708600000000000000000000000000000000000000000000000000050bf22600000002c0
:2070a600002e9600003070d9c2a840042403800000000001197ef444000001240b960100a1
:0d70c60005100983e800000240010550009c
:2070d30000000000000000000000000000000000000000000000000000000000000000009d
:2070f300000000000000000000000000000000000000000000000003010192244080010001
:207113006dc996800400100dbbd40400000000000000400000dfa850004200016996800083
:0d71330000500febc12002020625c33030d2
:2071400000000000000000000000000000000000000000000000000000000000000000002f
:207160000000000000000000000000000000000000000000000000000f0e9434c200000068
:20718000280a9620000018818280000040100000000040500092a9c0400e00002e9600007f
:0d71a00001f8032b88000062c7b50cc20087
:2071ad000000000000000000000000000000000000000000000000000000000000000000c2
:2071cd000000000000000000000000000000000000000000000000000000f21d0000000093
:2071ed0000699680000000f0000000002007deaa1480000381dae000000c160169968000f0
:0d720d0038f1f16bd58200d4026ccf000087
:20721a00000000000000000000000000000000000000000000000000000000000000000054
:20723a000000000000000000000000000000000000000000000000000000561400000000ca
:20725a00300f96000000019000000000000224aa700000008c3fc000008000000b960800ba
:0d727a000070870280000a08076e00f00017
:207287000000000000000000000000000000000000000000000000000000000000000000e7
