:02000000ff00ff
:080002004c6174746963650030
:17000a00694345637562653220323031372e30382e32373934300069
:15002100506172743a2069434534304c50384b2d434d3831003f
:1b003600446174653a2053657020313320323031392030343a32393a3131007a
:0200510000ffae
:040053007eaa997e6a
:02005700510056
:0200590001059f
:03005b00920020f0
:03005e00620367d3
:0300610072011019
:0300640082000017
:02006700110086
:02006900010193
:20006b00000000000000000000000000000000000000000000000000000000000000000075
:20008b00000000000000000000000000000000000000000000000000000000000000000055
:2000ab00000000000000000000000000000000000000000000000000000000000000000035
:0d00cb000000000000000000000000000028
:2000d800000000000000000000000000000000000000000000000000000000000000000008
:2000f8000000000000000000000000000000000000000000000000000000000000000000e8
:200118000000000000000000000000000000000000000000000000000000000000000000c7
:0d01380000000000000000000000000000ba
:2001450000000000000000000000000000000000000000000000000000000000000000009a
:2001650000000000000000000000000000000000000000000000000000000000000000007a
:2001850000000000000000000000000000000000000000000000000000000000000000005a
:0d01a500000000000000000000000000004d
:2001b2000000000000000000000000000000000000016000000000000000000000000000cc
:2001d20000000000000000000000000000000000000000000000000000000000000000000d
:2001f2000000000000000000000000000000000000000000000000000000000000000000ed
:0d02120000000000000000000000000000df
:20021f000000000000000000000000000000000000000100000000000000000000000000be
:20023f0000000000000000000000000000000000000000000000000000000000000000009f
:20025f0000000000000000000000000000000000000000000000000000000000000000007f
:0d027f000000000000000000000000000072
:20028c00000000000000000000000000000000000000000000000000000000000000000052
:2002ac00000000000000000000000000000000000000000000000000000000000000000032
:2002cc00000000000000000000000000000000000000000000000000000000000000000012
:0d02ec000000000000000000000000000005
:2002f900000000000000000000000000000000000000000090000000000000000000000055
:200319000000000000000000000000000000000000000000000000000000000000000000c4
:200339000000000000000000000000000000000000000000000000000000000000000000a4
:0d0359000000000000000000000000000097
:200366000000000000000000000000000000000000000000800000000000000000000000f7
:20038600000000000000000000000000000000000000000000000000000000000000000057
:2003a600000000000000000000000000000000000000000000000000000000000000000037
:0d03c600000000000000000000000000002a
:2003d300000000000000000000000000000000000001e040000000000000000000000000e9
:2003f3000000000000000000000000000000000000000000000000000000000000000000ea
:200413000000000000000000000000000000000000000000000000000000000000000000c9
:0d04330000000000000000000000000000bc
:2004400000000000000000000000000000000000000000000000000000000000000000009c
:2004600000100000000000000000000000000000000000000000000000000000000000006c
:2004800000000000000000000000000000000000000000000000000000000000000000005c
:0d04a000000000000000000000000000004f
:2004ad000000000000000000000000000000000000000003400000000000000000000000ec
:2004cd0000000000000000000000000000000000000000000000000000000000000000000f
:2004ed000000000000000000000000000000000000000000000000000000000000000000ef
:0d050d0000000000000000000000000000e1
:20051a000000000000000000000000000000000010000002c00000000000000000000000ef
:20053a000000000000000000000000000000000000000000000000000000000000000000a1
:20055a00000000000000000000000000000000000000000000000000000000000000000081
:0d057a000000000000000000000000000074
:2005870000000000000000000000000000000000000000000000000000000600000000004e
:2005a700000000000000000000000000000000000000000000000000000000000000000034
:2005c700000000000000000000000000000000000000000000000000000000000000000014
:0d05e7000000000000000000000000000007
:2005f4000000000000000000000000000000000010000000000000000000000000000000d7
:200614000000000000000000000000000000000000000000000000000000000000000000c6
:200634000000000000000000000000000000000000000000000000000000000000000000a6
:0d0654000000000000000000000000000099
:20066100000000000000000000000000000000000000000000000000000000000000000079
:20068100000000000000000000000000000000000000000000000000000000000000000059
:2006a100000000000000000000000000000000000000000000000000000000000000000039
:0d06c100000000000000000000000000002c
:2006ce000000000000000000000000000000000020000000000000000000000000000000ec
:2006ee000000000000000000000000000000000000000000000000000000000000000000ec
:20070e000000000000000000000000000000000000000000000000000000000000000000cb
:0d072e0000000000000000000000000000be
:20073b0000000000000000000000000000000000000000000000000000000000000000009e
:200b10000000000000000000000000000000000000000000000000060000000000000000bf
:200b30000000000000000000000000000000000000000000000000000000000000000000a5
:200b5000000000000000000000000000000000000000000000000000000000000000000085
:0d0b70000000000000000000000000000078
:200b7d00000000000000000000000000000000000000000000000000000000000000000058
:20124d0000000000000000000000000000000000000000801680000000000000000000006b
:20126d00000000000000000000000000000000000000000000000000000000000000000061
:20128d00000000000000000000000000000000000000000000000000000000000000000041
:0d12ad000000000000000000000000000034
:2012ba0000000000000000000000000000000000000000f02940400000000000000000007b
:2012da000000000000000000000000000000000000000000000000000000000000000000f4
:2012fa000000000000000000000000000000000000000000000000000000000000000000d4
:0d131a0000000000000000000000000000c6
:201327000000000000000000000000000000000000000000000000000000000000000000a6
:20134700000000000000000000000000000000000000000000000000000000000000000086
:20136700000000000000000000000000000000000000000000000000000000000000000066
:0d1387000000000000000000000000000059
:20139400000000000000000000000000000000000000000000000000000000000000000039
:2013b400000000000000000000000000000000000000000000000000000000000000000019
:2013d4000000000000000000000000000000000000000000000000000000000000000000f9
:0d13f40000000000000000000000000000ec
:201401000000000000000000000000000000000000000000000000000000000000000000cb
:201421000000000000000000000000000000000000000000000000000000000000000000ab
:2014410000000000000000000000000000000000000000000000000000000000000000008b
:0d146100000000000000000000000000007e
:20146e00000000000000000000000000000000000000090000000000000000000000000055
:20148e0000000000000000000000000000000000000000000000000000000000000000003e
:2014ae0000000000000000000000000000000000000000000000000000000000000000001e
:0d14ce000000000000000000000000000011
:2014db00007000000000000000000000000000000000000000000000000000000000000081
:2014fb000000000000000000000000000000000000000000000000000000000000000000d1
:20151b000000000000000000000000000000000000000000000000000000000000000000b0
:0d153b0000000000000000000000000000a3
:20154800004000000000000000000000000000000000000000000000000000000000000043
:20156800000000000000000000000000000000000000000000000000000000000000000063
:20158800000000000000000000000000000000000000000000000000000000000000000043
:0d15a8000000000000000000000000000036
:2015b500000000000000000000000000000000000000000000000000000000000000000016
:2015d5000000000000000000000000000000000000000000000000000000000000000000f6
:2015f5000000000000000000000000000000000000000000000000000000000000000000d6
:0d16150000000000000000000000000000c8
:201622000000000000000000000000000000000000000000000000000000000000000000a8
:20164200000000000000000000000000000000000000000000000000000000000000000088
:20166200000000000000000000000000000000000000000000000000000000000000000068
:0d168200000000000000000000000000005b
:20168f0000000000000000000000000000000000000000000000000000000000000000003b
:2016af0000000000000000000000000000000000000000000000000000000000000000001b
:2016cf000000000000000000000000000000000000000000000000000000000000000000fb
:0d16ef0000000000000000000000000000ee
:2016fc000000000000000000000000000000000000000000000000000000000000000000ce
:20171c000000000000000000000000000000000000000000000000000000000000000000ad
:20173c0000000000000000000000000000000000000000000000000000000000000000008d
:0d175c000000000000000000000000000080
:2017690000040000000000000000000000000000000000000000000000000000000000005c
:20178900000000000000000000000000000000000000000000000000000000000000000040
:2017a900000000000000000000000000000000000000000000000000000000000000000020
:0d17c9000000000000000000000000000013
:2017d6000020000000000000000000000000000000000000000000000000000000000000d3
:2017f6000000000000000000000000000000000000000000000000000000000000000000d3
:201816000000000000000000000000000000000000000000000000000000000000000000b2
:0d18360000000000000000000000000000a5
:20184300000000000000000000000000000000000000000000000000000000000000000085
:20186300000000000000000000000000000000000000000000000000000000000000000065
:20188300000000000000000000000000000000000000000000000000000000000000000045
:0d18a3000000000000000000000000000038
:2018b000000000000000000000000000000000000000000000000000000000000000000018
:2018d0000000000000000000000000000000000000000000000000000000000000000000f8
:2018f0000000000000000000000000000000000000000000000000000000000000000000d8
:0d19100000000000000000000000000000ca
:20191d00410000000000000000000000000000000000000000000000000000000000000069
:20193d0000000000000000000000000000000000000000000000000000000000000000008a
:20195d0000000000000000000000000000000000000000000000000000000000000000006a
:0d197d00000000000000000000000000005d
:20198a000b0000000000000000000000000000000000000000000000000000000000000032
:2019aa0000000000000000000000000000000000000000000000000000000000000000001d
:2019ca000000000000000000000000000000000000000000000000000000000000000000fd
:0d19ea0000000000000000000000000000f0
:2019f7000000000000000000000000000000000000000000000000000000000000000000d0
:201a17000000000000000000000000000000000000000000000000000000000000000000af
:201a370000000000000000000000000000000000000000000000000000000000000000008f
:0d1a57000000000000000000000000000082
:201a64008000000000000000000000000000000000000000000000000000000000000000e2
:201a8400000000000000000000000000000000000000000000000000000000000000000042
:201aa400000000000000000000000000000000000000000000000000000000000000000022
:0d1ac4000000000000000000000000000015
:201ad100800000000000000000000000000000000000000000000040000000000000000035
:201af1000000000000000000000000000000000000000000000000000000000000000000d5
:201b11000000000000000000000000000000000000000000000000000000000000000000b4
:0d1b310000000000000000000000000000a7
:201b3e00000000000000000000000000000000000000000000000020000000000000000067
:201b5e00000000000000000000000000000000000000000000000000000000000000000067
:201b7e00000000000000000000000000000000000000000000000000000000000000000047
:0d1b9e00000000000000000000000000003a
:201bab0000000000000000000000000000000000000000000000000000000000000000001a
:201bcb000000000000000000000000000000000000000000000000000000000000000000fa
:201beb000000000000000000000000000000000000000000000000000000000000000000da
:0d1c0b0000000000000000000000000000cc
:201c18000000000000000000000000000000000000000000000000000000000000000000ac
:201c380000000000000000000000000000000000000000000000000000000000000000008c
:201c580000000000000000000000000000000000000000000000000000000000000000006c
:0d1c7800000000000000000000000000005f
:201c850000000000000000000000000000000000000000000000000000000000000200003d
:201ca50000000000000000000000000000000000000000000000000000000000000000001f
:201cc5000000000000000000000000000000000000000000000000000000000000000000ff
:0d1ce50000000000000000000000000000f2
:201cf2000000000000000000000000000000000000000000000000000000000000000000d2
:2020c700000000000000383c00000000000000000000000000000000000000000000000085
:2020e7000000000000000000000000000000000000000000000000000000000000000000d9
:202107000000000000000000000000000000000000000000000000000000000000000000b8
:0d21270000000000000000000000000000ab
:202134000000000000c0403c0000000000000000000000000000000000000000000000004f
:2021540000000000000000000000000000000000000000000000000000000000000000006b
:2021740000000000000000000000000000000000000000000000000000000000000000004b
:0d219400000000000000000000000000003e
:2021a10000000000000000000000000000000000000000000000000000000000000000001e
:202797000000000000000000000000000000000000000000000000014000000000000000e1
:2027b700000000000000000000000000000000000000000000000000000000000000000002
:2027d7000000000000000000000000000000000000000000000000000000000000000000e2
:0d27f70000000000000000000000000000d5
:202804000000000000000000000000000000000000000000000000000000000000000000b4
:20282400000000000000000000000000000000000000000000000000000000000000000094
:20284400000000000000000000000000000000000000000000000000000000000000000074
:0d2864000000000000000000000000000067
:20287100000000000000000000000000000000000000000000000000000000000000000047
:20289100000000000000000000000000000000000000000000000000000000000000000027
:2028b100000000000000000000000000000000000000000000000000000000000000000007
:0d28d10000000000000000000000000000fa
:2028de000000000000000000000000000000000000000000000000000000000000000000da
:2028fe000000000000000000000000000000000000000000000000000000000000000000ba
:20291e00000000000000000000000000000000000000000000000000000000000000000099
:0d293e00000000000000000000000000008c
:20294b0000000000000000000000000000000000000000000000000000000af050800000a2
:20296b0000000000000000000000000000000000000000000000000000000000000000004c
:20298b0000000000000000000000000000000000000000000000000000000000000000002c
:0d29ab00000000000000000000000000001f
:2029b800000000000000000000000000000000000000000000000000000000f0000000000f
:2029d8000000000000000000000000000000000000000000000000000000000000000000df
:2029f8000000000000000000000000000000000000000000000000000000000000000000bf
:0d2a180000000000000000000000000000b1
:202a2500000000000000000000000000000000000000000000000a00000000000000000087
:202a4500000000000000000000000000000000000000000000000000000000000000000071
:202a6500000000000000000000000000000000000000000000000000000000000000000051
:0d2a85000000000000000000000000000044
:202a920000000000000000000000000000000000000000000000080000000000000000001c
:202ab200000000000000000000000000000000000000000000000000000000000000000004
:202ad2000000000000000000000000000000000000000000000000000000000000000000e4
:0d2af20000000000000000000000000000d7
:202aff000000000000000000000000000000000000000000000000000000000000000000b7
:202b1f00000000000000000000000000000000000000000000000000000000000000000096
:202b3f00000000000000000000000000000000000000000000000000000000000000000076
:0d2b5f000000000000000000000000000069
:202b6c00000000000000000000000000000000000000000000000000240000000000000025
:202b8c00000000000000000000000000000000000000000000000000000000000000000029
:202bac00000000000000000000000000000000000000000000000000000000000000000009
:0d2bcc0000000000000000000000000000fc
:202bd9000000000000000000000000000000000000000000000000000000000000000000dc
:202bf9000000000000000000000000000000000000000000000000000000000000000000bc
:202c190000000000000000000000000000000000000000000000000000000000000000009b
:0d2c3900000000000000000000000000008e
:202c460000000000000000000000000000000000000000000000000000000000000000006e
:202c660000000000000000000000000000000000000000000000000000000000000000004e
:202c860000000000000000000000001000000000000000000000000000000000000000001e
:0d2ca6000000000000000000000000000021
:202cb300000000000000000000000000000000000000000000000000000000000000000001
:202cd3000000000000000000000000000000000000000000000000000000000000000000e1
:202cf3000000000000000000000000000000000000000000000000000000000000000000c1
:20303b0000000000000000000000000008007a800000000000000000000ad22050000080a7
:20305b0064000000080059aba212002000001dfef000000000000000000000000000000006
:0d307b000000000000000000000000000048
:20308800000000000000000000000000000000000000000000000000000000000000000028
:2030a8000000000000000000000000000100d40140000000000000000310f72800000000c0
:2030c8002c0000000000000d80480800000036bff0000000000000000000000000000000fa
:0d30e80000000000000000000000000000db
:2030f5000000000000000000000000000000000000000000000000000000000000000000bb
:203115000000000000000000000000000d0002bd402000000000028005000000000a0000dd
:2031350001c8a560000001bfa21200a001e077cf71300000000000000000000000000000d0
:0d315500000000000000000000000000006d
:2031620000000000000000000000000000000000000000000000000000000000000000004d
:203182000000000000000000000000000180d43e8010000000000200008000000008000080
:2031a20003d05500000001a9004804800023540ff0000000000000000000000000000000f9
:0d31c2000000000000000000000000000000
:2031cf000000000000000000000000000000000000000000000000000000000000000000e0
:2031ef00000000000000000000000040800a00000001000000000000051853e91000001478
:20320f000169f7200000000922120000000675aa5400000000000000000000000000000068
:0d322f000000000000000000000000000092
:20323c00000000000000000000000000000000000000000000000000000000000000000072
:20325c00000000000000000000000000001f00000000000000000000038b1fd000000002b4
:20327c00015dff000000000d0048000000023f0550000000000000000000000000000000ea
:0d329c000000000000000000000000000025
:2032a900000000000000000000000000000000000000000000000000000000000000000005
:2032c9000000000000000000000000000500000000000000000000000001d7a05000000018
:2032e90000e8a540000159ada212000003c67caf54000008080000000000000000000000e5
:0d33090000000000000000000000000000b7
:20331600000000000000000000000000000000000000000000000000000000000000000097
:203336000000000000000000000000000080000000000000000000000d081ea08000003470
:203356000250aa0000020109004800000042f50a0000000f100000000000000000000000a7
:0d337600000000000000000000000000004a
:2033830000000000000000000000000000000000000000000000000000000000000000002a
:2033a3000000000000000000000000010000fa8000000000000000000800f7200000000070
:2033c3006800000000020019221200000000758fd00000000000000000000000000000005f
:0d33e30000000000000000000000000000dd
:2033f0000000000000000000000000000000000000000000000000000000000000000000bd
:2034100000000000000000000000000000005c01400000000000000001003ec00000000000
:2034300000000000000000ad804800000003e6dff00000000000000000000000000000004f
:0d345000000000000000000000000000006f
:20345d0000000000000000000000000000000000000000000000000000000000000000004f
:20347d0000000000000000000000000050185aa9c08000000000000000193720088000206c
:20349d006de8a540000000ab2212800002000000000028001edfccc00000000000000000c3
:0d34bd000000000000000000000000000002
:2034ca000000000000000000000000000000000000000000000000000000000000000000e2
:2034ea0000000000000000000000000020000429c0000000000000000f0804200000001466
:20350a0022d05520000001098048000003c0000000000000005b73020000000000000000d5
:0d352a000000000000000000000000000094
:20353700000000000000000000000000000000000000000000000020000000000000000054
:2035570000000000000000000000000000007f3884c000000000004000015ee8500000067c
:20357700041de2400000000826120000014040000000000000000000000000000000000030
:0d3597000000000000000000000000000027
:2035a4000000000000000000000000000000000000000000000000400000000000000000c7
:2035c40000000000000000000000000000001c3e804000000000000000081bc400000000e6
:2035e4002a5dd1000000000d3c48010000238000000000000000000000000000000000003a
:0d36040000000000000000000000000000b9
:20361100000000000000000000000000000000000000000000000000000000000000000099
:203631000000000000000000000000400000d63d4000000000000000000efab050000006d8
:2036510000000000000031a9a212000001c7bfaf54000003800000000000000000000000be
:0d3671000000000000000400000000000048
:20367e0000000000000000000000000000000000000000000000000000000000000000002c
:20369e000000000000000000000000400b09181680000000000000000010ba9000000000b0
:2036be000000000000000809804800000040350a0000000080000000000200000000000012
:0d36de0000000000000002000000000000dd
:2036eb000000000000000000000000000000000000000000000000000000000000000000bf
:20370b0000000000000000000000000005181680000000000000000000007a25a8000000a4
:20372b0000dff70000000013a212800002000000000000000f000000000000037ef50000da
:0d374b000081e00000000000000000000010
:20375800000000000000000000000000000000000000000000000000000000000000000051
:203778000000000000000000000000000980f814000000000000000005000825808000006a
:2037980002daff10000000a38048100001c24000000000001e00000000000003f0a00000f7
:0d37b80000500000000000000000000000b4
:2037c5000000000000000000000000000000000000000000000000000000000000000000e4
:2037e5000000000000000000000002800981b63bc89000000000000000005a25a00a000046
:2038050001caa54000005805221200a00603c000000280000057aa900a40006b4ea55001ed
:0d38250038000000000000c000000000009e
:20383200000000000000000000000000000000000000000000000000000000000000000076
:20385200000000000000000000000200010e183fc000000000000000200008258008000059
:2038720002c0550000000807804800800bc3800000020000090c2a800820004240551002a8
:0d38920080000000000000000000000000a9
:20389f00000000000000000000000000000000000000000000000000000000000000000009
:2038bf00000000000000000000000000050117008000000000000000000a5225a000002cff
:2038df00001ce24000005985a2120042000636d33003000019179544000006000000000066
:0d38ff0000000000000000000000000000bc
:20390c0000000000000000000000000000000000000000000000000000000000000000009b
:20392c00000000000000000000000000000b1bc00000000000000000000a082580000026b8
:20394c00014dd100000001038048004003c0258cc00120000b081540000000000000000073
:0d396c00000000000000000000000000004e
:2039790000000000000000000000000000000000000000000000000000000000000000002e
:2039990000000000000000000000000000003fbd4000000000000000000a1225a00000668b
:2039b90064000000003880152212000003e0240c34200007805e0cc08000203e016600002c
:0d39d9003800896a8400040000000000002e
:2039e6000000000000000000000000000000000000000000000000000000000000000000c1
:203a0600000000000000000000000000050a1c3fc040010000000000000a00258000008402
:203a260020000000000050a70048000001c01c03c00000008ef4330040000461cb991000b3
:0d3a46000001036644000a000000000000bb
:203a5300000000000000000000000000000000000000000000000000000000000000000053
:203a7300000000000000000000000000080906bbc08000000000000000015a25a000001ee3
:203a93006c1bd140000001c1a2124000040334f8000000078c06954000021c3b6ca061005e
:0d3ab3000000000000000000000000000006
:203ac0000000000000000000000000000000000000000000000000000000000000000000e6
:203ae0000000000000000000000000000f18f037c000000000000000000f082580000002fa
:203b0000214de200000070030048000009c415c45000000909742a8000000241d0f520004c
:0d3b20000000000000000000000000000098
:203b2d00000000000000000000000000000000000400000000000010000000000000000064
:203b4d000000000000000000000000040701f280186000000000000788005225a000b016f6
:203b6d006f6aa540400000e1221200010206ade030240408097f0cd081100733fca0600004
:0d3b8d000010000000000008000000000013
:203b9a0000000000000000000000000000000000000000000000000000000000000000000b
:203bba0000000000000000000000000000081b600000000000000000070008258000400074
:203bda002ac05500000000078048000002c02c053000000b0a3c330040002440c0fa0000b8
:0d3bfa0000080000000000140000000000a2
:203c070000000000000000000000000000000000000000000000000000000000000000009d
:203c2700000000000000000000000000038cd62050000000000000000000722120000006ef
:203c470005daf54000000005a2120000000066e80004288100d7331000000c036ca0400020
:0d3c67000000000000000000000000000050
:203c7400000000000000000000000000000000000000000000000000000000000000000030
:203c94000000000000000000000000000090bb9048000000000000000008b80482000000a7
:203cb4002970a0004000700300480000000317b4500010008e7e4cc000000201e0f500405e
:0d3cd40001000000000000000000000000e2
:203ce1000000000000000000000000000000000000000000000000000000000000000000c3
:203d0100000000000000000000000000000eb669104000000000000000013a25a400000021
:203d2100016aa540028000032210001000e00000000000059f374cd0000e0e3bfaf500014d
:0d3d41000000000000000000000000000075
:203d4e00000000000000000000000000000000000000000000000000000000000000000055
:203d6e000000000000000000000000000010d6100800000000000000000e00258000000084
:203d8e00356055200100000b0084000000e000000000000f1ab3f30000002e2af0a50000df
:0d3dae008000000000000000000000000088
:203dbb000000000000000000000000000000000000000000000000000000000000000000e8
:203ddb000000000000000000000000000180563d58004000000000000000d2210000000029
:203dfb003c4ca50001000013ea9400000003fc9d1000000500ff294000010000fbe20000f2
:0d3e1b000000a9a600400008405e1008004d
:203e280000000000000000000000000000000000000000000000000000000000000000007a
:203e48000000000000000000000000000d0010000000a00000000000030b580481000000b2
:203e68007ae05500000000ed8154000002467780000000090098154000008003db00000036
:0d3e88000000bffa600000002382f000007f
:203e9500000000000000000000000000000000000000000000000a00000000000000000003
:203eb5000000000000000000000002800d189bb45800010000000281000a0000000a000007
:203ed50001e8c5022820580db20408a003c3b6c03022802f809634400a0c1403ec031228f5
:0d3ef5001800e02954000000001489680046
:203f0200000000000000000000000000000000000000000000000800000000000000000097
:203f22000000000000000000000002030380b23c0000008000000200001c00000008000063
:203f420030f0c00020300805c344008003e65c05300200478f3200000800002dc0530020af
:0d3f620000000b42a80000000000b9600440
:203f6f000000000000000000000000000000000000000000000000800000000000000000b2
:203f8f000000000000000000000000000d00000000000000000000000801d2bc500c000012
:203faf0003ee8002300080e5ba00084000078f8cc60100001f7690808c000000fef52000bb
:0d3fcf000800e5fa81001001601e9968806d
:203fdc000000000000000000000000000000000000000000000000000000000000000000c5
:203ffc000000000000000000000000000f80000000000000000000000108fb6c004c00005a
:20401c000260da003031d107822800c00004079330030010187434400400002fd0000000c1
:0d403c0000000b03e84400000240f96000a2
:20404900000000000000000000000000000000000000000000000000140000000000000043
:2040690000000000000000000000000001800000000040000000000007997a3940000000e3
:2040890000000000003081e1300d080005e70000000000071ef6a4400040002e7f33000134
:0d40a90038f98f228100000a000499680098
:2040b6000000000000000000000000000000000000000000000000000200000000000000e8
:2040d600000000000000000000000000000000000000a000000000000f0e77e600000000b0
:2040f6002c000000000031e3814c400008240000000000009a1bc80000a024607acc00004a
:0d41160080b805c3d4410007c002f9620063
:20412300000004000000000000000000000000000000000000000000000000000000000078
:2041430000000000000000000000000000001aa800404000000000000001be304080009ecd
:2041630007ce9100001258000000000009c3bccf0400000809bb91d2800021055e96420006
:0d4183000000b00000000000001699680068
:2041900000000400000000000000000000000000000000000000000000000000000000000b
:2041b000000000000000000000000000000058000000800000000000000e343980000c020e
:2041d0003ade1000000090f00000000201e66500f00000011e3c204000061c303096000016
:0d41f000000180000000000002c0f9620024
:2041fd000000004000000000000100000000000004000000000000100060000000004000ad
:20421d00000000000100000000000004501c9029408000000000000403813eb88880100001
:20423d0007de034202d8008000000001000716c0208004070efb390000101e2c00000001b7
:0d425d0040001000000001e0000c99680016
:20426a00000000000000000000000000000000000000000000000000000000000000000034
:20428a000000000000000000000000002000102f4000000000000000018e0c388000000022
:2042aa00374053000000010000000000e0043ee000000009903b70000000002800000002b9
:0d42ca0080008000000000a00002f96000ec
:2042d7000000000000000000000000000000000000000000000000000000000000000000c7
:2042f700000000000000000000000003870002a8000000000000000008005bec40000024c0
:2043170074000000000879e56081800042006d833000004f09f6200080000026eef04000b7
:0d43370000019dba81040000001c9968007f
:20434400000000000000000000000000000000000000000000000000000000000000000059
:204364000000000000000000000000000080501400000000000000000f08131c4000002ca3
:204384007c0000000000910326d4000021c3bcdcc00800071ed836800000006af00f0000af
:0d43a4000000eb43e80000000282f9600019
:2043b1000000000000000000000000000000000000000000000000000e03faf5500000009c
:2043d100000000000000000000000000000096b81080000000000000059c9f314080000eaf
:2043f10020000000000000000000000062020000000000001c3700d280043e2c0000000015
:0d44110000798dea81800000021e8968009c
:20441e000000000000000000000000000000000000000000000000000002c050010000006b
:20443e000000000000000000000000000000900408000000000000000010d83240000c025a
:20445e0020000000000000000000000000440000000008000ad814c00008063000000000de
:0d447e0000190583d4000001c2028960040a
:20448b0000000000000000000000000000000000000108000000000400294e0540000080c8
:2044ab008f32bd0000000000000000000180d779c000000000000000000f000000000020b3
:2044cb0000000000000000e00000000004003faf0000000818d78cc0000020604caa200026
:0d44eb000000a83389000400000689680065
:2044f8000000000000000000000000000000000000008000000000000041d055200000504e
:2045180081001400000000000000000005007a7bc0000000000000000019000000000e3cd1
:2045380000000000000000000000000000002700f00000070f77730200001c0030aa000054
:0d45580018000333444000000000d960400b
:20456500000000000000000000000000000000028008000000000a80360000000028008044
:20458500892bd4000000000000000280070016a01880000000000280000800000000001c11
:2045a50003dca0002a003000000000a00207b5f33002802000d228100a00bc03de330028ee
:0d45c50000181f6281400001c00c896800d1
:2045d2000000000000000000000000000000000200010000000008401400000000200071d9
:2045f200094140000000000000000200000b101c00000000000002000010000000000000d4
:2046120002dbd10021300000000000800047e5dcc00200000b343d44080d5e03eecc01202e
:0d4632000008b343d40400002002a960007a
:20463f0000000000000000000000000000000000000000000000000020024aa50000000149
:20465f00807be800000000000000000000000000000000000000030000003759100000169f
:20467f0007d88002100871eb633100c001c034ccc42000018153ccc000000001fca040000f
:0d469f000000e9bbd5000012001c89680076
:2046ac00000000000000000000000000000000000000000000000000040360550000000032
:2046cc000f43d4000000000000000000000e0000000000000000030000009ad60000000225
:2046ec003cc0da003020080da8cc004003c245033100000d0f77f30000000002c0fa190026
:0d470c0000010342808000014000c96000f0
:20471900000000000000000000000000000000000000081b014000000066d8d50200000007
:2047390003add1000000000000000000050100000000000000000000000800000000402071
:2047590000000000000251e5fccd0000000600000000102018872580800e06601cf050086d
:0d4779000010bf2a81400000004c9968002c
:2047860000000000000000000000000000000000000010f03d4000000023e0d000000000c3
:2047a6000f7280000000000000000000000d00000000000000000000001000000000201c99
:2047c6000000000000050809bf30000000030000000000000fd41a400000000000f000009e
:0d47e600000083c3d40400000382d96000ea
:2047f30000000000000000000000000000000000000900932010a00016716cc1020000384c
:204813000000000000000000000000000000de294040000000000000001f36515000000008
:204833006a7a4200010081c9f60000000006d7e5500000000a574cc80000207df8a06002e0
:0d48530000d8000000000001c68c8968003c
:204860000000000000000000000000000000000000058d1036800000003ae0e600000000e0
:20488000e00000000000000000000000000098140000000000000000000abf1280400c00e5
:2048a00001c8e2000000b0f32914000801c3830550000000195ef30000401c6040fa210147
:0d48c00080100000000000616200d962005d
:2048cd0000000000000000000000000000000000000180db0810000000700eea02000039b4
:2048ed0093b8140000000000000000000300078490c0000000000000090100000000000064
:20490d003bcad1000005b803391c0c000006a0e5500003811b8295480000042f6ca0480033
:0d492d00303800303c0100c9c68c9968008c
:20493a00000000000000000000000000000000000000003e5e8000000029c0d50000005033
:20495a0080c0140000000000000000000000d0084060000000000000050e0000000000045a
:20497a003acf000000023807c20400000000340aa000000009b02a8000002c21c0f50000ca
:0d499a0000f800003c0000040002b96200bb
:2049a7000000000000000000000000000000000000000000000000000e066aa5000000804d
:2049c7008b27450000000000000000000000000000000000000000000008000000000024ad
:2049e70006d80302000110cbb8080000004034e33420200780b20cc080000073fca0400092
:0d4a070000199bebd5000a02000c89680025
:204a14000000000000000000000000000000000000000900000000002637c05500000011f6
:204a3400e17508000000000000000000000000000000000000000000000000000000003ec6
:204a540029e0a30000205103381420000003b70cc08000008a9c3302000c1c02d0fa010060
:0d4a74003800854140020403c002d96000f3
:204a8100000000000000000000000000000000000000000000000000006afa7440000000fd
:204aa10019349500000000000000000001800000000000000000000000005f14100000040b
:204ac1000000000000025813b54800000002ac00000000050e96bd50000e040778a0404056
:0d4ae1000200076ccc800800000c996810e2
:204aee00000000000000000000000000000000000000000000000000002efda000000000dd
:204b0e00dbf0a80000000000000000000000000000000000000000000000be7440000002a0
:204b2e0000000000000400c7300001000002ac0ff0000000db34280040000c29e0f500003d
:0d4b4e00050009ef300004000002c96000fe
:204b5b000000000000000000000000060000000000080053c95000000020cf8540000011fb
:204b7b008122880000020204aa0400000000fe0088000000000000000000000000008b2404
:204b9b003a5ae400000080100000000003e007e0148402010c3795400020006800000000ed
:0d4bbb008000072bd5000002001e89680055
:204bc80000000000000000000000000000000000000900d7454000003440fc4600000010a2
:204be800ab7fc4000003c006ed10000007005f800010000000000000000000000000409c27
:204c08002c6dc000020090f00000000000401c80b9900000800c15420040ec40000000003d
:0d4c28002000cd02800000014002896040a4
:204c3500000000000000000000a00000400000028001800000000a000000d805002800511c
:204c550081039c08a001400000000280001c00000000000000000000000000000000000098
:204c7500000000002800f8033d9040a002e380000002802000b3a8401a002074ee55002894
:0d4c950000001d63d400000a069c99680011
:204ca2000000000000000000008000034000000200000000000008002400000500200000dc
:204cc2000701080080002000000002000000000000000000000000000000000000000024fc
:204ce200000000002000180d6160008003e000000002001000be188008a05c6010550020f8
:0d4d02000000ff4168040015c002f96000c8
:204d0f000000000000000000000002000000000001080a00000000010060e8d5220002002d
:204d2f00057a800000020015eaf0000000003781400000000000004000000000000000003c
:204d4f0006e0a500100080e5773100001c000000000000001e76a81840000678f8330a0039
:0d4d6f0002f1e00000000000001e89680055
:204d7c000000000000000000000003c0000000000001100000000000800070d00000005033
:204d9c0000428000000040010af00000000904014000000000000000000000000000000ca0
:204dbc002c6d7e001000f0bd34cc0000640000000000008f10783d404000024170cc00004c
:0d4ddc0038110000000000000002c9600056
:204de9000000000000000000000000021789140000058000000000000005cb744000028069
:204e09000b33c4080000002fea702000051800000000000000000000000000000000002099
:204e2900024ce20200000189f331000400000f85500000011e0000000001a001caa0400135
:0d4e490000f80ba3d4400000000e896800a3
:204e560000000000000000000000000427a5200000000000000000000034dba0000004b0e9
:204e760001814400000000040a200000000000000000000000000000000000000000000424
:204e960003c00001000071057ccc0008000002055000000380000000000c3c00f0f500006b
:0d4eb60080180743fc2400000000d96000b4
:204ec3000000000000000000000000000000000000000000000000003430000000000080eb
:204ee30017fbd4000001e00cea302000039c000000000000000000000000000000002020c3
:204f0300074af5000000009bb4cc0000100000000000000d0eb2294000a41c00c8a0680057
:0d4f23000000e5b281810001c28c99690097
:204f300000000000000000000000000000000000000000000000000004400000000000b06d
:204f5000f043d400000020000a300000000c00000000000000000000000000000000008450
:204f70003450a0000100b0e7ef3000000803c0000000008f08d415400000000050fa000071
:0d4f900000710343d40200056000c96000f9
:204f9d000000000000000000000000e02eea5000000000be991000002038000000000000ed
:204fbd00a9329c0800c2000000000000000016a1400000000000000000000000000000009c
:204fdd00224ea020000039d130cd080002005ec5500008018bf2a8100002007c0000000044
:0d4ffd0000199b6a81840400000699680079
:20500a000000000000000000000001e00d0550000000081bd60000002c40000000000001dd
:20502a008bc144000003c00000000000000032e2800000000000000000000000000000007f
:20504a0043d0f000000009e74330000003c34105500800101a343e824000047400000000a6
:0d506a0000f0a303e80002024000f962001c
:20507700000000000000000000000007800000000000001abd4000401603defa400000000a
:20509700803b88080003e0000000000003c07e0090a000000000000000000000000001c099
:2050b700784e5213010881800000000010e00585500800011b57ccc000010062daa04100b5
:0d50d70000800000000000000686996800bf
:2050e4000000000000000000000000000000000000000810280000000038f0500000007183
:20510400010344000000c000000000000008bc01c000000000000000000000000000008c72
:2051240002400020001070f000000000082001055000000f883373001001800240fa000011
:0d51440000500000000000000002c96000e3
:2051510000000000000000000000000000000000000000000000000080040000000000b802
:205171000bff29000000c0000000000007015fa8900000000000000000000000000000008c
:205191000000000000007000000000c00b6000000000108d015fbc08000000067df500002a
:0d51b10000000baa95000000000e99680098
:2051be0000000000000000000000000000000000000000000000000140200000000000b8b8
:2051de0095a7000000002380000000000088bbe84040000000000000000000000000000027
:2051fe0024000000000000000000004014c00000000008050f7003c00000003bdde201000f
:0d521e0000909bc2a82000224240e96010d1
:20522b000000000000000000000002000cead400000000000000000200601aa00000001863
:20524b00a37ea1000000001edd100000200000000000000000000000000000000000200036
:20526b00001a0f00000050e0000000020942a4ca04000008003e38902000603ccca00000d5
:0d528b000000a7ef3c00002000148968001f
:2052980000000000000000000000004007c0800000000000000000000003d050000028d153
:2052b800056290010000003588100000470a000000000000000000000000000000000000c0
:2052d80000000f01000008f00000000000241c0050000011080e3880400ea47bd0050000fd
:0d52f80000000f27fc0000624002896040aa
:20530500000000000000000000a000004000000280081f0000000a00200158aa40280081e9
:2053250087b40880a0c2062eca70a00000000000000000000000000005000000000a000e18
:205345006d7e5040a8005000000000a0000041ef0402800f9f7e8cc20a003e78d8505228a3
:0d5365000299932bfc8804c0028499680013
:205372000000000000000000008000020000000200011e0000000800042ed0a50021007038
:2053920007b400208000403505200000000000000000000000000000008000000008000c72
:2053b2007ecbd1302000f800000000800003800f001600070d57330028001601c0e20120b1
:0d53d20004f0f3837c8402000400b9600045
:2053df0000000000000000000002000017de5000000f8100000000200602cee24000043982
:2053ff00892ad4000202029cfef40000000000000000000000000000000000000000000073
:20541f00047c05400000000b2e000000000076af001000010000000000001e61e8a04000f2
:0d543f00025080283c400400001c896804d5
:20544c000000000000000000000400002cf4a00020058a000000004000027c50000002308d
:20546c000bba84000401441ee8500000000e000000000000000000000000000000004000ea
:20548c003af05f01012000a1699000000003ff00f00000018000000000000002d0fa180064
:0d54ac00355990003c00020002c0896000ec
:2054b90000000000000000000000000000000000000b8857ed40004020006ea00000001836
:2054d9000530050804c0060eea240000000000000000014000000000000000000000002c1e
:2054f9006278f500000039e000000000014066ca5000000198b211c000e0460748a0400079
:0d5519003881e000000000000044996800a7
:205526000000000000000000000003c000000000000790d2548000a0142810a000000000d9
:2055460001c29c02020002eec52000000000000000000080000000000d000000000000146c
:2055660000e0a00800000900000000000022cf055004000509df204000e0803df0f5180063
:0d55860000500000000000000240d960004d
:205593000000000000000000000002038000000000059876d098400000760d8d40000090d8
:2055b300000000000001c600be2000000000728084000000000000000000de3d4060000002
:2055d300740000000080b80fe0c10500006040000000000580deb8c08000363479c1404236
:0d55f3008070ed7fd1000002021e8968006b
:205600000000000000000000000001c7800000000000107a084820082c78594e000000787d
:20562000c0000000000023b4fd10000000001e5480000e00000000001000303fc01008006f
:20564000600000000000700dbdc8200000030000000000100d9420c000000c616cc7000094
:0d5660000000eda380800000c400896100ff
:20566d0000000000000000000000004000000000000798de35400000802bee18000000003a
:20568d008daabd0000020296af50000000000000000000000000000000000000000000046c
:2056ad007800000000000187a295020001601faf0400800008daa810000620065af540009c
:0d56cd00000083ee0d0010c00684996800f7
:2056da000000000000000000000000020000000000008ab6b400000114416e1008000001dd
:2056fa009f0014000002c6030f5000000000000000000000000000000100000000000000b2
:20571a0000000000000000094154200000000c000000002010703d42000c0421c0a01000e5
:0d573a0000b109638c04000002409960007a
:205747000000000000000000000000002cea7400000100b3304480401c3ceef5000000781d
:20576700000000000001e04eef5000000001000000000000000000000000000000000000b3
:2057870000000000000058800000000000002c8f04000008007601404000a023faa0488146
:0d57a7000011c37bf1000840000c99680060
:2057b40000000000000000000000000227c0200000008e58398000000663f0a000000058dc
:2057d40000000000000342370a008000000b000000000000000000000000000000000000a4
:2057f400000000000000010000000000c0001d00000000090000014000001c42d0fa000243
:0d581400800907ef000100004002d9600488
:2058210000000000000000000000000207c05000000500df689000000070dcd5020000103f
:20584100897f6d0000c1c67dd8140000000000000000000000000000000000000000000cd6
:205861007b7ea540802818033f05000001e69eca5000000580de2810000600000000000002
:0d58810028809fe705000000000c896a00e8
:20588e0000000000000000000000000403005000000000bf14800000004260d000000009d5
:2058ae00bf278820000347bd9d100000000000000000000000000000000000000000000296
:2058ce004070550040300081378c4400002037055000001900783d4000001c0000000000e7
:0d58ee0000108ba71c0000024000d96000d4
:2058fb000000000000000000000000000000000000010ed275400000260000000000005180
:20591b00e3f3d40002020607e0260800001b57c400000000000000000d0a33a9500000200a
:20593b0002e8b790028019856ff400000006c489580000019917bc0200000000000000027c
:0d595b000080073a0d000402673e8f000037
:205968000000000000000000000000000000000010001097f4000000140000000000000858
:205988000083d4000403c02c82500400001f9ec00440000000000000019b181540000e14f3
:2059a8000140de020000d80f7ffc00000142b6956020000088d03d40000000000000000079
:0d59c80000100b634c800a03c43e00f04841
:2059d500000000000000000000a001c07caa5002a3870fbbae100a000005fd89402805b96c
:2059f50085690900a003600000000280081c7e3d4800000000000280000a7ba81000000030
:205a150003e88490280080a973dc080003468489580280511c0000000a0000016aa0602890
:0d5a35000010bbff0000a0014704ca048060
:205a42000000000000000000008000238f0550021000987a1400080000385e4a0020021863
:205a6200057388008002c000000002000100003d40000000000002000010783d400000005b
:205a820001e012002000110943fc0000014294b56002002f9000000008001400c0fa0020f5
:0d5aa200000889ac0c00802000050fa080da
:205aaf000000000000000000000000023eaa70200000183e2008000200000000000000f8e5
:205acf0005a7940000000000000000000818562a8000000000000000000000000000001641
:205aef0001689680001199e138a008000006e6895800080008fe3450000046055a55200034
:0d5b0f00000083b5dc000a400014ef5400d4
:205b1c00000000000000000000000003a70a2080100f00f2c00000400000000000000a7882
:205b3c0097ea000000000000000000380b0f343d400000000000000009000000000000407c
:205b5c0000209600001099f040a000008142b69560001000195e70c0100080283055000098
:0d5b7c000100076fb8000001401d0a001075
:205b8900000000000000000000000002bdcaf400200198d6c1500000206378a500000050ef
:205ba900a7620c080003c006d2568000259a53a8d080000000000000001893fdc000001cc0
:205bc900064884800000181533c100000346a6895800000900b620d040000463dc770200ce
:0d5be9000051836b7c0800c26601c0f20011
:205bf6000000000000000000000003c01600500010058b3ab1402000042f70aa100000011d
:205c1600e7034c0000016024c191900040800828c400000000000000050b93ffc0000000bb
:205c360029c012000000589f000000000142b6b560000001801278c00000027ee0ee000035
:0d5c56000000b0037c000000400100f000e1
:205c6300000000000000000000000000000000000108005a294000000e037fa240000018cb
:205c8300012d1d800002007690200000000097a95000000000000000081b9039c080014011
:205ca3002ac88480000580177bc100000802b6895800000700d6bd5000001433ef3300001f
:0d5cc3000090e000000000000005af54104c
:205cd00000000000000000000000000000000000010b09bc154800000202cea1000000d043
:205cf000052204600001437de05000000300181548000000000000000b0ab03fc4000000d8
:205d10006ce01200000050a58000000010040495600000070038140800801c4378ff0000e2
:0d5d30000038800000000000021e0a008004
:205d3d000000000000000000000002662ffd140028010033bd4000003c065ca70000009070
:205d5d00e7f280000000c79cec5020100000dfa8100000000000000000017ebd4800003ea5
:205d7d002ac884800000001faa800000080036895800000718f3bc1840401c33dcdf020036
:0d5d9d0000d01f7a95040004067daa0500c1
:205daa000000000000000000000001c394c420001000099028080000143548a2000000f998
:205dca000d03e800000044260c0000000000703d48000000000000000008543fc0000026d5
:205dea0041e012000000008543e80000100284b5600000070934000000003440c0f700009c
:0d5e0a0000b8c1c2a8010008062e0fa000bc
:205e1700000000000000000000000006359d500000019a9faa9000000002dcfa2140009006
:205e370001fa81000001c7cfa830200005800000000000000000000001805bf1500000009e
:205e570000e89680000001ed27bc00001002be89580000018a0000000000347cda55000041
:0d5e770001709f3e0d00000047419e241069
:205e84000000000000000000000000002ebd000000001098168000004002c05a0880007879
:205ea4000343e8200000071e0e3000000080000000000000000000000700b3700000000083
:205ec40000209600000000e5e3fc000408042e956000000090000000000014203055004286
:0d5ee4000011e3674c000040061ddd1000ba
:205ef1000000000000000000000000e06ffd140000050dfea81000001c037c8942000138ca
:205f11001b0695000003c397cf500000098100000000000000000000071b933dc00000a062
:205f31007b4884800000f98533c1000000001c8958002020013e60d010000c04de770300f3
:0d5f51000038c56b8104040807bdaf540083
:205f5e0000000000000000000000002214d4201000099df43e8000003c00f08500000208d6
:205f7e00892198000002c03c0ff000000b0f00000000000000000000000fda7fc00001641d
:205f9e0041c012000000580f400000000002aeb56000134f0d3b74c000000221c0dd0000c6
:0d5fbe00000807f3d0800210020505001056
:205fcb0000000000000000000000000234e10384000000dabe90000c2060daa000000010da
:205feb0003025a0000000074f5040000080af23450020000000000000180b2a050000036e7
:20600b0079489680000079893fdc000014006e8958008040189b794000a31e34dc8340005e
:0d602b003098a77305000a060000fa340043
:206038000000000000000000000000002ff1800000000078280000001400e0fa000000d842
:20605800002e58060000022c9e200003811b76108000000000000000070073388040001485
:206078004000960400000805effc00000802bed56040002f007a60001040823b7cd3000094
:0d609800005005f31c4004684004c53000b2
:2060a500000000000000000000a000403fc8102280000a0000000a040001fc42600000008b
:2060c50001a25a00a00bc040000002800d0077a91000000000000280018f97b1500a002080
:2060e500204896802801818f61d12000036266895802800f9dbb3d400a0020034cc3402ada
:0d61050000000d734500a60fc62d8500009b
:20611200000000000000000000800022d70d108200001000000008000c295ce30900005070
:20613200000258008010428000000200018053aa0000000000000200009e323000080e1ced
:2061520040009600200211bfe14022000146b6f56002000fdf1e7880080e043edfd10121a0
:0d6172000000bb230c208e1ee24cd5220441
:20617f00000000000000000000000000178af6000008180000000100006000000000015196
:20619f0081225a0000020286ccf4000005003f60000000000000000000199aa81000401c2e
:2061bf00016884800000700373c1000000007e89580000881c17314080801c21df042908d0
:0d61df00001187ebd5000800001dea5500f7
:2061ec00000000000000000000000003dc005000000100000000010024000000000002013b
:20620c00000258010002424c9c5000000d80774000000000000000000708743d4000a03483
:20622c00016012000000080bc00000000002aed561000005100c314000000c42490a08c229
:0d624c000000cb414080040bc02e0aa000d2
:2062590000000000000000000000020027ca500400059fdaa8101000006dd8a5400000006e
:2062790001225a0000094006aa5080000000162000800000000000000801d7a950000140ef
:2062990004c89680000019a8321100000267f68958000001801eb892900e20000000000018
:0d62b9000218082b89400406002fefb0806a
:2062c6000000000000000000000003c03f055000000009943e8000001c2270550000000003
:2062e600000258010014203d055000000d00002000000000000000000909582a8000000036
:20630600280096010002f009752000180166a4f560000000000038800000140000000002e2
:0d6326000400a77344000a09402eaf3000a8
:206333000000000000000000000002000000000000000ef3794000002673dee500000038fa
:2063530007225a020003c034ca1400000000f6f450000080000000000d9cb63c100000006b
:2063730005e89680000259c37bc100000000768958000001017f15400080207248a5400140
:0d6393002ab8192fbc800001c316c3f020ea
:2063a0000000000000000000000020c24000000000090d37d28000062c00584000000078da
:2063c0000082580000026246d510000000007210800000000000002001009c000800001c71
:2063e000340096000001018b80000000000244d5600000000d0015400040043c50550000c4
:0d640000051889fbfc00000247bc01a21436
:20640d000000000000000000000000002ccfa00000081836b040a0000000000000000000ee
:20642d0003225a0200000336eff00000019997a910000000000000004598000000000000ef
:20644d0000089600000001b32bc1000001e6fe89580000171f93940800000021ce55000082
:0d646d008010996a81000003c320ef5208df
:20647a000000000000000000000000024605f0000005007c31c00000002c00000000000027
:20649a00000258000000022d0f50000000083b950000000000000000000000000000000022
:2064ba00004069000000008b8000800000238cf5610000009eb43e8400a00040205500819f
:0d64da0002f88703d4800214c3550fa004fc
:2064e7000000000000000000000001c245ee4420000000fea8900000402b6cad40000580bc
:2065070017225a00000206c00000000001809be050000000000000000001f7a8100001001c
:20652700385ef5480004809333c1000008006689580000080e77bc1802408e275a770300fb
:0d654700005183f70540000403c000000070
:20655400000000000000000000000027030e40000001007f2840000014427c04000002509f
:20657400c002580000004200000000000d007351c000000000000000000a7c3d4000000017
:2065940042f050000002708b80000000040274d56200100b10d4000000003c3440ee000298
:0d65b400003985771c00000bc200000000bc
:2065c1000000000000000000000000074000000000039b86f15000001c036af50000000090
:2065e1000522580000000000000000000500d7a91000000000000000038197f1500000002a
:2066010007d8f04000008003e7dc000015e6c489500000010102a11040082000000000006f
:0d6621000218073ff8000603c227f83410e6
:20662e000000000000000000000000060000000000000893728000000227f0a00000000000
:20664e000002580000001000000000000080b39500000000000000000008d37000000c346f
:20666e0022600020000050e7abfc00000823b6f56000000509579200000c1400000000003f
:0d668e000438076fdc000e0964079e3080a1
:20669b00000000000000000000000a001daf500000050892be90000020605cf5000000d02b
:2066bb00a538058100040636d200000005001225a00000000000000008000000000100263f
:2066db000159a148000000800000000000078000000000001e000000000e5c03dcee000000
:0d66fb008051b57295000007c046a2040052
:206708000000000000000000000007c0350a00002000907014000006844020f50000005008
:206728000f2e9c0300080417e30000000500002580800000000000000b0000000001000633
:2067480000485100000001000000000000060000000000001000000000001601fcbb0000b3
:0d6768000058fb02a8000063635c83480436
:20677500000028000000000000a0000004efa40283801e00000000802004f8240228005048
:20679500016a9400a000403eea04200005005a25a0000000000002800b800000000a002e50
:2067b50000000000282078a0000000a00007c0000002805b995729502a402e02006600684f
:0d67d5001800a96b7400a009400eef5000e1
:2067e2000000200000000000008000000c0a000200000000000000400424d01d0820000062
:20680200ad2394208000203c0b800400100a08258000000000000200090000000008000e9f
:206822002c0000002030f1000000008000060000000203818f502a8008201e004e99002007
:0d6842000000ef62ec0080d020030f5184b5
:20684f0000000000001000000000000200000000002d0000000000000001fca5000000d078
:20686f00a92bd4000a00003c8000002000001a25a00000000000000000000000000000009c
:20688f0003caf5000000d00000000000000625bde000100981faa810002080021a55000032
:0d68af0085801963fc2810160024af5100ed
:2068bc000000000000f00000000000040000000020418f000000000e8002e0a000000010b8
:2068dc00a543c0000000001d005000100000002580000000000000000700000000000014b7
:2068fc0038dce2000000f00000000000080026ab70000817083c3d4000e0000040aa0000a3
:0d691c000010a9c3dc0000c8400c0ff010f3
:206929000000000058000000000000005caa0000000d005ff880000000001e030200027077
:20694900a5aa800000014021cfd02000000a1225a000000000000000080000000000000055
:2069690068dec5020000019000000000006684af54000005009b39580000ae285cee020030
:0d6989003881a32295010000c00080c020cd
:20699600000000000800000000000003010a008000018017a040000034000003000000504c
:2069b600bd000000000002740fe000018500002580000000000000000f0000000000040061
:2069d6004010c500000000a00000000003c03f0a00100001805f21480001446c50bb0000cb
:0d69f6000010abc154000010000100c004ef
:206a0300000000080000000000000147acc000100000013eb890800034045cc10000001833
:206a23000de840000000060fca020000001c5a25a00000000000000000009ab150000e3e1b
:206a430000dce24200000001fbd40200b0e000000000000381f7280000016003fae04002ae
:0d6a630000198fea812000020000000000f1
:206a70000000000000000000000000001d00520000800a00388200002e2aecc00000000847
:206a90000d780000004000020a008000001b00258000000000000000000012300200000c85
:206ab0000010e2018000000003d4060400000000000000000dbc01400000143d4df40000d6
:0d6ad00000089f03e80000c1c000000000a6
:206add000000000001800000000000004000000000018e5b280000043603fefb010000008f
:206afd0009efdc000001e21fd006000020001a25a0000000000000000000bbbd5000002cda
:206b1d0020000000000000057a000000006037ca540003000afed08000000067d833000136
:0d6b3d000039c77ddc000400000daa000037
:206b4a000000000000000000000000020000000000009094294000001403dcf50000200094
:206b6a0005e3fc000000c01c84008000000008258000000000000000090054280020001cd9
:206b8a0040000000000000096b94000000038f05500000090a1a7880000000204ecc00005d
:0d6baa0080080def7400028242400a0008ce
:206bb7000000000070000000000002600cdd140000000056140000203602da00000000b0a3
:206bd700e9300808000260168f50040000003225a000000000000000000a00000000020017
:206bf700024ea5000000000da38c080400006d8a5400000000f7b8c080400e7b7a332381ed
:0d6c17000000e3b33c08087063800000003b
:206c240000000000080000000000014005d420000000000c140000401c01c88000000071d8
:206c44000f8014000003c0030f508000000008258000000000000000000000000000001c1f
:206c64000340550000007001c20c00000003a5055000000d08f020c00000247b60cc00800c
:0d6c840000010183fc000208040000000074
:206c91000000100000afb8010000014001e8010000070ed6a800000a947c6ee7020020011b
:206cb100e00000000000604fe0b0300000003225a0000000000000008000000000000000fd
:206cd1003bf8a0008000d0efeb8900040000000000000000087e1090800004000e330340eb
:0d6cf1003800a0000000c001e0000000001d
:206cfe0000003000000bac10600000000cd40000000590b0000200014269c0f70100000094
:206d1e00000000000000029c005000000000082580000000000000000000000000000000ba
:206d3e0000f0fa00000031097bc04608000000000000000f1b983448000c240010330000d7
:0d6d5e003091e0000000c040000000000087
:206d6b000000000000e00000000000001585a000000800bff0000020062a5aa400000018d1
:206d8b00ad7d91000800006fa5a3000010001a2580000000000000000000000000008020ff
:206dab0002cac5400000801b78054000020007ca500038018000000000000001dc834080a3
:0d6dcb003d50056a95000000428c8848008c
:206dd8000000000031000000000408001d050000000500b2f2800000022b7a40000000002c
:206df800ad7a90200400022e0f5208002000082581000000000000001000000000004004e5
:206e18000248c008000010dd202e240001401705500030008a0000000088043e7ce3010058
:0d6e380008080742a800000142260120a022
:206e45000000000001e0000000a0000680000002801501d2a8508a203603583f022800d050
:206e650005fd15a4a000e60000000000001a0000000000000000000000000000000a0000a8
:206e85003c00000028000000000000a081667efe24028000000000000a0e3e61dca5402840
:0d6ea5000099b1e9540000c00014884800b5
:206eb2000000000001000000008000000000000200200d143ece38400403401f00200050a2
:206ed200a1b92800800024000000000000000000000006000000004000000000000800002c
:206ef200740000002000000000000080000784ef030600000f00000008000427d0aa00200d
:0d6f120000f0a0c154440000002401210043
:206f1f0000000100000000000000000040e052000041990029500000160419fe00000080db
:206f3f000000000000000026a814000000000000000004000000002010000000000000001c
:206f5f0002f9f500000001e00000000000c62cfe270000011bdebb80000e0028cbff0002f3
:0d6f7f0090818d7f05a400a3e316884800d3
:206f8c000000008000000000000003c3ed00a000002009b01680000000364bfd0000001015
:206fac00000000000001401694700000000000000000000000000000200000000000002c1e
:206fcc0000dee20000000000000000000002f5cf020c12008ad65dc00000006b5a33000189
:0d6fec000010f5a31c0000c26424012080e9
:206ff9000000000000e000000000000000000000000389bf0940000020375a470200000109
:20701900d1a6940000034040000000000000000000000000000000000000000000000000c9
:20703900001ed102000058e12a80000003c6b58a540000001972b3c080000605dca54001bc
:0d7059003211a1aee14002020014884a008d
:207066000000000001000000000000000000000000009af6c74000001427504200000001a4
:20708600afe284000001438000000000000000000000000000000000000000000000000011
:2070a60003c0e20000000900c280200000603f0aa000000709143fc000000039f0aa000279
:0d70c6008108b3e744000006c02601200049
:2070d3000000000000000000000001e0400000000000003fb8c080000003faa563800000c0
:2070f3001f6890080016000000000000000000000000000000000000000000000000001c2c
:2071130000000000000078000000000009c037ca040000058137bec081003603dd83400081
:0d71330002900000000000100714884800c2
:20714000000000000000000000000002800000000000085030c000000000405d08000000c0
:20716000e1c0740000094000000000000000000000000000000000000000000000000800a9
:2071800030000000001808000000000014203c0f5004000009f03fc000a0040258e308806b
:0d71a00001980000000000080424012000f8
:2071ad000000000000000000000000000000000000098193a150c0040e05f9a560001000cf
:2071cd008363e800000067eef4741800000000000000000000000000000000000000000ef1
:2071ed0000000000000000007be8400003420eef5000000000363dc0f00000225aa04000ce
:0d720d0028001877450000020004884800a2
:20721a000000000000000000000000000000000000090e301a8a1000023bcca600000000aa
:20723a000083e800000006c6c4209000000000000000000000000000000000000000002465
:20725a00000000000000000f43d400000366830f5200280000fc3fc600000c2bc0fa000087
:0d727a0000008d6388000002c02401200088
:207287000000000000000000000001604defa400000d80000000000000024a0000020000cb
:2072a70001712c0800004000000000000000000000000000000000000000000000000000e1
:2072c70006f8f50000010000000000000067f5ef443020031b000000000026627bc1408032
:0d72e70000f8093f458200000004884800bf
:2072f4000000000000000000000000039d0a000000090000000000000026d005000130009b
:20731400f9c22c000000200000000003000000000000000000000000000000000000080047
:2073340034dde200000000800000000000020f0d010010008a00000000003c3e5cc7000070
:0d73540038b807370c02000000240120109b
:20736100000000020009684000000003deeb50000008015e794020458600000000000090a2
:207381001000000000000016dd1400000000000000000000000000000000000000000006cf
:2073a10000000000100080807bd400000267c5a051000000005aa950000080367fd1418034
:0d73c10000500db3f8800200000e8840005f
:2073ce0000000007000964008000000616b2000000050f76d0000001e4000000000000d8c6
:2073ee00b000000000000014b81200000000000000000000000000000000000000000002ef
:20740e00000000003000700f43e80000034200005000000100d82a80000d402b79c31000a8
:0d742e00009801abdc0000a0002401200844
:02743b0000004f
:02743d0011013b
:02743f00010149
:207441000000000000000000000800000020000000000000000000000000020000020000ff
:2074610000000000000000000000000000000000000000000000000000000000000000000b
:207481000000000000000000000000000000000000000000000000000000000000000000eb
:0d74a10000000000000000000000000000de
:2074ae00000000000000000000000000002400000000000000000000000002400000000058
:2074ce0000000000000000000000000000000000000000000000000000000000000000009e
:2074ee0000000000000000000000000000000000000000000000000000000000000000007e
:0d750e000000000000000000000000000070
:20751b0000000000000000000004000000000000000000000000000000000000000100004b
:20753b00000000000000000000000000000000000000000000000000000000000000000030
:20755b00000000000000000000000000000000000000000000000000000000000000000010
:0d757b000000000000000000000000000003
:207588000000000000000000000000000000000000000000000000000000000000000000e3
:2075a8000000000000000000000000000000000000000000000000000000000000000000c3
:2075c8000000000000000000000000000000000000000000000000000000000000000000a3
:0d75e8000000000000000000000000000096
:2075f500000000000000000000040000000400000000000000000000000000c000020000ac
:20761500000000000000000000000000000000000000000000000000000000000000000055
:20763500000000000000000000000000000000000000000000000000000000000000000035
:0d7655000000000000000000000000000028
:20766200000000000000000000000000001800000000000000000000000000800000000070
:20768200000c000000000000000000000000000000000000000000000000000000000000dc
:2076a2000000000000000000000000000000000000000000000000000000000000000000c8
:0d76c20000000000000000000000000000bb
:2076cf0000000000000000000000000000000000000000000000000000000000000000009b
:2076ef0000000000000000000000000000000000000000000000000000000000000000007b
:20770f0000000000000000000000000000000000000000000000000000000000000000005a
:0d772f00000000000000000000000000004d
:20773c0000000000000000000000000000000000000000000000000000000000000000002d
:20775c0000000000000000000000000000000000000000000000000000000000000000000d
:20777c000000000000000000000000000000000000000000000000000000000000000000ed
:0d779c0000000000000000000000000000e0
:2077a9000000000000000000000000000000000000000000000000000002000000000000be
:2077c900000000000000002000000000000000000000000000000000000000000000000080
:2077e900000000000000000000000000000000000000000000000000000000000000000080
:0d7809000000000000000000000000000072
:20781600000000000000000000000000000000000000000000000000000000000000000052
:20783600000000000000000000000000000000000000000000000000000000000000000032
:20785600000000000000000000000000000000000000000000000000000000000000000012
:0d7876000000000000000000000000000005
:20788300000000000000000000000000000000000000000000000000008001000000000064
:2078a3000000000000000000000000000000000000000000000000000000000000000000c5
:2078c3000000000000000000000000000000000000000000000000000000000000000000a5
:0d78e3000000000000000000000000000098
:2078f0000000000000000000000000000000000000000000000000800500000000000000f3
:2079100000000000080000000000000000000000000000000000000000000000000000004f
:20793000000000000000000000000000000000000000000000000000000000000000000037
:0d795000000000000000000000000000002a
:20795d00000000000000000000000080000000000000000000000000000000000000000e7c
:20797d0000000000000000006000000000000080000000000000000000000000000000000a
:20799d000000000000000000000000000000000000000000000000000000000000000000ca
:0d79bd0000000000000000000000000000bd
:2079ca000000000000000000000000f000000000000000000000004000000000000000006d
:2079ea00000000000400000000000000000000000000000000000000000000000000000079
:207a0a0000000000000000000000000000000000000000000000000000000000000000005c
:0d7a2a000000000000000000000018000037
:207a37000000000000000000000000081000000000000000000000000d000000000000000a
:207a570004000000000000000000000000000000000000000000000000000000000000000b
:207a77000000000000000000000000000000000000000000000000000000000000000000ef
:0d7a970000000000000000000000000000e2
:207aa400000000000000000000000050000000000000000000000040000000000000000032
:207ac400000000000800000000000000000000000000000000060000000000000000000094
:207ae400000000000000000000000000000000000000000000000000000000000000000082
:0d7b04000000000000000000000000000074
:207b1100000000000000000000000000000000000000000000000000000000000000000054
:207b3100000000000000000000000000000000000000000000000000000000000000000034
:207b5100000000000000000000000000000000000000000000000000000000000000000014
:0d7b71000000000000000000000000000007
:207b7e000000000000000000000000000000000000000000000000000000000000000000e7
:207b9e000000000000000000000000000000000000000000000000000000000000000000c7
:207bbe000000000000000000000000000000000000000000000000000000000000000000a7
:0d7bde00000000000000000000000000009a
:207beb0000000000000000000000000000000000000000000000000000000000000000007a
:207c0b00000000000000000000000000000000000000000000000000000000000000000059
:207c2b000000000000000000000000000000000000004000000000000000000000000000f9
:0d7c4b00000000000000000000000000002c
:207c580000000000000000000000000000000000000000000000000000000000000000000c
:207c78000000000000000000000000000000000000000000000000000000000000000000ec
:207c980000000000000000000000000000000000000040000000000000000000000000008c
:0d7cb80000000000000000000000000000bf
:207cc50000000000000000000000c0000000000000000000000000000000000000000000df
:207ce50000000000000000000000000000000000000000000000000000000000000000007f
:207d050000000000000000000000000000000000000000000000000000000000000000005e
:0d7d25000000000000000000000000000051
