:02000000ff00ff
:080002004c6174746963650030
:17000a00694345637562653220323031372e30382e32373934300069
:15002100506172743a2069434534304c50384b2d434d3831003f
:1b003600446174653a2053657020313620323031392032303a32383a32360074
:0200510000ffae
:040053007eaa997e6a
:02005700510056
:0200590001059f
:03005b00920020f0
:03005e00620367d3
:0300610072011019
:0300640082000017
:02006700110086
:02006900010193
:20006b00000000000000000000000000000000000000000000000000000000000000000075
:20008b00000000000000000000000000000000000000000000000000000000000000000055
:2000ab00000000000000000000000000000000000000000000000000000000000000000035
:0d00cb000000000000000000000000000028
:2000d800000000000000000000000000000000000000000000000000000000000000000008
:2000f8000000000000000000000000000000000000000000000000000000000000000000e8
:200118000000000000000000000000000000000000000000000000000000000000000000c7
:0d01380000000000000000000000000000ba
:2001450000000000000000000000000000000000100000000000000000000000000000008a
:2001650000000000000000000000000000000000000000000000000000000000000000007a
:2001850000000000000000000000000000000000000000000000000000000000000000005a
:0d01a500000000000000000000000000004d
:2001b20000000000000000000000000000000000000000000000000000000000000000002d
:2001d20000000000000000000000000000000000000000000000000000000000000000000d
:2001f2000000000000000000000000000000000000000000000000000000000000000000ed
:0d02120000000000000000000000000000df
:20021f000000000000000000000000000000000000000000000000000000000000000000bf
:20023f0000000000000000000000000000000000000000000000000000000000000000009f
:20025f0000000000000000000000000000000000000000000000000000000000000000007f
:0d027f000000000000000000000000000072
:20028c00000000000000000000000000000000000000000000000000000000000000000052
:2002ac00000000000000000000000000000000000000000000000000000000000000000032
:2002cc00000000000000000000000000000000000000000000000000000000000000000012
:0d02ec000000000000000000000000000005
:2002f900000000000000000000000000000000001000004000000000000000000000000095
:200319000000000000000000000000000000000000000000000000000000000000000000c4
:200339000000000000000000000000000000000000000000000000000000000000000000a4
:0d0359000000000000000000000000000097
:20036600000000000000000000000000000000000000040000000000000000000000000073
:20038600000000000000000000000000000000000000000000000000000000000000000057
:2003a600000000000000000000000000000000000000000000000000000000000000000037
:0d03c600000000000000000000000000002a
:2003d3000000000000000000000000000000000000000040000000000000000000000000ca
:2003f3000000000000000000000000000000000000000000000000000000000000000000ea
:200413000000000000000000000000000000000000000000000000000000000000000000c9
:0d04330000000000000000000000000000bc
:2004400000000000000000000000000000000000000000000000000000000000000000009c
:2004600000000000000000000000000000000000000000000000000000000000000000007c
:2004800000000000000000000000000000000000000000000000000000000000000000005c
:0d04a000000000000000000000000000004f
:2004ad0000000000000000000000000000000000000000000000000000000000000000002f
:2004cd0000000000000000000000000000000000000000000000000000000000000000000f
:2004ed000000000000000000000000000000000000000000000000000000000000000000ef
:0d050d0000000000000000000000000000e1
:20051a000000000000000000000000000000000000000000000000000000000000000000c1
:20053a000000000000000000000000000000000000000000000000000000000000000000a1
:20055a00000000000000000000000000000000000000000000000000000000000000000081
:0d057a000000000000000000000000000074
:20058700000000000000000000000000000000001000000000000000000000000000000044
:2005a700000000000000000000000000000000000000000000000000000000000000000034
:2005c700000000000000000000000000000000000000000000000000000000000000000014
:0d05e7000000000000000000000000000007
:2005f4000000000000000000000000000000000010000000000000000000000000000000d7
:200614000000000000000000000000000000000000000000000000000000000000000000c6
:200634000000000000000000000000000000000000000000000000000000000000000000a6
:0d0654000000000000000000000000000099
:20066100000000000000000000000000000000000000004000000000000000000000000039
:20068100000000000000000000000000000000000000000000000000000000000000000059
:2006a100000000000000000000000000000000000000000000000000000000000000000039
:0d06c100000000000000000000000000002c
:2006ce0000000000000000000000000000000000000000000000000000000000000000000c
:2006ee000000000000000000000000000000000000000000000000000000000000000000ec
:20070e000000000000000000000000000000000000000000000000000000000000000000cb
:0d072e0000000000000000000000000000be
:20073b0000000000000000000000000000000000000000000000000000000000000000009e
:20075b0000000000000000000000000000000000000000000000000000000000000000007e
:20077b0000000000000000000000000000000000000000000000000000000000000000005e
:0d079b000000000000000000000000000051
:2007a800000000000000000000000000000000000000000000000000000000000000000031
:2007c800000000000000000000000000000000000000000000000000000000000000000011
:2007e8000000000000000000000000000000000000000000000000000000000000000000f1
:0d08080000000000000000000000000000e3
:200815000000000000000000000000000000000000000000000000000000000000000000c3
:200835000000000000000000000000000000000000000000000000000000000000000000a3
:20085500000000000000000000000000000000000000000000000000000000000000000083
:0d0875000000000000000000000000000076
:20088200000000000000000000000000000000000000000000000000000000000000000056
:2008a200000000000000000000000000000000000000000000000000000000000000000036
:2008c200000000000000000000000000000000000000000000000000000000000000000016
:0d08e2000000000000000000000000000009
:2008ef000000000000000000000000000000000000000000000000000000000000000000e9
:20090f000000000000000000000000000000000000000000000000000000000000000000c8
:20092f000000000000000000000000000000000000000000000000000000000000000000a8
:0d094f00000000000000000000000000009b
:20095c0000000000000000000000000000000000000000000000000000000000000000007b
:20097c0000000000000000000000000000000000000000000000000000000000000000005b
:20099c0000000000000000000000000000000000000000000000000000000000000000003b
:0d09bc00000000000000000000000000002e
:2009c90000000000000000000000000000000000000000000000000000000000000000000e
:2009e9000000000000000000000000000000000000010000000000000000000000000000ed
:200a09000000000000000000000000100000000000000000000000000100000000000000bc
:0d0a290000000000000000000000000000c0
:200a36000000000000000000000000000000000000000000000000000000000000000000a0
:200a560000000000000000000000000000000000000100000000000000000000000000007f
:200a760000000000000000000000001000000000000000000000000001000000000000004f
:0d0a96000000000000000000000000000053
:200aa300000000000000000000000000000000000000000000000000000000000000000033
:200ac300000000000000000000000000000000000000000000000000000000000000000013
:200ae3000000000000000000000000000000000000000000000000000000000000000000f3
:0d0b030002000000000000000000000000e3
:200b10000000000000000000000000000000000000000000000000000000000000000000c5
:200b30000000000000000000000000000000000000000000000000000000000000000000a5
:200b5000000000000000000000000000000000000000000000000000000000000000000085
:0d0b70000000000000000000000000000078
:200b7d00000000000000000000000000000000000000000000000000000000000000000058
:200b9d00000000000000000000000000000000000000000000000000000000000000000038
:200bbd00000000000000000000000000000000000000000000000000000000000000000018
:0d0bdd00000000000000000000000000000b
:200bea000000000000000000000000000000000000000000000000000000000000000000eb
:200c0a000000000000000000000000000000000000000000000000000000000000000000ca
:200c2a000000000000000000000000000000000000000000000000000000000000000000aa
:0d0c4a00000000000000000000000000009d
:200c570000000000000000000000000000000000000000000000000000000000000000007d
:200c770000000000000000000000000000000000000000000000000000000000000000005d
:200c970000000000000000000000000000000000000000000000000000000000000000003d
:0d0cb7000000000000000000000000000030
:200cc400000000000000000000000000000000000000000000000000000000000000000010
:200ce4000000000000000000000000000000000000000000000000000000000000000000f0
:200d04000000000000000000000000000000000000000000000000000000000000000000cf
:0d0d240000000000000000000000000000c2
:200d31000000000000000000000000000000000000000000000000000000000000000000a2
:200d5100000000000000000000000000000000000000000000000000000000000000000082
:200d7100000000000000000000000000000000000000000000000000000000000000000062
:0d0d91000000000000000000000000000055
:200d9e00000000000000000000000000000000000000000000000000000000000000000035
:200dbe00000000000000000000000000000000000000000000000000000000000000000015
:200dde000000000000000000000000000000000000000000000000000000000000000000f5
:0d0dfe0000000000000000000000000000e8
:200e0b000000000000000000000000000000000000000000000000000000000000000000c7
:200e2b000000000000000000000000000000000000000000000000000000000000000000a7
:200e4b00000000000000000000000000000000000000000000000000000000000000000087
:0d0e6b000000000000000400000000000076
:200e780000000000000000000000000000000000000000000000000000000000000000005a
:200e980000000000000000000000000000000000000000000000000000000000000000003a
:200eb80000000000000000000000000000000000000000000000000000000000000000001a
:0d0ed800000000000000000000000000000d
:200ee5000000000000000000000000000000000008000000000000000000000000000000e5
:200f05000000000000000000000000000000000000000000000000000000000000000000cc
:200f25000000000000000000000000000000000000000000000000000000000000000000ac
:0d0f4500000000000000000000000000009f
:200f520000000000000000000000000000000000100000000000000000000000000000006f
:200f720000000000000000000000000000000000000000000000000000000000000000005f
:200f920000000000000000000000000000000000000000000000000000000000000000003f
:0d0fb2000000000000000000000000000032
:200fbf00000000000000000000000000000000000000000000000000000000000000000012
:200fdf000000000000000000000000000000000000000000000000000000000000000000f2
:200fff00000000000000000000000000000000000000400000000000000000000000000092
:0d101f0000000000000000000000000000c4
:20102c000000000000000000000000000000000000000000000000000000000000000000a4
:20104c00000000000000000000000000000000000000000000000000000000000000000084
:20106c00000000000000000000000000000000000000000000000000000000000000000064
:0d108c000000000000000000000000000057
:20109900000000000000000000000000000000000000000000000000000000000000000037
:2010b900000000000000000000000000000000000000000000000000000000000000000017
:2010d9000000000000000000000000000000000000000000000000000000000000000004f3
:0d10f90000000000000000000000000000ea
:201106000000000000000000000000000000000000000000000000000000000000000000c9
:201126000000000000000000000000000000000000000000000000000000000000000000a9
:20114600000000000000000000000000000000000000000000000000000000000000000485
:0d116600000000000000000000000000007c
:2011730000000000000000000000000000000000000000000000000000000000000000005c
:2011930000000000000000000000000000000000000000000000000000000000000000003c
:2011b30000000000000000000000000000000000000000000000000000000000000000001c
:0d11d300000000000000000000000000000f
:2011e0000000000000000000000000000000000000000000000000000000000000000000ef
:201200000000000000000000000000000000000000000000000000000000000000000000ce
:201220000000000000000000000000000000000000000000000000000000000000000000ae
:0d12400000000000000000000000000000a1
:20124d00000000000000000000000000000000000000000000000000000000000000000081
:20126d00000000000000000000000000000000000000000000000000000000000000000061
:20128d00000000000000000000000000000000000000000000000000000000000000000041
:0d12ad000000000000000000000000000034
:2012ba00000000000000000000000000000000000000000000000000000000000000000014
:2012da000000000000000000000000000000000000000000000000000000000000000000f4
:2012fa000000000000000000000000000000000000000000000000000000000000000000d4
:0d131a0000000000000000000000000000c6
:201327000000000000000000000000000000000000000000000000000000000000000000a6
:20134700000000000000000000000000000000000000000000000000000000000000000086
:20136700000000000000000000000000000000000000000000000000000000000000000066
:0d1387000000000000000000000000000059
:20139400000000000000000000000000000000000000000000000000000000000000000039
:2013b400000000000000000000000000000000000000000000000000000000000000000019
:2013d4000000000000000000000000000000000000000000000000000000000000000000f9
:0d13f40000000000000000000000000000ec
:201401000000000000000000000000000000000000000000000000000000000000000000cb
:201421000000000000000000000000000000000000000000000000000000000000000000ab
:2014410000000000000000000000000000000000000000000000000000000000000000008b
:0d1461000000000000000a00000000000074
:20146e0000000000000000000000000000000000000000000000000000000000000000005e
:20148e0000000000000000000000000000000000000000000000000000000000000000003e
:2014ae0000000000000000000000000000000000000000000000000000000000000000001e
:0d14ce000004000000000400000000000009
:2014db000000000000000000000000000000000000000000000000000000000000000000f1
:2014fb000000000000000000000000000000000000000000000000000000000000000000d1
:20151b000000000000000000000000000000000000000000000000000000000000000000b0
:0d153b0000000000000000000000000000a3
:20154800000000000000000000000000000000000000000000000000000000000000000083
:20156800000000000000000000000000000000000000000000000000000000000000000063
:20158800000000000000000000000000000000000000000000000000000000000000000043
:0d15a8000000000000000000000000000036
:2015b500000000000000000000000000000000000000000000000000000000000000000016
:2015d5000000000000000000000000000000000000000000000000000000000000000000f6
:2015f5000000000000000000000000000000000000000000000000000000000000000000d6
:0d16150000000000000000000000000000c8
:20162200800000000000000000000000000000000000000000000000000000000000000028
:20164200000000000000000000000000000000000000000000000000000000000000000088
:20166200000000000000000000000000000000000000000000000000000000000000000068
:0d168200000000000000000000000000005b
:20168f0000000000000000000000000000000000000000000000000000000000000000003b
:2016af0000000000000000000000000000000000000000000000000000000000000000001b
:2016cf000000000000000000000000000000000000000000000000000000000000000000fb
:0d16ef0000000000000000000000000000ee
:2016fc0080000000000000000000000000000000000000000000000000000000000000004e
:20171c000000000000000000000000000000000000000000000000000000000000000000ad
:20173c0000000000000000000000000000000000000000000000000000000000000000008d
:0d175c000000000000000000000000000080
:20176900002900000000000000000000000000000000000000000000000000000000000037
:20178900000000000000000000000000000000000000000000000000000000000000000040
:2017a900000000000000000000000000000000000000000000000000000000000000000020
:0d17c9000000000000000000000000000013
:2017d6000040000000000000000000000000000000000000000001000000000000000800aa
:2017f6000000000000000000000000000000000000000000000000000000000000000000d3
:201816000000000000000000000000000000000000000000000000000000000000000000b2
:0d18360000000000000000000000000000a5
:20184300000000000000000000000000000000000000000000000000000000000000000085
:20186300000000000000000000000000000000000000000000000000000000000000000065
:20188300000000000000000000000000000000000000000000000000000000000000000045
:0d18a3000000000000000000000000000038
:2018b000000200000000000000000000000000000000000000000000000000000000000016
:2018d0000000000000000000000000000000000000000000000000000000000000000000f8
:2018f0000000000000000000000000000000000000000000000000000000000000000000d8
:0d19100000000000000000000000000000ca
:20191d004b000000000000000000000000000000000000000000000000000000000000005f
:20193d0000000000000000000000000000000000000000000000000000000000000000008a
:20195d0000000000000000000000000000000000000000000000000000000000000000006a
:0d197d00000000000000000000000000005d
:20198a000e000000000000000000000000000000000000000000000000000000000000002f
:2019aa0000000000000000000000000000000000000000000000000000000000000000001d
:2019ca000000000000000000000000000000000000000000000000000000000000000000fd
:0d19ea0000000000000000000000000000f0
:2019f700006000000000000000200000000000000000000000000000000000000000000050
:201a17000000000000000000000000000000000000000000000000000000000000000000af
:201a370000000000000000000000000000000000000040000000000000000000000000004f
:0d1a57000000000000000000000000000082
:201a64008000000000000000000000000000000000000000000000000000000000000000e2
:201a8400000000000000000000000000000000000000000000000000000000000000000042
:201aa400000000000000000000000000000000000000000000000000000000000000000022
:0d1ac4000000000000000000000000000015
:201ad100800000000000000000000000000000000000000000000000000000000000000075
:201af1000000000000000000000000000000000000000000000000000000000000000000d5
:201b11000000000000000000000000000000000000000000000000000000000000000000b4
:0d1b31000000000000000000100000000097
:201b3e00000000000000000000000000000000000000000000000000000000000000000087
:201b5e00000000000000000000000000000000000000000000000000000000000000000067
:201b7e00000000000000000000000000000000000000000000000000000000000000000047
:0d1b9e00000000000000000000000000003a
:201bab0000000000000000000000000000000000000000000000000000000000000000001a
:201bcb000000000000000000000000000000000000000000000000000000000000000000fa
:201beb000000000000000000000000000000000000000000000000000000000000000000da
:0d1c0b0000000000000000000000000000cc
:201c18000000000000000000000000000000000000000000000000000000000000000000ac
:201c380000000000000000000000000000000000000000000000000000000000000000008c
:201c580000000000000000000000000000000000000000000000000000000000000000026a
:0d1c780080000000000000000000000000df
:201c850000000000000000000000000000000000000000000000000000000000000000003f
:201ca50000000000000000000000000000000000000000000000000000000000000000001f
:201cc5000000000000000000000000000000000000000000000000000000000000000000ff
:0d1ce50000000000000000000000000000f2
:201cf2000000000000000000000000000000000000000000000000000000000000000000d2
:201d12000000000000000000000000000000000000000000000000000000000000000000b1
:201d3200000000000000000000000040000000000000000000000000000000000000000051
:0d1d52000000000000000000000000000084
:201d5f000000000000e0000000000000000000000000000000000000000000000000000084
:201d7f00000000000000000000000000000000000000000000000000000000000000000044
:201d9f00000000000000000000000000000000000000000000000000000000000000000024
:0d1dbf000000000000000000000000000017
:201dcc000000000001000000000000000000000000000000000000000000000000000000f6
:201dec00000000000000000000000000000000000000000000000000000000000000800057
:201e0c00000000000000000000000000000000000000000000000000002000000000000096
:0d1e2c0000000000000000000000000000a9
:201e3900000000000000000000000000000000000000000000000000000000000001000088
:201e5900000000000000000000000000000000000000000000000000000000000000000069
:201e7900000000000000000000000000000000000000000000000000000000000000000445
:0d1e9900000000000000000000000000003c
:201ea60000000000000000000000000000000000000000000000000000000000000280009a
:201ec6000000000000000000000000000000000000000000000000000000000000000000fc
:201ee6000000000000000000000000000000000000000000000000000000000000000004d8
:0d1f060000000000000000000000000000ce
:201f13000000000000000000000000000000000000000000000000000000000000000000ae
:201f330000000000000000000000000000000000000000000000000000000000000000008e
:201f530000000000000000000000000000000000000000000000000000000000000000006e
:0d1f73000000000000000000000000000061
:201f8000000000000000000000000000000000000000000000000000000000000000000041
:201fa000000000000000000000000000000000000000000000000000000000000000000021
:201fc000000000000000000000000000000000000000000000000000000000000000000001
:0d1fe00000000000000000000000000000f4
:201fed00000001000000283c0000000000000000000000000000000000000000000000006f
:20200d000000000000000000000000000000000000000000000000000000000000000000b3
:20202d00000000000000000000000000000000000000000000000000000000000000000093
:0d204d000000000000000000000000000086
:20205a00000002000000403c000000000000000000000000000000000000000000000000e8
:20207a00000000000000000000000000000000000000000000000000000000000000000046
:20209a00000000000000000000000000000000000000000000000000000000000000000026
:0d20ba000000000000000000000000000019
:2020c7000000000000000000000000000000000000000000000000000000000000000000f9
:2020e700000000000000000000000040000000000000000000000000000000000000000099
:202107000000000000000000000000000000000000000000000000000000000000000000b8
:0d21270000000000000000000000000000ab
:20213400080000000000000000000000000000000000000000000000000000000000000083
:2021540000000000000000000000000000000000000000000000000000000000000000006b
:2021740000000000000000000000000000000000000000000000000000000000000000004b
:0d219400000000000000000000000000003e
:2021a10000000000000000000000000000000000000000000000000000000000000000001e
:2021c1000000000000000000000000000000000000000000000000000000000000000000fe
:2021e1000000000000000000000000000000000000000000000000000000000000000000de
:0d22010000000000000000000000000000d0
:20220e000000000000000000000000000000000000000000000000000000000000000000b0
:20222e00000000000000000000000000000000000000000000000000000000000000000090
:20224e00000000000000000000000000000000000000000000000000000000000000000070
:0d226e000000000000000000000000000063
:20227b00000000000000000000000000000000000000000000000000000000000000000043
:20229b00000000000000000000000000000000000000000000000000000000000000000023
:2022bb00000000000000000000000000000000000000000000000000000000000000000003
:0d22db0000000000000000000000000000f6
:2022e8000000000000000000000000000000000000000000000000000000000000000000d6
:202308000000000000000000000000000000000000000000000000000000000000000000b5
:20232800000000000000000000000000000000000000000000000000000000000000000095
:0d2348000000000000000000000000000088
:20235500000000000000000000000000000000000000000000000000000000000000000068
:20237500000000000000000000000000000000000000000000000000000000000000000048
:20239500000000000000000000000000000000000000000000000000000000000000000028
:0d23b500000000000000000000000000001b
:2023c2000000000000000000000000000000000000000000000000000000000000000000fb
:2023e2000000000000000000000000000000000000000000000000000000000000000000db
:202402000000000000000000000000000000000000000000000000000000000000000000ba
:0d24220000000000000000000000000000ad
:20242f0000000000000000000000000000000000000000000000000000000000000000008d
:20244f0000000000000000000000004000000000000000000000000000000000000000002d
:20246f0000000000000200000000000000000000000000000000000000000000000000004b
:0d248f000000000000000000000000000040
:20249c00000000000000000000000000000000000000000000000000000000000000000020
:2024bc00000000000000000000000000000000000000000000000000000000000000000000
:2024dc000000000000000000000000000000000000000000000000000000000000000000e0
:0d24fc0000000000000000000000000000d3
:20250900000000000000000000000000000000004000000000000000000000000000000072
:20252900000000000000000000000000000000000000000000000000000000000000000092
:20254900000000000000000000000000000000000000000000000000000000000000000072
:0d2569000000000000000000000000000065
:20257600000000000000000000000000000000000000000000000000000000000000000045
:20259600000000000000000000000000000000000000000000000000000000000000000025
:2025b600000000000000000000000000000000000000000000000000000000000000000005
:0d25d60002000000000000000000000000f6
:2025e3000000000000000000000000000000000000000000000000000000000000000000d8
:202603000000000000000000000000000000000000000000000000000000000000000000b7
:20262300000000000000000000000000000000000000000000000000000000000000000097
:0d2643000500000000000020000000000065
:2026500000000000000000000000000000000000000000000000000000000000000000006a
:2026700000000000000000000000000000000000000000000000000000000000000000004a
:2026900000000000000000000000000000000000000000000000000000000000000000002a
:0d26b000000000000000000000000000001d
:2026bd000000000000000000000000000000000000000000000000000000000000000000fd
:2026dd000000000000000000000000000000000000000000000000000000000000000000dd
:2026fd000000000000000000000000000000000000000000000000000000000000000000bd
:0d271d0000000000000000000000000000af
:20272a0000000000000000000000000000000000000000000000000000000000000000008f
:20274a0000000000000000000000000000000000000000000000000000000000000000006f
:20276a0000000000000000000000000000000000000000000000000000000000000000004f
:0d278a0000000000000000e0000000000062
:20279700000000000000000000000000000000000000000000000000000000000000000022
:2027b700000000000000000000000000000000000000000000000000000000000000000002
:2027d7000000000000000000000000000000000000000000000000000000000000000000e2
:0d27f70000000000000000000000000000d5
:202804000000000000000000000000000000000000000000000000000000000000000000b4
:20282400000000000000000000000000000000000000000000000000000000000000000094
:20284400000000000000000000000000000000000000000000000000000000000000000074
:0d2864000000000000000000000000000067
:20287100000000000000000000000000000000000000000000000000000000000000000047
:20289100000000000000000000000000000000000000000000000000000000000000000027
:2028b100000000000000000000000000000000000000000000000000000000000000000007
:0d28d10000000000000000000000000000fa
:2028de000000000000000000000000000000000000000000000000000000000000000000da
:2028fe000000000000000000000000000000000000000000000000000000000000000000ba
:20291e00000000000000000000000000000000000000000000000000000000000000000099
:0d293e00000000000000000000000000008c
:20294b0000000000000000000000000000000000100000000000000000000000000000005c
:20296b0000000000000000000000000000000000000000000000000000000000000000004c
:20298b00001cf04000000000000000000000000000000000000000000000000000000000e0
:0d29ab000000000000000200e005cfa10cbc
:2029b8000000000000000000000000000000000008000000000000000000000000000000f7
:2029d8000000000000000000000000000000000000000000000000000000000000000000df
:2029f8000000f00000000000000000000000000000000000000000000000000000000000cf
:0d2a18000000000000000400202d0ff3045a
:202a2500000000000000000000000000000000000000000000000000000000000000000091
:202a450000000000000000000000000000000000000000000000000000000000000a000067
:202a6500020c550000000000000000000000000000000000000000000000000000000000ee
:0d2a85000000000000000200000000000042
:202a9200000000000000000000000000000000000000000000000000000000000000000024
:202ab2000000000000000000000000000000000000000000000000000000000000080000fc
:202ad20000c0aa084000000000000000000000000000000000000000000000000000000032
:0d2af20000000000000004000000000000d3
:202aff000000000000000000000000000000000000000000000000000000000000000000b7
:202b1f00000000000000000000000000000000000000000000000000000000000000000096
:202b3f00000000000000000000000000000000000000000000000000000000000000000076
:0d2b5f000000000000000000000000000069
:202b6c00000000000000000000000000000000000000000000000000000000000000000049
:202b8c00000000000000000000000000000000000000000000000000000000000000000029
:202bac00000000000000000000000000000000000000000000000000000000000000000009
:0d2bcc0000000000000000000000000000fc
:202bd9000000000000000000000000000000000000000000000000000000000000000000dc
:202bf90000000000000000000000004000000000000000000000000000000000000000007c
:202c190000000000000000000000000000000000000000000000000000a0000000000000fb
:0d2c3900000000000000000000000000008e
:202c460000000000000000000000000000000000000000000000000000000000000000006e
:202c660000000000000000000000004000000000000000000000000000000000000000000e
:202c86000000000000000000000000000000000000000000000000000040000000000000ee
:0d2ca6000000000000000000000000000021
:202cb300000000000000000000000000000000000000000000000000000000000000000001
:202cd3000000000000000000000000000000000000000000000000000000000000000020c1
:202cf3000000000000000000000000000000000000000000000000000000000000000000c1
:0d2d13000000000000000040000000000073
:202d2000000000000000000000000000000000000000000000000000000000000000000093
:202d400000000000000000000000000050000000000000000000000000000000000000041f
:202d6000000000000000000000000000000000000000000000000000000000000000000053
:0d2d800000000000000000000380000000c3
:202d8d00000000000000000000000000000000000000000000000000000000000000000026
:202dad00000000000000000000000000000000000000000000000000000000000000001ee8
:202dcd000000000000000000000000000000000000000000000000000000000000000000e6
:0d2ded0000000000000000000200000000d7
:202dfa000000000000000000000000000000000000000000000000000000000000000000b9
:202e1a00000000000000000000000000000000000000000000000000000000000000000296
:202e3a00000000000000000000000000000000000000000000000000000000000000000078
:0d2e5a00000000000000000000000000006b
:202e670000000000000000000000000000000000000000000000000000000000000000004b
:202e870000000000000000000000000000000000000000000000000000000000000000002b
:202ea70000000000000000000000000000000000000000000000000000000000000000000b
:0d2ec70000000000000004000000000000fa
:202ed4000000000000000000000000000000000000000000000000000000000000000000de
:202ef4000000000000000000000000000000000000000000000000000000000000000000be
:202f140000000000000000000000000000000000000000000000000000000000000000009d
:0d2f3400000000000000020000000000008e
:202f4100000000000000000000000000000000000000000000000000000000000000000070
:202f6100000000000000000000000000000000000000000000000000000000000000000050
:202f8100000000000000000000000000000000000000000000000000000000000000000030
:0d2fa1000000000000000000000000000023
:202fae00000000000000000000000000000000000000000000000000000000000000000003
:202fce000000000000000000000000000000000000000000000000000000000000000000e3
:202fee000000000000000000000000000000000000000000000000000000000000000000c3
:0d300e0000000000000000000000000000b5
:20301b00000000000000000000000000000000000000000000000000000000000000000095
:20303b0000000000000000000000000000000000000000000000000000007a25a000000036
:20305b000379f700000001a522810200000000000000000000000000000000000000000196
:0d307b000000000000000000000000000048
:20308800000000000000000000000000000000000000000000000000000000000000000028
:2030a8000000000000000000000000000000000000000000000000000000002580800014cf
:2030c800036dff0000000100428200000000000000000000000000000000000000000000b4
:0d30e80000000000000000000000000000db
:2030f500000000000000000000000000000000000000000000000000000000000002800039
:2031150000000000000000000000000000000000000000000000028000007225b00a003493
:20313500364ee442a800000000000000000000000000000000000000000000000000000028
:0d315500000000000000000000000000006d
:2031620000000000000000000000000000000000000000000000000000000000000000004d
:203182000000000000000000000000000000000000000000000002000000002580088016e8
:2031a2002a40f0006000000000000000000000000000000000000000000000000000000053
:0d31c2000000000000000000000000000000
:2031cf000000000000000000000000000000000040000000000000000000000000000000a0
:2031ef0000000000000000000000000000000000000000000000030000195225b001003448
:20320f00000000000000800000000000020015ea000000000000000000000000000000001e
:0d322f000000000000000000000000000092
:20323c00000000000000000000000000000000004000000000000000000000000000000032
:20325c00000000000000000000000000000000000000000000000300000808258000001486
:20327c000000000000001000000000000140010a00100000000000000000000000000000c6
:0d329c000000000000000000000000000025
:2032a900000000000000000000000000000000000000000000000000000000000000000005
:2032c90000000000000000000000000000000000000000000000000009815225b0000036fe
:2032e900624cf00040000000000000000000000000000000000000000000000000000000e7
:0d33090000000000000000000000000000b7
:20331600000000000000000000000000000000000000000000000000000000000000000097
:203336000000000000000000000000000000000000000000000000000108082580000004bd
:203356002e40ff0000000000000000000000000000000000000000000000000000000000ea
:0d33760000000000000000e000000000006a
:2033830000000000000000000000000000000000000000000000000000000000000000002a
:2033a30000000000000000000000000000000000000000000000000000005a25b0000034a7
:2033c300296a404200000000000000000000000000000000000000000000000000000000d5
:0d33e30000000000000000000000000000dd
:2033f0000000000000000000000000000000000000000000000000000000000000000000bd
:203410000000000000000000000000000000000000000000000000000000002580000006f1
:203430004140a4000000000000000000000000000000000000000000000000000000000057
:0d345000000000000000000000000000006f
:20345d0000000000000000000000000000000000000000000000000000000000000000004f
:20347d0000000000000000000000000000000000000000000000000000005a25b0000001ff
:20349d0004000000000000000000000000000000000000000000000000000000000000000b
:0d34bd000000000000000000000000000002
:2034ca000000000000000000000000000000000000000000000000000000000000000000e2
:2034ea0000000000000000000000000000000000000000000000000000000025800000001d
:20350a002000000000009000000000000000000000000000000000000000000000000000f1
:0d352a000000000000000000000000000094
:20353700000000000000000000000000000000000000000000000000000000000000000074
:20355700000000000000000000000000000000000000000000000000019a5a25b000000684
:2035770002dbef000000000000000000000000000000400000000000000001000000000027
:0d3597000000000000000000000000000027
:2035a400000000000000000000000000000000000000000000000000000000000000000007
:2035c40000000000000000000000000000000000000000000000000000000825800000003a
:2035e4000168ff00000000000000000000000000000000000000000000000000000000005f
:0d36040000000000000000000000000000b9
:20361100000000000000000000000000000000000000000000000000000000000000000099
:203631000000000000000000000000000000000000000000000003000f987a25b00000146c
:20365100007ff70030000000000000000000000000000000000000000000000000000000b3
:0d367100000000000000100000000000003c
:20367e0000000000000000000000000000000000000000000000000000000000000000002c
:20369e00000000000000000000000000000000000000000000000300050008258000003621
:2036be0000eeff0010000000000000000003000000000000000000000000000000000000ec
:0d36de0000000000000010000000000000cf
:2036eb000000000000000000000000000000000000000000000000000000000000000000bf
:20370b0000000000000000000000000000000000000000000000000000007225b000400017
:20372b0004000000040000a00000000000000000000000011f000000000014284af54040bb
:0d374b0000500000000012026074ec150830
:20375800000000000000000000000000000000000000000000000000000000000000000051
:2037780000000000000000000000000000000000000000000000000000000025810000008b
:203798002800000000007100000000000003c000000000008800000000000242e0a0014028
:0d37b800000800000000000042048c7000ba
:2037c5000000000000000000000000000000000000000000000000000000000000000000e4
:2037e50000000000000000000000000000000000000000000000028000007225b0000000fb
:203805006c0000002800780000000000600000000000030800f7bc000a0040006ca54001dd
:0d382500020000000000a00062ad8c140045
:20383200000000000000000000000000000000000000000000000000000000000000000076
:203852000000000000000000000000000000000000000c00000002000000002580000000a3
:2038720028000000200000c0000000000002c0000000000500b803c00800b400d0aa300086
:0d389200b400000000008002c42e8cb014b1
:20389f00000000000000000000000000000000000000000000000000000000000000000009
:2038bf0000000000000000000000000000000000000000010000030000195225b000002085
:2038df00000000000000001000000000000000000000000000920cc08000200000000000bb
:0d38ff0000000000000000020026ec150093
:20390c0000000000000000000000000000000000000000000000000000000000000000009b
:20392c000000000000000000000000000000000000000000000003000008082580000014af
:20394c00000000000000f4f00000000000000000000000000014330000000400000000002c
:0d396c000000000000000000c03e9c700044
:2039790000000000000000000000000000000000000000000000000000000000000000002e
:2039990000000000000000000000000000000000000000000000000301995225b00000004a
:2039b9000000000000088007e0cc001000004000000000000000000000000006cca570007c
:0d39d900025800000000020006400000003f
:2039e6000000000000000000000000000000000000000000000000000000000000000000c1
:203a06000000000000000000000000000000000000000000000000000008082580000000eb
:203a260000000000020010097330001003c2800000004000000000000000003f50aa0100f3
:0d3a4600040000000000000002000000006d
:203a5300000000000000000000000000000000000000000000000000000000000000000053
:203a730000000000000000000000000000000000000000000000000000007a25b0000000e4
:203a9300000000000400f0056bd50400000017a55000000808770cc0000006000000000071
:0d3ab3000000000000000401c7000000003a
:203ac0000000000000000000000000000000000000000000000000000000000000000000e6
:203ae000000000000000000000000000000000000000000000000000000000258000000021
:203b0000000000000000d8018280810000028105500000071f33b30000001c380000000011
:0d3b20000000000000000000034000000055
:203b2d00000000000000000000000000000000000000000000000000000000000000000078
:203b4d0000000000000000000000000000000000000000000000000400005a25b000100015
:203b6d0061cefd00004001cf34cc020015c025c3302800071cb20cc0801c0702eca560802e
:0d3b8d000400000000000100024efd1504c0
:203b9a0000000000000000000000000000000000000000000000000000000000000000000b
:203bba000000000000000000000000000000000000000000000000000f0000258000000037
:203bda00415fff000000010b2330000008020f0cc000000080fc330000000034f0aa01006a
:0d3bfa000000000000000002c36c8c3000d1
:203c070000000000000000000000000000000000000000000000000000000000000080001d
:203c2700000000000000000000000000000000000000000000000000098e5a25b0000006b1
:203c470066f8f700000058057bd52000000000000000000d8cf30cc0c00000005ef5600070
:0d3c67000000000000000003c00dbe0400be
:203c7400000000000000000000000000000000000000000000000000000000000000000030
:203c9400000000000000000000000000000000000000000000000000011008258000000250
:203cb4006679ff00000008014280200000000000000000051dfc330000000002d0a0000064
:0d3cd4000000000000000003402dff401024
:203ce1000000000000000000000000000000000000000000000000000000000000000000c3
:203d010000000000000000000000004000000000000000000000030008005a259000000048
:203d210000000000028070100000000000002d8f000800150900000000000004000000009a
:0d3d41000000e5fbc024000006afbe250019
:203d4e00000000000000000000000000000000000000000000000000000000000000000055
:203d6e00000000000000000000000040000000000000000000000100010008258000000046
:203d8e00000000000100008000000000e002bf00f20000208d000000000000200000000034
:0d3dae00000001403c000000441fdf0080c9
:203dbb000000000000000000000000000000000000000000000000000000000000000000e8
:203ddb000000000000000000000000000000000000000000000000000000000000000000c8
:203dfb00000ea05080280011f4cc000040000000000000280cd63c0000000001c100800267
:0d3e1b008001800000000004022ded150064
:203e280000000000000000000000000000000000000000000000000000000000000000007a
:203e48000000000000000000000000000000000000008000000000000000000000000000da
:203e680003c05000000000bde330000000000000000000011ff003c0400014000e00000022
:0d3e880004b00000000000000024ac3088f1
:203e950000000000000000000000000000000000000000000000000000000000000000000d
:203eb50000000000000000000000000000000000000000000000028000000000000a000061
:203ed5000000ff10a90000c178cc0800016020066002800581801980000000006996802859
:0d3ef500040015bbd540a000005dc33000e7
:203f020000000000000000000000000000000000000000000000000000000000000000009f
:203f2200000000000000000000000000000000000000000000000200000000000008000075
:203f42000000ff002300d0f38330c400000004e9900200000a12a640000000282f96002075
:0d3f62000000a301402080024367acc000b6
:203f6f00000000000000000000000000000000000000000000000100000000000000000031
:203f8f000000000000000000000000002000000000000c000000004000003bbd500000005e
:203faf0000000000010001e00000000000078fcf0200288d80da0cc080008001c9968000ee
:0d3fcf00000000000000000246000000009d
:203fdc000000000000000000000000000000000000000000000000000000000000000000c5
:203ffc00000000000000000000000000000000000000000000000000000074280c500000ad
:20401c0000000000000401000000000000003600f004000f09543300100000002e960040a2
:0d403c000000000000000001c000000000b6
:20404900000000000000000000000000000000000000000000000000000000000000000057
:20406900000000000000000000000000000000000000000000000000000000000000000037
:204089000000000000051811e9540000000281a96220000f08964cc801008400489680005a
:0d40a900053801ea950400e8063caf56001a
:2040b6000000000000000000000000000000000000000000000000000000000000000000ea
:2040d6000000000000000000000000000000000000000000000000000000000000000000ca
:2040f60000000000000200d08154010003c00d06901000071856f300010142000e9600003c
:0d41160002f00982a8010010100d0a00003f
:2041230000000000000000000000000000000000000000000000000000000000000000007c
:2041430000000000000000000000000000000000000000000000000000000000000000005c
:2041630000000000003a38000000000001e03f8f000000000e00000000800068e996800026
:0d4183000070c5b280400000400000000048
:2041900000000000000000000000000000000000000000000000000000000000000000000f
:2041b0000000000000000000000000000000000000000000000000000000000000000000ef
:2041d00000000000000108000000000000201e00f01000001000000000401c002e96000058
:0d41f00000000140008500000000000000fc
:2041fd0000000000000000000000000000000000040000000000001000000000000040004e
:20421d000000000001000000000000040000000000000000000000040380000000003000c5
:20423d0000000000024001b3ebd5040101c2bce330002400017728004050017168968100cf
:0d425d00c500000000000101e000000000ad
:20426a00000000000000000000000000000000000000000000000000000000000000000034
:20428a00000000000000000000000000000000000000000000000000000000000000003cd8
:2042aa0000000000011800bf81400100026695ecc00010000e0c2800002000400e9600005b
:0d42ca002a04000000000040024000000037
:2042d7000000000000000000000000000000000000000000000001000000000000000000c6
:2042f7000000000000000000000000000000000000000000000000000501000000000000a1
:2043170020000000000070000000000003e62189602000000e338cc000002004c996800053
:0d4337000018000000000401e26fef5500c7
:20434400000000000000000000000000000000000000000000000000000000000000000059
:20436400000000000000000000000000000000000000000000000000000800000000003cf5
:2043840040000000000000900000000002c40c0690000000085e730000003c3c2e960000cc
:0d43a4000004000000000a01e7b50500005c
:2043b1000000000000000000000000000000000000000000000000000000000000000000ec
:2043d10000000000000000000000000000000000000000000000000000000000000da0001f
:2043f100000000000000118f7bd506000043cfe5500000001c5879d800401e04c896810861
:0d441100000000000000080200578a150896
:20441e0000000000000000000000000000000000000000000000000000000000000000007e
:20443e00000000000000000000000000000000000000000000000000000000000005400019
:20445e000000000000000c0d4280000000224305500002001fdbd0801020022c0e9600005b
:0d447e000200000000000400c21efa7004dd
:20448b000000000000000000000000000000000000000000000000000000000000001018e9
:2044ab00000000000001600489680000000000000000000000000002000000000000000099
:2044cb006000000000000013bbd5000001604000000000001f3eccc0200000216896800085
:0d44eb0000000b6ffc00000340000000000b
:2044f8000000000000000000000000000000000000000000000000000000000000000000a4
:204518000000000000000000096020000000000000000000000000000000000000000000fa
:2045380000000000000000f5028045000003c0000000200f0ad3f300000000002f960c0014
:0d4558000000097bec000000d00000000016
:2045650000000000000000000000000000000000000000000000000000000000002800000e
:204585000b600900a000001c896c000000000000000000000000028050000000000a000015
:2045a500015f3300280000a76154000003679d8f000a90000000000000000021c9968000af
:0d45c5000200172bdc4800000066af7000fc
:2045d2000000000000000000000000000000000000000000000000000000000000200000a9
:2045f200b762840480000000096000000000000000000000000002002000000000080000f5
:20461200026acc09a000d000815420000046bc00f1022b070000000000000040299600407c
:0d4632000400ef43fc0402a0026f8fe000c3
:20463f0000000000000000000000000000000000000000000000000000000000000000005b
:20465f000000000040000754896c00000000000000000000000000000700000000000000a4
:20467f0068000000010058a00000000000003da3302000001e534cc000000000c89680002f
:0d469f000051e000000002c0068000000095
:2046ac000000000000000000000000000000000000000000000000000000000000000000ee
:2046cc0000000000c00006020960000000000000000000000000000000800000000000001d
:2046ec00000000000080d1f0000000000000150cc000000918133300000000000f96000080
:0d470c000009000000000000040000000093
:20471900000000000000000000000000000000000000000000000000000000000000000080
:20473900000000000000605c896c0000000000000000000000000000000002bc18000020b9
:20475900001ef040000000000000000001404fef000000000b9a0cc080000005c89680009f
:0d47790005000b28cc800004001fca0000c2
:20478600000000000000000000000000000000000000000000000000000000000000000013
:2047a6000000000000000202096000000000000000000000000000000000003c0000001c2e
:2047c6000000f00000009000000000002022ae00f000000f08f433004000003429960800fa
:0d47e6000000c3bb300000e000020a02002a
:2047f300000000000000000000000000000000000000000000000000000000000000008026
:20481300000000000000001e896c0000000000000000000000000000000000000000000072
:20483300000000000000780d2bc04000000227c3322000338082954000001421c89690004a
:0d485300003800728000000000000000002e
:204860000000000000000000000000000000000000000000000000000000000000000050e8
:2048800000000000000000000960000000000000000000000000000000000000000080002f
:2048a000000000000000900b403c000004040c0cc01402a180742a80000e00000f960000f9
:0d48c0000030a34140021000000000000085
:2048cd000000000000000000000000000000000000000000000000000000000000000000cb
:2048ed000000000000000016896c0000000000000000000000000000000000000000a00000
:20490d00015eaa218080780b23c000001c6005933000000900b68cc2802c8001c996a0007d
:0d492d0014388000000004b4028000000077
:20493a0000000000000000000000000000000000000000000000000000000000000000005d
:20495a00000000000000000009600400000000000000000000000000000000000000400090
:20497a000020aa00010008d7403c00003c43c79cc000000100343300004140002e960000a8
:0d499a001009000000000a024000000000ab
:2049a7000000000000000000000000000000000000000000000000000000000000000000f0
:2049c7000000000000106616896c000000000000000000000000000000000000000000004f
:2049e70000000000010080e1e954040003c020e5500000200e16bd5000002021e896800065
:0d4a070000d81000000000000000000000ba
:204a1400000000000000000000000000000000000000000000000000000000000000000082
:204a34000000000000080002096000000000000000000000000000000000000000000000ef
:204a540000000000000014008154000001c2c40aa000000010fc280010009d402f96010041
:0d4a74000070f00000000000038000000052
:204a8100000000000000000000000000000000000000000000000000000000000000000015
:204aa10000000000d003c61e896c1000000000000000000000000000000000000001000c2c
:204ac100000000000000000570cc040001e00000000010039900000000002001c896800004
:0d4ae10030780000000000001205eff10029
:204aee00000000000000000000000000000000000000000000000000000000000000007038
:204b0e0000000000d0004002096000000000000000000000000000000000000000010c00ff
:204b2e000000000000005005f330800000000000000008009e00000000003c382d96008012
:0d4b4e000000000000000000003d0f528c30
:204b5b00000000000000000000000000000000000000000000000000000000000000101911
:204b7b00900000000000001c896c001008003e89582000000000000000007abd500000009b
:204b9b00000000000039000869540000020797a330000008005ea81000008001c9968040cb
:0d4bbb000001d3accc801004e04de55100aa
:204bc8000000000000000000000000000000000000000000000000000000000000000009c4
:204be8009000000000000000096040000f00da00440000000000000000005028044000008b
:204c080000000000000000fb02a8000003440e8cc084020b0f343e80404040002996040031
:0d4c280000018b3f3020100803c205510031
:204c35000000000000000000000000000000000000000000000000000000000000280080b7
:204c5500e0000000a00a001c896c0280100000000000000000000280001c00000000004034
:204c75000000000028000000000000a002400fef0002a0019e120cc0000100386996882b0d
:0d4c95000101e03ec542a0134047e330009e
:204ca200000000000000000000000000000000000000000000000000000000000020009042
:204cc200000000008011c00009600200200000000000000000000200001000000000009c48
:204ce20000000000200000000000008000601600f00a100010d73300000000242996002174
:0d4d020000000f25c8008000636dbcc010cc
:204d0f00000000000000000000000000000000000000000000000000000000000000008004
:204d2f0005729500c0000654896c0000800a00000000000000000000098000000000000036
:204d4f000000000000007817bbd58000c20606ea540c00000bb70cc8a0000001e996800453
:0d4d6f00058015e2950000000027e33020cc
:204d7c000000000000000000000000000000000000000000000000000000000000000030e7
:204d9c00bb7d4c044000020209600000001000000000000000000000218000000000000011
:204dbc0000000000000008b7c280400000c02d0aa00000000ff83302000e3c0029960000ba
:0d4ddc0002d0a9c2a820000002cd0cc10029
:204de90000000000000000000000000000000000000000000000000000000000000080002a
:204e090011bfdc0000006654896c0040000000000000000000000000000a00000001800063
:204e29000000000002801c03a0cc000002600eaf5400102001329540004300006896a000d0
:0d4e49000200100000001000021c83300069
:204e560000000000000000000000000000000000000000000000000000000000000100003b
:204e7600992ffc0000000202096000400f0000000000000000000000001000000001402427
:204e9600000000000100f00bfb30000003c2ad0a001008410d041540400200242a96000074
:0d4eb6000c00a00000001000042f8cc010a4
:204ec30000000000000000000000000000000000000000000000000000000000000000705f
:204ee3001173dc080000001e896c0000000000000000000000000000081a86280000000064
:204f030000000000000019bd70cc08040207e4ca5600020f0abe0cc080000005e99680003a
:0d4f23002801d723c082000006a0fa360046
:204f3000000000000000000000000000000000000000000000000000000000000000000061
:204f50008003dc0000040200096000000000000000000000000000000f10d414000000006c
:204f700000000000000408b7c330200a01c2070aa08400019a7c3300100a0028099600001e
:0d4f90000500bf403c000000042d853010de
:204f9d0000000000000000000000000000000000000000000000000000000000000000589c
:204fbd00c97bec0800000016896c0000001c0000000000000000000000003739c80000003d
:204fdd0000000000000001976bd5000200005faf5688038709b729581000c0386996a0017b
:0d4ffd0000d013f3c08000e007618960045c
:20500a00000000000000000000000000000000000000000000000000000000000000000086
:20502a000983fc0000000000096000000010000000000001000000002f00b3bbc000000007
:20504a0000000000000000a38280050002423e0a000000008f1c2a800000c0402d960000f8
:0d506a0082d08b403c20000347dcd6900034
:205077000000000000000000000000000000000000000000000000000000000000000058c1
:20509700ad329c8800026016896c0000000000000000000000000000000000000000048ef7
:2050b70000000000008218f000000000004040da3500100000ffbd582000000168968000fd
:0d50d7000019f9aa81020000071fc5500052
:2050e4000000000000000000000000000000000000000000000000000000000000000001ab
:205104000f83940100004002096000038000000000000000000000000f00000000000042e5
:20512400000000000005b9800000000000039dd53080000000b42802000000242d96000043
:0d51440000719bc3e800000003c10550008e
:205151000000000000000000000000000000000000000000000000000000000000000051ed
:20517100e000000040020016896400000000000000000000000000000800000000004000b1
:20519100026ea5000000300b2a81020001638000000000030d00000000803c05e99681014b
:0d51b1000000e000000002e003c7a3302072
:2051be000000000000000000000000000000000000000000000000000000000000000000d1
:2051de000000000040004002096000000000000000000000000000000f00000000002a008d
:2051fe00014055080010088b83e8200000000000000000050800000000403c280b9600046f
:0d521e008201000000000062c2070cc010f9
:20522b00000000000000000000000000000000000000000000000000000000000000000063
:20524b00000000000002007fcc54000000007f2a84000000000000401801fe2110000000ed
:20526b00656f33000000001debc001000206c0000000030700168cc0004000006896800061
:0d528b0005000d738c4010000000000000b5
:205298000000000000000000000000000000000000000000000000000000000000000000f6
:2052b800000000000003c23ecc3004000009002a820000000000000071081a204000002407
:2052d800264fcc210004f0a3403c000001c70000000000200a37730010000400289604408f
:0d52f800000407fa4400000003000000005d
:20530500000000000000000000000000000000000000000000000a0000000000000000007e
:2053250000000000a0000280000002800000805984000000000002c0050857abc00a0020ac
:2053450038000000008e5805b25888a620079cef540ab00d800000000000203169968028a8
:0d536500840187e15402a010000000000048
:20537200000000000000000000000000000000000000000000000800000000000000000013
:20539200000000008000038000000200000033a640000c00000002000510f0154008000469
:2053b20040000000010790004258018460078e050102280f8000000000001c4029960021f4
:0d53d200020090c1540480c00000000000e3
:2053df000000000000000000000000000000000000000000000000000000000000000000ae
:2053ff0003b9540100000286af500000000000000000008000000000050a0631528000005e
:20541f00327e3300000000a00000000008c3bf8f0080200000b62958000000006996800279
:0d543f0080301731540004d5c340bd140067
:20544c0000000000000000000000000000000000000000000000000000000000000001003f
:20546c0000815424000142820f500000050000000000014000000000009f94328000800058
:20548c0000ffcc01402800e00000000001e03d00f100008000182a80600000002e96000176
:0d54ac000000f0c1540000002625fe201075
:2054b90000000000000000000000000000000000000000000000000000001ef04080000005
:2054d9000000000000000025e33110000008b760000000000000000001185b6c4000e0202b
:2054f900004b25400285181061540000006614933000000d0f00000000290169e996a00074
:0d5519000001e00000000010e074ef500001
:20552600000000000000000000000000000000000000000000000000000010f00040000025
:20554600000000000001429cecc010000b105ff940000a00000000038080d75c40004e1c0d
:20556600025c2a000000d8fd02a8010000003ddcc004038b0d0000000000000029960000e6
:0d5586000090a00000000048022f0ff2046a
:205593000000000000000000000000000000000000000000000000000000000000000000f8
:2055b3000000000000020037af700000000000000000000000000003800100000000402498
:2055d30003fb33014000001000000004e0d3a4aa71002b0d88ff0cc80002000469968000a8
:0d55f3000080c7e954000a00007fea148020
:2056000000000000000000000000000000000000000000000000000000000000000000008a
:205620000000000000004025fff00000000d00000000000000000000000e00000000800477
:2056400002eccc21040000a000000002c42426ba000000090f5fb30001001c2c28960000d0
:0d56600010f100c1540100004255ca720053
:20566d0000000000000000000000000000000000000000000000000000000000000000001d
:20568d0080000000000060148f7020000718ffa81800000000000000001800000000a17cd7
:2056ad0005eef000000280a17954020060c385af56100023185a730000000000c996800064
:0d56cd000118eb0295821002020de550005d
:2056da000000000000000000000000000000000000000000000000000000000000000001af
:2056fa0000000000000020370ff00000098e542a8800000000000000000000000000409ebf
:20571a003cc00f00003cb1008154000004202c0a0004024040fe8cc0500a803c0996004083
:0d573a000001033a640100a1c00205500007
:20574700000000000000000000000000000000000000000000000000000000000000000042
:205767000000000000020200000000000000da808c000000000000028001763c0000201cc7
:205787007a7a3300810081e1f0cc08001063cfef5408018f9ef73440000000006996a0006f
:0d57a7000090e7fbd5060000031dbf0600c3
:2057b40000000000000000000000000000000000000000000000000000000000000000d005
:2057d400000000000000400000000000000033400030000000000000000dd83d4000003c34
:2057f40002efcc094680700f433001000816fd0a000800031873fc04000000002d96000098
:0d58140000b1a542800000000357ce200027
:205821000000000000000000000000000000000000000000000000000068000000000000ff
:20584100000000000001470000000000019c969918800000000000080701db305080001e92
:20586100706c3302840278012bc0040003e25faf541000271907ec5800008638c996808029
:0d5881003c90df6f45400002c38000000036
:20588e000000000000000000000000000000000000000000000000000040000000000000ba
:2058ae000000000000026600000000000718bc16000000000000000000081c004000040217
:2058ce0060c0cc0804000807403c600041462d0a000800500f361c8040010240299600009e
:0d58ee00109185e70c0400006240000000ee
:2058fb0000000000000000000000000000000000000000000000000000001af060400000e3
:20591b000b7fbc0000000016896a0000000000000000400000000000000ab26880004c00ed
:20593b006368cc00002881e1eb0d00000142c493300002a500b773000000062d68f0000607
:0d595b0000f80000000000100000e5500002
:20596800000000000000000000000000000000000000000000000000000000f0000000002f
:2059880007f3fc0000000002096020000000000000000000000000000100dfbc4000004062
:2059a80029fe3300400010f5634400004243f5ecc28423dd801e4cc000800069e00f040166
:0d59c8000078000000000008028d0aa01009
:2059d500000000000000000000000000000000000000000000000a00000000000028007010
:2059f50000000000a000001c896c0280000e0000000000000000028007880738808a0140b6
:205a15006c00000028007010000000a8000014a330000000015ab3008a001635dcc5622cbc
:0d5a35000201e1b3c0000800070c8f000063
:205a4200000000000000000000000000000000000000000000000800000000000020000814
:205a6200000000008000000009600200001000000000000000000200001054344008001433
:205a8200700000002018f8e00000008403c3658cc00400030f140cc00840006c00c508a072
:0d5aa2001d01a7803c020000041f00f00061
:205aaf000000000000000000000000000000000000000000000000040000000000000000d3
:205acf00a733f400c0000654896c00008000000000000000000000000018f78810000000b3
:205aef002bcef500401078e1bbc1204015c7afbcc00002d399778cc081410000585500007d
:0d5b0f00028181a8cc801004020d8330209b
:205b1c00000000000000000000000000000000000000000000000000000000000000000168
:205b3c000f37fc00c00002020960000000000000000000000000000005103b6d40000004d9
:205b5c004350500000000d057f880040036024c3300028058d7c33000120802010550000e4
:0d5b7c0030b0a7e3304100e000350cc080e0
:205b89000000000000000000000000000000000000000000000000000000000000000000fc
:205ba9000000000000006054896c0000080000000000a00000000000000a5ba808000084f2
:205bc90022185500000581f000000010c20027ecc000002300f30cc0004834026ecc100365
:0d5be900827013abd58400000000000000a6
:205bf6000000000000000000000000000000000000000000000000003c0000000000000053
:205c16000000000000000282096000000100000000004000000000000000580000000100e7
:205c360074c0aa100000b1c00000000a00403dc33000001f007af30000203e207b330002bb
:0d5c5600ac08e34280040080000000000064
:205c63000000000000000000000000000000000000000000000000000000000000000058c9
:205c8300b00000000000001e896c000000001ebc1000000000000000af091e3c0000000042
:205ca300066acc0200020007f4cc000800e01cecc02010001e83954810002000000000004c
:0d5cc3000038f32954240004e00000000024
:205cd000000000000000000000000000000000000000000000000000000000000000009024
:205cf000a000000000000000096000000000fbb880000601000000004f1b3634400000003d
:205d1000366033100005140d2f3000000000050330000a0b00b02a80000424000000000046
:0d5d30000431d08154000003e34000000066
:205d3d0000000000000000000000000000000000000000000000000000000000000000b88e
:205d5d000802950000000016896c000000000000000001400000000001d9bb005080008452
:205d7d00005a690a04341013e730010010c000e330200010183abc0000007e036d33200064
:0d5d9d00b08187ee850000000000000000ce
:205daa00000000000000000000000000000000000000000000000000000000000000005881
:205dca00030168000000c0000960000000000000000000000000000007083416c000010208
:205dea0000206900440000c7a8cc0000e3400003300000200c7803c000000c014ccc0000af
:0d5e0a0000b0012e9c4004200000000000ac
:205e170000000000000000000000000000000000000000000000000000000000000000016a
:205e3700a1f841000000629e896c0000510c00000000000000000000070dbf288000401c48
:205e570001fef540040201d7e295000045e07ea3342010090a02a580002a4671c8332200c0
:0d5e77000071c97bc1021000004000000056
:205e84000000000000000000000000000000000000000000000000000000000000000050ae
:205ea400036e840000000402096000002080000000000080000000000018d6fc4000a03c54
:205ec40026d0a00804007083aa98400003c2a40cc08008078af21a4000403440d0cc0000bd
:0d5ee40000f9057f44000001c3000000002c
:205ef100000000000000000000000000000000000000000000000000000000000000005839
:205f110010000000c002065e896c0000000000000000000000000000078076a8c000001cc4
:205f3100066af00100000011a330000001e6c000000001c801900000018e0071e8552000ad
:0d5f5100011815b70d000800000000000049
:205f5e00000000000000000000000000000000000000000000000000000000000000000023
:205f7e008000000040004202096000000000000000000000000000030f80ff18c0000a3ce7
:205f9e0020d00f0100007089f8cc000002624000000003a708503fc00140000030550000bb
:0d5fbe000000817744200004000000000076
:205fcb000000000000000000000000000000000000000000000000000000000000000000b6
:205feb000bb7dc000000001c896c000003800000000000000000000000001f94000000268b
:20600b0062683340000078a133300000d46074a3300048071cb20cc000044e76ddfd008036
:0d602b00850183e0cc000810c001e55000a5
:20603800000000000000000000000000000000000000000000000000000000000000000048
:20605800a327fc0000000000096040000d8f000000000000000000000000001408000004fd
:2060780002dacc0000000907a8cc20040002bdbcc0001000005ef30000000266cfff0001e5
:0d6098000500ff6b3000000820350aa00055
:2060a5000000000000000000000000000000000000000000000000000000000000000000db
:2060c5001dfbdc00a000101c896c0280000010168a000000000002a017183afc102a4e1431
:2060e5007e1a5500280539e3ef3000a001e01fc694228058010019848a003c381dc540286c
:0d6105008471ad68cc08a0020026b3300004
:2061120000000000000000000000000000000000000000000000000000000000000000006d
:206132009ffffc008003400009600200050b00168000000000000210000072b880082400f7
:206152007340aa00200009e128cc0080002003069002000f0830264208000c40c9ca0121df
:0d6172000000018330209000503decc08003
:20617f00000000000000000000000000000000000000000000000000000000000000000000
:20619f00072bdc0a400006d4896c0000031a102950000000000000400188373c00040d3492
:2061bf007d4a5500300271afb0cd08c0080725af510300200e00000000021c037e330030a6
:0d61df00001887a2a800d0cb66bde33020d9
:2061ec00000000000000000000000000000000000000000000000000000000000000005043
:20620c000903fc00c000020209600000009000294200000000000000001e3c14000ca0be6a
:20622c00341055003004080d433000c010c68c0a000100000000000000000029f9cc1010c2
:0d624c00000800c2a800c010402c0cc000cb
:20625900000000000000000000000000000000000000000000000000000000000000000124
:20627900883b5c0800c0665c896c00000780ba7d0000800000000000080e5bb8c080009c24
:2062990005d833120000f9800000000e00000dca52000027800615400000a6705af00004ad
:0d62b90000d80d34cc000010001ca33620ce
:2062c600000000000000000000000000000000000000000000000000000000000000009127
:2062e6000503ac000000020209600000000037f800204000000000000f10bc20c0000142ea
:206306003450cc01428018000000000001c03c0aa000005080702a8000413c34600f00009b
:0d63260000f001ab3000004000140cc0007e
:206333000000000000000000000000000000000000000000000000000000000000000058f2
:20635300000000000000001e896c0000001e73754000000000000040080dd6108080008016
:2063730001f8a500000070977154003002e03fcf5004007919000000000006005ef56101df
:0d6393000080e83a58080ee0001dcf0080a1
:2063a0000000000000000000000000000000000000000000000000000000000000000000dd
:2063c00000000000000000000960000000005f740000000000000000031efc3440000d04df
:2063e0000070aa00020001d08154000002600e0a000003d10f0000000000000160a0080075
:0d6400008010e701a4000400001700f00068
:20640d0000000000000000000000000000000000000000000000000000000000000000d897
:20642d000000000000000016896c0000011c5e3040c0000000000000000cfa9d080021408d
:20644d0005ec50020400381b7330880004401fca50000009003b3c0000460403d83308000d
:0d646d0028100178cd880405e7c1ccc020bf
:20647a000000000000000000000000000000000000000000000000000000000000000050b2
:20649a000000000000000000096000000799f03980000000000000000700fed4000008242b
:2064ba0031e0e2008000d881c0cc000001e3dc0551000087893003c0002804304bcc0000de
:0d64da0001089bc330000a0426010cc0001d
:2064e70000000000000000000000000000000000000000000000000000000000000000f89d
:206507001000000000026616896c000001007f5d00000000000000008809000000000c0473
:2065270003daf001000018ef64cc00000047a0ce2000084000bfb3108040840040660200c4
:0d6547000081afbbd4020003c785ccc000ab
:2065540000000000000000000000000000000000000000000000000000000000000000180f
:20657400a000000000004002096000000089dfd400000000000000000f1b00000000001c3a
:2065940039700f200000709d6730800062634ced1010306b00b40cc00020000000660040ec
:0d65b40000f1fb42800000a0c394b3300052
:2065c1000000000000000000000000000000000000000000000000000000000000000001b9
:2065e100b00000004002001689640000000ff630c0c0800000000000280d83344001e00063
:2066010024fcaa0002a18005a954000601c665ca500000201d1fa9440220a6377833020049
:0d66210038f1a00000000c000054bcc000c7
