:02000000ff00ff
:080002004c6174746963650030
:17000a00694345637562653220323031372e30382e32373934300069
:15002100506172743a2069434534304c50384b2d434d3831003f
:1b003600446174653a2053657020313220323031392031393a34353a3337006f
:0200510000ffae
:040053007eaa997e6a
:02005700510056
:0200590001059f
:03005b00920020f0
:03005e00620367d3
:0300610072011019
:0300640082000017
:02006700110086
:02006900010193
:20006b00000000000000000000000000000000000000000000000000000000000000000075
:20008b00000000000000000000000000000000000000000000000000000000000000000055
:2000ab00000000000000000000000000000000000000000000000000000000000000000035
:0d00cb000000000000000000000000000028
:2041fd0000000000000000000000000000000000040000000000001000000000000040004e
:20421d00000000000000000000000004000000000000000000000004000000000000100069
:20423d00000000000040000000000001000000000000000000000000000000000000000020
:0d425d000000000000000000000000000054
:20426a00000000000000000000000000000000000000000000000000000000000000000034
:20428a00000000000000000000000000000000000000000000000000000000000000000014
:2042aa000000000000000000000000000000000000000000000000000000000000000000f4
:205feb000d32958000000780000000000000000000000000000000000000000000000000bb
:20600b00000000000000000000000000000000000000000000000000000000000000000075
:0d602b000000000000000000000000000068
:20603800000000000000000000000000000000000000000000000000000000000000000048
:206058000701540000000400000000000000000000000000000000000000000000000000c8
:20607800000000000000000000000000000000000000000000000000000000000000000008
:0d60980000000000000000000000000000fb
:2060a5000000000000000000000000000000000000000000000000000000000000280000b3
:2060c500000000000000038000000000000000000000000000000000000000000000000038
:2060e50000000000000000000000000000000000000000000000000000000000000000009b
:0d610500000000000000000000000000008d
:2061120000000000000000000000000000000000000000000000000000000000002000004d
:20613200000000000000040000000000000000000000000000000000000000000000000049
:2061520000000000000000000000000000000000000000000000000000000000000000002d
:0d6172000000000000000000000000000020
:20617f00000000000000000000000000000000000000000000000000000000000000008080
:20619f000000000000000000000000000000000000000000000000000000000000000000e0
:2061bf000000000000000000000000000000000000000000000000000000000000000000c0
:0d61df0000000000000000000000000000b3
:2061ec0000000000000000000000000000000000000000000000000000000000000000f0a3
:20620c00000000000000000000000000000000000000000000000000000000000000000072
:20622c00000000000000000000000000000000000000000000000000000000000000000052
:0d624c000000000000000000000000000045
:206259000000000000000000000000000000000000000000000000404000000000000000a5
:20627900000000000000000000000000000000000000000000000000000000000000000005
:206299000000000000000000000000000000000000000000000000000000000000000000e5
:0d62b90000000000000000000000000000d8
:2062c6000000000000000000000000000000000000000000000000c0800000000000000078
:2062e600000000000000000000000000000000000000000000000000000000000000000098
:20630600000000000000000000000000000000000000000000000000000000000000000077
:0d632600000000000000000000000000006a
:2063330000000000000000000000000000000000000000000000000000000000000000301a
:2063530000000000000000058f52180000000000000000000000000000000000000000002c
:2063730000000000000000000000000000000000000000000000000000000000000000000a
:0d63930000000000000000000000000000fd
:2063a0000000000000000000000000000000000000000000000000000000000000000008d5
:2063c00000000000000000030f50000000000000000000000000000000000000000000005b
:2063e00000000000000000000000000000000000000000000000000000000000000000009d
:0d640000000000000000000000000000008f
:20640d000000000000000000000000000000000000000000000000a00000000000000500ca
:20642d000000000000000000000000000000000000000000000000100000000000000c0033
:20644d0000000000000000000000000000000000000000000000000000000000000000002f
:0d646d000000000000000000000000000022
:20647a000000000000000000000000000000000000000000000000400000000000000200c0
:20649a000000000000000000000000000000000000000000000000280000000000000000ba
:2064ba000000000000000000000000000000000000000000000000000000000000000000c2
:0d64da0000000000000000000000000000b5
:2064e700000000000000000000000000000000004000000000000000000000000000000055
:20650700000000000000000000000000000000000000000000000000000000000000000074
:20652700000000000000000000000000000000000000000000000000000000000000000054
:0d6547000000000000000000000000000047
:20655400000000000000000000000000000000000000000000000000000000000000000027
:20657400000000000000000000000000000000000000000000000000000000000000000007
:206594000000000000000000000000000000000000000000000000000000000000000000e7
:0d65b40000000000000000000000000000da
:2065c10000000000000000000000000000000000000000000000000000000000000000308a
:2065e10000000000000010000000000000000000000000000000000000000000000000008a
:20660100000000000000000000000000000000000000000000000000000000000000000079
:0d662100000000000000000000000000006c
:20662e00000000000000000000000000000000000000000000000000000000000000000844
:20664e0000000000000000000000000000000000000000000000000000000000000000002c
:20666e0000000000000000000000000000000000000000000000000000000000000000000c
:0d668e0000000000000000000000000000ff
:20669b000000000000000000000000000000000000000000000000000000000000000000df
:2066bb000000000000000000000000000000000000000000000000000000000000000000bf
:2066db0000000000000000000000000000000000000000000000000000000000000000009f
:0d66fb000000000000000000000000000092
:20670800000000000000000000000000000000000000000000000000000000000000000071
:20672800000000000000000000000000000000000000000000000000000000000000000051
:20674800000000000000000000000000000000000000000000000000000000000000000031
:0d6768000000000000000000000000000024
:20677500000000000000000000000000000000000000000000000000000000000000000004
:20679500000000000000000000000000000000000000000000000000000000000000a00044
:2067b5000000000000000000000000a0000000000000000000000000000000000000000024
:0d67d50000000000000000000000000000b7
:2067e200000000000000000000000000000000000000000000000000000000000000000097
:20680200000000000000000000000000000000000000000000000000000000000000400036
:206822000000000000000000000000800000000000000000000000000000000000000000d6
:0d6842000000000000000000000000000049
:20684f00000000000000000000000000000000000000000000000000000000000000000029
:20686f00000000000000000000000000000000000000000000000000000000000000000009
:20688f00000000000000000000000010000040000000000000000000000000000000000099
:0d68af0000000000000000000000000000dc
:2068bc000000000000000000000000000000000000000000000000000000000000000000bc
:2068dc0000000000000000000000000000000000000000000000000000000000000000009c
:2068fc000000000000000000000000000003800000000000000000000000000000000000f9
:0d691c00000000000000000000000000006e
:2069290000000000000000000000000000000000000000000000000000000000000000004e
:2069490000000000000000000000000000000000000000000000000000000000000000002e
:20696900000000000000000000000000000600000000000000000000000000000000000008
:0d6989000000000000000000000000000001
:206996000000000000000000000000000000000000000000000000000000000000000000e1
:2069b6000000000000000000000000000000000000000000000000000000000000000000c1
:2069d6000000000000000000000000000000000000000000000000000000000000000000a1
:0d69f6000000000000000000000000000094
:206a0300000000000000000000000000000000000000000000000000000000000000000073
:206a2300000000000000000000000000000000000000000000000000000000000000000053
:206a4300000000000000000000000000000000000000000000000000000000000000000033
:0d6a63000000000000000000000000000026
:206a7000000000000000000000000000000000000000000000000000000000000000000006
:206a90000000000000000000000000000000000000000000000000000000000000000000e6
:206ab0000000000000000000000000000000000000000000000000000000000000000000c6
:0d6ad00000000000000000000000000000b9
:206add00000000000000000000000000000000000000000000000000000000000000000099
:206afd00000000000000000000000000000000000000000000000000000000000000000079
:206b1d00000000000000000000000000024000000000000000000000000000000000000016
:0d6b3d00000000000000000000000000004b
:206b4a0000000000000000000000000000000000000000000000000000000000000000002b
:206b6a0000000000000000000000000000000000000000000000000000000000000000000b
:206b8a0000000000003800000000000002e0000000000000000000000000000000000000d1
:0d6baa0000000000000000000000000000de
:206bb7000000000000000000000000000000000000000000000000000000000000000000be
:206bd70000000000000000000000000000000000000000000000000000000000000000009e
:206bf70000000000000000000000000020000000000000000000000000000000000000005e
:0d6c17000000000000000000000000000070
:206c2400000000000000000000000000000000000000000000000000000000000000000050
:206c4400000000000000000000000000000000000000000000000000000000000000000030
:206c6400000000000000000000000000001000000000000000000000000000000000000000
:0d6c84000000000000000000000000000003
:206c91000000000000000000000000000000000000000000000000000000000000000000e3
:206cb1000000000000000000000000000000000000000000000000000000000000000000c3
:206cd100000000000000000000000000000017da760000000000000000000000000000003c
:0d6cf1000000000000000000000000000096
:206cfe00000000000000000000000000000000000000000000000000000000000000000076
:206d1e00000000000000000000000000000000000000000000000000000000000000000055
:206d3e00000000000000000000000000000036ca1004000000000000000000000000000021
:0d6d5e000000000000000000000000000028
:206d6b00000000000000000000000000000000000000000000000000000000000000008088
:206d8b0003ba01400002101f847000000000000000000000000000000000f7a818300000de
:206dab00014ea0500000818722940000000035da04000000000000000000000000000000b8
:0d6dcb0000000000000000000000000000bb
:206dd8000600000000000000000000000000000000000e0000000000000000000000001077
:206df8000d234220000343e5f8100000000800000000000000000000000013242000003423
:206e180003d89089000050014280000000000db90880000000000000000000000000000005
:0d6e3800000000000000000000000000004d
:206e4500000000000000000000000400000000028000000000000a0800000000002800006d
:206e65000000000010040380000002800000d71150000a000000028000000000000a0080a6
:206e85000000000028000000000000a0000000000000000000000000000000000000000025
:0d6ea50000000000000000000000000000e0
:206eb2000000000000000000000088000000000200000000000008002c000000002030f0c2
:206ed20000000000101800000000020000005b1280000000000002000d0000000008004032
:206ef200000000002000900000000080000000000000000000000000000000000000000050
:0d6f12000000000000000000000000000072
:206f1f000000000000000000000000000000000100000c0000000c021c036d850000000125
:206f3f00e000000000000037de500100001a000000000000000000000000000000000020b2
:206f5f00000000000000000000000000020000000000000000000000000000000000000010
:0d6f7f000000000000000000000000000005
:206f8c000000000000000000000000000000000100001b0000000c00022deaea00000000ba
:206fac00000000000003400cb40001000010000000000000000000000000000000000004ad
:206fcc00000000000000000000000000004000000000000000000000000000000000000065
:0d6fec000000000000000000000000000098
:206ff9000000000000000000000000000000000000000000000000001e000000000000005a
:20701900000000001000c2248d500000080000000000000000000002000000000000001466
:207039000000000000000003e68180000167000000000000000000000000000000000000e5
:0d705900000000000000000000000000002a
:2070660000000000000000000000000000000000000d000000000000362c0000000000009b
:20708600000000001002443ddd000000050000000000000000000000000000000000000273
:2070a600000000000000b009b98220000004000000000000000000000000000000000000b2
:0d70c60000000000000000000000000000bd
:2070d3000000000000000000000000000000000010200000000000020e000000000000005d
:2070f30000000000000167ceec1020000780000000000000000000000000000000000000a4
:2071130000000000000080017a8000000000000000000000000000000000000000000000e1
:0d713300000000000000000000000000004f
:207140000000000000000000000000000000000000000000000000800000000000000000af
:2071600000000000000007470e6000000080000000000000000000200500000000000000ae
:207180000000000000005000c280000000000000000000000000000000000000000000005d
:0d71a00000000000000000000000000000e2
:2071ad0000000000000000000000140000000000000800000000000000006b45480000109e
:2071cd00000000000002e38000000000080000000000000000000000000000000000000035
:2071ed00000000000000800832800000020300000000000000000000000000000000000043
:0d720d000000000000000000000000000074
:20721a0000000000000000000000080000000000000700000000000000034a4a00000000ae
:20723a00000000000000c40000000000070000000000000000000000000000000000000069
:20725a0000000000000010ff0140000003c4000000000000000000000000000000000000fd
:0d727a000000000000000000000000000007
:20728700000000000000000000000000000000000000000000000000007000000000000077
:2072a700000000000000e34ceb100000000000000000000000000010080000000000000085
:2072c7002800000000008005fa808000000000000000000000000000000000000000000000
:0d72e700000000000000000000000000009a
:2072f4000000000000000000000000000000000000000000000000000040000000000070ca
:20731400000000000002762ce71000000000000000000000000000000100000000000000bd
:20733400640000000000f00042800000000000000000000000000000000000000000000023
:0d735400000000000000000000000000002c
:2073610000000000000000000000000000000000000000d7115400000400000000100000bc
:207381000000000000000016ec502000000000000000000000000300230000000004000050
:2073a10000000000300090087a8000400000000000000000000000000000000000000000ca
:0d73c10000000000000000000000000000bf
:2073ce00000000000000000000000000000000000000005ad28000000000000000100000e3
:2073ee0000000000000343d40c90004000000000000000000000030047800000000c0000b3
:20740e0000000000100030df014020c000000000000000000000000000000000000000001e
:0d742e000000000000000000000000000051
:02743b0000004f
:02743d0011013b
:02743f00010149
:20744100000000000000000000000000000000000000000000000000000000000002000029
:2074610000000000000000000000000000000000000000000000000000000000000000000b
:207481000000000000000000000000000000000000000000000000000000000000000000eb
:0d74a10000000000000000000000000000de
:2074ae000000000000000000000000000000000000000000000000000000000000000000be
:2074ce0000000000000000000000000000000000000000000000000000000000000000009e
:2074ee0000000000000000000000000000000000000000000000000000000000000000007e
:0d750e000000000000000000000000000070
:20751b000000000000000000000000000000000000000000000000000080000000010000cf
:20753b00000000000000000000000000000000000000000000000000000000000000000030
:20755b00000000000000000000000000000000000000000000000000000000000000000010
:0d757b000000000000000000000000000003
:207588000000000000000000000000000000000000000000000000000500000000000000de
:2075a8000000000000000000000000000000000000000000000000000000000000000000c3
:2075c8000000000000000000000000000000000000000000000000000000000000000000a3
:0d75e8000000000000000000000000000096
:2075f500000000000000000000000000000000000000000000000000000000000002000074
:20761500000000000000000000000000000000000000000000000000000000000000000055
:20763500000000000000000000000000000000000000000000000000000000000000000035
:0d7655000000000000000000000000000028
:20766200000000000000000000000000000000000000000000000000000000000000000008
:20768200000c000000000000000000000000000000000000000000000000000000000000dc
:2076a2000000000000000000000000000000000000000000000000000000000000000000c8
:0d76c20000000000000000000000000000bb
:2076cf00000000000000000000040000002400000000000000000000000000000000000073
:2076ef0000000000000000000000000000000000000000000000000000000000000000007b
:20770f0000000000000000000000000000000000000000000000000000000000000000005a
:0d772f00000000000000000000000000004d
:20773c0000000000000000000000000000200000000000000000000000000000000000000d
:20775c0000000000000000000000000000000000000000000000000000000000000000000d
:20777c000000000000000000000000000000000000000000000000000000000000000000ed
:0d779c0000000000000000000000000000e0
:2077a9000000000000000000000000001000000000000000000000000000000000000000b0
:2077c900000000000000002000000000000000000000000000000000000000000000000080
:2077e900000000000000000000000000000000000000000000000000000000000000000080
:0d7809000000000000000000000000000072
:20781600000000000000000000000000000000000000000000000000000000000000000052
:20783600000000000000000000000000000000000000000000000000000000000000000032
:20785600000000000000000000000000000000000000000000018000000000000000000091
:0d7876000000000000000000000000000005
:2078830000000000000000000000000000000000000000000000000000000d0000000000d8
:2078a3000000000000000000000000000000000000000000000000000000000000000000c5
:2078c3000000000000000000000000000000000000000000000000000000000000000000a5
:0d78e3000000000000000000000000000098
:2078f000000000000000000000000000000000000000000000000040000003000000000035
:2079100000000000080000000000000000000000000000000000000000000000000000004f
:20793000000000000000000000000000000000000000000000000000000000000000000037
:0d795000000000000000000000000000002a
:20795d00000000000000000000000000000000000000000000000000038000000000000e79
:20797d00000000000000000000000000000001800000000000000000000000000000000069
:20799d000000000000000000000000000000000000000000000000000000000000000000ca
:0d79bd0000000000000000000000000000bd
:2079ca0000000000000000000000000000000000000000000000004000000000000000025b
:2079ea00000000000400000000000000000000000000000000000000000000000000000079
:207a0a0000000000000000000000000000000000000000000000000000000000000000005c
:0d7a2a00000000000000000000000000004f
:207a370000000000000000000000000000000000000000000000000000000000000000002f
:207a570004000000000000000000000000000000000000000000000000000000000000000b
:207a77000000000000000000000000000000000000000000000000000000000000000000ef
:0d7a970000000000000000000000000000e2
:207aa400000000000000000000000000000000000000000000000080000000000000000042
:207ac40000000000080000000000000000000000000000000000000000000000000000009a
:207ae400000000000000000000000000000000000000000000000000000000000000000082
:0d7b04000000000000000000000000000074
:207b1100000010000000000000000000000000010000000000000c000400209601000091eb
:207b3100af7580200001e0060f500900000000000000000000000000000000000000000021
:207b5100000000000000080941400000000000000000000009043d400000002000000000d8
:0d7b710000900b64c0000000000000000048
:207b7e00000010000000000000000000000000010000000000000408260168965100000153
:207b9e00973701400002c016ca0411000000000000000600000000000000000000000000fb
:207bbe000000000000003807ebd5000000000000000000000113bd40000000040000000093
:0d7bde000000036dc902000003000000005c
:207beb000000000030004282000000000000000000000000000000a00400009620000058d4
:207c0b00c38090040003c0010050000000000000000000000000000001000000000000006d
:207c2b0000000000000000800000000010028000000000091fd7928000000020fdb10080c8
:0d7c4b00000100000000000000000000002b
:207c58000000000000072a814200000000000000000000000000004026016896c00000985b
:207c78001db029080003e00ec05000000000000000000000000000800980000000000000e4
:207c98000000000000001810000000000806c0000000000b985aa9400000006cdf30400035
:0d7cb800000080000000000000000000003f
:207cc50000000000000700020000000000000000000000000000008000000096010000b0cf
:207ce50080c280000003e7cd0b50000000000000000000000000004000000000000000006b
:207d050000000000000008f00000000000028209600028050037c6402000002400000000cb
:0d7d25000008000000000000000000000049
:207d32000000000000010295020000000000000000000000000000400001e896d10000d92e
:207d520097ea80000002c344c5a0200800000000000000000000004000000000000000003a
:207d720000000000000038000000000080005c896400100980be89500000000000000000c0
:0d7d9200003800000000002000000000008c
:207d9f00000000000000000000000003800000000000000000000000003c0096000000303f
:207dbf009ff0b0020001c22407a000000300000000000000000000000000000000000000d2
:207ddf0000000000000000000344201000000209600000000000000001001c03ea5b00003d
:0d7dff0000f00172280000080000000000e4
:207e0c000000000000000000000000004000000000000000000000000001e896c00000d9fe
:207e2c00bdfcf0000001e661cb502080080000000000000000000000000000000000000082
:207e4c000000000000300083eb450800004016896c00000000000000000000796b010000fb
:0d7e6c0000008962150000140000000000f5
:207e79000000000000000000000000068000000000000000000000001e002096000001018d
:207e990080028000020002df0ff000000000000000002000000000000000000000000000c5
:207eb900000000000000100b42a80002000242096000000510d2b800000002240000000030
:0d7ed90000900742ac000000000000000017
:207ee6000000000000000000000000024000000000000800000000003c614896e0000200d5
:207f060091aa8000000006668fd02000000000000000000000000000000000000000400075
:207f260000000000000081857294000000004e896c0000058876fc000000060000000000e7
:0d7f460000018d3a840804000000000000d6
:207f53000000300001900000004003c400000000000000000000040000202096000000006c
:207f73000f4140000000000dd000040001000000000000000000000000000000000000007c
:207f9300000000000000080b43d4004002400209600000000d97928000001c001d72010055
:0d7fb3000000010154000000040000000067
:207fc0000000100001e0000000c00203800000000000000000000c0000654896e0000058e4
:207fe0000fb3e8000000003c980004000f00000000000000000000000000000000000000f0
:20800000000000000000100bb941004002001c896c0000001b5aa940000000006f72400079
:0d80200000500bea94000000070000000073
:20802d0000002000f000000000c0000000000002000b8000000008000000009600240050c4
:20804d000d214c01800402ec0fa002000300000000000000000002005000002588008000f3
:20806d00000000002000000901400080000000c9600a0000000000000800000060a50020a9
:0d808d000111000000000000002705001098
:20809a00000028000000000000a00000000000028003800000000a000001c896c028008028
:2080ba000bb00d44a000005deff0028008000000000000000000028000007225900000008b
:2080da000000000028000007bbd500a0000000896c028000000000000a001e02e00011682d
:0d80fa00008180000000000002b5ea508cfb
:2081070000000000900000000000000035b8b000000000d01420000000000096020000008f
:20812700033684000003c32f8f70000000103ab820200000000000000000002581418000de
:20814700000000000030100143e802000403c009604000250a96bfc00040000000000000b6
:0d816700000000000000000000000000000b
:2081740000000000000000000000000015b8150800000086281030000001c896e0000018bc
:208194000f7440800001668fae700002501c12a8104000000000000000007225b000400075
:2081b4000000000000008183a2810002080054896c0010180177fdc0008000000000000054
:0d81d400001000000000000000000000008e
:2081e100000030000800000000c000220000000300000000000000000001702408100000b4
:2082010000000000c00000000000010000000000000080000000000001000825880c00005a
:208221000000f5000000008bfd780000000002096000000d10d212800400002010f308022b
:0d8241008000d00000000402401c0a5280a2
:20824e00000030007800000000c000400000000100000000000000000002ec5043100000d6
:20826e00e00000004a0000000000030000000000000000000000000008187a25b044000010
:20828e0001ccf52000000009ec110000000006896c0000000e1ae9400c02060408f3020186
:0d82ae000000000000000002000ec051049e
:2082bb000000000000000000000000000000000000030000000000008021fccf0000000034
:2082db000000000000001200000000000f0d00000000010000000000010008258800003c62
:2082fb0028000000000000000000000c000000996000000d8852380000002c0000a001004a
:0d831b00001901a39c800001c002005080e9
:20832800000000000000000000000000000000000008000000000001c60459ce000000003b
:2083480000000000000400000000000008010000000000000000000009805a25b02000141c
:2083680078000000000000800000000e000380896c000005011ffc00000020004aa000004c
:0d8388000011e58509000002000de0540021
:208395000000000001000000000010024000000000000000000000001c6a60ff0000000090
:2083b5000000000000000000000000000700000000000000000000000000002580000004f8
:2083d5000000000000000005429c0000000000996000000d8a50128000002e255cff000283
:0d83f500009807356c000402c00000000075
:208402000000000001a00000000000000000000000000000000000400022f8fa2000000045
:2084220000000000000800000000000000000000000000000000000000005a25b240001ea3
:20844200280000000000018db8058800016680896c0000038192a94080003c0779f7000110
:0d8462000038033804000002000000000094
:20846f000000000000000000000000000000000000000000000000004028000f0000050071
:20848f00900000000000000000000010000000000000000000000000000000258000002c5c
:2084af000000000001001809216c001a000000096000400010f7bfc24001400260a500012a
:0d84cf000071032cc0000002c0000000007e
:2084dc0000000000000000000000000000000000000000000000000094000c0f008002004f
:2084fc0010000000000000000000002800000000000000000000000000007a25b0000020b9
:20851c0000000000000058032c04000400000e896c0040000ad3bdc00020806158f50000c5
:0d853c0080008d6ac50000000300000000f3
:208549000000000000000000000002400000000000000900000000003c02d0410000000078
:2085690000c2820410002000000000000000000000000000000000000008082580000002c3
:20858900000000000000f10000000000014000a960000005003c3fc2000014007b5b00016a
:0d85a9000010a00000000014000000000001
:2085b60000000000000000000000000000000000000781000000000000024ac043000000ce
:2085d600037a81241015e000000000000000000000000a000000000001815225b000001c8f
:2085f60000000000000019e000000000000000996c00000d9a973d400000542b48020002e1
:0d86160010800000000000000000000000c7
:208623000000000000000000000000000000000000000000000000010002f0fa000000004a
:20864300000000000000000000000000000000000000000000000000000808258000004022
:2086630000f0a00000001000000000c0000242096000100d0a5c3fc0000b1432e000010135
:0d86830000f10000000000000000005000a9
:2086900000000000000000000000000000000000000000000000000080625cf40200000096
:2086b00000000000000000000000000000000000000000000000000000195225b0000080ea
:2086d00000eef52000000000000000c01002ce896c00280501d63dc08000802f58a00000ca
:0d86f0000080e000000000000007e0548062
:2086fd000000200000000000008000000000000200000000000008003c0010a0002030f087
:20871d00000000008800000000000200000000000000000000000200000000258008000003
:20873d000020f508210030f000000080024282096000000110b6bfc008000429d00028613b
:0d875d0000700f8144008800000000000043
:20876a00000028000000000000a00000000000028000000000000a0000604aa000280080a9
:20878a0000000000a00000000000028000000000000000000000028000007225b00a0000da
:2087aa0001dcf5002a800000000000a0020014896e00000f8a3efdc00a002e01fa02426a11
:0d87ca0000800f33c408a400e00000000090
:2087d700000000000100c282800000402e8c1800400000082828108004007000000100000e
:2087f70000000000001020010a08800000000428200022800000000000000025810000000b
:2088170000cffb10040000d342800400c00682896000002f095238000000002b78850000af
:0d8837000050070140000400000000000098
:208844000000000001e17281800002003fa814804000005ba81400002020eef0404200004b
:208864000000000000004004ea049010000073a8145001400000000000007225b00000001b
:2088840003dce7500004001071400000000614196c000018011bfc0000001400df470000f0
:0d88a4000000007280000a000000000000cb
:2088b100000030000800000000c008000000000100000000000000401d41498b00302800dc
:2088d10000000000c40407c0000000100f08703f40000000000000000100082580000074c0
:2088f10034e000000000900043e800000147c000000020100a0c2804400002000096000442
:0d8911000000c043c00000034380000000d0
:20891e00000030007800000000400400000000010000000000000080003869d100300038f2
:20893e000000000052480240000000180309bbbfc88000000000000008187a25b000003cac
:20895e0001ca50204000f00173e800008007c000000001a5811a280040000601e8960001bc
:0d897e0000000063c10000c0c04000000008
:20898b0000000000300000000000000000000000000f0000000000003c38c85600000000fb
:2089ab00000000000000000000000000009cfb7fcc0000000000000281000825800020007a
:2089cb0001704701000001cbac68000094001efa5000000d8db8068a10401c0000962000f3
:0d89eb0000010f7024000a18042c081080f1
:2089f8000000008000000000000000000000000000000000000000002005e99580000000bc
:208a1800000000000004000000000000079f7739400000000000000009805a25b000001cd0
:208a380070d8814a4000018b30990000096007fa1000038108deafd2e080007968968000ba
:0d8a58000001c17014000004030f847020a1
:208a65000000000000000000000010000000000003a00000000000000002c9120800000059
:208a85000000000000e0000000000000510073ff4000000000000000000000258000003c0d
:208aa50000c05000000000804280000401400d0500000005893bfdc00006000020960000c6
:0d8ac500000000009004000020040e3000ae
:208ad2000000000000000000000000000000000000101a0000000000003a68b78000000081
:208af2000000000000080000000000000700f77d480000000000000000005a25b0000080ea
:208b1200000ea000000000113a800000000004af5080000d1b5e3fc000040001689680023d
:0d8b32008001e100910800006025e910209d
:208b3f000002000008000000000000000000000000000000000000000c23c85600010000be
:208b5f00000000000000000000000000000f3ba30000000000000011c00000258000000291
:208b7f00380000000000b101a628840000201efa500000000a12e1400000002020960800f7
:0d8b9f00001009f14020000ac23505100049
:208bac00000000003800000000000000000000000000000000000042202bc995a000800066
:208bcc000000000000000000000000000001ff83080000000000002010007a25b000001c63
:208bec00740000000000f88daa15000200c005fa100008019bf3694000001600489680002c
:0d8c0c00008003f9600000166027ef1020c3
:208c1900000000000000000000000020000000001000000000000000003b4b120000000073
:208c3900000000000004000000000000010000000000000000000000000808258000000061
:208c590000000000000090f00280000003c2d48c30000005183b304000000c00209600001a
:0d8c7900020000000000002000010a0000c1
:208c86000001000000000000000001c0000000002800000000000000000469b7a000080018
:208ca600000000000000e0000000000000000000000000000000000001815225b000000025
:208cc60000000000000098113280000022000ee8300001000f5e70c000002028c89688001f
:0d8ce6000401800000000000038caa0000c3
:208cf3000000000000000000000003c00000000000000000000000001426e8560000000026
:208d13000000000000000000000003000300f014000000000000000000080825800400027b
:208d33000020a010000090010140000001c01efa5000082000f400400000800000960100e2
:0d8d53000000000000000000000000000013
:208d60000000000000000000000000000000000080000000000000022004c995800010005f
:208d8000000000000014000000000100000882a8080020000000000000195225b00c001efa
:208da00001eca000000058e07a800000006397fa100012800006008080014001c896800038
:0d8dc000000000000000000007800000001f
:208dcd00800020000000000000800800000000020007000000000000364048120023020060
:208ded00000000008004000000000210000e000000000000000002400000002580080000d3
:208e0d0041c05500220010d583980280c24414f40202038d18b83ec040000000009600a164
:0d8e2d000800b0c014008080240d91b0003a
:208e3a000000a8000000000000a005e00000000280000000000000001c6069b7802a010121
:208e5a00c0000000a00800000000028a00000000000000000000028000007225b00a000031
:208e7a003afea50028008019fb0408a08002b5900406a8000933b9c080000000489680285f
:0d8e9a00000005e01400a000e280f274006a
:208ea700000000000000028204000000000a080400000008282600002c4068560500020086
:208ec700004282040000103d0508080000007266044000000000000000000025810000009f
:208ee70000000000028090c56b40001001640000000000800e7f3fc000000c400f96000077
:0d8f07001090a9f04844000840340a000012
:208f14000000000000033a8101000000158a06000000003ba81200002e71c995800005580a
:208f3400016281a000000021ea0500000000d6e9100000000000000000007225b000000073
:208f5400000000000100801dbb540000014280000000080001ff7dc000002070c096a000c2
:0d8f740000d003f909000006001ecf5000d8
:208f8100000030000000000000c000000000000100000a00000000040c3b4d1201300010ea
:208fa10007414000c003c00000000301808e0000000000000000002001000825800c0002b7
:208fc10000000000000059000000000000128000000000008e00000000000076f8da0000cf
:0d8fe100000080c14000000b601d0a000070
:208fee00000010000000000000c000e00000000100000100000000000070e8b7801005000d
:20900e00086a8000400000000000030007800000000000000000000008187a25b00d001eec
:20902e00000000000000f1c00000000001e20000000000030a00000002000027fd8040009b
:0d904e0000000339400400054020e5040443
:20905b00000000000000000000000000000000000020000000000080423dcc560000005064
:20907b00810140000000000000000001d00000000000008000000000010008258000000014
:20909b00000000000000500b7a28000a004255bc2000000b005370800000143ec048000192
:0d90bb0000000f7420060001c400005000ea
:2090c8000000000000000000000000000000000000000000000000008e014995800000009b
:2090e800e07a8000000000000000000020000000000000400000000009805a25b000000076
:20910800000000000000818dee15400401400cae500000080a93f0c040001e041c8402420c
:0d9128008000e570000600020705e054001d
:209135000000000000000000000000000000000000000000000000000e424812000004006c
:20915500074000040000000000000023001000000000004000000000000000258000008017
:20917500000000000405008702800000000606f5b00000000d3e66000000023f5fcc0800f2
:0d9195000008cfc28c000000200000000088
:2091a2000000000000000000000000000000000000000000000000001e22e8b7810000004d
:2091c200096014000000000000000012800c0000000000000000000020005a25b0000040e3
:2091e20000000000001830156bd4000000e3aec01010000181d7e910000e0e664833000011
:0d920200007089e80c081001400000000019
:20920f0000000000000000000000000000000000000000000000000000756c5600000010f8
:20922f0000828000000000000000000000100003c0000000000000000000002580000000a5
:20924f00024000808004000b0154000000403e0a0090000000dbb6c00041f470000000004b
:0d926f0018008b4154000003c000000000f7
:20927c000000000000c00000000000000000000000000000000000000072e995a000000082
:20929c00e37a80000000000000000000078c0303c02000000000000000007a25b000000eff
:2092bc000360a550003a000d3a94000002602fad162003859cd3794000a0c07c0000000025
:0d92dc0005001bfa940000020000000000d5
:2092e90000000000000000000000004000000000030300000000004074024f120000000107
:2093090007c1402000002000000000020f00502944000000000000000008082580000a145b
:209329000030a080800039cdc084840000443f0e200028559054168000000035d0e20000f7
:0d9349000001008014000000040205500027
:209356000000000078000000000000000000000000080000000000803e00e8b7a000081161
:20937600c9b80000000040000000000000008016800000000000000001815225b000001443
:20939600006aa050402098a7b9c508000203b5a422a0102b8e13abc0000100201ad10200c3
:0d93b6000801c160150000000714c5520039
:2093c30000000000f000000000000000000000000000000000000000163fcc562000000003
:2093e3000002800000000200000000280f000c2800000000000000000008082580040000c2
:209403000000000000047991c0000000000654042000004b8a5a544200010241da0000001a
:0d94230004d005f440240000000600f00015
:209430000000000080000000000010000000000000000000000000002607699580000010d1
:20945000077a8000000000000000001000003b28002000000000000000195225b004000024
:2094700028000000000270b12a80000000464008102003a39a36a9c000009e284c800008b0
:0d949000285003a1490020000786ef00804e
:20949d0000002000000000000080000000000002000b0000000004800043ce5600200000f7
:2094bd00977808008000000000000220070000000000000000000200000000258008000020
:2094dd003820a08120001007c398048000000cf3c00208000bf6b2c008000203e9cf0022bd
:0d94fd0080d0f082800080000000000000a0
:20950a00000028000000000000a0000000000002a8080000000000000063499580280030ae
:20952a0018600401a00000000000028000000000000000000000028000007225b00a0000af
:20954a00047aa0486800800dab0408a001603ef2c00290000e93b6c80a0014034ccb0029ec
:0d956a001800032a8000a00003000000008c
:20957700000000000000428224001420000a098000000008282200008042cc5605000010da
:2095970003ab0602000000010a08002801001a3060000000000000000000002580800000f3
:2095b70022400081000291b92340000000000df98194100d89da460000000e78000000009b
:0d95d7000000900000000000401cb5604046
:2095e4000000000000053281000009e005aa04000000007ea81000015e78e9958000000008
:20960400076205200000001eaa0584002800faa0520000000000000000007225b00000000c
:2096240002c0a540c0010187f754000000061c9a4400000500d34400000006300000000099
:0d9644003001b00000000001402e995000e0
:2096510000001100300000000040000000000001002010b4140000008268cd560810000852
:20967100a54140004003c23401020300000000000000000000000100030d3400000000022d
:209691003b600f010000f0000000000008022598308000001ff82bc80000004350ca000040
:0d96b100a870a73204000008003ee560002c
:2096be008000328800000000004000000000000110100887a80000005c784995801000393f
:2096de00d822800040620060e20021003000000000000e0000000300080012814040000c85
:2096fe0063e8f040000001e00000000004065492341000000f7a800000000038cac00201ee
:0d971e000080a00509010000071689581001
:20972b0080000000000000000000000000000000000000f40000400000676a12100000086f
:20974b00097808010200240c95b000100000000000000000000000000f90002800008000a6
:20976b00002d960000001093803c200000063f8e0000118d9f7c324000000e4140c000004f
:0d978b00b0b99fe6c4400062c654d562002c
:2097980000000028000000000000004000000000100000d6014000000078e8b7800030500b
:2097b800007c04000400e2379bf104200000000000000000000000028b8e7b280200000084
:2097d80001e996c1000800f17bc0040000022ecd500008070e3e314080062e206ec50201d5
:0d97f8000091f76cc1000003c2a689580063
:209805000e00000070000000000000000000000000001094280000001403cd5600010000be
:20982500efc280000000403e0a00000200000000000080000000000003883780840080049e
:209845006028960000000803b80c01100022bc872010038f105e5c4000000220e05500007d
:0d9865000000e702800000000026e5600022
:209872004900000080000000000000000000000000001a97800000000030c995a0000000ae
:209892001ba000010000023ce0001000000000000000400000000000070002c04000002063
:2098b200756996c000001809e28d840801c241ab141000081cd3ec4000000e605aa50000e3
:0d98d2003858102941000000003e89580060
:2098df000000028000000000000008000000000000000900000000003e036912000000001a
:2098ff00098140000001c01e050010000080000000000000000000280f800028000000002c
:20991f00000c96000000d1000000000200040492a000000b0b381540000c0e035fd1000089
:0d993f000000076400001480071cd56000c4
:20994c000000000000000000000000000000000000018000000000008c02e8b781000618ae
:20996c0007e800020002601fe0000000078000000000000000000000090073280800000650
:20998c00004996c000000180000000044002b5b25400000518fba940000e3e005d50200080
:0d99ac000801a7a200000201c2cc895810da
:2099b90000000000000000000000000000000000000000341400000000006d56100002d0a1
:2099d90003414000001063bc0a0000228000000000000000000000000080381400204000e3
:2099f900780996000000000f800c800803c001031000039f00b616c6100140400000000078
:0d9a190000108dc01420000006f6e560006e
:209a26000068000000000000000000000000000000078007a80010001e6be9958000058066
:209a4600002280800009e036e00200500780000000000080000000000700530000008000ac
:209a66007de896c001020001e28dc800026014a3142402080013409820009c3800000000b0
:0d9a860002999572bd0000056284895800a8
:209a93000038000000000000000a0003c0000000000500f81400000002026a1220000000fd
:209ab300098140000000001e05000000000000000000000000000023010054140200003cdc
:209ad300402996013000000f81400000a3e3fea000000010001b08000d000226eeca080225
:0d9af300000890801400000022bed5600025
:209b000000000000000000000014000000000000400f009b000800000432e9b780001000d9
:209b200007b000800000001ec0020000000000000000000000000010080c87a800000000bb
:209b400078e896c0311800097814000000465585800000258a932d400c001e3e5ccf480146
:0d9b60000071833815000801c04c895800c1
:209b6d0000002005000000000080024000000002000f100828201140023bcd56002002f0bd
:209b8d00004282008003c3ec050812000010000000000000000002000000f03fc00880001a
:209bad00002c96002002909b800c01800463030d1002000b800000000800000020550020cb
:0d9bcd000501b943fc40000002f6e5600010
:209bda00000028020000000000a060000000000280080c32a81001a01c07e995a028008037
:209bfa00077a8100a002c020ca040690001c000000000000000002800000dbabc01a00065f
:209c1a00014896d028018001e28d88a00b6655cd102280091a0000000a001c016a550828bc
:0d9c3a001200edfbdc4a00c166a68958004f
:209c47001000000500000282040000001d050a000005001abfc040001c38ef121402840067
:209c67009b3bfc0004000014fff000000000042820000400000000000500b3f8200080065e
:209c870020089605000000033e08000003c23d8f1000280d10000000000042200000000168
:0d9ca70000018d80000000002294d5602097
:209cb4000000000278017a810000000000aa04000000003b7dc000000006e8b780010200cc
:209cd4000db7dc0108c0003ecf700400800036281a000000000000000000baa81200483c96
:209cf400654896c0010000e07d04000003466ffa200010000a0000000000846c000000020d
:0d9d14008000bfea80000041c0448958086b
:209d210000001000000000000040000000000003300000000000004e1c01c812003000909a
:209d4100a77c40004011c00000000300200d541404000c0000000100000f00000000000ec8
:209d6100002d960000005000000000000002160ff200080f1e0c15400c000071c050000093
:0d9d81000501e36214000021c6400000004f
:209d8e00000030001000000000c000000000000138000000000000802002c9b78010003892
:209dae00086c80804a000000000001005001b7000000000000000140000000000000012c60
:209dce00006996e0000080e00000000000004c0a50001007193215440c2e0c240ca00000bf
:0d9dee000201dd7914800083e20000000016
:209dfb000000000000000000000000000000000000100000000000001430cc5600000008ca
:209e1b00f7814001000bc0000000000020000828040002000000000300000000000000004a
:209e3b00002d9600000091f00280000096c287bb108000291000000000a01c4000a0000042
:0d9e5b0000080bf064200082e00cacc00495
:209e68000600000000000000000000000000000000200000000000002007c8958000307808
:209e880007f80000001660000000000010007ea8000000000000000280000000000040004d
:209ea800014996c0010400933a8000001a03ade3040000501c000000000020686ea00000f5
:0d9ec80000180b7895000002401d93340037
:209ed5000000000070000000000003c000000000180000000000000e16024812000038006a
:209ef500c73c40000003c0020a001000070f53c080008000000000000000000000000044be
:209f1500202c96000200500dbc0c80000140040a00100007190000000000266000a0a1005d
:0d9f350000098141a4800a0003800960102a
:209f42000000000000c00000000002000000000018001a00000000003e00c8b78000203876
:209f6200087c80010002000cea000c0000008340404040000000000100000000000000a6ac
:209f8200656996c00000800f728d0000000005af541000001d00000000000e7d5aa0410012
:0d9fa2000078f022580800e0039f8960203d
:209faf000000000000000000000000040000000000000000000000002c3e4c560100041865
:209fcf00030140000a03c3dc05000003071008280020010000000028400000000000014069
:209fef00000c96000010010f0108000041e387f1900c00030e17f00000002400e0550000de
:0da00f0000b8f7a330000003c01e9cc01075
:20a01c000000000200000000000000020000000000000000000000008406e895800102f89e
:20a03c00007a800004020001ea020000070836a800000c0000000001800000000000008617
:20a05c00016996c0010071e7eb898c000a62ecee3684038fc1b780c000000002eea50004e8
:0da07c002051b530cc0000a3e004d330002b
:20a08900000000000000000000000a400000000000008000000000001c3e4a120000000037
:20a0a900a73c40000001401e05010000218e53408000020000000000000000000000001c2f
:20a0c90040099600010050a3c28000000000000000000003897c29c000000200000000006f
:0da0e900000003f60000100024150a3000ee
:20a0f6000000000000000000000014000000000000050000000000000002c9b780000038f7
:20a11600d834800400000026c00000004780830048000400000000002000000000000000fd
:20a1360079e896c0020081f5f8140000006000000000004780d7805080011c600000000003
:0da1560030000d7f940000006205e0302015
:20a163000000000000000000000004000000000000000f000000000000386c5600000000cf
:20a183000d03fc000000001c91000000000000280400a000000000200000000000008d404a
:20a1a3007c0996003004010000000002a1c60d0720000280003f56c00ca1c203f0810002f3
:0da1c3000510c901540040d3c03405500000
:20a1d00000000000000000000010400000000000002000000000020000054895a00030004b
:20a1f0000b73dc0800800001f2020000000036a800004000000000108000000000000e803c
:20a210007de896c0100201c0000000040207c0ab1520032018bec04004011e225e4702030b
:0da230003ad0a9f2940040a8069eaa500062
:20a23d00000020000000000000800000000000020000000000000000002b4f120060000073
:20a25d000083d4008003c2c10a090a005000530080000000000002000f8000000008008229
:20a27d00382c961020000409829400800042ae0a001300090013a28008410403f0e6002063
:0da29d000000e00000008002422f0aa00037
:20a2aa00000028000000000000a000000000000280000000000000001e2ac8b780282800b3
:20a2ca0003b3d400a002000e8a04028003808300420000000000028107800000000a001eb0
:20a2ea00054896c0280001ef72a980a002005d8002068008007b21540a00a603dac1022887
:0da30a00005010000000a000c067ca500005
:20a31700000000000007414260000000020a08100000000c282a00017c02cc560a02840089
:20a3370000c28200001c021c05a0800081003a306000000000000000000004282440000484
:20a357002008960402000003fe80040403c024cd000400000a50280001000042e8d0000064
:0da377003890ab709820000847edb85000fa
:20a384000000000000087281000000000daa05000000003aa81000009428c8958001020074
:20a3a40005ba81000018001da50008400800de20501200400000000040001fa8180002204e
:20a3c400646896e0000001eb2345400202603cdd500003818196bd480000007bfdd50000e9
:0da3e40000900578950014166365f4500094
:20a3f100000010000000000000c200000000000100000000000005000041c0000000301033
:20a41100008258040e03e600000003005000082800000000000000000308b41400010002fd
:20a43100002d96200000708082800010000027c9809001801872b30000002438000000020a
:0da45100a0018b6228000020002d0aa00051
:20a45e00000030000000000000400000000000030000000000000d00007840a50000008081
:20a47e0005a259200c03e7800000012020087e2804000000000000200919f7bd5020c00c03
:20a49e00016996c0003018916a80041000002cea4600000119164cc0004100040000000129
:0da4be000001f93615400000002185500016
:20a4cb0000000000900000000000000000000000000f0000000000003c0020a000000010c6
:20a4eb00008258020013e2c0000000020000141400000000000000013388b41400000c8086
:20a50b00000d9610000501e7c280000004c0250a300020218c9f94020000024000000001e6
:0da52b000130f1c2800100000000000000be
:20a538000000000800000000000020000000000000800000000000000600eea0000000982f
:20a5580005a25b80000a430000000000000e82a800400000000000004f8037bd5020064023
:20a5780000e996c0000050857bd5400021e395c03020029b9ef7b4540000143800000002ee
:0da5980082901b7bd5000001c00000000078
:20a5a50000000000f0000000000000000000000000050000000000001c41db100000100049
:20a5c5000002580400e0601e0a121010008f501400000000000000000d1030280000000412
:20a5e50020089600001800f171908000000435055000080d0d33e600010034000000000010
:0da605000054d383d4000a0064000000005c
:20a6120000000000800000000000000000000000000800000000000120781f2001000000c7
:20a6320005a25b040000e007a420300b870886280040000000000000081a3ebd5020002ee4
:20a65200656996d00000000fba91820001c3a68a5000104181b729100000000000000000d2
:0da6720000819569410004036200000000b2
:20a67f00000000000000000000000000000000000000000000000000000240a000000500d4
:20a69f00000258040a6043dd0ff000001010141400000000000000004f8bf014020040004c
:20a6bf00002c96004000009b39c880000c23c00000002b8b8fb294c0000c003f600f200247
:0da6df00000197c03c00020063a59330000d
:20a6ec000000000200000000000000000000000000200a000000000000034e0000010200ce
:20a70c0007a25b0100e3c07eef702000201c872800400000000000000781b6bd500080068c
:20a72c00614996c0011839906ac5040051e000000000000d018328d050080079fef000007f
:0da74c000079c5f3c0200403e035ccc40043
:20a75900000000000000000000000020000000000000000000000020023dc0500000000051
:20a77900808258000010200c0ff000000b00082804000e00000000020100743d42000102e5
:20a79900400d9600028010cbf26000000003a70d1004000300f43e8000023c01600f0100df
:0da7b9000001f1c1540000016000055000d6
:20a7c6000000080000000000000001c000000000000000000000000014240ea000000019ab
:20a7e60095225bc10001401ccf702048074076280000000000000000098882be8000001e28
:20a8060021e896c10010f1d3ba918000000026a504200800003a941000002000cef0100070
:0da82600001883a294000003c016c5500066
:20a8330000000000f0000000000000400000000002100000000000001401e0ff00040104c6
:20a85300808258000002603dcff00000578e101404000080000000001100000000010c3c46
:20a8730078299601020201df803c8008034004e5b0004003807415402c001440000000007d
:0da8930030310bc03c044012c0340cc0102a
:20a8a0000000040000000000000002000000000000000000000000002000eaf5280428013e
:20a8c00095225b8100214005ff70000003808728000001400000002b201e00000000002014
:20a8e000744896c0000379bf7bc00000020607c01000030118d629400c00a0680000000082
:0da9000000008f7bc000c000060dc3362094
:20a90d0000002000000000000080000000000002030000000000080c003c10a080220804d7
:20a92d0000025804080043c00f5202000f00082804000000000002000000502a80080000f7
:20a94d00002c9610220000017260c0800143c000000200291e9f2ac208a14002ca30002006
:0da96d0002b0af42a8008001c2c00550003a
:20a97a00000028000000000000a00000000000028000000000000a0000057aa040281000d2
:20a99a0007225b01040200158f50028388003e28000000000000028000000795401a040728
:20a9ba00014896c0280478053a9182a003660000000280001efb69c00a6080005db14028bb
:0da9da0000b003fa9400a002038f85500026
:20a9e700000000000000028205000020000a088000000008282010401401e05000800500ab
:20aa0700000258110000202cfff0000181005a3060400000000000000000d708000000847a
:20aa270020089604000200aded40000001c781055080000d00f0154000002c0000000000d5
:0daa470010f0f92f300000e0020decc0000f
:20aa54000000000000072a814000016004aa050000000033a81000a120016e0000000200bf
:20aa740007225b000001e00ebf700000080032a050000000000000008000f3a9402000601a
:20aa9400354896d0000518e16e9080000a07dc855100000800732958000000000000000084
:0daab40028d81d3ccc000000003783350081
:20aac1000000100000000000000203c0000000000001000000000ca00200000000000010e1
:20aae100008258844a08100000000100000e9c2800000000000001004080d0140801000212
:20ab0100000d9620100090800280010000c6ec0aa0030040000000000000026800000000c5
:0dab2100000800000000000002c00000005d
:20ab2e00000030000000000000000000000000000208000000000c400400000000000881f4
:20ab4e0087a25b024404000000000102838c76814010000000000100070087a80000000c7d
:20ab6e00006996c010008003ea80002042c21daa500300278000000000001c2800000000e2
:0dab8e000070e0000000000000000000006a
:20ab9b000000000000e00000000000000d0c900000008bf0294000001c0000000000001001
:20abbb000082580400040000000000005f00000000000000000000200f0004280000a080be
:20abdb00000d96000000708b417c02000802000000000000000000000000003bddcc00000f
:0dabfb0000010940cc000000030000000034
:20ac0800000004000010000000000003afcc502800071d0016804000000000000000389858
:20ac280005a25b050008000000000000201e00000000008000000010001e76a808000640a5
:20ac4800016996c0400000087abc000045c2000000000000080000000040006af9330000c9
:0dac68000018a323310d000067c00000009c
:20ac750000000000f0000000000001402f891000000f085028020000000000000002000033
:20ac95000002580500080000000000000000000000000000000000000180d4140800004483
:20acb5002028960041003180c01420080340020500000201000000000000007c00000000ea
:0dacd5000010f04154000a974000000000fc
:20ace2000000004080000000000103623dbe3000040000f6bd50101000000000000040009a
:20ad020005a25b840104000000000004000000000000000000000004038086a800001020bd
:20ad2200654996c0005001e1f014000500070d85000004000000000000101670000000009f
:0dad42004000a7795400050a000000000041
:20ad4f000000000000000000000a0000360f508000001e90154040000000000000049500e9
:20ad6f000002580300000240000000001100fc1404004c0000000000500004280400000034
:20ad8f00200c96000002008943fc000000e3bc05f00000000000000000001c3830550000ab
:0dadaf000008f00000000000003f0550000b
:20adbc000000008000000000000400020dea0000000119fea95000010000000000050000e3
:20addc0007a25b040040000000000000081e1a014000000000000000018056a80000000609
:20adfc00644996c08001001fbbd4000062e2e4c0a080000000000000000020044e55200016
:0dae1c000050100000000000039eea5010de
:20ae290000000000f0000000000000440000000003830a5c28001000800000000001000030
:20ae49008082580000080000000000000700b41400004000000000010019d4140010081c42
:20ae6900000d9600028000000000000008c0270e700010000000000000008001700f000027
:0dae8900007005e0cc400000003c0f5000c0
:20ae960000000000800000000000000600000000000980b2bd5040020000000000020c1866
:20aeb60015225b440404000000000000079e5e814022800000000000001d83a80000802050
:20aed60001e896c04100700000000000e3c2b6ef77a4000000000000000e0001eef06000ba
:0daef600800001f3310200000000efa00811
:20af0300000000000000000000000004260aa008000000bc3300000000000000000400005f
:20af23008082584042004000000000401000f03fc00001000000000007000428000020005f
:20af4300402d9600000a00097706000018003cdd0000000100000000040006387a7a0810db
:0daf630000d0037b30000000000000000063
:20af700000000000000000000000000785aa5400000398db0cc09000000000000004000160
:20af900095225b81c46200000000004000009bbdc0a0010000000000580836a808010000a8
:20afb000384896c0000c000772050000f80001ae00000028000000000c403c014820003031
:0dafd00000000df4cc0000000000000000a7
:20afdd000000200000000000008000200705500200000e9433000880004000000020000079
:20affd00000258048001c00000000203af80003d40000000000002000f103a542008a13c30
:20b01d00002c96002001f0a00000008204c43cef4002000000000000088000000000002041
:0db03d0000b0a5803c048000002c0fa00096
:20b04a00000028000000000000a0004004aa5082800001520cc08a4000780000002838001d
:20b06a0007225b80a000000000000280170e133d4000000000000280081e5768500a00a684
:20b08a00784896e028000000000000a002070dfe50028000000000000a0000300000002860
:0db0aa0000801763c101a000000ee5040046
:20b0b7000000000000004282800000260000000000001a3403c00040000010a09140050038
:20b0d70000025814040000000960c002ad10379428000080000000006d00f23fc0400004ea
:20b0f70024289600000000c00000000000000f00f01002008033f42020001c01fc33210032
:0db1170000008000000000000000000000ab
:20b12400000000000005ba81800000e6c0000000000018b3bc0000800001d8a040010200e2
:20b1440007225b420ac4001489640000100e5fe85000000000000041d8003b3dc000017ed1
:20b16400306096c0480000100000000000602fef000401878092a81400020063fccc400048
:0db184000070d0000000000000000000007e
:20b19100000000000080000000000004360cc00800039c181540210002606ecc0100001036
:20b1b10000825800c00040020960030020000000000000000000030000180c280011000caa
:20b1d1002000c0000000f0852d1c00c002600d0da0010000000000000c800238000000001d
:0db1f100020000000000c00000000000008f
:20b1fe000000000000100000000000021ea33020000f0fdf295001060625de3300000881cc
:20b21e0087a25b84c003e61e896c0100700000000000000000000100001c17a800002020bf
:20b23e00040ec00300008013e61400c002c00f8f50230100000000000c00060400000000e4
:0db25e00000000000000c001c00000000062
:20b26b0000000038010b815406001544020550000001089803c00000342050a00080281490
:20b28b000082584400004402096000000080000000008000000000200f8e90140000000471
:20b2ab003150f5084001000543dca00a02401405000000000000000000000000000000009b
:0db2cb000000000000000400000000000072
:20b2d8000000000001efb29500000a4396c550080089801abc000000067efef541000098f0
:20b2f80005a25b020a226216896c0012038000000000000000000000090183280020001e11
:20b318000778f702000018a9f3cd0a04020021aa0000000000000000000000000000000041
:0db338000000000000000200000000000006
:20b345000000000000f5373000080003c2055008080100fb6800000002637ad508008000ba
:20b365000002580410000000096080000000000000000000000000000088f41400000140a0
:20b385003010300040085083bf00000003621e8ff000000f0000000000000030000000001d
:0db3a500200000000000000000000000007b
:20b3b20000000040000560cc0209000005a55000040700b339c0405004727ce000014800a3
:20b3d20005a25b8601000016896c0005000000000000020000000004070086280040108e29
:20b3f200041830030040819177080001e9606fdef000040800000000001000040000000074
:0db4120040000000000001000000000000ec
:20b41f0000000100000182a8820000000000000000070edbf40020000040105500000200b4
:20b43f00000258000000000009600040000000000000000000000000001094140000000230
:20b45f0002f930200000080da3fc000000102caa1000000010000000000081000000000245
:0db47f0000000000000000000000000000c0
:20b48c000000000039a932950000116680000000000d9d7f7540000004386a5500800400a3
:20b4ac0007a25b430020001e896c0000200000000000000000000000078e83a80040201caa
:20b4cc00036e3400003830057bdc000000403dea500000000e000000000000000000000131
:0db4ec000000000000000000000000000053
:20b4f90000000400010000000000002326055080000000f2730000003c24ddcc00000000a2
:20b51900808258000a000202096080030080000000000080000000000090042800000016ec
:20b5390078000000008690e3803c04000142800000000000000000000000000000000000fe
:0db5590001000000000000000000000000e4
:20b566000000042001e00000000001c7d4ea55000005987e8cc0404000205b3300403818c0
:20b5860015225b4104086054896c0001078000000000014000000000079c76280800010604
:20b5a600780000000111d013b8bc0c000042c0000000000000000000000000000000000096
:0db5c6000200000000000000000000000076
:20b5d300000000041800000000000003400000000005090815400000143c5fe211010000eb
:20b5f30080825820c444020209600000000000000000000000000000000090140040ae06b1
:20b613000010a010000031bfc3fc000008040000000010000900000000000028000000005b
:0db63300000000000000000000000000000a
:20b6400000000002f0000000000000464000000000001e731540000020020fd140008001c9
:20b6600095225b26ca400654896c0000000000000000000000000000000083a80000002ee0
:20b6800000dea000010081c1a3d4200005e2800000002800010000000000000000000000c2
:0db6a000000000000000000000000000009d
:20b6ad00000020001009c03ca080000007ecc00200001070154018002c354055113000004f
:20b6cd00000258018a0000000960820300800000000000000000020000090c2800080c0cab
:20b6ed0029ec000020109905c1f80080002277c7a0020000090000000820000000000000ee
:0db70d00000000000000900240000000005d
:20b71a000000280080af6bc000a001401dc3308280078ef729500a002e07d8a54028000071
:20b73a0007225b41a400001c896c029007000000000000000000028000015e28040a0000c5
:20b75a00296b80002800798bbad408a0014036b7041ee800000000000a0000000000000017
:0db77a00000000000000a00007800000009b
:20b7870010000020000b01542000024786bcc00000201d3828004008060058d1084100004a
:20b7a700000258340c00000009602000511076306200000000000000010fb6306000400060
:20b7c7002040500000027180c3d400000000000000000001009e306400000402f8c1a8008e
:0db7e700050000000000000044078c190060
:20b7f4000000000000ed329500000347cd933000000018d3bd504020be020ce240008000e1
:20b8140007225b000600001c896c0000080e1a2050000400000000000801bb205800000099
:20b8340003eaf54000058191a3d40000000000000000000800d32050100020035e814000a7
:0db85400020000000000000207a68814009a
:20b861000000000000898154000000627cfcc00000808a00154000003c2360aa1042801025
:20b88100008258060000001f0ff000011b08000000000000000000000d0eb43e80010000f7
:20b8a10002c08000010500c0030000040346c6dda0090000901fd4000c0142016d5008103b
:0db8c100000000000000000000000000007a
:20b8ce00000000000005f295000001420ef3300802038117154000000706eea550012081ce
:20b8ee0087a25b000001e007af5000000801000000000000000000800f0ef3281000001ce2
:20b90e0072184002020058106b000c0000020fbf541503871e37a9001c009e016ba40030b1
:0db92e00000000000000000000000000000c
:20b93b0000000000f000415402000842bc0aa20012810cb0330000083c21f0a00100081023
:20b95b00008258240009d00000a008000f0d9428080008000000002a0590938000008034df
:20b97b0065cf4010420010073bd00000014000000000200f0efb540800003c017b500041a6
:0db99b00050000000000000000000000009a
:20b9a800000000801803f954000020c021e55000000580338cc280c00e74fef54000389896
:20b9c80005a25b0100d06004c0a01000080177bd5000000000000080010ef6e00000400680
:20b9e800641880210100380be3c0040003e00000000000081bf3b80000000000e9e00002bb
:0dba080080000000000000000000000000b1
:20ba150000000000b8f7c344000601c02ddcc080080f1a50330000a00221c05500000000bf
:20ba35000002580400106241055008202f8016f30020010000000000070d737fc00000b410
:20ba550022d0e3204000088d03e8800011e3ef0f50000000001fd400000000786d50000032
:0dba75000170d0000000000800000000007b
:20ba820000000000900172040c0e0006bea3300000500af30cc080008e29eea56101320075
:20baa20005a25b010409404dc5500000df88be8cc000020000000000081917ff40000020c8
:20bac2003e7cc303003050187bd404000bc67eaff018000780b7a9000000807f6ba42000de
:0dbae20000801000000000140000000000b3
:20baef00000000000105414000000342540cc000000d8c97b30000400043500f000018006e
:20bb0f00000258000a0ce61505500c280b1098280000c00000000000051f13b6000000009a
:20bb2f003010020000000000c1f0000000223f00021800000f00000000001c3c00c08000e1
:0dbb4f0000000000000000000000000000e9
:20bb5c000000000001ef6bd4000010073d833020000380d74cc00080003a4cf00000000017
:20bb7c0007a25b83003bc7368a540000001c76bd5240400000000028419b863910400414c0
:20bb9c0004da02020000000161f0080000e03fc20038000181000000000820041ac042006a
:0dbbbc00000000000000000000000000007c
:20bbc9000000000008fb815400000263c3055000103590902a800000062de055010000008f
:20bbe90080825802080047f60fa100002190702800400d00000000000700b4140000000284
:20bc090024600000008001b043d4010005e0240ff0902800005fd40040010441f0d308000a
:0dbc2900000000000000000000000000000e
:20bc36000000000079857295010001e04d855000207f8e5aa95a0000362f4ea541000818a2
:20bc560015225b4400e3e2edca060000595eb2800000000000000000080003a80040000e8c
:20bc760007cea020010079c563d40000034006af702810000037a90000002038dcc3030029
:0dbc9600020000000000000000000000009f
:20bca3000000000098e000000000004400000000138b88b42a80000a0001d0a001000200c3
:20bcc3008082580000cc02c780000000000a567300004000000000000000bbf48000022c82
:20bce3003d58ff10008008003700000000600c0ff000100900fb540000001e00e000090004
:0dbd03000000a00000000000000000000093
:20bd10000000000091900000000002020000000008090e82154000400060eef56000000114
:20bd300095225b051028000cb80000600780be4cc0408000000000000000fff088000020d8
:20bd500003caf700011850003f00012003e63def7020280800f3380800001c006ea00040d4
:0dbd700000001000000000000000000000b6
:20bd7d000000200001090154008003e3f68cc00200000a9ff3000800a403e0cc0021000065
:20bd9d000002584082c342e40a0102000519102a8000000000000200010f303e8000a024d8
:20bdbd000040f700001400a0c2808088034014cff002000f80341420080044416d5000a038
:0dbddd000000000000000000000000000059
:20bdea000000280000ef729501a0024024d330829000003a8cc06a0120705a33022a0000c5
:20be0a0007225b04a400001eef5402800f8e061544000400000002800f81732810004034d8
:20be2a0001fcff02000058a5f28000a0420024ff700280090003a8100a003c236ba4002830
:0dbe4a0008000000000000000000000000e3
:20be57000000000000edabc800100003c4055000000900dc03c0000000285fcc0004300010
:20be77000002588e000342650aa0840000080c15400000000000000025103a3fc000a01e56
:20be970003ddff00000000004280000a02402c050010000900723fc000001c4068ff000020
:0dbeb70000100be30600001000000000006a
:20bec4000000000000fd2a880410000035aa5484000818fabc08002014077833010000001f
:20bee40007225b020015420e8a57000005803b154010000000000000c01a937dc00000346f
:20bf0400034ef700000058c17a80000003c30caf5500000900bb3dc00006007258f7100054
:0dbf24000081ed22058000000000000000fb
:20bf31000000000000900000000400220e00f20000208b53730010000022e0550100000958
:20bf510081c280200000020e055010100f900815402000000000001000080000000400022e
:20bf7100400000000000b0800014210001e200000001000900b03e805c003c0000a0103038
:0dbf91000000000000000000400000000063
:20bf9e000000001801e00000000a00e046ef0000001388b2ccc0000006076aa561003830ad
:20bfbe00d1ebd5050008065eea55082b8f885b954000000000000028878100000004001460
:20bfde00700000000000d013f814420003c240000003000000063d4044000000dca0001047
:0dbffe000000000000000000000000000036
:20c00b000000023000f00000000000200705500000291c16b30200401c2970a00180000051
:20c02b00874140400000e39d0a0100000f8efa7308200000000000400000742800000042d2
:20c04b0001d0422000001107038c200001c006fa100000401a90140020002402c0500101b4
:0dc06b000200b0000000000800000000000e
:20c078000000000000000000000000e03eaa541008400ef28cc003246601def5510000181e
:20c09800197bd5000002600fef5500008181db8cc000000000000000000097bd5020000479
:20c0b8000048c202010018887b4cae0002621eda740800079e07a800200000020ca000024a
:0dc0d80085000000000000040300000000cf
:20c0e50000000000b000025806000007c40aa000000058583fc000800040c05501013030d0
:20c10500910280040010243fbe5200280d103bffc0000000000000000b0d9c000000000e7f
:20c1250070e0f7004000b090032c000002620d8c3000005b00743e8000403c3950500000f5
:0dc145000000000000000000001ec300808c
:20c15200000000008003ea5808000043a0c55008280018300008400c9c79eaa54100100047
:20c1720003ebd58200094296ca500410a7deb6a9c0200000000000018180b72000800066d6
:20c192007ffeff02000080b3fb2c0d0002401efd1408080800823d40200e20001ca0000016
:0dc1b2000000000000000000003dab140084
:20c1bf000000038008e18330010001e40700f080400d0d9833024000000140a02000077005
:20c1df000f0140400003e35e0a000828008f08154800000000000000070d04280000017c81
:20c1ff003f69ff000000f0fff000050003c004e56008001100903d400000140000550000fa
:0dc21f0000000000000000002000000000f2
:20c22c0000000380718730cc080003c387cf0004480181fb0cc080001401daf56002870075
:20c24c00096bd50100c4e045af54001005001f95400006000000000000005ea80000000681
:20c26c0060fbfd00000580b3b410000007e034da540000081c07be8800003c016e5508009c
:0dc28c000100000000000000e000000000c4
:20c29900060004003809c03c00000006c000000010018008154000a00403e0550900001095
:20c2b90001c280200600442e05500000001f10280000000000000001859a943ec000002c00
:20c2d9002c4940314000000743d0000030c01e0f5110000100743d4200006e39d0aa000171
:0dc2f9000000c00000000004000000000074
:20c306000000040071edfbc0000001c2400000002807007e95400000a0614aa550002a9972
:20c3260083abd5000e6202a6ea560002859c57bd4800000000000000258a32bfc8800146ee
:20c3460000fa0020001800032b810d00020014ca0400000000823e8800001e761a5500407a
:0dc366000039e00000000000600000000051
:20c3730000001000b18deb3000000003eebe000003a30f0000000006062150a00002881026
:20c39300034140220023c2dc881080000b803803c0000000000000100d10943dc0000e00b9
:20c3b3000000a0000084f00977fc220000c0049c728020000c0015400040242e50aa100049
:0dc3d300020000000000000000000000005b
:20c3e00000001280d0f378cc000000006ddd508000078000000000042664eaf540c4008111
:20c40000813bd5c00002001c1e7600002f0e933c080000000000002020189fbfc08000000f
:20c4200028d8a02000008189fb7ca000020615ac141410800016954400a020021a5500007a
:0dc4400005000000000000000000000000ea
:20c44d0000002038f1954330408405e3f48cc08838691f9003c01800000240550020000028
