:02000000ff00ff
:080002004c6174746963650030
:17000a00694345637562653220323031372e30382e32373934300069
:15002100506172743a2069434534304c50384b2d434d3831003f
:1b003600446174653a2041756720323620323031392030303a30333a35350085
:0200510000ffae
:040053007eaa997e6a
:02005700510056
:0200590001059f
:03005b00920020f0
:03005e00620367d3
:0300610072011019
:0300640082000017
:02006700110086
:02006900010193
:20006b00000000000000000000000000000000000000000000000000000000000000000075
:20008b00000000000000000000000000000000000000000000000000000000000000000055
:2000ab00000000000000000000000000000000000000000000000000000000000000000035
:0d00cb000000000000000000000000000028
:02743b0000004f
:02743d0011013b
:02743f00010149
:20744100000000000000000000000000000000000000000000000000000000000002000029
:2074610000000000000000000000000000000000000000000000000000000000000000000b
:207481000000000000000000000000000000000000000000000000000000000000000000eb
:0d74a10000000000000000000000000000de
:2074ae000000000000000000000000000000000000000000000000000000000000000000be
:2074ce0000000000000000000000000000000000000000000000000000000000000000009e
:2074ee0000000000000000000000000000000000000000000000000000000000000000007e
:0d750e000000000000000000000000000070
:20751b00000000000000000000040000000000000000000000000000000000000001003417
:20753b00000000000000000000000000000000000000000000000000000000000000000030
:20755b00000000000000000000000000000000000000000000000000000000000000000010
:0d757b000000000000000000000000000003
:207588000000000000000000000000000000000000000000000000000000000000000020c3
:2075a8000000000000000000000000000000000000000000000000000000000000000000c3
:2075c8000000000000000000000000000000000000000000000000000000000000000000a3
:0d75e8000000000000000000000000000096
:2075f50000000000000000000000000000000000000000000000000007000000000200006d
:20761500000c00000000000000000000000000000000000000000000000000000000000049
:20763500000000000000000000000000000000000000000000000000000000000000000035
:0d7655000000000000000000000000000028
:20766200000000000000000000000000000000000000000000000000008000000000000088
:207682000004000000000000000000000000000000000000000000000000000000000000e4
:2076a2000000000000000000000000000000000000000000000000000000000000000000c8
:0d76c20000000000000000000000000000bb
:2076cf0000000000000000000000000000000000000000000000000000000000000000009b
:2076ef0000000000000000000000000000000000000000000000000000000000000000007b
:20770f0000000000000000000000000000000000000000000000000000000000000000005a
:0d772f00000000000000000000000000004d
:20773c0000000000000000000000000000000000000000000000000000000000000000002d
:20775c0000000000000000000000000000000000000000000000000000000000000000000d
:20777c000000000000000000000000000000000000000000000000000000000000000000ed
:0d779c0000000000000000000000000000e0
:2077a9000000000000000000000000001000000000000000000000000000000000000000b0
:2077c900000000000000002000000000000000000000000000000000000000000000000080
:2077e900000000000000000000000000000000000000000000000000000000000000000080
:0d7809000000000000000000000000000072
:20781600000000000000000000000000000000000000000000000000000000000000000052
:20783600000000000000000000000000000000000000000000000000000000000000000032
:20785600000000000000000000000000000000000000000000000000000000000000000012
:0d7876000000000000000000000000000005
:2078830000000000000000000000000000000000000000000000000000800700000000005e
:2078a3000000000000000000000000000000000000000000000000000000000000000000c5
:2078c3000000000000000000000000000000000000000000000000000000000000000000a5
:0d78e3000000000000000000000000000098
:2078f00000000000000000000000000000000000000000000000004001800a0000000000ad
:2079100000000000080000000000000000000000000000000000000000000000000000004f
:20793000000000000000000000000000000000000000000000000000000000000000000037
:0d795000000000000000000000000000002a
:20795d0000000000000000000000000000000000000000000000000000000000000000000a
:20797d000000000000000000000000000000000000000000000000000000000000000000ea
:20799d000000000000000000000000000000000000000000000000000000000000000000ca
:0d79bd0000000000000000000000000000bd
:2079ca0000000000000000000000000000000000000000000000004000000000000000005d
:2079ea00000000000400000000000000000000000000000000000000000000000000000079
:207a0a0000000000000000000000000000000000000000000000000000000000000000005c
:0d7a2a00000000000000000000000000004f
:207a370000000000000000000000000010000000000000000000000000000000000000001f
:207a570004000000000000000000000000000000000000000000000000000000000000000b
:207a77000000000000000000000000000000000000000000000000000000000000000000ef
:0d7a970000000000000000000000000000e2
:207aa400000000000000000000000000000000000000000000000080000000000000000042
:207ac40000000000080000000000000000000000000000000000000000000000000000009a
:207ae400000000000000000000000000000000000000000000000000000000000000000082
:0d7b04000000000000000000000000000074
:207b1100000000003000000000000002ad0fa0100000809428001000000070f509000050ac
:207b3100008258000002c21588100000070058014200000000000000000000000000000047
:207b5100000000000000000000000000000000000000000000000000000000000000000014
:0d7b71000000000000000000000000000007
:207b7e000000000098000000000001c6fe8a040000019afebd580000800168a04000008104
:207b9e00a5a258000043e6cfb5040010099ede0612c000000000000000000000000000000a
:207bbe000000000000000000000000000000000000000000000000000000000000000000a7
:0d7bde00000000000000000000000000009a
:207beb0000000000000000000000004201de2080000018bc2a80200000000000000000001b
:207c0b00a0825880000003ee0a100000000037ff800000000000000000000000000000009e
:207c2b00000000000000000000000000000000000000000000000000000000000000000039
:0d7c4b00000000000000000000000000002c
:207c58000000000000000000000002004e9e2400000589b6295000000000000000000058e5
:207c780015225a000000601da5b020000000827f4000000000000000000000000000000028
:207c98000000000000000000000000000000000000000000000000000000000000000000cc
:0d7cb80000000000000000000000000000bf
:207cc50000000000300743d4000000020e0a00000000089c304000000042c0a5000000007c
:207ce5000082580000014027d0100000090070148000000000000000000000000000000050
:207d050000000000000000000000000000000000000000000000000000000000000000005e
:0d7d25000000000000000000000000000051
:207d320000000000800faa81040001c675af56000000011bb64080000022005a0000000024
:207d520007a25a000002c304d00000000818978418c0000000000000000000000000000062
:207d72000000000000000000000000000000000000000000000000000000000000000000f1
:0d7d920000000000000000000000000000e4
:207d9f00000000000083828000000802800f00000000099bb4c0000080000000000000000e
:207dbf0000825800000022bd0af0000001003036c00000800000000000000000000000004a
:207ddf00000000000000000000000000000000000000000000000000000000000000000084
:0d7dff000000000000000000000000000077
:207e0c00000000000019ebd50400140040ef051000000fd69880000140000000000000786b
:207e2c0007225a800000e076ae70200009805b32c080014000000000000000000000000008
:207e4c00000000000000000000000000000000000000000000000000000000000000000016
:0d7e6c000000000000000000000000000009
:207e79000000000010054140220000c2f59000000009009428000000000000000000000124
:207e9900000258000000403c0500000003005b480000000000000000000000000000000048
:207eb9000000000000000000000000000000000000000000000000000000000000000000a9
:0d7ed900000000000000000000000000009c
:207ee60000000000800babd50000026016c80080000018d2bd58000016600000000000013b
:207f060081225a01000006058a5000010d98fec00000000000000000000000000000000014
:207f260000000000000000000000000000000000000000000000000000000000000000003b
:0d7f4600000000000000000000000000002e
:207f530000000000000b6558000000029d0a0080000009bc14000000020000000000000042
:207f7300f00258040000438ce07010000000f83c80000000000000000000000000000000bd
:207f93000000000000000000000000000000000000000000000000000000000000000000ce
:0d7fb30000000000000000000000000000c1
:207fc000000000000181a69501000003b6ef54000001981bbd5010001e00000000000000f8
:207fe00003225a000002003eb0140000000cbebc00800000000000000000000000000000f8
:20800000000000000000000000000000000000000000000000000000000000000000000060
:0d8020000000000000000000000000000053
:20802d000000200501f0000000800402bfdff08200001c943d400880000000502100000061
:20804d00978048008001400c01400a0005000801400000000000000000000000000000004e
:20806d000000000000000000000000000000000000000000000000000000000000000000f3
:0d808d0000000000000000000000000000e6
:20809a00000028007890000000a0080027ff700280001ed7a8120a0000015a504000000032
:2080ba0019a21200a001601dc244228000005701400000000000000000000000000000007b
:2080da00000000000000000000000000000000000000000000000000000000000000000086
:0d80fa000000000000000000000000000079
:20810700000000020100000000000003010f0000000010000000000000280000000000907a
:20812700003a58090000c26dfb1000000500f43d40000000000000000000000000000000ed
:20814700000000000000000000000000000000000000000000000000000000000000000018
:0d816700000000000000000000000000000b
:20817400000000010080000000000002c1af040000001a0000000000040000000000008056
:2081940000225a00000002cff3000000080c873e8000000000000000000000000000000032
:2081b4000000000000000000000000000000000000000000000000000000000000000000ab
:0d81d400000000000000000000000000009e
:2081e100000000000001a71c0000024226dc30000000185670c000000034ee9500000004eb
:208201000b81480000014657ea1008004910b02bc0000000000000080000000000000000ed
:2082210000000000000000000000000000000000000020000000000000000000000000001d
:0d8241000000000000000000000000000030
:20824e000000000001c5770502000266d79d141000000e1ef45000000063eaa55000001802
:20826e000db2d50c000142dfb104000021087680000000000000000000000000000000005a
:20828e000000000000000000000000000000000000000000000000000000000000000000d0
:0d82ae0000000000000000000000000000c3
:2082bb000000000000ab314800000802070f500000000bdc03c800001422d0d108800008f6
:2082db000983fc00000046ac0aa000000d10742bc2000000000000000000000000000000e1
:2082fb00000000000000000000000000000000000000000000000000000000000000000063
:0d831b000000000000000000000000000055
:2083280000000000580976d5000030605f8a04040003413a3c000000366c1ae2420000501e
:20834800032bf8880002066dea540800079c963fc000000000000000000000000000000074
:208368000000000000000000000000000000000000000000000000000000000000000000f5
:0d83880000000000000000000000000000e8
:20839500000000003883c15420000802840f5080100010d814040040022bd0a0000000007e
:2083b500000140001000023d0fa000000f8f1816800000000000000000000000000000001d
:2083d500000000000000000000000000000000000000000000000000000000000000000088
:0d83f500000000000000000000000000007b
:2084020000000000b813fa94000004061eaa040088001816bd5000a01c06d8ff00000001ce
:208422008769400000000060ef5200000198d73d505000000000000000000000000000001c
:2084420000000000000000000000000000000000000000000000000000000000000000001a
:0d846200000000000000000000000000000d
:20846f00000000005001c3e82000002024bf801000000a77730000002c2ec8e2000200f054
:20848f00000000000000235d0ff00001009070140000000000000000000000000000000039
:2084af000000000000000000000000000000000000000000000000000000000000000000ad
:0d84cf0000000000000000000000000000a0
:2084dc0000000010980da281000000c60dae0404000181338cc020a006065dc340800081f1
:2084fc00e000000000014064edf220000188872800000000000000000000000000000000a4
:20851c0000000000000000000000000000000000000000000000000000000000000000003f
:0d853c000000000000000000000000000032
:2085490000000000d8cd428080000047ad0fa0800007100000000040022050a01180000806
:2085690000c2bc000000001f0ff000000d001c1540000000000000000000000000000000d8
:208589000000000000000000000000000000000000000000000000000000000000000000d2
:0d85a90000000000000000000000000000c5
:2085b60000000000500d2bd501000206c5ca040000019e00000000800c07caf54000001962
:2085d600e562bc0000000617cf7020000508dba94040000000000000800000000000440031
:2085f600000000000000000000000000000000000000000000000000000000000000000065
:0d8616000000000000000000000000000057
:2086230000000000089f7b8820000064050a00800003189b7c020000020150a00000001043
:2086430009417c00000346c30f50080000009342c200000000000000000000000000000047
:208663000000000000000000000000000000000000000000000000000000000000000000f7
:0d86830000000000000000000000000000ea
:208690000000000159982b4400001b621eef5400000718feb89000000662cef540000000bb
:2086b000a822bc4000000386af500000018e5bc05000000000000000000000000000000062
:2086d00000000000000000000000000000000000000000000000000000000000000000008a
:0d86f000000000000000000000000000007d
:2086fd00000020001001330c008003400dba1002000f0e3fd58048000634fccb0020020035
:20871d00a18148008003c401055002000010343d4000000000000000000000000000000072
:20873d0000000000000000000000000000000000000000000000000000000000000000001c
:0d875d00000000000000000000000000000f
:20876a00000028008183b34500a000079cba74028007187e69500a002c07dcc1402805003b
:20878a0005b2d508a0000286a5500a80018a57a814000000000000000000000000000000f6
:2087aa000000000000000000000000000000000000000000000000000000000000000000af
:0d87ca0000000000000000000000000000a2
:2087d7000000000408056000000081e6fc87208800000d542800000e0603c8c30041000013
:2087f700a7a7fc0000006004d0b08000010814028400000000000000000000000000000011
:20881700000000000000000000000000000000000000000000000000000000000000000041
:0d8837000000000000000000000000000034
:208844000000000218adbe00000002c6a0ab140000000a1bbd4010002601dcd14002801888
:20886400ab2bec400003401ea01400000f017f2bd40000000000000000000000000000004f
:208884000000000000000000000000000000000000000000000000000000000000000000d4
:0d88a40000000000000000000000000000c7
:2088b1000000000090a17f88000002c225dcb0000009987773080000002270500100010083
:2088d1000983d40400004035050000000f180000000042000000000000193815404000005a
:2088f100340000000000000000000000000000000000000000000000000000000000000033
:0d8911000000000000000000000000000059
:20891e000000000001e06f45800002005ddc140800090f9e4cc001000c645ef560001a01cc
:20893e00adba810000020600aa000010030f00000000800000000000000ebea94000000028
:20895e000000000000000000000000040000000000000000000000000000000000000000f5
:0d897e0000000000000000000000000000ec
:20898b00000000000083fc0000000642250a00140000803f7e000000023dfaf0000000005c
:2089ab00abff40000201c637000000000080380140000000000000000910000000000002ae
:2089cb000350aa01800000000000000000000000000000000000000000000000000000000e
:0d89eb00000000000000000000000000007f
:2089f8000000000001bbaa000000006747ef540000018c1ff8101000047bdee240800078cd
:208a18001f34810004026395a802200047007e295400200000000000010800000000000433
:208a3800701c5500000000000000000000000000000000000000000000000000000000003d
:0d8a58000000000000000000000000000011
:208a65000000000090e182800300cac25d8a9000000d1d9731c02000023fccf000000000a9
:208a8500898280400000027f9f00000000089c3540000000000000000f88d23300000040f1
:208aa50040000000020000000000000000000000000000000000000000000000000000006f
:0d8ac50000000000000000000000000000a4
:208ad200000000000187ebd50000160617ca548800019997705000001405fbe240810000bb
:208af20019ebd50000006005ae0210000001b238008000000000000009003a8cc040001e0e
:208b12006000000000000000000000000000000000000000000000000000000000000000e3
:0d8b32000000000000000000000000000036
:208b3f000002040090cb014080006023accf0008000700fb7e00200040005e560004000056
:208b5f00850280400008001c0f50100003087c154000000000000000000ff43300400000ca
:208b7f003c000000000000000000000000000000000000000000000000000000000000009a
:0d8b9f0000000000000000000000000000c9
:208bac000000043000116bd50000106025be24000008009ef810200000626fa54000000128
:208bcc00b16bd50000f4001eea048001080196a940000000000000000001120cc080000030
:208bec00000000000000000000000000000000000000000000000000000000000000000069
:0d8c0c00000000000000000000000000005b
:208c19000000003810814280000000439f0550040001009a70c2000c0403edc708000010c9
:208c39000bfd0000000146b70fc000000b0c0c1540100000000000000b000415400000005a
:208c5900004055000000000000000000000000000000000000000000000000000000000066
:0d8c790000000000000000000000000000ee
:208c86000001000099932bd500000260748a5400000800bfb450000026217ec14040009983
:208ca60085309500000002ffc7c020000801571540000000000000000f0a73154000000026
:208cc600026ea5000000000000000000400000000000000000000000000000000000000039
:0d8ce6000000000000000000000000000081
:208cf3000000008000a903e8020000c02e0a100000050033b30000800601c0a0010002105e
:208d13000bc3c000000002acf1000000011d541540000800000000000308dc2bc00000046e
:208d330002e000090000000000000000000000000000000000000000000000000000000035
:0d8d53000000000000000000000000000013
:208d60000000010001817a81000001663cab5420000500968cc0002026005af500000cb972
:208d800087300100000006f7c18000000b895ea94000000000000000050956295200002003
:208da00031fca00000000000000000000000000000000000000000000000000000000000e6
:0d8dc00000000000000000000000000000a6
:208dcd0080002100009d400000801427ce0ff20600050a18330008008603d8c300203a0197
:208ded00a0c28000800000150a4112000080f6f308000000000002000010ffb3001800162f
:208e0d00000000000000000000000000000000000000000000000000000000000000000045
:0d8e2d000000000000000000000000000038
:208e3a000000aa8001c9620008a001c38caef0be800f9ef28cc28a007c01fcd140280500c0
:208e5a00e5728000a000003dc647b280078af28cc0000000000002810008df8cc20a00066e
:208e7a000000000000000000000000000000000000000000000000000000000000000000d8
:0d8e9a0000000000000000000000000000cb
:208ea70000000000d88be800000a0002e7fff000100f80702a800000003beef80000107024
:208ec70001814000000002ecf6400028000af02804000100000000000080503d42000e00f9
:208ee70003d0a50000020000000000000000000000000000000000000000000000000000f1
:0d8f0700000000000000000000000000005d
:208f1400000000005819be0000060066e7af7000280d180295400001462dcbe0410080d0c8
:208f340001abd580000002b7c1800010000efabd5000008000000000039cdaa8000000005c
:208f54007148f54840010000000000000000000000000000000000000000000000000000c6
:0d8f740000000000000000000000000000f0
:208f810000000000000f21980000000035af8000000d80b03e8000000021500f00000051d8
:208fa1008d77e020400263fd0aa00400010bfc1400200080000000000018be128001000235
:208fc10069507400000091c00000000000000000000000070000000000000000000000000b
:0d8fe1000000000000000000000000000083
:208fee0000000000300182940000000035ae05080001007728001000006d6cf000000010a3
:20900e009fef8100c000e05cea5000004f01b69c5080014000000000000edf795800031475
:20902e003ddae242003898f0000000004000000000000008000000000000000000000000df
:0d904e000000000000000000000000000015
:20905b0000000000b0d36bc020000003949c70040055805833020000143a50a001000030af
:20907b000fc280000402e7800000000000095414000002000000000000080c2588000004df
:20909b0001c00f000000919b02a80000000000000000000100b422c0400000000000000038
:0d90bb0000000000000000000000000000a8
:2090c8000000000080036f894000000006bc140000270abf0cc080000406def54001009805
:2090e8000b7bd5040801c78000000000010082280000000000000000001837258080002476
:2091080002cef000000081992a940000000000000000000800969090a00000000000000051
:0d912800000000000000000000000000003a
:209135000000003800a3376044000003ccaf821000079e942a8000a01400d0aa0100000939
:20915500b337e020000266770550106800009bf400000000000000000308f433001000048f
:2091750038305500000078876084000000038200500000000877990000000000000000004d
:0d91950000000000000000000000000000cd
:2091a2000000000018087b910000014395ae040000050b03954000402602f8a5418000390f
:2091c200c7ef81000001e20cea500000000036d4520000000000000003183f8cc08080002b
:2091e200206855000000f807fadd000000004ea05000000001da2900000000000000000078
:0d920200000000000000000000000000005f
:20920f0000000000f181314800000023568c70080240801215800000002dffcc0800000965
:20922f000f0280200201c3570f001410000f703880000040000000000510d003c0000000ff
:20924f0022e8fc000000d009815400000000000000000000001031c000000000000000004a
:0d926f0000000000000000000000000000f2
:20927c0000000000509b2ad5000000605cbc160000a51893295040000e007b330000007025
:20929c00e96bd50404100067ce042023800007b45080020000000001001e5f3c000000042a
:2092bc006afac0400000000f2a9420000000000000000001809339d08000000000000000a4
:0d92dc000000000000000000000000000085
:2092e90000000010d88bc3d421000003a6a560001000003770c00020022ff050000028104c
:20930900d1ab30200000201ce8100000050d53e880000000000000000b00f43884000004b8
:209329002acccc000018080f4330000010000000000000010d7eb0c00000000000000000b4
:0d9349000000000000000000000000000017
:209356000000000010152281400000660eaa54800805801734500040143a6af550000099ff
:209376008be0cc000000402c0a500010019957a9c000000000000000081e93ae1080006415
:20939600647e33004028180da8cc0800000000000000000d813a6840000000000000000029
:0d93b60000000000000000000000000000aa
:2093c30000000000d00b42a82004606001055010028100103300200a342570f5008000103d
:2093e30000003c04000003ad05000002038e5ae60000000000000008051b9733000000149c
:2094030002fc98100000b101033000000000000000001000000000000000000000000000ae
:0d942300000000000000000000000000003c
:2094300000000280b1873295000201400e85500000081afb8cc880000461caa00000008035
:2094500000703c00000000618a0008000701def94000000000000010001cd28cc0000000f4
:20947000005fe500000081c3e0cc0800004000000000200000000000000000000000000040
:0d94900000000000000000000000000000cf
:20949d000000200010a543fc00800062158c300a00018b1c03c248000035f0cc08200030e0
:2094bd0007415400800064040fa00200008f00000000000000000200400d5c03c048401cb9
:2094dd0030003300200000e7403c0000000000000002001100043d420000000000000000f3
:0d94fd000000000000000000000000000062
:20950a0000002800800fe3dc08a002e054cd1402900d00d63c000a00002d6833022810301f
:20952a000f7a9500a00342218f500a800100000000000600000002800381163c000a2c00ff
:20954a00041e33022800580b3bc00000080000000002800800173d420000000000000000fc
:0d956a0000000000000000000000000000f4
:209577000000000009ebabfc0000e00002055004028390723e001040003030550000000034
:209597000f03d4040080001d00f08000000094154000000000000000090a000000000014ad
:2095b70077facc0000007899314c0500000000000000000f0ab6048400000000000000006d
:0d95d7000000000000000000000000000087
:2095e4000000000070a973dc000000660fc55000008b0ab2b810008000046a55008000782b
:209604000d3a81400000002fef000000000e9aa94000000000000000080000000000040083
:209624002f6d3300000038003e8d0000000000000000000b8096909a000000000000000009
:0d9644000000000000000000000000000019
:2096510000000000509d43d402000142cfdf0010000710bb55800000020059f4100000d814
:209671000903e8040000040000000000098094388000000000000000001854154400003c07
:209691000360a608000008cb014000000002bd0a0000000f00d7b300000000000000000032
:0d96b10000000000000000000000000000ac
:2096be0080000000f8092a80000001c02fbe240000000ab6a950200f5e61fee0400000705a
:2096de00ef3281000000070000000000098006b45080000000000000019d17a94000000012
:2096fe0063eca9420002701973d42000000621c50000000800974cc4000000000000000085
:0d971e00000000000000000000000000003e
:20972b0080000000010043d4000003c002055000000190f773000000340020960081007195
:20974b0000000000000003bf0f500000009833e440000000000000000508daaa4400804059
:20976b000149cc0000000083403c040001400dd000100005001680400000000000000000bc
:0d978b0000000000000000000000000000d1
:209798000000020018e533d4000008601fa55000000508deccc0100006797a96020080b9de
:2097b800c000000010000217ca000000471d7f2d40000000000000000d01ff6550000006c6
:2097d80003fa330000007015fbc0000000003df02080000800f229501000000000000000b1
:0d97f8000000000000000000000000000064
:209805000a0000000003c39c0000000356cf800800090b00000000000025d0cc00000071e1
:2098250001403c0000c003400d1004102000142a80000c0000000000000f942bc4100400e2
:20984500002055004400110f014040000042150aa08000000f000000000000000000000019
:0d98650000000000000000000000000000f6
:209872004100000078ef6a80090000478fbe0408000818000000000014045a33020000983c
:20989200a1e3c0000001e705ad1420205318daa9480000000000000001007f295000000055
:2098b200005a5500010080a963d40000000020855000000001000000000000000000000090
:0d98d2000000000000000000000000000089
:2098df0000000004010983d4000800438d0a0000018908fabe082000063e40cc000000f967
:2098ff0000015420000007270c9000000f1f742800000000000000000100be38c010000475
:20991f00275005000000f103a558000000000401b0100000000000000000000000000000f6
:0d993f00000000000000000000000000001b
:20994c000000000201c96a80000004005e8f500000098e36f81000002600ec33020000f1f7
:20996c00e779540000000264cc502000001cdf3d4000000000000000081e9a60d0000020fd
:20998c000368a5400000018daa990000000020e27620000000000000000000000000000002
:0d99ac0000000000000000000000000000ae
:2099b9000000000099dde3e00400034027c5601001818a33b3000040246420550002800001
:2099d900073b30000000032f0e0000000d8bd41540004000000000000080141540000004ce
:2099f9002a70a001000030ebc294400001401e007000000b0c000000000002280000000052
:0d9a19000000000000000000000000000040
:209a26000000000090b12b814008006607da5404100b9b3b4cc00020202cec550001007031
:209a46000970cc000000601fcd5020000119f2a94000800000000000078a57a94400a03cd9
:209a6600716af040000080056281010020001fc0102000080100000000000e040000000022
:0d9a860000000000000000000000000000d3
:209a93000038000050bfba6000000246ac9c7080000d0ad03300000000425d5208000000bf
:209ab3000feb30001000403d0f5000000f000c3440400000000000001580bc0140400000dc
:209ad30002705a0000005009c29400000000030a0000100080041400000000000000000043
:0d9af3000000000000000000000000000066
:209b0000000400000183ff94000008077dcc140000a01b9b8cc08000402848a760000101e3
:209b20008b74cc0010020004ea000000000e13b450800000000000000180f22950000100c8
:209b40006068f5600000998f33d5010000001e8a00002805005a1400000000000000000074
:0d9b600000000000000000000000000000f8
:209b6d000000200000df03d402880003800d100200408054330008a0000069f40820005012
:209b8d00d9c33c208000020000000210008cbc39800000000000022801107b4840080000e5
:209bad000050a908220150c503440280004000005002200b000000000000002800000000b1
:0d9bcd00000000000000000000000000008b
:209bda0000002820001f6a8100a000075eed14a2802500720cc08a4c00014ee048283101e7
:209bfa008d23cc08a0000040000002a8038032304080000000000290881a13add40a0000c6
:209c1a0071cc9542280081f7aae108a00200058050028008000000000000000400000000de
:0d9c3a00000000000000000000000000001d
:209c470010000000908000000000040237dea000280009dc03c200001620df520100005098
:209c6700af3b30000000c02c0f5004128d0c1a740000000000000000011cb710c040014214
:209c87002030af10000050c7e330000000468405a000000500000000000000026a5604004a
:0d9ca70000000000000000000000000000b0
:209cb40000700000f1e000000000c00646ae00001340003abc0000003e7448a7400000d893
:209cd40013b4cc000001e795ca040000000c32f5400000000000000003988220d00000967c
:209cf4002c68af00000001a164cc00000206600a540000000a00000000000003699500006a
:0d9d14000000000000000000000000000042
:209d21000000000071b00000000000040fb640000005087aea40500014425ecc00000079fe
:209d4100b7f3300010c00237da701000090c000000000000000000007f001003c00000540a
:209d61003949cc000000b0008258040003e7e70cc000000008bfc080000002414f5600007a
:0d9d810000000000000000000000000000d5
:209d8e000000000000900000000000070eae50000000015b695000003672dc33000000d175
:209dae00f57ccc001000461faa140000000100000000000000000000301e9bbc00000eb6bb
:209dce0006ee330101000005a258000003c7fee3312000059912a9500000066268958000c3
:0d9dee000000000000000000000000000068
:209dfb0000000000000b7158020000423c9c708000078e3f7c02000024680000000000d0ba
:209e1b0003c140240002e62500f000020008b43e80000000000000280f08f42948002204bc
:209e3b0000500f000000d000825804000823850aa00000290edfb04000000225cd56000050
:0d9e5b0000000000000000000000000000fa
:209e68000000000819cb769500000a6666bc1500012f195ff89000000030000000000001db
:209e8800ebebd5000003e3d4ef011000001ffa2810000000000000110f81db3d5040402655
:209ea800034af00000001803225a000015e3e085500000158072f01000000606e895800009
:0d9ec800000000000000000000000000008d
:209ed50000000000318f828000000bc216cc320000009ffa32c00000242e78c31000007929
:209ef500f1bf300000c0020e862004000008d42800000e00000000002000d02a4400002c57
:209f150028700a20000400008258040001c000000000000080f66800000002436f560000df
:0d9f3500000000000000000000000000001f
:209f420000000000809d6bd5040010601fdd16000005191b70502000200069d160000078d1
:209f62008f7ccc00000000159424000000018314002000000000000290005b299080003e1f
:209f82006e4aa54100020003225a000042038000000000019a3229100000066268958000f0
:0d9fa20000000000000000000000000000b2
:209faf0000000000100f43d4000005e3be8c700001831000000000062c6e6af0184000587c
:209fcf000ba3c0000a00023d0d50000000099c2a8000000000000000050e1803c000000021
:209fef000240f1000000d1f0025804000002dd0a50100005009c080000000227ed560000a2
:0da00f000000000000000000000000000044
:20a01c0000000002d801e280000021c62cbc140010080e0000000000202a5ae240000070a8
:20a03c0009ef89800400e2448850200000001fa94000000000000000001b5fbc0000001c87
:20a05c0068ecb043000050e7a25a000001e6b7ef541000099a3ba95080000606e895800019
:0da07c0000000000000000000000000000d7
:20a0890000000000000fc28004000000270f500000000f56730000800401f0cc00000010b3
:20a0a90080000000000007dd055000000d0e1c280040a080000000000709bfa9c040a01ceb
:20a0c90001d0ff09000001008258000000403dde201000000a703e804000142a6f560000bd
:0da0e900000000000000000000000000006a
:20a0f60000000000180fabd5800000079daa04000801985eccc0010c2063fc33020000d8ad
:20a11600100000000000021d8a50000288019f3d4000014000000000098157a85800400017
:20a1360003fcf72a40280085225a000002003ebf04000300011639408000366f6895800048
:0da1560000000000000000000000000000fc
:20a16300000000000000000000000243bdcf000000050a9bb3000000022bc0aa0000001007
:20a18300000000000013c3efa4a01008001b043440400000000000200f09fc294040005497
:20a1a3002430f500000100838048240003c26d0cc00000000afabdc000000001cd56000040
:0da1c300000000000000000000000000008f
:20a1d000000001000180000000000002b4ee260000080b378cc000014c041a55000000804d
:20a1f000c0000000000947deae540010070b7bb450800000000000100819f33d500000800d
:20a2100064dcf500000000b522134000020654e33220000518fb294000001600c8958000ca
:0da230000000000000000000000000000021
:20a23d000000200009ef43d440800042260a000200050fd4330008000077e0f7002005798f
:20a25d0007b33000800242760ff01200010a543980000000000002002b80be2b4408a00c06
:20a27d0000705a01220000070048248002c01eccc00200010cf66800000014284f56000027
:0da29d0000000000000000000000000000b4
:20a2aa000000280070ff628140a003c04cef540680099e1b8cc08a0e067d7edf02283e5123
:20a2ca00c968cc00a000602fe5f082800d9ad3b040800000000002805d8037a9100a408668
:20a2ea00004af540290000072213c1a00202b5c331028008017229100000366d489580002c
:0da30a000000000000000000000000000046
:20a3170000000000000342a8000001403c8f000010000fd403c040008076fc7b0000840046
:20a337009b7284000000278000000000000a16f400000000000000004d80f40140000000b8
:20a357003b69e0004000100020c0440000401f80010400050a9403c4000000014d560200fa
:0da3770000000000000000000000000000d9
:20a38400000000000007fa9500004207b4ee24000100013f3c000000407ccbde000102002f
:20a3a4000d629d01000166c0000000000009dab540000000000000038580d32958202006eb
:20a3c40029eef440000080033b032100000294c58000000018bebc0000001602689580004a
:0da3e400000000000000000000000000006c
:20a3f100000000000001c2808000c0074700f000000b800000000000146c00000000000080
:20a41100f000000000144002096200030f8800000000000000000000000ebe388200014019
:20a431003660a520008208a00258000480062fccc00000051a7e54000000000000000000f6
:0da4510000000000000000000000000000fe
:20a45e000000000018e7f3d4000000072d8f000000090000000000001c200000000280008e
:20a47e0010000000000a0016896400000701000000000e000000000005897ebc1440e0800f
:20a49e00047aa0410001181762580c0801c707d3300400001cfa291000000000000000001c
:0da4be000000000000000000000000000091
:20a4cb000000000001000000000060261eacc000000b8e78280000400240507b000000b921
:20a4eb00e5f7dc00000040020960000003000c344000000000000000000fbfda88100040eb
:20a50b00397005000000008f63300200036367dcc00000000a0000000000000000000000eb
:0da52b000000000000000000000000000023
:20a538000000000018800000000014420da331001007185bbd4020a04c7848de020000d130
:20a55800e37bfc0000026016896e0000180e3fb450800a0000000000078bfb69500000944d
:20a578000368a541000018b538cc000001c665a330000000000000000000000000000000a2
:0da5980000000000000000000000000000b6
:20a5a5000000000010918280000002e26f0d500000008d182a8000010241d0aa00000878b6
:20a5c5008000000000e0000009600000001f0028c0000000000000000008bbf8801000005b
:20a5e50003cfd0000000080b3e9c000001e780055000000080fe5400000000000000000038
:0da605000000000000000000000000000048
:20a612000000000000076bd4000002473fae002000050f93a94000008e320c55000000b922
:20a63200f000000000000016896e0000001e12a8c08000000000000001017ebc10000000a7
:20a6520001cdd50002801805fe85000203c744c55000000398fa2910000000000000000030
:0da6720000000000000000000000000000db
:20a67f000000020000000000000000023f0fa000200f1d33b3000000047a70cf000000f1e9
:20a69f00f000000000000000096200000080d215c0000000000000200000d80140000016ca
:20a6bf000150050000000107429420000267dccd0000000010000000000000000000000005
:0da6df00000000000000000000000000006e
:20a6ec000000000000a0000000040003c5ea0000000f1c37ccc000002032faf302010000c8
:20a70c00a000000000e0001e896c00000700d3e84000000000000010818a36000000001e29
:20a72c000368a540000000adb3d5050003466cfd508000000c0000000000000000000000f5
:0da74c000000000000000000000000000000
:20a7590000000000d909039800000347f505000000008bfe6a40100100340096000200000f
:20a779000903fc000000020209600028001f943e804000800000000000001c000040020490
:20a799002030550000001000428000001023bf0a50000000000000000000000000000000dd
:0da7b9000000000000000000000000000093
:20a7c600000000007889fb0408000002a78f500000071e76a95000008005de9602000078dc
:20a7e6000df0cc0800006654896e0010001b7f2810400040000000030198d38290000034ba
:20a806007d58550000019807aa81000008e03dea0600000000000000000000000000000028
:0da826000000000000000000000000000025
:20a83300000000001003ad90000000266dc5200000201073e04400000403dfcc00000108bb
:20a85300033f300002000202096000000d90f03d40000400000000000100b3b180000144cc
:20a8730042400f0000005107e6142000000436acc000000010d640005000000000000000a6
:0da8930000000000000000000000000000b8
:20a8a0000000000080096f94000001478f9a740000000a1039c000000602fe330002005089
:20a8c0000770cc0004000654896c10038f1a7b2800000800000000000818b7714400802649
:20a8e0006258f000000080af3795000000021d93320000000a3b081800000000000000006a
:0da90000000000000000000000000000004a
:20a90d000000200071050140808001e6e70a0002000080bc33000800003960a011008051e7
:20a92d00ab83fc0080000000096002000f801c154000000000000200000fbf3046080000a7
:20a94d003a4ca700200050fb03e8018200031d0a0082000000fe54000000000000000000e6
:0da96d0000000000000000000000000000dd
:20a97a000000280080813bd502a0034215cf5002800100b28cc08a0000044af54001088052
:20a99a00bbbbdc08a000001c896c02800d8ed3a9400000000000028307801fb1d02a0e16bf
:20a9ba00055aa15028308017bbc100a400c01c8f50028001807a29100000000000000000ad
:0da9da000000000000000000000000000070
:20a9e70000000000f901828004000004070f5000200019bab30000800c64e0aa0080000046
:20aa070001e7fc00000000000960c0000300fc2800000000000000001080f7a14040000251
:20aa2700415b8501000010014168000000468700a000000018043d4000000000000000002d
:0daa47000000000000000000000000000002
:20aa54000000000070e32bd5000028023caa0000002798b74cc000001678caa5600200019d
:20aa74008f27dc000000001c896c000000181ebd4000000000000000a780d33950000c1449
:20aa94002b49e55000008003b3d5400002024fea540000000b1f3d40000000000000000076
:0daab4000000000000000000000000000095
:20aac1000000003d000be548000003c4370a0000000f1000000000200c0160a500000000a7
:20aae1000980140400004002096080000b00000000000000000000000100082580000000d0
:20ab010038000000000070af6730000003e340000000000000000000000000000000000020
:0dab21000000000000000000000000000027
:20ab2e0000000000008fa2d50000014725ef5000000f0a000000004000696aa64200380009
:20ab4e000128b90800c2061e896c000008000000000000000000000008005a259000000003
:20ab6e0000000000003050ffe0cc0400034040000000000000000000000000000000000015
:0dab8e0000000000000000000000000000ba
:20ab9b000000000010000000000000002c0ca00000000b7c28080000003fc998000000f06b
:20abbb0000c3d4000000400209608000000000000000000000000000000008258000007c8f
:20abdb0002d06a08000008e0828c400003e3c10550040000000000000000000000000000e0
:0dabfb00000000000000000000000000004d
:20ac080000000000980000000000006021cc54200000009bbd40000006035e800000000054
:20ac280001f3d40000026016896c000001000000000000000000000001805a25b000000026
:20ac4800035ea543000010037a8c080001e79ce550000000000000000000000000000000c9
:0dac680000000000000000000000000000df
:20ac7500000000000000000000000002160d9000000f0076730000002469e007000000f0ae
:20ac9500f1014004000000000960000b000000000000000000000000000000258000000050
:20acb50022e0ff194085d10f038c000083c01e00f0040000000000000000000000000000dc
:0dacd5000000000000000000000000000072
:20ace2000000004001800000000100e64dec1020068000bf8cc0101005764a0252804001b6
:20ad02008072810005000016896c040400000000000000000000000400005a25b00010065d
:20ad2200054cf72b014200a32a440801000035cf0000040000000000000000000000000039
:0dad42000000000000000000000000000004
:20ad4f0000000000000000000000a007a4dd90004000800000000000003b4f42000002019d
:20ad6f00000280040000000009600000000000000000000000000000000000258000001c14
:20ad8f00615bff0000005007f2280000000000000000000000000000000000000000000078
:0dadaf000000000000000000000000000097
:20adbc00000000000000000000000002a5ea4000400380000000000014055fe20000040085
:20addc00e13a81000000001e896d00000000000000000a000000000000007a25b00000004e
:20adfc002e49f700000001a3bf94000000038000000000000000000000000000000000004f
:0dae1c000000000000000000000000000029
:20ae2900000000080000000000000026750a00000000091c0000000000027c7411400000f4
:20ae49000141400000000202096000200000043440004000000000002d080825800000b48c
:20ae69002b4bff00040001094028000000002d0e6000000000000000000000000000000043
:0dae890000000000000000000000000000bc
:20ae96000000000000000000000001467dcf500000000bde2800000c0060ecbd608038007b
:20aeb6000072818000006054896c0412800072b450a0a0000000000001995225b0000056fd
:20aed6006e58f700003058c5fa95040000001cec1020000000000000000000000000000087
:0daef600000000000000000000000000004f
:20af0300000000000000000000000340250fa000000500d03c4010009e0070a00000000800
:20af23000042800000000202096000000d0b98398000000000000000000808258000000cb5
:20af43002ad05a08000018000000000000001f8c20000000000000000000000000000000af
:0daf630000000000000000000000000000e1
:20af70000000000000000000000000000eca0400000800b2a88080004e68eef50000005199
:20af9000a132814000000654896d00000018d7b0408000000000000080195225b00002009c
:20afb00064fef5600000d000000000000006adfe60000000000000000000000000000000e9
:0dafd0000000000000000000000000000074
:20afdd00000020000000025880800003cc0a000000001adc154008000000c0f501201800c0
:20affd00000000008000000009600639800e1eb400000000000002000000002580080014e9
:20b01d0000000000208000a00000000209c000000000000000000000000000000000000008
:0db03d000000000000000000000000000006
:20b04a00000028000007225900a0000036ef54000807089629400a000003dca0402800011b
:20b06a00a0000000a000001c896c028800001a35400000000000028000007225b00a8020e9
:20b08a0000000000290058100000000402000000000000000000000000000000000000000f
:0db0aa000000000000000000000000000099
:20b0b7000000000001e002581000866207b980001100190000000000242c200a0040020020
:20b0d7008de8b8000000000009602000008e00000000000000000000010002258000a05479
:20b0f700000055000000000f2e9c000000000000000000000000000000000000000000000b
:0db11700000000000000000000000000002b
:20b124000000000000f7225b800003464e9e5000080009000000000020644c0a0000013175
:20b14400a1f060020000001c896e000005010000000000000000000008005825b000403634
:20b16400696e55080008018d66858000000000000000000000000000000000000000000096
:0db1840000000000000000000000000000be
:20b1910000000000100082580100080774dc300000000d182a8040a03c6270a000100000b7
:20b1b10000000000000000000000000000000000000000000000000000000000000000007e
:20b1d100200000000000080000000000000000000000000000000000000000000000000036
:0db1f1000000000000000000000000000051
:20b1fe00000000008187a25b00000407ad843000020500dba81000402476fef50030000029
:20b21e00000000000000000000000000000000000000000000000000000000000000000010
:20b23e0004000000002838000000000000000000000000000000000000000000000000008c
:0db25e0000000000000000000000000000e3
:20b26b00000000001000825800000023770a0000020108bc344040001c6430d10000000138
:20b28b00800000000000000000000000010000000000000000000000000000000000000022
:20b2ab000170a5000000b000000000000000000000000000000000000000000000000000bd
:0db2cb000000000000000000000000000076
:20b2d800000001009805a25b041000401eef5000000981bba05080001674ded142000018c2
:20b2f800d0000000000000000000000008000000000000000000000000000000000000005e
:20b3180003ecf5414000800000000000000000000000000000000000000000000000000030
:0db338000000000000000000000000000008
:20b3450000000000000002580000e1470dc560000020887a68c000002437d05000000071fe
:20b365000000000000000000000000002000000000000000000000000000000000000000a8
:20b385000000000000000000000000000000000000000000000000000000000000000000a8
:0db3a500000000000000000000000000009b
:20b3b200000000400005a25b04010262a5ca54000413993be80000100000e8e70200400019
:20b3d2008000000001000000000000040000000000000000000000000000000000001000c6
:20b3f20000000000000000000000000000000000000000000000000000000000000000003b
:0db41200000000000000000000000000002d
:20b41f000000000000000258000001402cec300400000054280000001774c0a000000000bf
:20b43f000000000000000000000000000000000000000000000000000000000000000000ed
:20b45f000000000000000000000000000000000000000000000000000000000000000000cd
:0db47f0000000000000000000000000000c0
:20b48c00000000000007a25b000003e3ad8d14000000003fbd4000002e646ef50000000037
:20b4ac00000000000000000000000000000000000000000000000000000000000000000080
:20b4cc00380000000000000000000000000000000000000000000000000000000000000028
:0db4ec000000000000000000000000000053
:20b4f9000000000000808258000003e240000000000d805028000000000270a00000040099
:20b5190000000000000000000000000380000000000000000000000000000000000001424c
:20b539000000000000200000000000000000000000000000000000000000000000000000d2
:0db5590000000000000000000000000000e5
:20b56600000000001815225b000001c000000000080b98de3d4800000002cef50000020085
:20b586000000000000c0000000000008000000000000000000000000000000000000009449
:20b5a600000000000000000000000000000000000000000000000000000000000000000085
:0db5c6000000000000000000000000000078
:20b5d3000000000000808258000004041f050010000000043cc00000002030d10030000071
:20b5f3000082584500000000000000000f000000000000000000000000000000000000000a
:20b61300000000000000000000000000000000000000000000000000000000000000000017
:0db63300000000000000000000000000000a
:20b64000000000000195225b0000000685cf5000000380063cc080000004cad14230000017
:20b6600007225900000000000000000308000000000000000000000000000000000000003d
:20b680000000000000000000000000000000000000000000000000000000000000000000aa
:0db6a000000000000000000000000000009d
:20b6ad00000020000000025800800260060f5002000b80123e8008000240c0d30020000062
:20b6cd0000025844000000000000020007000000000000000000000080000000000800002e
:20b6ed0000000000000000a782a880000000000000000000000000000000000000000000ec
:0db70d00000000000000000000000000002f
:20b71a00000028000007225b00a000401fc8102280091a17fdc00a001668fe9102280000b2
:20b73a0007225b01000000000000028008000000000000000000000000000000000a0e00c8
:20b75a000000000000000011fa940000000000000000000000000000000000000000000030
:0db77a0000000000000000000000000000c2
:20b787001000000000000258100003e41505500000898076c8004000002ddc98000000109f
:20b7a70000a2586400000000000000000000100146000000000000000000000000000000cd
:20b7c700000000000000000000000000000000000000000000000000000000000000000062
:0db7e7000000000000000000000000000055
:20b7f400000000000007225b000003c6b68a500000098076795000000061e9e500000080e1
:20b8140003825b4000000000000000000000f2a95000000000000000000000000000000009
:20b834000000000000000000000000000000000000000000000000000000000000000000f4
:0db8540000000000000000000000000000e7
:20b861000000000010008258000000000000000010051f00000000000032dce300000000b8
:20b88100000000000003c000000000000000000000000000000000000000000000000000e4
:20b8a10002f05a0140000000000000000000000000000000000000000000000000000000fa
:0db8c100000000000000000000000000007a
:20b8ce00000000008187a25b000000070000000008098e00000000000e33eff1000000008e
:20b8ee0000000000000000000000000000000000000000000000000000000000000000003a
:20b90e0002dcf5400000000000000000000000000000000000000000000000000000000006
:0db92e00000000000000000000000000000c
:20b93b000000000010008258000000020000000000000a7a7f8000001441efa10000000098
:20b95b00c0000000000000000000000000000000000000000000000000000000000000000c
:20b97b000000000000000000000000000000000000000000000000000000000000000000ac
:0db99b00000000000000000000000000009f
:20b9a800000000009805a25b000000e04000000000059b72fd440000063afcf00000000046
:20b9c80010000000000000000000000000000000000000000000000000000000000000004f
:20b9e80000000000000000000000000000000000000000000000000000000000000000003f
:0dba08000000000000000000000000000031
:20ba1500000000000000025800040043860550000005000834400000002400000000800070
:20ba35000000000000000000000000000000000000000000000000000000000000000000f1
:20ba550034000000000000000000000000000000000000000000000000000000000000009d
:0dba750000000000000000000000000000c4
:20ba8200000000000005a25b000a00003fca500000080a57b45080001e7800000001380083
:20baa200000000000000000000000000000000000000000000000000000000000000000084
:20bac2006400000000000000000000000000000000000800000000000000000000000000f8
:0dbae2000000000000000000000000000057
:20baef0000000000000002580000000000000000000090fbfa0000000041e821000000000e
:20bb0f0009c15400000000010a0010000000000000000000000000000000000000000000dd
:20bb2f003400000000000000000000000000000000000000000000000000000000000000c2
:0dbb4f0000000000000000000000000000e9
:20bb5c00000000000007a25b000000068000000000050c33790000000061eb426180000013
:20bb7c0009b968400000001e8a041000000000000000000000000000000000000000000083
:20bb9c00040000000000000000000000000000000000000000000000000000000000000085
:0dbbbc00000000000000000000000000007c
:20bbc900000000000080825800000802c00000000000007bc00000000001f0a00004000068
:20bbe90000000000000000000000000000000000000000000000000000000000000000003c
:20bc090000000000000000000000000000000000000000000000000000000000000000001b
:0dbc2900000000000000000000000000000e
:20bc3600000000001815225b00001400000000000005809bc08800000000fef500040000d1
:20bc56000000000000000000000000000000000000000000000000000000000000000000ce
:20bc76000000000000000000000000000000000000000000000000000000000000000000ae
:0dbc960000000000000000000000000000a1
:20bca300000000000080825800080003c30d10000005005fd90000000401e8000000000012
:20bcc300000000000003c3c0000000000000000000000000000000000000000000000000db
:20bce300000000000000000000000000000000000000000000000000000000000000000041
:0dbd03000000000000000000000000000033
:20bd1000000000000195225b000010004ced14200000189f7940000c2000d902000000000c
:20bd30000000000000000000000000000000000000000000000000000000000000000000f3
:20bd50000000000000000000000000000000000000000000000000000000000000000000d3
:0dbd700000000000000000000000000000c6
:20bd7d0000002000000002580080002035be80020000cd1814c008000403c0000800000087
:20bd9d00a00000008000000000000000000000000000000000000000000000000008a100bd
:20bdbd00000000000000000000000000000000000000000000000000000000000000000066
:0dbddd000000000000000000000000000059
:20bdea00000028000007225b00a001403dce400280018f13bdd08a0034026e0142800001bd
:20be0a00b0000000a00000000000000000000000000000000000000000000000000a4080fe
:20be2a000000000000000000000000000000000000000000000000000000000000000000f8
:0dbe4a0000000000000000000000000000eb
:20be57000000020100000258100000000000000000000d9b10000000000020f50000000091
:20be7700000000000003c00600a0040000000000000000000000000000000000000000003e
:20be970000000000000000000000000000000000000000000000000000000000000000008b
:0dbeb700000000000000000000000000007e
:20bec400000000000007225b000000000000000000018b96604000000000d8f500800000cb
:20bee4000000000000020314aa56040000000000000000000000000280000000000000009f
:20bf040000000000000000000000000000000000000000000000000000000000000000001d
:0dbf24000000000000000000000000000010
:20bf3100000000001000825800000004000000000000000000000000002fc94200000000c8
:20bf51000000000000000000000000000000000000000000000000000000000000000000d0
:20bf71000000000000000000000000000000000000000000000000000000000000000000b0
:0dbf910000000000000000000000000000a3
:20bf9e00000000008187a25b0000014780000000038000000000000000020181400000006f
:20bfbe00000000000000000000000000000000000000000000000000000000000000000063
:20bfde00000000000000000000000000000000000000000000000000000000000000000043
:0dbffe000000000000000000000000000036
:20c00b00000000001000825800000000000000000000000428000000000010a0000000004f
:20c02b000000000000000000000000000000000000000000000000000000000000000000f5
:20c04b000000000000000000000000000000000000000000000000000000000000000000d5
:0dc06b0000000000000000000000000000c8
:20c07800000000009805a25b000000000000000000051c16a810000000717ea04000000050
:20c09800000000000000000000000000000000000000000000000000000000000000000088
:20c0b800000000000000000000000000000000000000000000000000000000000000000068
:0dc0d800000000000000000000000000005b
:20c0e5000000000000000258000000000000000000000000000000000220f0f000000000df
:20c1050000000000000000000000000000000000000000000000000000000000000000001a
:20c125000000000000000000000000000000000000000000000000000000000000000000fa
:0dc1450000000000000000000000000000ed
:20c15200000000000005a25b000000000000000000058000000000001c06fae00200000048
:20c172000000000000000000000000000000000000000000000000000000000000000000ad
:20c1920000000000000000000000000000000000000000000000000000000000000000008d
:0dc1b2000000000000000000000000000080
:20c1bf00000000000000025800000000000000000005000000000000000249f500000000c1
:20c1df00000000000000000000000000000000000000000000000000000000000000000040
:20c1ff00000000000000000000000000000000000000000000000000000000000000000020
:0dc21f000000000000000000000000000012
:20c22c00000000000007a25b0000000000000000000800000000000006004de500000000ae
:20c24c000000000000000000000000000000000000000000000000000000000000000000d2
:20c26c000000000000000000000000000000000000000000000000000000000000000000b2
:0dc28c0000000000000000000000000000a5
:20c29900000000000080825800000000010f500000008bd0140000001403c0000000000085
:20c2b900000000000010000000000000000000000000000000000000000000000000000055
:20c2d900000000000000000000000000000000000000000000000000000000000000000045
:0dc2f9000000000000000000000000000038
:20c30600000000001815225b0000000004af50040001808328100000006240a540000000a3
:20c326000000000000080000000000000000000000000000000000000000000000000000ef
:20c346000000000000000000000000000000000000000000000000000000000000000000d7
:0dc3660000000000000000000000000000ca
:20c37300000000000080825800000006c00000000000000000000000022830a00000000090
:20c3930000000000000000000000000000000000000000000000000000000000000000008a
:20c3b30000000000000000000000000000000000000000000000000000000000000000006a
:0dc3d300000000000000000000000000005d
:20c3e000000000000195225b0000000200000000000000000000000014695ea0400000006d
:20c4000000000000000000000000000000000000000000000000000000000000000000001c
:20c420000000000000000000000000000000000000000000000000000000000000000000fc
:0dc4400000000000000000000000000000ef
:20c44d0000002000000002580000000035055002000000d014000800002bd0500000000092
:20c46d000000000000000000000000000000000000000000000000000000000000000000af
:20c48d0000000000000000000000000000000000000000000000000000000000000000008f
:0dc4ad000000000000000000000000000082
:20c4ba00000028000007225b000000001fea500680000086a8100a00002e0ea04000000073
:20c4da00000000000000000000000000000000000000000000000000000000000000000042
:20c4fa00000000000000000000000000000000000000000000000000000000000000000022
:0dc51a000000000000000000000000000014
:20c527000000000000000258080001c0000000000000807bc000000014236a56040000001b
:20c547000000000000000000000000000000000000000000000000000000000000000000d4
:20c567000000000000000000000000000000000000000000000000000000000000000000b4
:0dc5870000000000000000000000000000a7
:20c59400000000000007225b00000000000000000001981700800000166c48950000000074
:20c5b400000000000000000000000000000000000000000000000000000000000000000067
:20c5d400000000000000000000000000000000000000000000000000000000000000000047
:0dc5f400000000000000000000000000003a
:20c60100000000000000000000000000000000000000000000000000002e6f560000000026
:20c621000000000000000000000000000000000000000000000000000000000000000000f9
:20c641000000000000000000000000000000000000000000000000000000000000000000d9
:0dc6610000000000000000000000000000cc
:20c66e0000000000000000000000000000000000000000000000000000036895800000002c
:20c68e0000000000000000000000000000000000000000000000000000000000000000008c
:20c6ae0000000000000000000000000000000000000000000000000000000000000000006c
:0dc6ce00000000000000000000000000005f
:20c6db000000000000000000000000000000000000000000000000003e38cd5601000000a5
:20c6fb0000000000000000000000000000000000000000000000000000000000000000001f
:20c71b000000000000000000000000000000000000000000000000000000000000000000fe
:0dc73b0000000000000000000000000000f1
:20c748000000000000000000000000000000000000000000000000001401c89580000000df
:20c768000000000000000000000000000000000000000000000000000000000000000000b1
:20c78800000000000000000000000000000000000000000000000000000000000000000091
:0dc7a8000000000000000000000000000084
:20c7b500000000000000000000000000000000000000000000000000002ccf560000000013
:20c7d500000000000000000000000000000000000000000000000000000000000000000044
:20c7f500000000000000000000000000000000000000000000000000000000000000000024
:0dc815000000000000000000000000000016
:20c822000000000000000000000000000000000000000000000000000001c8958000000018
:20c842000000000000000000000000000000000000000000000000000000000000000000d6
:20c862000000000000000000000000000000000000000000000000000000000000000000b6
:0dc8820000000000000000000000000000a9
:20c88f000000000000000000000000000000000000000000000000003e3a6d56000000004e
:20c8af00000000000000000000000000000000000000000000000000000000000000000069
:20c8cf00000000000000000000000000000000000000000000000000000000000000000049
:0dc8ef00000000000000000000000000003c
:20c8fc00000000000000000000000000000000000000000000000000140368958000000088
:20c91c000000000000000000000000000000000000000000000000000000000000000000fb
:20c93c000000000000000000000000000000000000000000000000000000000000000000db
:0dc95c0000000000000000000000000000ce
:20c96900000000000000000000000000000000000000000000000000006c4f56010000009c
:20c9890000000000000000000000000000000000000000000000000000000000000000008e
:20c9a90000000000000000000000000000000000000000000000000000000000000000006e
:0dc9c9000000000000000000000000000061
:20c9d6000000000000000000000000000000000000000000000000000029489580000000bb
:20c9f600000000000000000000000000000000000000000000000000000000000000000021
:20ca1600000000000000000000000000000000000000000000000000000000000000000000
:0dca360000000000000000000000000000f3
:20ca4300000000000000000000000000000000000000000000000000026e6d5600000000a0
:20ca63000000000000000000000000000000000000000000000000000000000000000000b3
:20ca8300000000000000000000000000000000000000000000000000000000000000000093
:0dcaa3000000000000000000000000000086
:20cab0000000000000000000000000000000000000000000000000001429489580000000cc
:20cad000000000000000000000000000000000000000000000000000000000000000000046
:20caf000000000000000000000000000000000000000000000000000000000000000000026
:0dcb10000000000000000000000000000018
:20cb1d00000000000000000000000000000000000000000000000000006fef560000000044
:20cb3d000000000002000000000000000000000000000000000000000000000000000000d6
:20cb5d000000000000000000000000000000000000000000000000000000000000000000b8
:0dcb7d0000000000000000000000000000ab
:20cb8a00000000000000000000000000000000000000000000000000002ae8958000000064
:20cbaa00000000000400000000000000000000000000000000000000000000000000000067
:20cbca0000000000000000000000000000000000000000000000000000000000000000004b
:0dcbea00000000000000000000000000003e
:20cbf700000000000000000000000000000000000000000000000000026f6d5602000000e8
:20cc17000000000000000000000000000000000000000000000000000000000000000000fd
:20cc37000000000000000000000000000000000000000000000000000000000000000000dd
:0dcc570000000000000000000000000000d0
:20cc6400000000000000000000000000000000000000000000000000142848958000000017
:20cc8400000000000000000000000000000000000000000000000000000000000000000090
:20cca400000000000000000000000000000000000000000000000000000000000000000070
:0dccc4000000000000000000000000000063
:20ccd100000000000000000000000000000000000000000000000000000000000000000043
:20d2c700100000000000000000000000000000000000000000000000000000000000000037
:20d2e700000000000000000000000000000000000000000000000000000000000000000027
:20d30700000000000000000000000000000000000000000000000000000000000000000006
:0dd3270000000000000000000000000000f9
:20d334000000000000000000000000000000000000000000000000000000000000000000d9
:20e21b000028000000000000000000000000000000000000000000000000000000000000bb
:20e23b000000000000000000000000000000000000000000000000000000000000000000c3
:20e25b000000000000000000000000000000000000000000000000000000000000000000a3
:0de27b000000000000000000000000000096
:20e28800000400000000000000000000000000000000000000000000000000000000000072
:20e2a800000000000000000000000000000000000000000000000000000000000000000056
:20e2c800000000000000000000000000000000000000000000000000000000000000000036
:0de2e8000000000000000000000000000029
:20e2f500000000000000000000000000000000000000000000000000000000000000000009
:20e315000000000000000000000000000000000000000000000000000000000000000000e8
:20e335000000000000000000000000000000000000000000000000000000000000000000c8
:0de3550000000000000000000000000000bb
:20e3620000000000000000000000000000000000000000000000000000000000000000009b
:20e3820000000000000000000000000000000000000000000000000000000000000000007b
:20e3a20000000000000000000000000000000000000000000000000000000000000000005b
:0de3c200000000000000000000000000004e
:20e3cf0000000000000000000000000000000000000000000000000000000000000000002e
:20e3ef0000000000000000000000000000000000000000000000000000000000000000000e
:20e40f000000000000000000000000000000000000000000000000000000000000000000ed
:0de42f0000000000000000000000000000e0
:20e43c000000000000000000000000000000000000000000000000000000000000000000c0
:20e45c000000000000000000000000000000000000000000000000000000000000000000a0
:20e47c00000000000000000000000000000000000000000000000000000000000000000080
:0de49c000000000000000000000000000073
:20e4a900000000000000000000000000000000000000000000000000000000000000000053
:20e4c900000000000000000000000000000000000000000000000000000000000000000033
:20e4e900000000000000000000000000000000000000000000000000000000000000000013
:0de509000000000000000000000000000005
:20e516000000000000000000000000000000000000000000000000000000000000000000e5
:20e536000000000000000000000000000000000000000000000000000000000000000000c5
:20e556000000000000000000000000000000000000000000000000000000000000000000a5
:0de576000000000000000000000000000098
:20e58300300000000000000000000000000000000000000000000000000000000000000048
:20e5a300000000000000000000000000000000000000000000000000000000000000000058
:20e5c300000000000000000000000000000000000000000000000000000000000000000038
:0de5e300000000000000000000000000002b
:20e5f0002000000000000000000000000000000000000000000000000000000000000000eb
:20e610000000000000000000000000000000000000000000000000000000000000000000ea
:20e630000000000000000000000000000000000000000000000000000000000000000000ca
:0de6500000000000000000000000000000bd
:20e65d0000000000000000000000000000000000000000000000000000000000000000009d
:20e67d0000000000000000000000000000000000000000000000000000000000000000007d
:20e69d0000000000000000000000000000000000000000000000000000000000000000005d
:0de6bd000000000000000000000000000050
:20e6ca00000000000000000000000000000000000000000000000000000000000000000030
:20e6ea00000000000000000000000000000000000000000000000000000000000000000010
:20e70a000000000000000000000000000000000000000000000000000000000000000000ef
:0de72a0000000000000000000000000000e2
:20e737000000000000000000000000000000000000000000000000000000000000000000c2
:20e757000000000000000000000000000000000000000000000000000000000000000000a2
:20e77700000000000000000000000000000000000000000000000000000000000000000082
:0de797000000000000000000000000000075
:20e7a400000000000000000000000000000000000000000000000000000000000000000055
:20e7c400000000000000000000000000000000000000000000000000000000000000000035
:20e7e400000000000000000000000000000000000000000000000000000000000000000015
:0de804000000000000000000000000000007
:02e81100000005
:02e813001102f0
:02e815000101ff
:20e817000000000000000000000000000000000000000000000000000000000000000000e1
:20e837000000000000000000000000000000000000000000000000000000000000000000c1
:20e857000000000000000000000000000000000000000000000000000000000000000000a1
:0de877000000000000000000000000000094
:020000040001f9
:025be7000000bc
:025be9001103a6
:025beb000101b6
:205bed00000000000000000000000000000000000000000000000000000000000000000098
:205c0d00000000000000000000000000000000000000000000000000000000000000000077
:205c2d00000000000000000000000000000000000000000000000000000000000000000057
:0d5c4d00000000000000000000000000004a
:02cfbd00000072
:03cfbf0062007f8e
:03cfc2007200807a
:02cfc500110059
:03cfc700820000e5
:02cfca00010361
:10cfcc000000000000000000000000000000000055
:10cfdc000000000000000000000000000000000045
:10cfec000000000000000000000000000000000035
:10cffc000000000000000000000000000000000025
:02d7cc0000005b
:03d7ce0082008056
:02d7d100010352
:10d7d3000000000000000000000000000000000046
:10d7e3000000000000000000000000000000000036
:10d7f3000000000000000000000000000000000026
:10d803000000000000000000000000000000000015
:02dfd30000004c
:02dfd500110138
:03dfd700820000c5
:02dfda00010341
:10dfdc000000000000000000000000000000000035
:10dfec000000000000000000000000000000000025
:10dffc000000000000000000000000000000000015
:10e00c000000000000000000000000000000000004
:02e7dc0000003b
:03e7de0082008036
:02e7e100010332
:10e7e3000000000000000000000000000000000026
:10e7f3000000000000000000000000000000000016
:10e803000000000000000000000000000000000005
:10e8130000000000000000000000000000000000f5
:02efe30000002c
:02efe500110217
:03efe700820000a5
:02efea00010321
:10efec000000000000000000000000000000000015
:10effc000000000000000000000000000000000005
:10f00c0000000000000000000000000000000000f4
:10f01c0000000000000000000000000000000000e4
:02f7ec0000001b
:03f7ee0082008016
:02f7f100010312
:10f7f3000000000000000000000000000000000006
:10f8030000000000000000000000000000000000f5
:10f8130000000000000000000000000000000000e5
:10f8230000000000000000000000000000000000d5
:02fff30000000c
:02fff5001103f6
:03fff70082000085
:02fffa00010301
:04fffc000000000001
:020000040002f8
:0c000000000000000000000000000000f4
:10000c0000000000000000000000000000000000e4
:10001c0000000000000000000000000000000000d4
:10002c0000000000000000000000000000000000c4
:0207fc000000fb
:0307fe00820080f6
:020801000103f1
:1008030000000000000000000000000000000000e5
:1008130000000000000000000000000000000000d5
:1008230000000000000000000000000000000000c5
:1008330000000000000000000000000000000000b5
:021003000000eb
:0110050022c8
:02100600ab91ac
:021008000106df
:00000001FF
