:02000000ff00ff
:080002004c6174746963650030
:17000a00694345637562653220323031372e30382e32373934300069
:15002100506172743a2069434534304c50384b2d434d3831003f
:1b003600446174653a2041756720323620323031392030313a31373a3338007e
:0200510000ffae
:040053007eaa997e6a
:02005700510056
:0200590001059f
:03005b00920020f0
:03005e00620367d3
:0300610072011019
:0300640082000017
:02006700110086
:02006900010193
:20006b00000000000000000000000000000000000000000000000000000000000000000075
:20008b00000000000000000000000000000000000000000000000000000000000000000055
:2000ab00000000000000000000000000000000000000000000000000000000000000000035
:0d00cb000000000000000000000000000028
:2041fd0000000000000000000001000000000000040000000000001000000000000040004d
:20421d00000000000100000000000004000000000000000000000004000000000000100068
:20423d00000000000040000000000000000000000000000000000000000000000000000021
:0d425d000000000000000000000000000054
:20426a00000000000000000000000000000000000000000000000000000000000000000034
:20428a00000000000000000000000000000000000000000000000000000000000000000014
:2042aa000000000000000000000000000000000000000000000000000000000000000000f4
:2060c5000000000000140000000000000000000000000000000000000000000000000000a7
:2060e50000000000000000000000000000000000000000000000000000000000000000009b
:0d610500000000000000000000000000008d
:2061120000000000000000000000000000000000000000000000000000000000000000006d
:20613200000000000008000000000000000000000000000000000000000000000000000045
:2061520000000000000000000000000000000000000000000000000000000000000000002d
:0d6172000000000000000000000000000020
:20617f000000000000000000000000000000000040000000000000000000000000000000c0
:20619f000000000000000000000000000000000000000000000000000000000000000000e0
:2061bf000000000000000000000000000000000000000000000000000000000000000000c0
:0d61df0000000000000000000000000000b3
:2061ec00000000000000000000000000000000000000000000000000000000000000000093
:20620c00000000000000000000000000000000000000000000000000000000000000000072
:20622c00000000000000000000000000000000000000000000000000000000000000000052
:0d624c000000000000000000000000000045
:20625900000000000000000000000000000000000000000000000000000000000000000025
:20627900000000000000000000000000000000000000000000000000000000000000000005
:206299000000000000000000000000000000000000000000000000000000000000000000e5
:0d62b90000000000000000000000000000d8
:2062c6000000000000000000000000000000000000000000000000000000000000000000b8
:2062e600000000000000000000000000000000000000000000000000000000000000000098
:20630600000000000000000000000000000000000000000000000000000000000000000077
:0d632600000000000000000000000000006a
:2063330000000000000000000000000000000000000000000000000000000000000000004a
:2063530000000000000000000000000000000000000000000000000000000000000000002a
:2063730000000000000000000000000000000000000000000000000000000000000000000a
:0d63930000000000000000000000000000fd
:2063a0000000000000000000000000000000000000000000000000000000000000000000dd
:2063c0000000000000000000000000000000000000000000000000000000000000000000bd
:2063e00000000000000000000000000000000000000000000000000000000000000000009d
:0d640000000000000000000000000000008f
:20640d0000000000000000000000000000000000000000000000000000000000000000006f
:20642d000000000002000000000000000000000000000000000000000000000000000080cd
:20644d0000000000000000000000000000000000000000000000000000000000000000002f
:0d646d000000000000000000000000000022
:20647a00000000000000000000000000000000000000000000000000000000000000000002
:20649a000000000000000000000000000000000000000000000000000000000000000140a1
:2064ba000000000000000000000000000000000000000000000000000000000000000000c2
:0d64da0000000000000000000000000000b5
:2064e700000000000000000000000000000000000000000000000000000000000000000095
:20650700000000000000000000000000000000000000000000000000000000000000000074
:20652700000000000000000000000000000000000000000000000000000000000000000054
:0d6547000000000000000000000000000047
:206554000000000000000000000000000000000000004000000000000000000000000000e7
:20657400000000000000000000000000000000000000000000000000000000000000000007
:206594000000000000000000000000000000000000000000000000000000000000000000e7
:0d65b40000000000000000000000000000da
:2065c1000000000000000000000000000000000000000000000000000000000000000000ba
:2065e10000000000000000000000000000000000000000000000000000000000000000009a
:20660100000000000000000000000000000000000000000000000000000000000000000079
:0d662100000000000000000000000000006c
:20662e0000000000000000000000000000000000000000000000000000000000000000004c
:20664e0000000000000000000000000000000000000000000000000000000000000000002c
:20666e0000000000000000000000000000000000000000000000000000000000000000000c
:0d668e0000000000000000000000000000ff
:20669b0000000000000000000000000000000000000000000000000000000000000000805f
:2066bb00052bd5000003e006af540000000e000000000000000000000000000000000000c0
:2066db0030000000000000000000000000000000000000000000000000000000000000006f
:0d66fb000000000000000000000000000092
:2067080000000000000000000000000000000000000000000000000000000000000000d0a1
:2067280001828020000140340a0110000b1000000000000000000000000000000000000083
:20674800000000000000000000000000000000000000000000000000000000000000000031
:0d6768000000000000000000000000000024
:20677500000000000000000000000000000000000000000000000a000000000000280000d2
:2067950000000000a001670000000280081a9ae0000000000000028008000000000a00002a
:2067b500000000002c00000000000000000000000000000000000000000000000000000098
:0d67d50000000000000000000000000000b7
:2067e20000000000000000000000000000000000000000000000080000000000002000006f
:206802000000000080002400000002000100970000000000000002000b0000000008002cf7
:20682200000000002000000000000000000000000000000000000000000000000000000036
:0d6842000000000000000000000000000049
:20684f00000000000000000000040000000000000000000000000000200000000004008081
:20686f00000000000002069d8a0500000008000000000000000000000018000000000000b5
:20688f00600000000000018000000000000000000000000000000000000000000000000008
:0d68af0000000000000000000000000000dc
:2068bc000000000000000000000000000000000000000000000000001c0000000000001090
:2068dc0090000000000044370f50040000100000000000000000000000000000000000001e
:2068fc0000000000000000000000000000000000000000000000000000000000000000007c
:0d691c00000000000000000000000000006e
:206929000000000000000000000000000000000000000000000000000060000000000000ee
:206949000000000000000664e800002008000000000000000000000040001abd500000004d
:20696900006af5400000000d3a814000000000000000000000000000000000000000000067
:0d6989000000000000000000000000000001
:206996000000000000000000000000000000000000000000000000000000000000000000e1
:2069b6000000000000000235800000100d00000000000000000000000000f42800100000c1
:2069d6000250a01100003005c3d400000000000000000000000000000000000000000000d2
:0d69f6000000000000000000000000000094
:206a030000000000000000000000000000000000000000000000000000380000000000003b
:206a23000000000000000000000000000000da281800000000000000000000000000000039
:206a4300000000000000000000000000000000000000000000000000000000000000000033
:0d6a63000000000000000000000000000026
:206a700000000000000000000000000000000000000000000000000024640000000000007e
:206a90000000000000000000000000000000143e8000000000000000000000000000000014
:206ab0000000000000000000000000000000000000000000000000000000000000000000c6
:0d6ad00000000000000000000000000000b9
:206add00000000000000000000000000000000000000000000000000000000000000000099
:206afd0000000000001400000000000001809069500000000000000000000000000000009b
:206b1d00000000000000000000000000000000000000000000000000000000000000000058
:0d6b3d00000000000000000000000000004b
:206b4a0000000000000000000000000000000000000000000000000000000000000000002b
:206b6a00000000000008000000000000000032a640100000000000000000000000000000db
:206b8a000000000000000000000000000000000000000000000000000000000000000000eb
:0d6baa0000000000000000000000000000de
:206bb7000000000000000000000000000000000000000000000000000001eaa04080000073
:206bd700000000000000025faf540000000000000000000000000000000100000000000039
:206bf70000000000000000c0000000000000000000000000000000000000000000000000be
:0d6c17000000000000000000000000000070
:206c24000000000000000000000000000000000000000000000000002402e0f50100000054
:206c440000000000000002350a008000000000000000000000000000000d00000000000062
:206c6400000000000000000000000000000000000000000000000000000000000000000010
:0d6c84000000000000000000000000000003
:206c91000000000000000000000000000000000000000000000000000004dae240000000e3
:206cb1000000000008020035af540000004000000000000000000000000000000000400001
:206cd1000000000000000000000000000000000000000000000000000000000000000000a3
:0d6cf1000000000000000000000000000096
:206cfe000000000000000000000000000000000000000000000000000021ddf00140000047
:206d1e000000000004014037050004000000000000000000000000000000000000002000b0
:206d3e00000000000000000000000000000000000000000000000000000000000000000035
:0d6d5e000000000000000000000000000028
:206d6b000000000000000000000000000000000000001e00000000000404000000000000e2
:206d8b00000000000004063cae2400010500de600000000000000000000a00000000000082
:206dab002000000000000000000000000000000000000000000000000000000000000000a8
:0d6dcb0000000000000000000000000000bb
:206dd800000000000000000000000000000000000000000000000000022800000000000071
:206df800000000000000c0148f00040000007fc0000000000000000b0000000000000000ca
:206e180040000000000000000000000000000000000000000000000000000000000000001a
:0d6e3800000000000000000000000000004d
:206e4500000000000000000000a0000000000002a8100053bd540a00042d4ef56028010068
:206e65001bbbd502a016600000000280000e5ba000800000000002800000dbbd500a0000cb
:206e85000000000000000000000000040000000000000000000000000000000000000000e9
:0d6ea50000000000000000000000000000e0
:206eb20000000000000000000080000000000002002f097028000800027cc0a000200290d6
:206ed200fb02800080086000000002000f001c0000000000000002020000b0280408000026
:206ef20000000000000800000000000a00000000000000000000000000000000000000006e
:0d6f12000000000000000000000000000072
:206f1f000000000000000000000000060000000001079833b89200021c68000000000200a7
:206f3f00073f890000020674ea0400000008f32810000000000000000018000000000000ae
:206f5f00000000000000000000000000000000000000000000000000000000000000000012
:0d6f7f000000000000000000000000000005
:206f8c0000000000000000000000000000000000000d80fefc00000000000000000004005a
:206fac000f63c0240000422f0f511000001c383d44000000000000000000000000000000b9
:206fcc000000000000000000000000000000000000000000000000000000000000000000a5
:0d6fec000000000000000000000000000098
:206ff90000000000000000000000000034ca04000180005328100000006458f000000110ad
:20701900000000000000e01dca540000191b1efdc0000000000000100f9882ec5400003e76
:2070390004000000008400000000000000000000000010000000000000000000000000009f
:0d705900000000000000000000000000002a
:207066000000000000000000000000002f0f5010000f00783d4000000020700f01000208be
:20708600000000000001e0250aa000002f8ad37fc0000000000000080140575c84000006e9
:2070a60038000000000000000000000000000000000028000000000000000000000000006a
:0d70c60000000000000000000000000000bd
:2070d3000000000000000000000000004000000000001c00000000001c0400000000000021
:2070f3000bff05000000003cfd1410220780ff28180004000000000000003ebd58000000d2
:20711300017ea04040000000000000000000000000000000000000000000000000000000bd
:0d713300000000000000000000000000004f
:207140000000000000000000000004034000000000071000000000000028000000000000a9
:2071600005731c00000000158c301000008e303d4800000000000000100078140000001c9f
:2071800000d0f510000000000000000000000000000000000000000000000000000000001a
:0d71a00000000000000000000000000000e2
:2071ad000000000000000000000000070000000000001abf7940000000016d33200100fc6b
:2071cd00cfe281800000602fca540080071c3fbd5800000000000028004c000000000000d8
:2071ed00000000000000000000000000000000000000000000000000000000000000000082
:0d720d000000000000000000000000000074
:20721a0000000000000000000000c0040000000000010ff6a600000e000079cc0102001975
:20723a000b43d4400801c38d0aa004000980f014000000000000001000100000000000001e
:20725a000000000000200000000000000000000000000000000000000000000000000000f4
:0d727a000000000000000000000000000007
:207287000000000000000000000000000000000000019b97304080000600daf57000001867
:2072a7009000000000a14027ef540000001976bdc000000000000000018017bd480000043f
:2072c700037f330000000000000000000000000000000000000000000000000000000000f2
:0d72e700000000000000000000000000009a
:2072f400000000000000000000000000000000000009181c39804000000350500000001091
:2073140080000000000162ed0a0200001018baffc0000000000000000000083d4000000255
:2073340001efcc00000000000000000000000000000000000000000000000000000000007d
:0d735400000000000000000000000000002c
:207361000000000000000000000000000000000008000b1fed4000000403fbe04100001872
:20738100100000000a00007cb80000002998bfbd5040008000000000080efebd5000402cc4
:2073a1003dda3303000000000000000000000000000000000000000000000000000000007f
:0d73c10000000000000000000000000000bf
:2073ce000000000000000000000000000000000000000d5e98800000003fd8f8000000000d
:2073ee00c00000000400020da00000004100941400000100000000000500bc280210281ce3
:20740e007e40cc0000000000000000000000000000000000000000000000000000000000d4
:0d742e000000000000000000000000000051
:02743b0000004f
:02743d0011013b
:02743f00010149
:207441000000000000000000000000000000000000000000000000000580000000020000a4
:2074610000000000000000000000000000000000000000000000000000000000000000000b
:207481000000000000000000000000000000000000000000000000000000000000000000eb
:0d74a10000000000000000000000000000de
:2074ae000000000000000000000000000000000000000000000000000000000000000000be
:2074ce0000000000000000000000000000000000000000000000000000000000000000009e
:2074ee0000000000000000000000000000000000000000000000000000000000000000007e
:0d750e000000000000000000000000000070
:20751b0000000000000000000000000000000000000000000000000000000000000100004f
:20753b00000000000000000000000000000000000000000000000000000000000000000030
:20755b00000000000000000000000000000000000000000000000000000000000000000010
:0d757b000000000000000000000000000003
:207588000000000000000000000000000000000000000000000000000000000000000000e3
:2075a8000008000000000000000000000000000000000000000000000000000000000000bb
:2075c8000000000000000000000000000000000000000000000000000000000000000000a3
:0d75e8000000000000000000000000000096
:2075f500000000000000000000000000000000000000000000000000000000000002000074
:20761500000400000000000000000000000000000000000000000000000000000000000051
:20763500000000000000000000000000000000000000000000000000000000000000000035
:0d7655000000000000000000000000000028
:20766200000000000000000000000000000000000000000000000000000000000000000008
:20768200000c000000000000000000000000000000000000000000000000000000000000dc
:2076a2000000000000000000000000000000000000000000000000000000000000000000c8
:0d76c20000000000000000000000000000bb
:2076cf0000000000000000000004000000240000000000000000000009000000000000006a
:2076ef0000000000000000000000000000000000000000000000000000000000000000007b
:20770f0000000000000000000000000000000000000000000000000000000000000000005a
:0d772f00000000000000000000000000004d
:20773c00000000000000000000000000002000000000000000000000080000000000000005
:20775c0000000000000000000000000000000000000000000000000000000000000000000d
:20777c000000000000000000000000000000000000000000000000000000000000000000ed
:0d779c0000000000000000000000000000e0
:2077a900000000000000000000000000100000000000000000000000000000000000001e92
:2077c900000000000000002000000000000000000000000000000000000000000000000080
:2077e900000000000000000000000000000000000000000000000000000000000000000080
:0d7809000000000000000000000000000072
:20781600000000000000000000000000000000000000000000000000000000000000000250
:20783600000000000000000000000000000000000000000000000000000000000000000032
:20785600000000000000000000000000000000000000000000000000000000000000000012
:0d7876000000000000000000000000000005
:207883000000000000000000000000000000000000000000000000000000070000000000de
:2078a3000000000000000000000000000000000000000000000000000000000000000000c5
:2078c3000000000000000000000000000000000000000000000000000000000000000000a5
:0d78e3000000000000000000000000000098
:2078f000000000000000000000000000000000000000000000000040000007000000000031
:2079100000000000080000000000000000000000000000000000000000000000000000004f
:20793000000000000000000000000000000000000000000000000000000000000000000037
:0d795000000000000000000000000000002a
:20795d0000000000000000000000000000000000000000000000000000000000000000000a
:20797d000000000000000000000000000000000000000000000000000000000000000000ea
:20799d000000000000000000000000000000000000000000000000000000000000000000ca
:0d79bd0000000000000000000000000000bd
:2079ca0000000000000000000000000000000000000000000000004000000000000000005d
:2079ea00000000000400000000000000000000000000000000000000000000000000000079
:207a0a0000000000000000000000000000000000000000000000000000000000000000005c
:0d7a2a00000000000000000000000000004f
:207a370000000000000000000000000000000000000000000000000000000000000000002f
:207a570004000000000000000000000000000000000000000000000000000000000000000b
:207a77000000000000000000000000000000000000000000000000000000000000000000ef
:0d7a970000000000000000000000000000e2
:207aa400000000000000000000000000000000000000000000000080000000000000000042
:207ac40000000000080000000000000000000000000000000000000000000000000000009a
:207ae400000000000000000000000000000000000000000000000000000000000000000082
:0d7b04000000000000000000000000000074
:207b1100000000000000000000000000000000000000000000000000000000000000300024
:207b3100000000000000000000000000000000000000000000000000000000000000000034
:207b5100000000000000000000000000000000000000000000000000000000000000000014
:0d7b71000000000000000000000000000007
:207b7e000000000000000000000000000000000000000000000000000000000000000000e7
:207b9e00000000000000000000000000000000000000000000000000800000000000000047
:207bbe000000000000000000000000000000000000000000000000000000000000000000a7
:0d7bde00000000000000000000000000009a
:207beb0000000000000000000000000000000000000000000000000000000000000000007a
:207c0b00000000000000000000000000000000000000000000000000000000000000000059
:207c2b00000000000000000000000000000000000000000000000000000000000000000039
:0d7c4b00000000000000000000000000002c
:207c580000000000000000000000000000000000000000000000000000000000000000000c
:207c78000000000000000000000000000000000000000000000000000000000000000000ec
:207c98000000000000000000000000000000000000000000000000000000000000000000cc
:0d7cb80000000000000000000000000000bf
:207cc50000000000000000000000000000000000000000000000000000000000000100009e
:207ce50000000000000000000000000000000000000000000000000000000000000000007f
:207d050000000000000000000000000000000000000000000000000000000000000000005e
:0d7d25000000000000000000000000000051
:207d32000000000000000000000000000000000000000000000000000000000000008000b1
:207d5200000000000000000000000000000000000000000000000000000000000000000011
:207d72000000000000000000000000000000000000000000000000000000000000000000f1
:0d7d920000000000000000000000000000e4
:207d9f000000000000000000000000000000000000000000000000000000000000000000c4
:207dbf000000000000000000000000000000000000000000000000000000000000000000a4
:207ddf00000000000000000000000000000000000000000000000000000000000000000084
:0d7dff000000000000000000000000000077
:207e0c00000000000000000000000000000000000000000000000000000000000000000056
:207e2c00000000000000000000000000000000000000000000000000000000000000000036
:207e4c00000000000000000000000000000000000000000000000000000000000000000016
:0d7e6c000000000000000000000000000009
:207e79000000000000000000000000000000000000000000000000000000000000000000e9
:207e99000000000000000000000000000000000000000000000000000000000000000000c9
:207eb9000000000000000000000000000000000000000000000000000000000000000000a9
:0d7ed900000000000000000000000000009c
:207ee60000000000000000000000000000000000000000000000000000000000000000007c
:207f060000000000000000000000000000000000000000000000000000000000000000005b
:207f260000000000000000000000000000000000000000000000000000000000000000003b
:0d7f4600000000000000000000000000002e
:207f530000000000000000000000000000000000000000000000000000000000000000000e
:207f73000000000000000000000000000000000000000000000000000000000000000000ee
:207f93000000000000000000000000000000000000000000000000000000000000000000ce
:0d7fb30000000000000000000000000000c1
:207fc000000000000000000000000000000000000000000000000000002000000000000081
:207fe000000000000000000000000000000000000000000000000000000000000000000081
:20800000000000000000000000000000000000000000000000000000000000000000000060
:0d8020000000000000000000000000000053
:20802d00000000000000000000000000000000000000000000000000000000000000000033
:20804d00000000000000000000000000000000000000000000000000000000000000000013
:20806d000000000000000000000000000000000000000000000000000000000000000000f3
:0d808d0000000000000000000000000000e6
:20809a000000000000000000000000000000000000000000000000000000000000000000c6
:2080ba000000000000000000000000000000000000000000000000000000000000000000a6
:2080da00000000000000000000000000000000000000000000000000000000000000000086
:0d80fa000000000000000000000000000079
:20810700000000000000000000000000000000000000000000000000000340a50000000070
:20812700000000000000000000000000000000000000000000000000000000000000000038
:20814700000000000000000000000000000000000000000000000000000000000000000018
:0d816700000000000000000000000000000b
:208174000000000000000000000000000000000000000000000000000000005a0000000091
:208194000000000000000000000000000000000000000000000000000000000000000000cb
:2081b4000000000000000000000000000000000000000000000000000000000000000000ab
:0d81d400000000000000000000000000009e
:2081e10000000000000000000000000000000000000000000000000000000000000000007e
:2088b1000000000000000000000000000405e080000000000000000000000000000000003e
:2088d100000000000000000000000000000000000000000000000000000000000000000087
:2088f100000000000000000000000000000000000000000000000000000000000000000067
:0d8911000000000000000000000000000059
:20891e000000000001a00000000000003daa50200000000000000000000000000000000041
:20893e00000000000000000000000000000000000000000000000000000000000000000019
:20895e000000000000000000000000000000000000000000000000000000000000000000f9
:0d897e0000000000000000000000000000ec
:20898b00000000000000000000000004378ff0000000000000000000000000000000020010
:2089ab000000000000000000000000000000000000000000000000000000000000000000ac
:2089cb0000000000000000000000000000000000000000000000000000000000000000008c
:0d89eb00000000000000000000000000007f
:2089f80000000000000000000000004305af700000000000000000000000000000000100f7
:208a180000000000000000000000000000000000000000000000000000000000000000003e
:208a380000000000000000000000000000000000000000000000000000000000000000001e
:0d8a58000000000000000000000000000011
:208a65000000000000000000000000000000000000000000000000000000000000000000f1
:208a85000000000000000000000000000000000000000000000000000000000000000000d1
:208aa5000000000000000000000000000000000000000000000000000000000000000000b1
:0d8ac50000000000000000000000000000a4
:208ad200000000001000000000000000000000000000000000000000000000000000000074
:208af200000000000000000000000000000000000000000000000000000000000000000064
:208b1200000000000000000000000000000000000000000000000000000000000000000043
:0d8b32000000000000000000000000000036
:208b3f00000200000000000000000000000000000000000000000000000000000000000014
:208b5f000000000000000000000000000000000000000000000000000000000000000000f6
:208b7f000000000000000000000000000000000000000000000000000000000000000000d6
:0d8b9f0000000000000000000000000000c9
:208bac000000000000000000000000000000000000000000000000000000000000000000a9
:208bcc00000000000000000000000000000000000000000000000000000000000000000089
:208bec00000000000000000000000000000000000000000000000000000000000000000069
:0d8c0c00000000000000000000000000005b
:208c1900000000000009718000000002810f000800000000000000000000000000000000a7
:208c390000000000000000000000000000000000000000000000000000000000000000001b
:208c59000000000000000000000000000000000000000000000000000000000000000000fb
:0d8c790000000000000000000000000000ee
:208c86000001000000017e810000014000ef06140000000000000000000000000000000083
:208ca6000000000000000000000000000000000000000000000000000000000000000000ae
:208cc60000000000000000000000000000000000000000000000000000000000000000008e
:0d8ce6000000000000000000000000000081
:208cf300000000000000000000000000358ff080000000000000000000000000000000002d
:208d1300000000000000000000000000000000000000000000000000000000000000000040
:208d3300000000000000000000000000000000000000000000000000000000000000000020
:0d8d53000000000000000000000000000013
:208d6000000000000000000000000002848f7000000000000000000000000000000000006e
:208d80000000000000000000000000000000000000000000000000000000000000000000d3
:208da0000000000000000400000000000000000000000000000000000000000000000000af
:0d8dc00000000000000000000000000000a6
:208dcd00800020000000000000800020000000000000000000000000000000000000000046
:208ded00000000000000000000000000000000000000000000000000000000000000000066
:208e0d00000000000000000000000000000000000000000000000000000000000000000045
:0d8e2d000000000000000000000000000038
:208e3a000000a8000000000000a000e00000000000000000000000000000000000000000f0
:208e5a000000000000000000000000000000000000000000000000000000000000000000f8
:208e7a000000000000000000000000000000000000000000000000000000000000000000d8
:0d8e9a0000000000000000000000000000cb
:208ea700000000001000825810000160000000000000000000000000000000000000000050
:208ec70000000000000000000000000000000000000000000000000000000000000000008b
:208ee70000000000000000000000000000000000000000000000000000000000000000006b
:0d8f0700000000000000000000000000005d
:208f14000000000081812258000000e680000000000000000000000000000000000000005b
:208f340000000000000000000000000000000000000000000000000000000000000000001d
:208f54000000000000000000000000000000000000000000000000000000000000000000fd
:0d8f740000000000000000000000000000f0
:208f810000000000500082580000000025d400000000000000000000000000000030001865
:208fa10000000000c0000000000000000000000000000000000000000000000000000000f0
:208fc1000000000000000005428000000000000000000000000000000000000000000000c9
:0d8fe1000001800000000000000000000002
:208fee000000000081a7225a8000000036d85400000000000000000000000000003000703d
:20900e0000000000c001e000000000000000000000000000000000000000000000000000a1
:20902e0000000000000000016bd56000000000000000000000000000000000000000000081
:0d904e000001d00000000000000000000044
:20905b000000000050000258000000c6010a0000000000000000000000000000000000007a
:20907b000000000000000000000000000000000000000000000000000000000000000000d5
:20909b000000000000000000000000000000000000000000000000000000000000000000b5
:0d90bb0000000fe29800000000000000001f
:2090c8000000000081a7225a00000207c4ea0000000000000000000000000000000000002d
:2090e800e000000000e0600000000000000000000000000000000000000000000000000048
:20910800000000000000000000000000000000000000000000000000000000000000000047
:0d91280000000faaa50100000000000000db
:20913500000000000000825800000000010f500000000000000000000000000000000000e0
:209155000000000000000000000000000000000000000000000000000000000000000000fa
:209175000000000000000000000000000000000000000000000000000000000000000000da
:0d91950000000000000000000000000000cd
:2091a2000000000000a7a25a0000000607af500000000000000000000000000000000000fe
:2091c20000000000000000000000000000000000000000000000000000000000000000008d
:2091e20000000000000000000000000000000000000000000000000000000000000000006d
:0d920200000000000000000000000000005f
:20920f000000000000a002580000004246901000000000000000000000000000000000001d
:20922f0080000000000000000000000000000000000100000000000000000000000000009e
:20924f000000000000000000000000100000000000000000000000000000000000000000ef
:0d926f0000000000000000000000000000f2
:20927c00000000005811225a0000020066ea1400000000000000000000000000000000582f
:20929c001000000000000000000000000000000000010000000000000000000000000000a1
:2092bc00000000000000000000000000000000000000000000000000000000000000000092
:0d92dc000000000000000000000000000085
:2092e900000000000000025800000000279400000000000000000000000000000000000050
:20930900000000000000000000000000100a0000000000000000000000000000000000002a
:20932900000000000000000000000000000000000000000000000000000000000000000024
:0d9349000000000000000000000000000017
:20935600000000000001225a000001663cc8540000000000000000000000000000000000bb
:209376000000000000000000000000000700000000000000000000000000000000000000d0
:20939600000000000000018000000000000000000000000000000000000000000000000036
:0d93b60000000000000000000000000000aa
:2093c300000000000100025800000000150fa000000000000000000000000000003000003b
:2093e3000b03e806400000000000000000000000000000000000000000000000000000002e
:209403000000000000009000000000000000000000000000000000000000000000000000b9
:0d9423000000c0000000000000000000007c
:20943000000000000087a25a000001601cea040000000000000000000000000000300000fe
:2094500007b0152040000000000000000000000000000000000000000000000000000000d0
:209470000000000000000000000000000000000000000000000000000000000000000000dc
:0d94900000001000000000000000000000bf
:20949d0000000000000b80480080004685055000000000000000000000000000002000001c
:2094bd00000000008001c000055002000000000000000000000000000000000000000000f7
:2094dd0000000000200000000000000000000000000000000000000000000000000000202f
:0d94fd000000000000000000000000000062
:20950a0000000000000b221200a00202c4ca54000000000000000000000000000028000054
:20952a0000000000a0000006e554869000000000000000000000000000000000000000002c
:20954a000000000028000000000000000000000000000000000000000000000000000028b1
:0d956a0000000000000000000000000000f4
:2095770000000000500d004808000142a6c800000000000000000000000000000000000076
:2095970000000000000003800000000001005630400000000000000000000000000000006a
:2095b700000000000000b000000000000000000000000000000000000000000000000000e4
:0d95d70000900000000000000000000000f7
:2095e40000000000500322120000026666e8540000000000000000000000000000000000d6
:209604000000000000000040000000000f0096b1d4000000000000000000000000000000dc
:20962400000000000000000000000000000000000000000000000000000000000000000026
:0d9644000000000000000000000000000019
:209651000000000000000000000001441d9b520001850a70368000000022d05500000001ac
:2096710085c2800000000000000000000000b81480100000000000080000000000000000ae
:2096910000000000000000000000000001424000000000000000000000000422ce5b0800df
:0d96b10000000000000000000000000000ac
:2096be008000000000000000000002023dfa500000880f9b1680800000067ca540000001d1
:2096de00f7ebd50100600000000000000000bf2d5080000000000000000000000000000692
:2096fe0000000000000000000000000002004000000000001a000000000000064ba14000be
:0d971e00000000000000000000000000003e
:20972b0080000000900000000000000306001000000000dbff8000060442e0a000010000ce
:20974b00f5c09000000002c20d0008000780703fc0000000000000000000000000000302e5
:20976b000000000000000000000000000020030ac1000009000000000000040079a70100c2
:0d978b0000000000000000000000000000d1
:2097980000000000000000000000006044c0a0240000007fffc000000663eaf54002800041
:2097b80017e9412c00000016ad0020004f0033bd4000000000000000000000000000008e34
:2097d80000000000000018000000000001e797eac42000000000000000002601faa140000a
:0d97f8000000000000000000000000000064
:209805000a00000000970280000001c0058ff00000000a0400c00000023bd0d3000100002c
:20982500812d08000000003e00000000030900000000000000000000000f1c1400000000e4
:209845000340340002000000000000000000010150000009907803c0000000000000000064
:0d98650000000000000000000000000000f6
:20987200440000005801ebd5040000002f8f70000000010780c4800006660ee32302800079
:209892001802040000000006aa0000000819000000000000000000000580bebd5000420035
:2098b20003de2042000000000000000000001ce1502000071a7e3c080000006000000000a3
:0d98d2000000000000000000000000000089
:2098df00003c000000e00000000000003480a004000500da004000000041c0ff00000001d5
:2098ff0005b7fca40000000000000000008096c004100000000000000000bc1680000004ad
:20991f0003500e0000000800000000000000060f50000000003a928000000000000000000e
:0d993f00000000000000000000000000001b
:20994c000000000001b00000000001e004a020002808007fc00000000061d8f70200000103
:20996c00c566fc000000000000000000050096008400000000000000001a933d4000003635
:20998c00001a0d020000700000000000000027aa0000000000bf1140000000000000000041
:0d99ac0000000000000000000000000000ae
:2099b90000000000d0000000000000000c92100000000000000000000028f0ff00010008f0
:2099d900b0000000000002800000000000000000000000000000000000009c14000000008c
:2099f90027400000000000a0000000000242000000000000000000000000003000000000d3
:0d9a19000000000000000000000000000040
:209a260000000000180000000000006005a424800000000000000000146368f500028019ec
:209a4600900000000000004000000000000000000000000000000000500a3a3d50000016f9
:209a6600064c02020000000000000000020040000000000000000000000000040000000044
:0d9a860000000000000000000000000000d3
:209a930000000000100ba40001000163c0000000000000000000000014025d72000000f8f2
:209ab30085009040000160000000000040100000000000000000000000000000000000008d
:209ad3000010f50000040000000000000040000000000000000000000000800000000000aa
:0d9af3000000000000000000000000000066
:209b00000000000080037081810003c64000000000000a000000000000001bb1400000b081
:209b2000100061080003400000000000201e0000000000000000000b000000000000000020
:209b40006848f500000200000000000002030000000000050000000000004e000000000006
:0d9b600000000000000000000000000000f8
:209b6d00000020005005e34000800022f59800040007007c0000080016006050002000009c
:209b8d000fb7c8000000028000000200000f00000000000000000200000000000008006627
:209bad00000000002000500d3140408001c000000000000b00742a82080000000096000060
:0d9bcd000200000000000000000000000089
:209bda00000028000009720100a4014314900700000800d714080a010600faf54028005879
:209bfa0003ea88000000000000000280001e0000000000000000028001800000000a00a683
:209c1a000000000028008009b90900a00202800000000008000795400a000001c8966000e6
:0d9c3a00000000000000000000000000001d
:209c470010340000018ba50001000243c100f10000000000000000000020305000003800b8
:209c670005b400800000001505000000000000000000000000000000000a002581100016b4
:209c8700004afb0000000000000000000000340f500000000000000000002c2400960400fb
:0d9ca70000000000000000000000000000b0
:209cb4000004000018b92a910000036600e0f00000000000000000000604de50000010007f
:209cd4000565600100000000ea00840001000000000000000000000380183a258000001e9e
:209cf4002a6de7000828000000000000000015ea040008000000000000002005c896c080d4
:0d9d14000000000000000000000000000042
:209d210000000000700000000000014226b0008800000ef7578800000002401200000010c9
:209d410080000000000006cf0f508300000000000000000000000000000a500480000002eb
:209d61002840fa000000d0b3f6a400000006570c60000000080000000000040020960800d0
:0d9d810000100082580000080000000000e3
:209d8e000000000080000000000002004cd02008000508febbc000001603e884000000984c
:209dae001000000000000396aa0401000000000000000000000000000001da21200000140d
:209dce007e1cf5000000181da29902000007c7ec502000010100000000002061e896c00089
:0d9dee00008005a2594000000000000000a8
:209dfb000000000000000000000020002f02500000000000000000000043e0120000000072
:209e1b00034280400400022da00004005000000000004400000000030000002580100000ff
:209e3b00407ea0000200f803e4002500f01007f710000000007ea9c20000040020960000f2
:0d9e5b00011000825880040000000000008b
:209e68000000000018000000000001601e8a742000059a0000000000003948848000000001
:209e88000d7bd54008000065fb54100021800000000080000000000200003a25a000001c13
:209ea8002bfa42400000f8092c810000080005fb1000000000fe2850100026016896d000b2
:0d9ec800029805a25b0008000000000000e9
:209ed50000000000000000000000000024b0000000009bb83d40000000024012000000185d
:209ef5000542800000000207fa6000000000000000000000000000000500b00480000014d6
:209f150027cc5000000098f7ba800000000000000000000300000000000000000096200067
:0d9f350000000002580200040000000000bf
:209f42000000000000000000000000000dbe200000050af6a810000000034884800000d038
:209f62000febd5000000406dfe6000000000000000000000000000000d803a212800003cb9
:209f8200067b424000003819f909800000000000000000081e000000000000016896c00004
:0d9fa200000005a25b0000000000000000b0
:209faf0000000000000701400000e142c000000010001000280000000003cb12000100003e
:209fcf0001429060000002c40a000800000000000001000000000000200008258010000089
:209fef0043dfa800000800b935400004000280000000000f0c9f3c800000000000960000c0
:0da00f0002000002580000000000000000e8
:20a01c00000000000007ebd5800002000000000028018e372800000400000984800a80002a
:20a03c000fe991ea0001e02faf540000000000000000000000000000100a7a25a00000160f
:20a05c002b7ea4400080008fed09800a000040000000000f80df288000200001e896c00013
:0da07c00010007a25b0100000000000000d1
:20a0890000000000100000000000082280000000000010b828000000246e40120002807037
:20a0a900b36d300000006395050008000000000000000000000000000d800025800000040c
:20a0c90023f02109000010fdc14c0000024000000000000f0d5b36800000002020960000db
:0da0e9000000808258000010000000000000
:20a0f6000000000090000000000005428000000000018ad3bd500000362b688480010001b9
:20a11600a9a4300000034666af54000005000000000000000000000005001225a8000026eb
:20a1360066ea504a0000819b63dd88000002800000000008003737c0000146054896c00099
:0da15600081995225b400048000000000041
:20a16300000000000000000000000004000000000005000000000000022fc012000200903e
:20a1830000000000000800070f500300018000000000400000000000000f180480000000df
:20a1a3000340ff010080f8a3c0000000c3636ea80000000f8b7669c2000000202096000031
:0da1c3000000808258000000000000000035
:20a1d00000000080000000000000000280000000000d98000000000014696884800100805e
:20a1f000000000000004063daa0485000f1e00000000a40000000000000092212000000031
:20a2100062daf70a0100d0192a80000001e047a85000000f81de285a000000654896c0004a
:0da23000000195225b00000000000000000e
:20a23d0000002000000703d400800002e59a00020000403803c6000000026012002000b07b
:20a25d00036fd40080016000000002000000001544000000000000000d0d08258208003658
:20a27d00234dff00200000800280008400038000000200008a1a368008040000009600200b
:0da29d000100000258200000000000000039
:20a2aa0000002800000f6a8140a0a0029d9d02028000003a80100000006b48848028008009
:20a2ca0009a7dc00a00340000000028000007295540000000000000000011a25a00a00142a
:20a2ea00077ef70028100017aa8000a000074000000280079e3777c00a060001c896c0288c
:0da30a00020007225b0000000000000000c0
:20a3170000000200000000000000000436b6400040010013ce0240000003e0120204000095
:20a33700b00000000000000000000010000053ac86008000000000400f10082580800900ac
:20a357000149ff00000000d743d40000144005bca00000010c7e304600000000009604005f
:0da37700000000025810000000000000006f
:20a38400000000800000000000000002b7ea40004008003ac410000100016884800400008e
:20a3a4000000000000016000000000200000029c5000400000000000000a5225a800008041
:20a3c400027bf700000001b57a8180000a0280bc5400000f00d631d010000001c896c00023
:0da3e400000007225b2000000000000000c8
:20a3f100000030000000000000000002000a0001005100000000000000000000000000f0ce
:20a41100abc280a0000004010af00000000bf03e800000000000000000183a5c40200000d8
:20a431007b40c5000000008902a80200000227b2a0000011087ef302000004002096000095
:0da451000010008258000000000000000014
:20a45e000000100000000000000001c044aa000100280800000000000000000000000000ee
:20a47e0003ebd5000000070deaf208000000833d4820000000000000001bd66c400000043a
:20a49e00607ac002000000182954000000001d925000002001b74cc0000e2061e896c000bd
:0da4be00008187a25b80000000000000000c
:20a4cb000000000000000000000000002eb8d000000000000000000000000000000030b8d3
:20a4eb00bb4158000010601cdc1080000010000000000000000000000000b4008840001465
:20a50b0003de800000000085c28020000000070cc00000000f583d40000004002096000077
:0da52b000010008258000000000000000039
:20a538000000000019e000000000000016a0c400000198000000000000000000000000b83f
:20a558000fea95080002400cbc740000001c00000000000000000000000a1f9490800036b0
:20a5780003dd85000000000b7955a0000002a7e33020000700faa810000026016896c0006b
:0da59800009805a25b040000000000000018
:20a5a500000000000000000000000020000000000000000000000000000000000000000175
:20a5c5008303d4000003420000000000070ed02940000000000000000000d83680000000fb
:20a5e50038eaae01000091056c2c000010002ebcc0000000090000000000000000960000fe
:0da6050000000002582000000000000000ce
:20a612000000000000000000000000600000000000000000000000000000000000000000c8
:20a63200f033e80000000040000000000801962000800000000000000780f6200080061645
:20a65200237aad00000000eb6aac0000080696c3301000a380000000000080016896c00094
:0da67200080005a25b000040000000000091
:20a67f000000000000000000000000021c005210000000002582200000000000000008f07c
:20a69f00074280000001e00e0a0008200f0000280000400000000000200ab69000000c803e
:20a6bf000150a400010071a17048000001c3c0000000004088b02a8000000000009600007f
:0da6df000000000258040000000000000010
:20a6ec0000000000000000000000000077caf4000380007a259800080000000000000070e7
:20a70c00c5bbd5040001e025af540010400012a80000800000000000500006600000014e3c
:20a72c0002cafd02020080a96edd000002068000000000278107154800000001e896c000f9
:0da74c00000007a25b0000000000000000fc
:20a75900000000000800000000000042350da390000f000825802000000000000000001035
:20a77900fd7b44000000400000000002070e1c3d42000000000000000b19000000002002cc
:20a7990002f97a00000071ef432c00000006470a000000008c7ef3044000002020960000ee
:0da7b9000000808258000000000000000039
:20a7c6000000000038000000000003c036aea6240008007225b800000000000000000099da
:20a7e600892fc10400020000000000000801d7281000000000000000070800000000400469
:20a806002a7d7000000091d36a6408000003ccaf5400000101b74cc0000c06054896c00095
:0da82600001815225b040000000000000077
:20a83300000030001000000000002940250fa00318010000258260000000000000000070f5
:20a8530001a76400002940000000001b0d0000000000000000000000100000000000000434
:20a873003c000000000008e3f79c00006003c0000000002500b6528640040020209600001b
:0da89300000080825820000000000000003e
:20a8a00000003084800000000000016621ef500101880c5a25b800000000000000000019b7
:20a8c0008baa90000006000000000020001800000000000000000000200a0000000000202b
:20a8e0000400000000007003b8140000000640000000001000127950000000654896c000e1
:0da90000000195225b000000000000000037
:20a90d000000200000d0415402800802c00000020007000025844000000000000020003017
:20a92d000702a40280000000000002280380000000000c00000002000f805e2600000016f7
:20a94d003c40a220210019014104008081c36ebcc00200100f33e28008000000009600200a
:0da96d00000000025804000000000000007f
:20a97a00000028000017615580a01400000000028388007225b250000000000000280000c6
:20a99a000d6a9508a000000000000290038000000000080000000280078edfb940000c16bb
:20a9ba007fdaa1022a00b9e9ea0408a00006f6c3300680000013a3c40a000001c896c028df
:0da9da00120007225b0000000000000000da
:20a9e7000000000000093ac80000014026b0c00000000003e58210000000000000000310e1
:20aa0700d083e8000c04040c0f50040001803bc802000000000000030000000000000000e8
:20aa27000030500000000003c0000000c00000000000000b10000000000000000096040057
:0daa470000000002580800000000000000a0
:20aa540000000000000829c50000f2003ea4e1000000005065be50200000000000011a0039
:20aa740017bbe8200a08063daa0400000d00de8600000000000000000380000000000000f1
:20aa9400015e500000005003b940000001c68000000000090800000000000001c896c00030
:0daab400000007225b010000000000000010
:20aac1000000000000000000000002c00000000000001000000000801c38000000000000cf
:20aae10009c280020000063d0500000000089c28080000000000000005105fea400000a4aa
:20ab010003505000000090ab7d6c000000041f00f00000010eba92800000040020960000c5
:0dab2100000800000000000000000000001f
:20ab2e000000000000000000000000000000000000000e00000000000000000000000019e0
:20ab4e00eb6bd5000000e27faf56000007191fbd54000000000000000008da29900000402b
:20ab6e00034e5a000000d80966850000000707ef0010000101f379540000a061e896c00042
:0dab8e00081800000000000000000000009a
:20ab9b000000000011000000000001c00000000000000800000000003661d0e3080000046a
:20abbb0000000000000022ede72008000d003c3d420000000000000000180000000000007c
:20abdb0000d0aa00000000d00000000002460cce2000000010103e84000004002096000032
:0dabfb000008000000000000000000000045
:20ac08000000000080800000000003400000000000000f0000000000343dde9102000000f8
:20ac2800000000000000e021fb14000008007b281400000000000000000800000000000035
:20ac48006a0a55000000000000000000006241dd1200000108063d40200026016896c00000
:0dac6800007000000000000000000000006f
:20ac75000000000000004054000003c66f0ff000004710f71c4200000401dcd9000000008e
:20ac9500036684000000034cb56080000000000000000000000000000f0000000000001ca3
:20acb50000fd800000000005e114000002602cecc0000000001423c400000000009600003d
:0dacd500000001816400000000000000008c
:20ace200000000403803385408010063b5cfc02004290e1b6c40001680024ea4000040109f
:20ad02000ffa9d800100607daa560004000000000000000000000004000a000000001026e5
:20ad22003a5be540404001812a14020101c284a33000072018922a80801000016896c00030
:0dad42004000093aa50900000000000000d3
:20ad4f00000000057080438800040144340cc00020071e14108001400200000000000000af
:20ad6f00c0000000000007000000000003901294840000000000000000000000000100003f
:20ad8f0000680500000070a1b95804000043c5f12004000910d81540000000000096000018
:0dadaf0000b9f3c03c0000000000000000ef
:20adbc000000003a80052b88080201e22ce330200008185f11d081001400000000000000c4
:20addc0000000000001007c000000000098ef36d5000000000000000000000000001000038
:20adfc000179d10000009819369900000003e5cb7400000818baa94000000001e896c00043
:0dae1c000090f363c0000000000000000083
:20ae290000000000b1936bc80000000402055080000d00bafc800000000000000000000074
:20ae4900000000000000223fa5100020000094280040000000000000070b7c140000000015
:20ae69007840aa00000000a78154000000000000000021878057a280002000202096000054
:0dae890000000000000000000000000000bc
:20ae960000000000809d36880000000205c5500000000052a8800002000000000000020126
:20aeb600800000000400e60dea70001007007abd50000400000000000818fabd50000014ce
:20aed6002c1c55000030019db294000001e00000000000290a127400004086054896c000a8
:0daef600000000000000000000000000004f
:20af030000000000d8800000000000000ee98003100d9937d40000000000f05000028000d9
:20af2300800000000000c3170e710000000000000000000000000000008efc3dc0000000ae
:20af43003d5085010000d187c2540000000015db8000000b00582a82000000202096000018
:0daf630000f0073730000000000000000083
:20af70000000000050000000000000e70dee501300070b5e5d10000000024ef54141000088
:20af9000000000000003c04c8a00200000180000000000000000000005185f3fc080001eb7
:20afb000001a4a020000019d6aa50a00014024ee2400100818faa940008080654896c000d7
:0dafd00000800b28cc0000000000000000f5
:20afdd00000020000000000000000000240240820001100000000800000000000020000112
:20affd00e0000000800000370c900200010a000000000000000002000b89043d4008003e97
:20b01d002c60a000200010a043e8c480e04246074002000300b003c00800000000960022c1
:0db03d000200000000000000000000000004
:20b04a000000280000000000000000e0000180228008180000000a0a00000000002800005f
:20b06a0080000000a0080025ec50228008000000000000000000028009003e3d400a001e25
:20b08a00067af5002818800163e800a0e20006ee2522800500f7bc080a008001c896c02857
:0db0aa000018a000000000c0000000000021
:20b0b70000000000000d8280000003c6148ff01000018f9334000008a440000000040015a2
:20b0d70001a548200001c384f980000001001a958800000000000000000e16b98200003eb5
:20b0f70028e00f00400090f3b780000002400ca9900000050dda22c000000000009602003b
:0db1170000008000000000000000000000ab
:20b1240000000000000dbbd5200002028f8f700000050012f54200002020000000040080aa
:20b1440085769d000000e605de500000080833e9500000000000000000019ab040000036fd
:20b16400075ef0000000d1b72a00400001602006600001800136604000000001c896c00026
:0db1840000001000000000000000000000ae
:20b191000000000000000000000000022f0500100000001b0f4050008003f0e60000003015
:20b1b10083c140840a10027f0500000200987f70c400000000000010001000000000002c3d
:20b1d10023400f080100f1f00000000000027e00f00000078fd3d28860a00c01d00f0000e3
:0db1f1000070fb3d28400000000000000041
:20b1fe000000000018000000000000f3dfaf5400000000939f80000040014cc102000090b2
:20b21e00d7ebd5000000002daf541800038976745000000000000020001e0000000000200d
:20b23e00067cf000020001d000000000000024ef0010010780bff950004026026af008002e
:0db25e003019e9eb9505000000000000002c
:20b26b000000040000900000000000237f0f500000118c303880400e0235e0d0000000f084
:20b28b008f4280000000062fa56100008b187c3d40002000000000000100b438c2000004a8
:20b2ab006dea21004000780143fc81040022950aa00000090000000000803c3ecd4a100003
:0db2cb000200c000000000000000000000b4
:20b2d8000000040000000000000010c07fca06000101011e941080c0063ddcd50200000038
:20b2f8001f7bd52000c0e27f8a540000081bfa2818000000000000000980d2a44080003458
:20b3180025fdb740000070077bdc0808004040a551101000000000000000203e4ee54100b6
:0db338000500000000000000000000000003
:20b3450000000000000f03d40000001380000000000300f039800000007270e600000000fb
:20b36500f383e8000002c626cc700000000e00000000000000000028000f573640004636b2
:20b3850003e8c000040079033bfc000400426700f00038178836a80040009e21c8e000024b
:0db3a5008000e33928440000000000000093
:20b3b200000000400007e28180010007800000000400003ab04080100e277cc1020040183f
:20b3d2009ffa8144056267f4bc1600042018000000000000000000040000d7a90000b03cbd
:20b3f200006fcf400040708f37dc000b02002eaf02003c0980da6c1000302404fef46001b9
:0db41200401999ef950000000000000000b7
:20b41f0000000008000000000004006400000000000b90767640000200215fd9000000007b
:20b43f00ebc398200002c79cfcc00028000e000000000000000000000000000000000080b0
:20b45f0001e8d100000490e165200000000015c000002000001003c4000026244f4a00006a
:0db47f0000000f803c0000000000000000f5
:20b48c000000000000000000000203e200000000004948132900000004015ca400000010d7
:20b4ac00936b04080003e205a330000000180000000000000000000003800000000000001e
:20b4cc00015ab8400004d98973b50000016024f0860000000093bc00000026024ee5694031
:0db4ec0020780bb3c08000000000000000bd
:20b4f9000000000000000000000002e00c0e600000090d000000000002000000000000f0cf
:20b5190095fbe8000001c00edd9004200008b82a80000000000000000f00103e80000006ed
:20b5390028000000008200018084000014068c08501000051e7e7300000000000000000021
:0db5590000f90000000000000000000000ec
:20b566000000000000000000000003661cac102003810100000000001e78000000000081c8
:20b586008b26040000400606da40001000407fa958000000000000000d0006bd4800043c62
:20b5a600000000000005000572dd08000947c7a8162000038bdf0cc40000000000000001f1
:0db5c60000f0e000000000000000000000a8
:20b5d3000000000000000000000000021dbfa00300108f34388200420c3be0e300000010ee
:20b5f3000fc280240000c4169c3100004100f77c02000080000000005789901a480040ac28
:20b613007f401d000000000b803c00040003cd0ff0080000000030000000004040e0010008
:0db633000400000000000000000000000006
:20b640000000000000000000000001e72ca8100128279f1a941080003f214c910200008032
:20b66000093bd5000403c786ad140020000073b892000d40000000002f8002259000815e2d
:20b68000780e2e220000018133c0000a0067a5af500000000a06b00080000e786c0f020007
:0db6a000000000000000000000000000009d
:20b6ad000000200030000000008000003cce60020000807834c000001c404998002000f008
:20b6cd000b630c00800027ad0aa00618050b000000000000000002000000002580080014f4
:20b6ed0031dad7002200100b415400800a44360f10020009000c3d4008080403c055002086
:0db70d00007005c3302000000000000000a7
:20b71a00000028000000000000a000031faa400280058a16a440800020787be50028000090
:20b73a0009734540a001470eca54928828010000000000000000028000007225b00a0406ba
:20b75a00034ea50028008001fa9400a00603b6ab062280000012bd400b003601eca50028e6
:0db77a0038800df0cc080000000000000039
:20b787001000000004000000000000002dcc301002800e7e660000000000000000000010d1
:20b7a700a1a3c000000022020550881000101b7300000000000000000008002585000034e9
:20b7c70003ca5200010078c0000000000003d5c1810000001ad29282400c14264a6a09406d
:0db7e700000007c03c200000000000000032
:20b7f400000000000000000000000000378d14000007815e394000001e00000000000018c8
:20b8140083af89000000605d85500008000edaccc01000000000000305017225b0000020cb
:20b83400015ef0000280d0c000000000014024f102000007885f605000082e00eea5400094
:0db8540000000bfbc0000000000000000021
:20b861000000000000d0000000000023410550000023007e284000a02c7eef5600000000a6
:20b88100014140400001439c00f20000010df63c080000000000000001000825800000021b
:20b8a10060000000000010e00000000003c000000000002700301a40200000200000000083
:0db8c100000000000000001000000000006a
:20b8ce0000000000001000000000005245855004001018ff29d000000022faa54100103177
:20b8ee008b7bd50400e2c045af0000100019bfb8900000000000000009187a25b000000e17
:20b90e002400000000029810000000000006800000000058000225800000000000000000c6
:0db92e000000000000000008000000000004
:20b93b000000000000000000000023441d0e200000038000000000062427e0e30000001093
:20b95b0089f73020000343a5ccc000030018f371c01000000000000000000825820000ee99
:20b97b0023dff009000000a0828080040000020a000000000e002580000004024055000031
:0db99b00000000000000000000000000009f
:20b9a8000000000000800000000003e734a50420208308000000000e0662ca912200007802
:20b9c8001db0cc0000080057b330001000093770500081400000000001805a25b00000748f
:20b9e80027dee240001018076a81000201c795ca04000001817a25a80000207bcaa50100fd
:0dba08000000000000000000000000000031
:20ba15000000000000000000000000262e0e6000038b1d343e8000000039f8d000000000b1
:20ba35000103e8000042c00ef56000200d88f27c00000000000000000000002580000000d8
:20ba550022e0a000040000ef82800010c6c28f0ff000400000082580000000000000000027
:0dba750000000000000000000000000000c4
:20ba820000000000000000000000604224ec102000099db3a81440000065fbd50000000038
:20baa2000b7a810004046036da5410312b01bef8980000000000000000005a25b0000000c8
:20bac200015af570000000197bd5030003606fef50000000001a25a0000000000000000048
:0dbae2000000000000000000000000000057
:20baef000000000870000000000000403fac200000010e303d4000002403fccc008001b197
:20bb0f00a1afc0400000401400f00000000f3e31c800020000000060200000258001000014
:20bb2f0077cdf0080002090b0280040000000ee20000000010082580000000000000000071
:0dbb4f0000000000000000000000000000e9
:20bb5c000000003850000000000002002e9e60000000015ba81400022071483300010401e7
:20bb7c008d6b89000000003fcf000000070197f0504000000000005010007a25b800000044
:20bb9c003fdbe248480138eb7bd502000067ade1801000010a3225a0000000000000000000
:0dbbbc00000000000000000000000000007c
:20bbc9000000000000000000001008022d0e6000000110d7764000003e43def00000821028
:20bbe90099e330000002668eecc00000001c00000000000000000000000808258200000417
:20bc090002e0f5004200f0000000000000000c05a00000000002a58000002c00000000000e
:0dbc2900000000000000000000000000000e
:20bc3600000000010000000000101443e58c102000080e16e90200001e796fe26001018004
:20bc5600b5a4cc40000346f5b3320002018a000000000a000000000001815225b0000066a0
:20bc7600015ea04000140000000000000000000a54000000000225a0000020000000000016
:0dbc960000000000000000000000000000a1
:20bca300000030001803438804c000e276ad000022000ebb31c040000c737fcc00000001bb
:20bcc30091e3e0000403d00109610000200ab83d4200000000000020210808258000000074
:20bce3002970500000001089c14024000002c2005000000d0a002580004014000000000076
:0dbd03000000000000000000000000000033
:20bd1000000030005805214108c002e62fcd50000010019ff050100020215e330000000155
:20bd3000c53f810000000284e9602000000077a8100061400000001058195225b0000406fd
:20bd500064cef5700000801fabd50000000004c050000000011a25a000a020000000000069
:0dbd700000000000000000000000000000c6
:20bd7d0000002000000fb3980080000275f7101200201fbc398008000003caf001200290f0
:20bd9d00e74330008009401400f082401110dc03c00000000000020000000025800880406e
:20bdbd0002e0a010200200d14154208003400d01a00200008af004805800002c0000000037
:0dbddd000000000000000000000000000059
:20bdea000800280000092b0400a000006ddb100280101eb230408a2014016fe24028011876
:20be0a000760cc09a006001f8f000280280816bc080004000000028000007225b00a000025
:20be2a0068caf5402805501f729500a000001cea74228005017221382a0000000000000037
:0dbe4a0000000000000000000000000000eb
:20be57000000000000e0000000000347dcbe200002850d9fb540000000400000000210303d
:20be7700c081540000004687c5600800010b3e30c000000000000000000003a580000014a6
:20be970001f8ff00000200db8280040000000e8000001001000e0c04400004005f4a000006
:0dbeb700000000000000000000000000007e
:20bec4000000000000a000000000000674e50400005101d7214000004030000000000081e0
:20bee400f769540402024785ea5600002f9cfeb4501200000000000040005065b0000020d2
:20bf04000158f7000001000b2bd5200014062dfe200028080053b030000020017ee56000f5
:0dbf24000000000000000000000000000010
:20bf310000000000f10000000000c02000000000002110be7c00000b40627ae300000000aa
:20bf51000942a800000002350a0200001f9057bc00402000000000280910b83d404000249e
:20bf71004000000000197080c154000003400000000000000000000000000000000000000f
:0dbf910000000000000000000000000000a3
:20bf9e000000000001e000000000e0c00000000000490ed6f8904000947768911000007881
:20bfbe000831548000a1438daf5404128d0edef89060080000000000018edba81400001c21
:20bfde006800000000009811a1542004000000000000000000000000000000000000000019
:0dbffe000000000000000000000000000036
:20c00b000000000008ff839c0008680400000000028b0adb70c000003c03c9cb08000011ed
:20c02b00858330000002603cecc000002108522648200000000000002080000000000200c8
:20c04b002afae801001f3103c154040000269f998000000008000000000000000000000076
:0dc06b0000000000000000000000000000c8
:20c0780000000005300dea800800186700000000000d803bf45200001e386fc14100001888
:20c09800fb70cc0800006634c330100048010019800000000000000047000000000000067d
:20c0b800054ee40000018087f295000000e7c4be5080000701000000000000000000000061
:0dc0d800000000000000000000000000005b
:20c0e5000000000001ffc38c00000024000000002800085803c400001c284ea10000040141
:20c1050007833020000807c205500040000f002580208000000000008000b43d40100002c3
:20c12500000000000000080036c4000000038000000000000800000000000000000000006d
:0dc1450000000000000000000000000000ed
:20c152000000000001e3aa44080000638000000000070d9ebc0000a02c2f7eb540003a10ea
:20c172008130cc080e101715e550100020007b2580804080000000018008ffa81000001ebb
:20c1920000000000003878817ec504000000400000000000000000000000000000000000d5
:0dc1b2000000000000000000000000000080
:20c1bf000000010800f5f660001408001e0ff00012830970280201049400000000000030d2
:20c1df00818330000000400000000000070d00258000004000000018000000154200000064
:20c1ff0038205508000278dd434c0000000000000000002010743d44400000000000000020
:0dc21f000000000000000000000000000012
:20c22c000000008000056394001211620ccf3030008800bfbd5041010e0000000001007998
:20c24c00fd30cc080003600000000000218112a58080008000000008058013154800000098
:20c26c00017a550000001007224408000000000000000057185ba8100000000000000000db
:0dc28c0000000000000000000000000000a5
:20c299000000000071fb43c4000000200f0fc00000078fbe71c0000c006bcbcc00001d1054
:20c2b90009ab3002080343adbf00002813007803c040000000000010400eb4280010003491
:20c2d9002e6c562000001003bb64000800001ffff00000010e3c2802000000000000000078
:0dc2f9000000000000000000000000000038
:20c306000000000080df6288080001e024af3020010f19fab050000a06264c3308001810ba
:20c32600cb38cc0000200624fe2600100f185abc00000000000000012018fabd5810000015
:20c3460001ffa5400000f9c76a90000008002eef70800108013abd50400000000000000092
:0dc3660000000000000000000000000000ca
:20c373000000000000eb2f98000003e665fcc00000210000000000001c24cee820011a108c
:20c3930087ffc0010005c3b5ecc000298f0057fc0200020000000008000000000000008281
:20c3b300340000000000000103d4000a0002800000000001007c280010000000000000001d
:0dc3d300000000000000000000000000005d
:20c3e0000000000110817f04000003e666a3300020481c00000000208006ece40000848008
:20c400000bbb89000008029c933000001500dbf89000000000000010011800000000005c67
:20c42000000000000000008bea0408040000000000000018185bbd500000000000000000df
:0dc4400000000000000000000000000000ef
:20c44d0000000000008f63c4001003c3ec0cc00200400ed3f30008000223f0cc0022817079
:20c46d000ba31c8092d002ffacc00a0800005730c20000000000020000007033000901c0cc
:20c48d0000cef010200171a9f98800000003c0000002000000000000000000000000000040
:0dc4ad000000000000000000000000000082
:20c4ba000000000030d12688021001e03f83302280201fb38cc00a0c1e7efe3302282a8037
:20c4da00adfb05a0a428002f933002900000db3454100a00000002808500928cc48aa10014
:20c4fa0003efe240280081cb6ad40000000040000002810000000000000000000000000099
:0dc51a000000000000000000000000000014
:20c5270000000000d8a000000000600795acc000100000db7c000000243830550004281090
:20c54700c17958000000e40d0aa000038d8053684040000000000000150004154000a0004e
:20c5670000000000000010a142a82000000400000000000000743d460000000000000000fe
:0dc5870000000000000000000000000000a7
:20c5940000000000f8000000000a1407149330000020183ab89010202004fa55000000989e
:20c5b40005f6954008036704aa5404010500f6e9d00002000000000025001e95400042000e
:20c5d40060000000000581c7f295040000070000000000000053281000000000000000007d
:0dc5f400000000000000000000000000003a
:20c60100000000000000000000000043c000000000400800000000001c00f9f0000001b810
:20c6210007e7c0010803c027bf4090004b09703300000000000000000008000000004e007c
:20c64100237bf02000000087403c04000023ad0cc00800101fd42800000000000000000055
:0dc6610000f00000000000000000000000dc
:20c66e000000000000000000000000004000000000018100000000014003dae2514100b8a0
:20c68e0003ef894000674005be0400002900fb8cc2c000800000001200010000000000049a
:20c6ae00055be24102800015abc0200001e7fde3302000201f3ebd50100000000000000015
:0dc6ce00000000000000000000000000005f
:20c6db000000000000000000000004400305500009270c5b3300000000000000000020f0c9
:20c6fb00818330000012e3ce0cc080000108583300000000000000038010bf7c00008000fa
:20c71b0002d0a0018000508df3c0040000460105500000070f183d40000000000000000030
:0dc73b0000000000000000000000000000f1
:20c748000000000000000000000000001ea5500010c79ef64cc0000400780000000000b01b
:20c7680015f8cc080001e6ddc33020005f80bb8cc480000000000000001c1ff89a002d4055
:20c78800007ef5400800841d7f89000003e3c4855000000001de2812000000000000000095
:0dc7a8000000000000000000000000000084
:20c7b5000000000019f1b73000000240040cc0002805080c1540010a8640000000000000fa
:20c7d500f34330000000e0160cc000004190081540000a00000000000f193e1480000400e6
:20c7f500337cc300828070cdb3c0000000042cfcc080000710ff30c820a0000000000000c6
:0dc815000000000000000000000000000016
:20c8220000000000708964cc0000000285a330301009005a954001025c3800000000000064
:20c842001728cc0800c26016e33120000b9e5715400000000000000289889b29d05000c645
:20c86200055dd14181327005ef8942020002859330000009887b7450004000000000000004
:0dc8820000000000000000000000000000a9
:20c88f0000000000010d778c80000004030550040021000000000000023958cc0000077899
:20c8af00e1b3300000034000055000000b003f158640000000000000500804154200000035
:20c8cf003368f000800000000000000004278000000002c089102800000c000160a0000003
:0dc8ef00000000000000000000000000003c
:20c8fc000000000000e5b6440010000387c5500009580000000000801e025c33000000b846
:20c91c001d68cc0010000005855000000800fea9504001000000008801801e9540000a007a
:20c93c00055be268000018000000000000e640000000002701b6bd58000000007af5410050
:0dc95c0000000000000000000000000000ce
:20c969000000000070000000000002e40000000060500b53b30000e08024000000010250c0
:20c98900e000000014206325bf400028000fd7fc0420000100000008039c3803c00080049e
:20c9a9003c3055000000018de7c040000003ccb81000030108000000002004000000000071
:0dc9c90000000783d40400000000000000ff
:20c9d6000000000080000000000802c6800000005025097b0cc001c15e60000000021e818b
:20c9f600800000001803464f9e0604113101b2b890000000000000000918f73c0000402652
:20ca160060685508000419e5af89040000005e1e7600000819000000000420000000000066
:0dca360000000d2a8100000000000000003b
:20ca43000000000000032e60000030238d0e600010051098330000001c0240e701000811a5
:20ca6300eb7bc0c0040140000000002801001003c400000000000000100e943e8400008292
:20ca8300767e5210012800fde7c0200402c02dff400003200d0c154000a0020000000000eb
:0dcaa3000000000000000000000000000086
:20cab0000000000000e97394000008607ecc102000000e970cc0800000006ca00200008114
:20cad0009f3f89000008000000000000001892bc080000000000000220015a281040004e26
:20caf0003c6ba7408200019d3f89000a020014ee040003900117954000001e000000000000
:0dcb1000003980000000000000000000005f
:20cb1d0000000002380000000000600016e9800000100c0025800800000160c9002000715b
:20cb3d0007e30c8480e823d4ecc002638f0fd73c0000000000000200008e3f548008011e73
:20cb5d00685b5600208000bdf30c448000c000000002000f80000000080000000000002006
:0dcb7d0000000000000000000000000000ab
:20cb8a00000000057000000000001402b6ae500000158013a5808a0a1c00dcc50228008084
:20cbaa00e3b34500a0146065a33002c30000b2789800000000000283010e3669d61a008614
:20cbca003d4aa541680031c5f34500a00200000000028187800000000a0000680000002882
:0dcbea00000000000000000000000000003e
