:02000000ff00ff
:080002004c6174746963650030
:17000a00694345637562653220323031372e30382e32373934300069
:15002100506172743a2069434534304c50384b2d434d3831003f
:1b003600446174653a2053657020313220323031392031363a32343a35310079
:0200510000ffae
:040053007eaa997e6a
:02005700510056
:0200590001059f
:03005b00920020f0
:03005e00620367d3
:0300610072011019
:0300640082000017
:02006700110086
:02006900010193
:20006b00000000000000000000000000000000000000000000000000000000000000000075
:20008b00000000000000000000000000000000000000000000000000000000000000000055
:2000ab00000000000000000000000000000000000000000000000000000000000000000035
:0d00cb000000000000000000000000000028
:02743b0000004f
:02743d0011013b
:02743f00010149
:20744100000000000000000000000000000000000000000000000000000000000002000029
:2074610000000000000000000000000000000000000000000000000000000000000000000b
:207481000000000000000000000000000000000000000000000000000000000000000000eb
:0d74a10000000000000000000000000000de
:2074ae000000000000000000000000000000000000000000000000000000000000000000be
:2074ce0000000000000000000000000000000000000000000000000000000000000000009e
:2074ee0000000000000000000000000000000000000000000000000000000000000000007e
:0d750e000000000000000000000000000070
:20751b0000000000000000000000000000000000000000000000000000000000000100004f
:20753b00000000000000000000000000000000000000000000000000000000000000000030
:20755b00000000000000000000000000000000000000000000000000000000000000000010
:0d757b000000000000000000000000000003
:207588000000000000000000000000000000000000000000000000000000000000000000e3
:2075a8000000000000000000000000000000000000000000000000000000000000000000c3
:2075c8000001000000000000000000000000000000000000000000000000000000000000a2
:0d75e8000000000000000000000000000096
:2075f500000000000000000000000000000000000000000000000000000000000002000074
:20761500000400000000000000000000000000000000000000000000000000000000000051
:20763500000000000000000000000000000000000000000000000000000000000000000035
:0d7655000000000000000000000000000028
:207662000000000000000000000000002000000000000000000000000000000000000000e8
:207682000004000000000000000000000000000000000000000000000000000000000000e4
:2076a2000000000000000000000000000000000000000000000000000000000000000000c8
:0d76c20000000000000000000000000000bb
:2076cf00000000000000000000000000002400000000000000000000000000000000000077
:2076ef0000000000000000000000000000000000000000000000000000000000000000007b
:20770f0000000000000000000000000000000000000000000000000000000000000000005a
:0d772f00000000000000000000000000004d
:20773c0000000000000000000000000000200000000000000000000000000000000000000d
:20775c0000000000000000000000000000000000000000000000000000000000000000000d
:20777c000000000000000000000000000000000000000000000000000000000000000000ed
:0d779c0000000000000000000000000000e0
:2077a900000000000000000000000000100000000000000000000000078000000000000029
:2077c900000000000000002000000000000000200000000000000000000000000000000060
:2077e900000000000000000000000000000000000000000000000000000000000000000080
:0d7809000000000000000000000000000072
:20781600000000000000000000000000000000000000000020000000000000000000000032
:2078360000000000000000000000000000000000000000000006000000000000000000002c
:20785600000000000000000000000000000000000000000000000000000000000000000012
:0d7876000000000000000000000000000005
:2078830000000000000000000000000000000000000000000000000000000d0000000002d6
:2078a3000000000000000000000000000000000000000000000000000000000000000000c5
:2078c3000000000000000000000000000000000000000000000000000000000000000000a5
:0d78e3000000000000000000000000000098
:2078f000000000000000000000000000000000000000000000000040000008000000000e22
:2079100000000000080000000000000000000000000000000000000000000000000000004f
:20793000000000000000000000000000000000000000000000000000000000000000000037
:0d795000000000000000000000000000002a
:20795d0000000000000000000000000000000000000000000000000000000000000000000a
:20797d000000000000000000000000000000000000000000000000000000000000000000ea
:20799d000000000000000000000000000000000000000000000000000000000000000000ca
:0d79bd0000000000000000000000000000bd
:2079ca0000000000000000000000000000000000000000000000004000000000000000005d
:2079ea000000000004000000000000000000018000000000000000000000000000000000f8
:207a0a0000000000000000000000000000000000000000000000000000000000000000005c
:0d7a2a00000000000000000000000000004f
:207a37000000000000000000000000000000000000000000000000000f0000000000000020
:207a570004000000000000000000000000000000000000000000000000000000000000000b
:207a77000000000000000000000000000000000000000000000000000000000000000000ef
:0d7a970000000000000000000000000000e2
:207aa40000000000000000000000000000000000000000000000008008000000000000003a
:207ac40000000000080000000000000000000000000000000000000000000000000000009a
:207ae400000000000000000000000000000000000000000000000000000000000000000082
:0d7b04000000000000000000000000000074
:207b11000000300008000000000000003dd030000000009e2600000000025d90000000002c
:207b3100900000000000024000000000001d000000000100000000000100f8000240000405
:207b510023d0ff000000000be8080000040000000000000000000000000000000000000023
:0d7b71000000000000000000000000000007
:207b7e000000300078000000000001601690650000001ada600000000000cdc06000283832
:207b9e00000000000060000000000002001c00000000000000000000081c5b3c100000205e
:207bbe000448af000010000b3e9d00000000000000000000000000000000000000000000b6
:0d7bde00000000000000000000000000009a
:207beb00000000a001000000000080020000000000000ad740000000004040af00000009fe
:207c0b00000000000000c43d081000080900b428c400000000000000000800000000000087
:207c2b0038594e00000000000000000000000000000010000000000000000000000000004a
:0d7c4b00000000000000000000000000002c
:207c5800000001000080000000000000400000000007819e040c2000003a4aff08000070fa
:207c78008000000000026214c476201000007300d0800e0000000000018100000000000037
:207c98007c0e8d00000000800000000000000000000028000000000000000000000000000d
:0d7cb80000000000000000000000000000bf
:207cc5000000000000000000000a04003d00701000030030040000001c0060a4010000700c
:207ce500990398000002636d0e60000009991c324000a100000000000100741400000000b1
:207d05000000000000000001e4080000000000000000000000000000000000000000000071
:0d7d25000000000000000000000000000051
:207d32000000000000000000000000061680242000098092b8108000006058645a800018e0
:207d520017f304080000404ccc102000059adb314080400000000000000086a8000020007a
:207d7200600000000000018b3e9d000000000000000000000000000000000000000000002a
:0d7d920000000000000000000000000000e4
:207d9f00000000000000000000040000370da000400009f4140000003c7c49450000001134
:207dbf0097af40000002475e0d0000400b18b4288000000000000000010c36c08020002cdc
:207ddf0000d024008038009043d42000000000000000000000000000000000000000000011
:0d7dff000000000000000000000000000077
:207e0c000000000000000000000800002ee8002040001b832800000020664b0a000018f02f
:207e2c00c16354000000038dcd502000000c173c40800000000000800f807be9140000202b
:207e4c0001fc0a4a00000011f3d400000000000000000000000000000000000000000000ed
:0d7e6c000000000000000000000000000009
:207e7900000000000000000000000143f50000000000081435400000bc0250001000000100
:207e9900dbaf3000000160040c90000000c03838c00080000000000001005b33000000000f
:207eb9000020a0000020500000000000000000000000000000000000000000000000000079
:0d7ed900000000000000000000000000009c
:207ee6000000000000000000000000623f8a000000001a86ba8080014000ccf04000007842
:207f060093b4cd0000004397cc502000010abea440800000000000000198b60cc2000016d1
:207f26000058a0000000000000000000000000000000000000000000000000000000000043
:0d7f4600000000000000000000000000002e
:207f53000000300010000000000a0140000f500000000e04388000403430d0c900300000ed
:207f73000b4054044000c40dbe0001000019f676c00040000000002800003ff9c0000000d6
:207f930020d02418003000000000000400000000000000000000000000000000000000006e
:0d7fb30000000000000000000000000000c1
:207fc00000003000800000000004020615af50000005813bb88080003e637cc50230000143
:207fe00083f8940840020237ed5001800008bae800002000000000000000967dc000000094
:2080000005fe5052000000000000000a0000000000000000000000000000000000000000b1
:0d8020000000000000000000000000000053
:20802d00000020000000000000800003ad0cb002000000d43240080eb426dd71002000b0d1
:20804d00e083d481800000060c600200000e343980042000000002000900f0004028002cb9
:20806d00034875002000010000000000000000000000000000000000000000000000000012
:0d808d0000000000000000000000000000e6
:20809a00000028000000000000a0000060ac722280059c77b1408a0160694bb1002800f06d
:2080ba00e1ebd480a001c037cc5022800780bab04080400000000280000c76b050ca002051
:2080da000178fa00280019c000000000000000000000000000000000000000000000000012
:0d80fa000000000000000000000000000079
:20810700000000000000025810000002a7adf00000050a3fdc400004042ff84300000001cb
:20812700016f30001a0023eece600000000ffb3a800000000000004020007ebd400000148c
:2081470023c0a5100000000000000000000000000000000000000000000000000000000080
:0d816700000000000000000000000000000b
:208174000000000000052259000000000efe7200030801db6c400000246558d3480000015d
:20819400eb64cc000460507efa4000000181ff214000000000000040100c1bfd00000016d8
:2081b40004005a0002800000000000000000000000000000000000000000000000000000cb
:0d81d400000000000000000000000000009e
:2081e10000003000100082580000000015008080000b8e00000000403c37400f0001007043
:20820100e0000000000842ff055010000b001c38c000a000000000000f10000000000014dd
:20822100277bff0000000000825800000000000000000000000000000000000000000000c2
:0d82410000008000000000000000000000b0
:20824e00000010009987a25b000000003cc0c0a000010e000000008806067af0000080708a
:20826e00e000000000040056ca5480413008b6a4408000000000000023880000000000805a
:20828e000159fb0000000003a2580000080000000000000000000000000000000000000076
:0d82ae0000001000000000000000000000b3
:2082bb000000008011008258000000038e000000400708d038c0000006665ecc00000010ea
:2082db00000000000000030c00f100005310567400000000000000000f1e7014c8000014c9
:2082fb0001700f280000000082580000000000000000000089000000000000000000000058
:0d831b0000008b0140200000000000000069
:208328000000010099e5a25b000000604fa02020400000b7a44080000c2b6833000080007d
:20834800000000000001c31ecf000003a00c9a3540000000000000000809d780d0800020ce
:2083680001f8f00000000005225a0000000000000000000700000000000000000000000084
:0d838800000019abd502000000000000004d
:208395000000000000000258000c000403050000000318fa6c8000003c01d0a020000098f0
:2083b50097c330040400070f0aa0002000800015400000000000004000005fbc40000000c6
:2083d500000000000000009002580400000000000000000000f22ac00000000000000000be
:0d83f50000008000000000000000000000fb
:20840200000000000007a25b000400670da5000000000e7f6c4000002003eef54000383151
:20842200adb0cd080200672eca54042823801a95401000000000000001007a288000001c46
:208442000000000000000015a25a000000000000000000000033e84040000000000000006e
:0d84620000001000000000000000000000fd
:20846f00000000000000025800000342050f00000003807e9440000000035069000000b4f5
:20848f0087eb30000014c302db100000008f000000000000000000004f0000000000000089
:2084af000000000000000000825800001000000000000007000000000000000000000000bc
:0d84cf0000000000000000000000000000a0
:2084dc00000000000007a25b00000000678e0020000d809a3c40000000001e9602400000ce
:2084fc001fa8cc000008425fab141000058000000000000000000000001e000000000000b2
:20851c000000000000000001a25a000008000000000000000000000000000000000000003a
:0d853c000000000000000000000000000032
:20854900000000000880825800000064378f5000000108bc14c000001623ce69000010001d
:20856900097b30200c0043e70aa0000000803ef3020000c000000000000000000000003695
:2085890029e08900000008008258000000000000000000000000000000000000000000005e
:0d85a90000000000000000000000000000c5
:2085b600000000003015225b0000034286ae500000085dba00d080001d001a9600000001dd
:2085d600abf0cc000602465cca540001078e760cc000a14000000000800000000000000617
:2085f600615a854200005001a25a0000000000000000000000000000000000000000000096
:0d8616000000000000000000000000000057
:208623000000300000808258001000028ca80283000b80b4398000000c6c000000100090d2
:20864300a30330000a04025e00f10000408cf028000000000000030009001414400000008a
:208663002640a700000000a082580000000000000000000000000000000000000000000070
:0d86830000100182a80000000000000000af
:20869000000030000195225b00100006cfb81409000b0ef6b0408000207c0000001000386a
:2086b00001f0cc0804080615cf000403a381fba940400000000003000000d3bc4080000e40
:2086d00064faa502000001a1225a0000000000000000000000000000000000000000000067
:0d86f00000800762950000000000000000ff
:2086fd0000002000000002580080014280005002000f0058144008001c3010550020009129
:20871d00058330018000002d0d300201a70e00000000040000000200070db735400800266d
:20873d0064401800000051a002580000000000000000000080000000000000000000002075
:0d875d00007000000000000000000000009f
:20876a00000028000007225b00a00366d6c0500280001c3e3c408a062000ea55006800792c
:20878a00a7e0cc08a0000036891026a843810000000000000000028000013678000a403eba
:2087aa0026002402000000a1a25a20000000000000000007800000000000000000000028f7
:0d87ca00003800000000000000000000006a
:2087d7001800000000000258080010000100f08000800edb3540000000001055200005001f
:2087f70080c1540000000277a7100020001c003c0400000000000002000800000000000017
:208817006c6bfb00000000002e5808000000000000000000000000000000000000000000e1
:0d883700005001804810000000000000000b
:20884400000000000007225b0000096000e0f00000401ffeb800000000294a550000020177
:208864008171540000000616db100000001d073c10500000000000000001000000000000e6
:20888400625fff00002800a0225a00000000000000000000000000000000000000000000d0
:0d88a40000000fa210000000000000000006
:2088b1000000000091000000000000039705520002a10876380000a10038205500012af063
:2088d100ebc2a80100604002096100020008102a8000804000000000008800000000021403
:2088f100001055004002f08743e8000000000000000000000000000000000000000000001e
:0d89110000000d0048000000000000000004
:20891e00000000000080000000000160578a540000400c17f54400020e044a5501008598b6
:20893e001b2a950100020016896400100701839540200000000000000380000000002236ce
:20895e0038de55000004001823d4000000000000000000000000000000000000000000007b
:0d897e0000580fa212000000600000000071
:20898b00000000200093814c000a000000000000000f09f803c0004004000000000000012a
:2089ab00d5803c0400004002096014000b90081540002000000000118900000000004080e6
:2089cb00027e10200000108bc1d000000000000000000000000000000000040000000000ac
:0d89eb00000009004800000000000000002e
:2089f800000000001807780d880400e000000000030d8e1f3c04000006000000000000113b
:208a1800dd6bc04000026016896c0002831e1695400040000000002b801800000000804038
:208a38006b5db540000098117a8108000000000000000000000000000000000000000000b5
:0d8a5800005809a21200000060000000009c
:208a650000000000108f839800000020040fa10000000836f6000001c000d0aa00011a30a9
:208a85000341540000a00000096010001000fc330040000000000002800000000000001c03
:208aa50029f0a0080000100377d4010000000000000000000000000000020000000000008f
:0d8ac50000900d004800000000050a0000b0
:208ad2000000000070c7f304080000e02caa040800018182f9180001860258a560028011fe
:208af20087aa958504000016896d08005040da0cc08000000000000000000000000000400b
:208b12002eeea500000099c56ee000000000000000000300000000000000000000000000d3
:0d8b320000800f2212000000001faf540051
:208b3f0000020400d197c340000401c39c0cc0800000881c2a80002a0040105500040008cc
:208b5f00d0c154001000000009600000009f1403c000200000000000000cbfa14000000452
:208b7f0028000000000008bb7108000000000000000000000000000000000400000000006e
:0d8b9f0000000980480000000000000000f8
:208bac000000040080c77354080002604dc33020000101fea958004000717e55000400380c
:208bcc00a3b954001000001e896c1400078a92bc00000c000000000800011fd1404000003e
:208bec000400000000003803e74500000000000000000000000000000000200000000000de
:0d8c0c00000009221200000000000000001e
:208c1900000000007105c364000000e002055000220f185003c0004f247950cc0000007093
:208c3900ef4330040ab01202096000202b1c942a840041400000000000099ef300000400b6
:208c59002250ff0000000003ee800000000000000000000000000000000000000000000019
:0d8c79000000ad00480000000000000000f9
:208c86000001000081cdab04080003c617e5500010501cd3bc0200802025fa3302000c594d
:208ca600ed68cc0808086654896c9028c81e7ba95840004000000000200a16ccd000000050
:208cc60006e8bf0b0000018b2b890000000000000000004000000000000000000000000056
:0d8ce600000009a2120000016680000000dd
:208cf3000000100000fd2780000003c00103300800879072b300004206401055000080b154
:208d1300d04154000000020209600000004e1c330400000000000300001f000000000000ab
:208d33006ed9c301000000bba40400000000000000000000000000000000000000000000b2
:0d8d53000000b98048000000000000000092
:208d6000000030000089f7540000c1c001e33030000f8e7e8cc010ae0628ec5500010099fc
:208d8000f7e9540000201654896e08000041d30cc880000000000103001f0000000000008b
:208da0002869c12000005987769d200000000000000000000000000000000000000000002e
:0d8dc000000009a2120000000000000000e9
:208dcd0080002000f8fbc31800800003a5acc002000180fc330408003c3350550021183049
:208ded00038330018868000009610220038d17b300004000000002200f1000000008000050
:208e0d0062700100200001b00258000000000000000000000000000008000000000000003f
:0d8e2d000050ad004800800000040a000065
:208e3a000000a8005813eb1408a00073b6d3300280091a370cc08a042007d8a550288080e0
:208e5a000f60cc08a800001c896d02800381f60cc800204000000290480e0000000a0006d3
:208e7a007cdc0002280001c7225940000000000000000000000000000a00000000000000c9
:0d8e9a000050aba21200a000001daf54005c
:208ea70000000000000da380000000200105500043890012f30400015c2758cc0080040004
:208ec700037b300100000000096148000709177c4000000000000000000e1bf808014100dc
:208ee70067eb0200000001a002581000000000000000000000000000000024406ce7000055
:0d8f07000001098048080000000000000083
:208f140000000000000d77540000006005855100400000b2ccc00000e005df3300000200b3
:208f34000d30cc000000001c896c0000019836a88800000000000000501cd3b54000208030
:208f5400217e0000000000b7225b0200000000000000000000000000000020604ed5400045
:0d8f740000018d2212000001c0000000006d
:208f810000000000f0000000000440c000000000080008fc154000000220000000041b102a
:208fa10000f6c4000000400209600038108f3c154200a00000000000000f1b730000042c74
:208fc10041e8cc000200100082580200000000000000000f9cb4140000000000000000003a
:0d8fe10000000b41400000024000000000b5
:208fee00000000007000000000080206800000000000015ba95800001c0000000000049056
:20900e00a7eac5801002061e896c883051015a2952004800000000000000b70cc000042073
:20902e0073fd330080008187a25b000001668000000000011cdb2a90000000000000000061
:0d904e0000380fa3d5000002000000000054
:20905b0000000000b10d828c0000000003055000400008b7dc8020000020000000020070c4
:20907b0083803c810004400209620000000f1033000001000000000000801a58800000009f
:20909b00000000000030100082588000000000000000000010d35c4000000000000000009c
:0d90bb0000000743e8000000000000000076
:2090c800000000047889680d0c00004007a5500040000887ac5000008e7c000000010018d8
:2090e800f92bc00000026016896e00028000128cc0800080000000000780bb6d4040000600
:209108000000000000009805a25b0000000000000000000008176c400000000000000000e2
:0d9128000051a82bd404000000000000003e
:209135000000000200f34324000042c203055000300f0d37f280018e000140cc100000f1d0
:2091550009733020021000000960000050080c154010000000000000031000000000000ec9
:2091750000000000042800000258000000003583c2000000093414c0400000400000000049
:0d91950000b0014140000003400000000058
:2091a2000000000110a96b14080000071ec5508028019c83b15200000001ea3342000330d4
:2091c200c3bccc8004a40016896c080120091e954000400000000000080e00000000002470
:2091e2000000000000000005a25b400000003febc0000001988328d080000070000000003d
:0d92020000d18fe3d5000000000000000047
:20920f000000040000cd028800000bc3560550001020000015400000ac3250cc000200509a
:20922f000f4154000000000009620028009070264000000000000010008c0415402100006c
:20924f0000000f01000000000258000000000000000000000a53c8000000003840a0000058
:0d926f0000000179c80000000000000000b0
:20927c000000040000993bc4080002600eca50008000003e9540400060204a3302002000b2
:20929c008fb295800000001e896c00130188801980c0060000000008010e57954201000088
:2092bc00000a0f0002800007a25b0000000000000000000009bfd880000014076cf5400017
:0d92dc0000000826c5000000000000000092
:2092e9000000000030fd431800000003c50f5000004d0f941540000000783055008400d020
:2093090005bb300400f4020209600020000fdff30040000000000000070f92f9804000004d
:209329000000000000000080825800000003830a00040000009c14000000040270c819002f
:0d9349000050ad4100000000001e0a0000b1
:2093560000000000008fb314080000004f8a00804200181e295810001c6dcc550804080178
:209376008928cc0000086054896c14512019d74cc000000000000000011d5be90000004086
:209396000000000000001815225b000000005f8a000000058012bd5000002002cad0420082
:0d93b60008800baa800800000035cf54008d
:2093c3000000300000cbf78000402020000000000001809333000c0f643d700f0000001006
:2093e300d7c154020000020209600400059f5c03c200000000000010270c00000000002cd7
:209403000000000000000080825800000000000000000000000000000000000079db00009b
:0d9423000000af03c00000000000000000ca
:20943000000030000003b754005001c0000000000007001accc02420863fecf00002803881
:209450000f32950000e80654896c00000788373c00000000000000281001000000000000b4
:209470000000000000000195225b000000000000000000001800000000000062e9f700006f
:0d9490000000a1f3800800000600000000ad
:20949d000000200000c7c324008400070281c30210050d1c2a820800007fe0cc00200400cd
:2094bd00c036c4038008000009608200200ad7328800000000000000150f00000008000276
:2094dd0000d0f5112000000002580000000380000002000000143280080024240000002064
:0d94fd000010bb2bd4008000000000000018
:20950a00000028000009b31408aa00038ec1c412a00f803ba9540a00002c6e330228020005
:20952a00033ac500a4b0001c896d0ac090000231504000000000000803010000000aa804da
:20954a0003c8a04029000007225b00000000400000028000000231508a00206c0000002826
:0d956a0000980f679400a0000000000000b2
:2095770000000002710bfb9c000400025c0551001009091e9440400000337ccc000000f147
:20959700b9e330000088000009605000010d742a80400000000000130000b6f300000081fe
:2095b700380000000000000002581000002000000000000009ff8100000000400000000009
:0d95d7000001bd43e800000000000000009e
:2095e4000000000019e32a80000000601eca50000049985f29c000001e03783300000081b3
:20960400eba8cc010004001c896e0000050183954010200000000028000a5accc4000140e4
:209624000000000000000007225b000001e00000000000018a37c0000000006000000000df
:0d9644000000a06bd400000000000000003a
:2096510000000000000000000000142640000000400f1000000000400c4000000002100082
:209671008b7f600000044002096008290908765c8010060000000000000d5c154000001e3a
:2096910000000000002810008258000000002fc8500000000800000000001462f0fa0000f8
:0d96b1000010a000000000000000000000fc
:2096be008000000058000000000008e38000000040038c00000000876470000000010058c6
:2096de00086f91040062061e896d0018081987ec541080000000000000197f2950400026dd
:2096fe002000000000008187a25b000000023fd450100000000000000000202e4aa0400139
:0d971e0000d8100000000000000000000056
:20972b008028000010000000000002474000000000000936330000000203d0cc0002003098
:20974b000bc1540402e44002096000401708dc15400001000000000001080000000000bef1
:20976b0034000000000210008258000000038000000000000004344000000002f851000078
:0d978b000001f7801c800000002cbd0000d4
:209798000004000000e0000000000003c00000000200009eccc0000014705a330200007853
:2097b800cdfa9520000a6016896c0868900f7e2954000c80000000000009000000000d6e86
:2097d8000000000000019805a25b000000004000000020000036b4508000006ae8a70000c3
:0d97f8000000cdf8090800000001ce0000bf
:209805000b000002f800000000000242d60cc000038990d003c00006143170cc00002550ad
:20982500a1e730010414000009600400510ed25c804020c0000000200f09f7f30000003462
:2098450041d03300000000000258000400234000000000008ef602000000802c00000000cc
:0d98650000000fbd4000000020030f500068
:209872004e78000570e000000000a0077cc33020000d9e9f3c00000220055e33024000d134
:209892009960cc0006080016896c0010238086ec5840494000000000078832ccc040202cb9
:2098b2007b5acc4200000005a25b000a01c7c0000000000701db050000a100600000000036
:0d98d20000000d6b440000004014cf520058
:2098df0000000000f0f18330000001c29e00f00000000c0c154000000e00c0aa000000b0ef
:2098ff0007415400008000000960802007003438c04000400000000003003a9c4000000454
:20991f007de8cc0000000000025800040000000000000000080000000000000000a30002ec
:0d993f0000000db80001000002c000000093
:20994c00000000007193f0cc480000602ecf0000000781761540000174021a5500000080dd
:20996c000dfa95050000001e896e00030100322440800000000000000800f3ec40000020c4
:20998c0076fc330000000007a25b0002000000000000000780000000000000017ea3620005
:0d99ac00000005fc050400000000000000a4
:2099b9000000000008e36f30000003e2750cc00000410f3403c00080a427705508048711e3
:2099d900807ec4000000020209620040050f3b9900002000000000000090bc15400006004e
:2099f9000240cc000000008082580000000000000000000008f814000000042810ea0000ac
:0d9a19000000876c842000000000000000a9
:209a2600000000007001accc0000034037c3302002a980963c00100160047ca540050c8046
:209a4600f3aec58000d47054896d1000018bbf394000400000000000079ed7295000000083
:209a660068d8334300001815225b000000000000000000010bde82800000203d4eea0200fd
:0d9a860000701fad41000000000000000056
:209a93000000110001bfeb3000c08000250cc00300001098330000003c72400f004000007b
:209ab300f142a82100040202096000004010fc15401080800000000007000f6c420421424a
:209ad300037ecc0000040080825800040000278b900000010db403c400000203d0e2000042
:0d9af30000100f82140000000400000000ad
:209b00000000300000f364cc00400007a6e330210ba01e3f8cd88000206adef0000000018c
:209b20008bfa958014280654896c8803201a762950004c400000000000183bec500c814e56
:209b400028ee330000000195225b0008a0001d9a1000000800babc0000001c2a1ed1020085
:0d9b6000008185a9080800000780000000b2
:209b6d0000002000f001433040806002ff00f2022283dc34330008000239e8cc002280f8c6
:209b8d00cd7b30008400000009600200000f0e6c4000000000000268008f1e730008008c6a
:209bad0000000000200500000258000003c000000002000000f602000800802a7bd500203a
:0d9bcd00000007640400000000000000001c
:209bda000000280001c3a0cd08a001e024cf020280039f7b0cc08a001c026f33082902f8b4
:209bfa001f38cc40a000001c896e8280800e1a6c58000000000002900381f60cc80a20209d
:209c1a000000000028020007225b0000000300000002800000db06000a00400179e000284a
:0d9c3a0000000820080000000000000000ed
:209c4700100000287087b330000200023dc33000000b0957f30000040241ecfa000000012b
:209c6700c3c03c000804000009605000200fd02a80000040000000000080d003c040e83cf9
:209c870043dccc00000000000258100000030000000000000a90140000001464000000003f
:0d9ca7000000b983fc000000000000000078
:209cb40000000000901d38cc000400063c9cc404000818da4cc00000163a5a810000000103
:209cd400f573c0800020001c896c8820801d869544000080000000002788973c0000a00051
:209cf40033cd330002800007225b000000000000000000250032bd500000202c0000000067
:0d9d14000001817bd4000000000000000071
:209d21000000013810c9c1404000e803ef0aa204102b80142a8001602e235d530004051051
:209d41000b65c8840e1440020960000020980f6c40000080000000000fcefc03c000408228
:209d6100400000000000100082580000002435051000000000303fc000400000f05000009b
:0d9d81000000900000000000000000000045
:209d8e0000000280000d6bd50000040024aa540028470006154021812e3c0fa361042ad0d9
:209dae00806ec5040262061e896f0020450b7eec5840014100000002038172bc0000014ea7
:209dce002000000000008187a25b000000c21eaf102000000012bd4000800000daf54000f3
:0d9dee000050100000000000000000000008
:209dfb0000000002100d4280000000026dbd820400001cd03980000014003fb100000c01ff
:209e1b00816b3004000040020960140850185c154840000000000013800e942a8a00803c3a
:209e3b003400000000001000825800000003c7fd500000010000000000000042dbe00000d4
:0d9e5b0000000000000000000000000000fa
:209e6800000000009803ebd50402100621ee4400030109133040c00020395eb160000218de
:209e88009de8cc00000a6016896e0010601f7f295000040000000028001d9fa9500040202a
:209ea8000000000000009805a25b000000007dbe0000000180000000000006726bd500008c
:0d9ec800000000000000000000000000008d
:209ed5000000010000f7714c20004002050aa00009810a7a7640002c1c2de0cc0047827089
:209ef500a0a6c40000000000096000000010036c48000800000000000f1f70330800000032
:209f15007fc096000000000002580000080000000000000000000000000000384a00000073
:0d9f35000000034068000000000000000074
:209f42000000020018082e8d0100000641c551000000009aa90000082062dc33020604805c
:209f620003eec58400000016896d001300187eec58400000000000008809df8cc080000e22
:209f82003c0a694200000005a25b0000080000000000000000000000000016006a02000042
:0d9fa200001809aa9d080000000000000042
:209faf00000000000009b78c0000001034b7200040000d3828c0000000235e6900000000d4
:209fcf00034154000000000009600000800014154040000000000000000fb6f300000eb6cc
:209fef0024d0cc000000000002580000000000000000000580103888000006282005000090
:0da00f00000007e440000000000000000019
:20a01c0000000000580fae4404000003a1ab140c400101de80c09000002419960000000095
:20a03c00afe295800408001e896c000000005f2950000940000000030001160cc800014ee1
:20a05c0004c8330200000007a25b0000000000000000008b8086b4508000346cdc05000049
:0da07c000000097e4400000000000000000c
:20a0890000000438f080000000042846af055010002f1d90398000004026e0cc00002d5061
:20a0a9009165c84004140202096000005100076c4000400000000010898008154000480012
:20a0c900437dcc000000008082580004000280000000000100923e0000002c0240f10000db
:0da0e90000000301680000000000000000fe
:20a0f6000000040081900000001806075caa540000501f17b04080000006ea3322043299ac
:20a11600882ec54008006054896d001b09981aec50320000000000000f8037154000000657
:20a1360070f93300000c1815225b0000000000000000000800f33c00000026636cf7020092
:0da15600000008029500000000000000005d
:20a1630000000002f001003c00000003270cc0130089107b7400000002702055000080189d
:20a1830007c154010200020209600060010a1c1544000d400000001000100425804c4000ae
:20a1a30031d0a30041000080825800000002c000000000008054020000001c3d4005000027
:0da1c300000101e400600000000000000049
:20a1d0000000000480e36bc040000167f483302300039c17b540002006396e55000000f1ad
:20a1f0008f62958004e00654896e10502d99f7295800000000000028000a5a258084801e23
:20a210007678030202000195225b000000030000000000018076040080001c045a0000002e
:0da230000000a97c4080000000000000003c
:20a23d000600200001cd81400290a3c784f6900200008a1c3300480c0042d0aa082038b14a
:20a25d0000a6c400c0000000096106012500d75c80000c00000002000018bc03c0080802b7
:20a27d0079f0e600200000000258000001c000000002000710303fc008002e0020d10120a7
:0da29d0000d0b00000000000000000000034
:20a2aa000000280500dd3bd500a2000601896002800700be8cd08aa040601e5500280031af
:20a2ca0087bec580a0e4001c896c02a00800026c5840000000000283079f9f3c040a00147d
:20a2ea00697ec10228000007225b00000200000000028008181029402a003e28ced1422848
:0da30a000000000000000000000000000046
:20a317000000000010072dc84000014357800000002b100815400000003e4ecc008000004f
:20a337000f415400003400000962a000050ff4154240a000000000000000000000004a009a
:20a3570002cad0000000000002580800000000000000000780000000000000014f00000011
:0da3770000010083d4000000000000000081
:20a384000000000000003ac5000012c207a80004005d1c729540000014044f3300000000d9
:20a3a400056295400000001c896e00000801572950000000000000000118000000008000d8
:20a3c40039ddd50008280007225b0000000000000000000180000000000014015a080000e2
:0da3e4000000a7f3d42000000000000000de
:20a3f100000000001190000000104246000000000009803c280200010230000000011000e0
:20a41100e9c154014002e41600509c000d109c154840404000000000000fb82a80100000ad
:20a43100381cb1000020f00000000000000340000000020500082580000004007e5000002d
:0da45100000003c014000000000000000027
:20a45e000000000001c000000010000740000000000118bfbd5000009c380000000200010a
:20a47e00b5fa9504c002671fe0021400019c1ea95000208000000000018ede2950000000fe
:20a49e0064deb168000080000000000000004000000000059a1a258000002061dfd14100b3
:0da4be00000001aa94000000000000000052
:20a4cb000000000000000000000a000656fcc000402758b6728000000602d9ca0104000830
:20a4eb00cb3f6001000023fc0430000053085f730000814000000001870ffe73020040005b
:20a50b003ed0cc000000308001540000000435fd000000000000258000000042ef00004005
:0da52b000000a0000000000004000000007f
:20a538000000001018e00000000400422ed33100485d0e7bf018000106021bc560040018e8
:20a558000837912000814060a83030032981beccc0404080000000000980fbccc000a00023
:20a57800016c331200009811295440000003958d50000005801a25a0000006725c024000bc
:0da5980000581000000000000380000000cb
:20a5a500000000000105803c2000e0c00500f20000000ef03d4041600020e0f3000000f01e
:20a5c5008b43dc000004c01605f00000009db41544104000000000080000101548100680f8
:20a5e5007c005500000200f0000000001403400000000000000025800000002060500000c7
:0da6050000000340140000000000000000f1
:20a612000000000018cf63c000000002a4ef00000003007ea81021810e07eeff020037f87b
:20a632001733bc080000071fe0001001810e7ea9501080000000001380187e29502001404a
:20a652007d58550000000010000000000800000000000000007a25a000001407dad142005f
:0da672000000032a9400000000000000001a
:20a67f0000000000000f414c00000023f70cc00000010f70374020001c3c10960000001113
:20a69f00e0c258000000001e00f000082010f2dc8c0004000000000000801403c000000c9a
:20a6bf007040aa00400000e142a8000008202d0a300000000008258000000401407e000017
:0da6df0000580d82940000000000000000f3
:20a6ec000000000039cb700c0a00044707e33030000000761dc08000203d589602000031de
:20a70c0087aa58080008c78f8f020410100a86ec50000000000000000700773c0200003ec3
:20a72c002e6ca548000000103954800014e027e034a00000005225a00000200000bd0200a4
:0da74c0000980732800000000000000000af
:20a7590000000000700d434c0000c002050cc0001045100025800180803df0cc004002f00b
:20a779008d7f30000408003d9c320060018e3c154040008000000010a01d56730000421441
:20a799000030550000000000c154200000070fbab0000009000025800000142960ff00001c
:0da7b9000008a34014000001400000000053
:20a7c600000000000001624408000042a4e3302020019c1b2580c148407168330201058150
:20a7e6008ba8cc00081403068c160010491ad6a95840044000000028101b524cc040ae60c0
:20a80600305a55000030000321540400000297da10000008001a25a00000266f6cf7020043
:0da826000050172a940000020000000000fe
:20a833000000300009b17b80004a10243700f01002800a08154000009428fecc00000010ec
:20a85300e33dc8010000600403500028010006ec40000000000000018f880e2c40202e000a
:20a87300003055004002710d8154004002c4000000000000090025800020002810f50000aa
:0da8930000900d029400c000000009600458
:20a8a0000000100079f7fb5400c40846b6ef0000800180569540000120054d3300000098a8
:20a8c000c06ec5801001c000c3a2201008187bec5a0000000000000001015aec50400016d0
:20a8e00001fc5520000500877a9581400203000000000000015a25a00040146c7af5000036
:0da900000081a1b28000c0000696896400ad
:20a90d0000002000f0f98330008001e42c0cc2020027887bf9000c0f4074f00f01210000fa
:20a92d0003415401880be02eef800200108e141548110000000002500f1ad015420800068f
:20a94d00025f71012000000743d4208000000000000000058908258008000001c9300100fb
:0da96d0000089d80140080000002096000b9
:20a97a0000002800001128cd08aa02c387c33422801181dab0120a000e76ecf00028b10087
:20a99a000d7a9542a000e016be5002800781f6a954010100000002c0080af629541a0d2e00
:20a9ba006a5cb1002c000007728100a001e7800000000001817a25a00a00162a4fb140008d
:0da9da0000181d680000a0016014896c00c9
:20a9e7000000000170e081540000034016ecc000000100f632882000042450fa00000011d1
:20aa0700013dc8c000004636ae100009001002ec4200404000000002810b12360010014639
:20aa27002840aa000003b8c00000000008024000000000000003a5800000140358da0000c7
:0daa470000000d02940000000000096040b6
:20aa54000000000000d371540000020605e330000008007bb010100020007ea06800000031
:20aa7400802ec500000207adec200010901a72ec5400a000000000000b800379180081647d
:20aa9400044ca56001033010000000000400000000000000007825a0000036604aa5000043
:0daab40000000532800000000006896c00e3
:20aac10000000000b18000000000484200096080100108db2ac200e1022050f500428008df
:20aae100000000000012462d0aa001000100082580000000000000408150b003c0010014de
:20ab010000000000000000000000001000000000000012000000000000003400f05f080087
:0dab210000500b40280000000002096000f9
:20ab2e000000000090e00000000015439ec96020201819fea9d000c09e77daa0410130507f
:20ab4e00000000000008666daa56010008005a259000014000000000001eb2bc0800000c13
:20ab6e0000000000000000000000000000000000000020001a000000000000016aff418062
:0dab8e0000d8053a940000000004896c0016
:20ab9b000000000071000000000801422facc00400001936b60a0080006ecdcf0002025151
:20abbb000000000000000203bb109000000008258000c000000000080f0dd2f300000002c2
:20abdb000000000000000100000000000000000000000000000000000000002e5b98000038
:0dabfb000001a0000000000004020960003d
:20ac08000000000081c0000000040007fcb33000038018b7f01000801e7859c541000181b8
:20ac2800e00000000420004dfb14100211805a25b000c000000000030101b70cc000081e6c
:20ac480070000000000000800000000000000000000000058000000000000002dda44000b4
:0dac68000050b00000000000038e896d0058
:20ac75000000010030f041a40012c3c28f0a0200214f08ff730000000023f0cc004002700c
:20ac95000137fc040000001d05510002000000258000000000000002008a04154010000058
:20acb500200000000000f0ed334400000000000000000000000000000000006cf842000065
:0dacd5000000033bfc0000000402096000c9
:20ace200000002c00007f1a50815a000548f560015a808160cc04010800558332200418013
:20ad0200ab7bdc0401a9c63faa55003c00005a25b000000000000004078a17954000100081
:20ad2200000000000040f8096d410401000000000000040000000000001016297de240002b
:0dad42004001a7b7dc000100028c896c0005
:20ad4f000000000500f94330000ca1c64205500000008852b60000011c3958cc00000071ee
:20ad6f00054154000061c400bb1204000000002580000000000000000980703300108e3c89
:20ad8f0001d053000000000b8144000000000000000000000077d900100014005b6400007d
:0dadaf0000500f2b8000000362c0096000ff
:20adbc0000000000001720cc080206474de5501000078937f0182100a0075f330000000161
:20addc0085f295c00041d30fbb14040000007a25b420400000000000038a728cc0804026b1
:20adfc00026803220000000debc408000000000000000000005a6910400026036fa4410054
:0dae1c000059a07b400000014016896c0029
:20ae290000000400f0df003c800000201c00f00040058f5b2ac000000226605001028010ca
:20ae4900b1c3fc000010540f055008280008082580100000000000000010742a800002bcd0
:20ae69000060e3000000b0d9834c0004000000000000000100000000000004000000000025
:0dae8900000803402800000140020960009d
:20ae960000000400180973c00000006007ef020040018056a9d0000c0665fef5504128d069
:20aeb600153b300800020295aa54041051995225bc000000000000000188821540000020ac
:20aed600304c910200005001724408000000000000000008000000000000206000000000b6
:0daef6000070053a940000020696896d0078
:20af030000001000d10f014c010008224ffe400000030b5351c01004142160aa100000085c
:20af23000542a80000484003bb10010010080825800000000000000281100000000c000064
:20af430001cbc2003038b001a6c8000000000000000000000000000000a0346360e501005c
:0daf630000000f6b8000c0000000096000be
:20af700000003000f9afa80c080001627efc0404014f189b205000001c6d58a560000011de
:20af9000c861540004120606fb15090300195225b4600000000000000b1e0000000c00000d
:20afb000004de60030000009aac400000000000000000000000000000040202f5e806200d8
:0dafd000005800734000c0000684896c002a
:20afdd0000002000000d4398008009e03d0d901200008abc33000840146a60dd002020d863
:20affd00bd038c0080000403055002005f00002582600200000000002000b4330008080289
:20b01d0029facc00228031000000000000000000000200000000000008003420c0ff000034
:0db03d0000000f40280080000002096000a4
:20b04a0000002900000d3b0408a007c014cc1022800100f70cc48aa0147bcc77022800d1b1
:20b06a00b972440ca0000215e552028008007225b63000000000000000005f0cc0aa000e73
:20b08a00027d3340290001c0000000000000000000028000000000000a0006064cf70200ed
:0db0aa000000053a9400a0000014896c001d
:20b0b70000000000f1edab400000002384fd000000000f9803c000408001586900000958bf
:20b0d7000923040000000000bb100000010f02258640000000000000030b5f33000000823f
:20b0f70078000000000031d0000000000000000000000000100000000000047260ff0000db
:0db11700000005fbfc0000000280c9600084
:20b124000000000000f5ef5400000160658d5000000000d6bc0000205e621b9600000210fb
:20b14400093f980000c8000cbb1608000d011025be0080000000000050003b8cc000004cba
:20b1640034000000000001e00000000000000000000000000a000000000000784af50000f5
:0db1840000000bbbdc000001604c096e00f8
:20b1910000000000000f79d00000a8026d05501411098037360040000023d0a00801027071
:20b1b1008782a801001340020550100081583754c0400000000000200f081c3d4000001cc2
:20b1d1003c000000000808000000000400000000000000000000000000000000000000000e
:0db1f1000000000000000000000000000051
:20b1fe00000000001807728181000567b48a5408200b0076f01000001424daf5410005802a
:20b21e001dea950000480017a5501000219d87e8d02020000000000008015e281000002e06
:20b23e0004000000000079e000000000000000000000000000000000000000000000000093
:0db25e0000000000000000000000000000e3
:20b26b000000000490f5f330000a01403f0c6010000f0b0015400000022dd0d800000010bb
:20b28b0085c3d400000a4382055000000f8077dc80000000000000000000d4140000a00079
:20b2ab000360cc000001000000000000000000000000000000000000000000000000000053
:0db2cb000000000000000000000000000076
:20b2d8000000000238fba0cc0404020297ec50200009007e954040400c2c5ec04240000002
:20b2f8001b7a818000166055a5508000210007ec5440000000000000038097bd500000048d
:20b3180000da33020002000000000000000000000000000000000000000000000000000004
:0db338000000000000000000000000000008
:20b345000000003008f76aac0000000005f6400010050d3211c80000002a68fe2084009077
:20b36500072f14850014434cee300000270ed41540000000000000200080f21c80000000ac
:20b3850025efcc000000f00942880000000000000000000000000000000000000000000005
:0db3a500000000000000000000000000009b
:20b3b200000002c03987ea9d4001400605be50002c0581d3e050001406045ee52181407868
:20b3d200036b0100010a0044c9100806c919ffa95800000000000004070886ac50000f0030
:20b3f200026f330000003801fa9c08000000000000000000000000000000000000000000c0
:0db41200000000000000000000000000002d
:20b41f000000000050dfab8c00002000000000000280cf040cc000000e004952200000d0cd
:20b43f000503d4020001c025cca000004010100640400040000000000000d42a84004002d3
:20b45f00000000000000f0034318000000000000000000000000000000000100000000007e
:0db47f0000000000000000000000000000c0
:20b48c00000000008093f244400000028000000000079f030cc880002e025da25000388160
:20b4ac00ebea81a400034334fc041000278cb389528000800000008001803f294000200ee4
:20b4cc003800000000008005ab1408000000000000000000000000000000000000000000dc
:0db4ec000000000000000000000000000053
:20b4f9000000000008f1403c000400e3970cc000000f00f3b3001080bc00d8ff0006801006
:20b519000982a8010a00402f05520020001e7436c040020000000020000014280000000cbc
:20b5390000d00f000000f0032e600000000000000000000000000000000000000000000092
:0db5590000000000000000000000000000e5
:20b5660000000000588923c000080067fea330200000183f8cc00005e6614ff7000404d98b
:20b5860089ea95800802c395ca540418000a9f02808000000000001001985abd50000000c6
:20b5a60001fcf0000000800ff3940000000000000000000000000000000000000000000082
:0db5c6000000000000000000000000000078
:20b5d3000000000018a9c140010040039f0cc000000108766800102042014bf5010000103c
:20b5f300e54344010001c2a5055004001100320802000140000000000000182940000000fb
:20b61300000000000000009000000000000000000000000000000000000000000000000087
:0db63300000000000000000000000000000a
:20b6400000000000300733d5002001e6f4833220000b813af89000200c225ae260003080f3
:20b66000183b890800000646ea5400000800828408000000000000020018bfa94200004042
:20b6800060000000000000000000000000000000000000000000000000000000000000004a
:0db6a000000000000000000000000000009d
:20b6ad0000002000000dc374008008001e0cc00203c0093a11c2480006382055003003009e
:20b6cd00f7234400800242a50f501200018b000200000000000002000b0c36360010008082
:20b6ed00340000000000d00000000000000000000000000000000000000000000000000039
:0db70d00000000000000000000000000002f
:20b71a0000002800180131dc48a0140017a33022802180bba0500a002604f85510280171c2
:20b73a00d0778800a0a0e01d8a0406800d0017020080000000000280000102b9100000409b
:20b75a000400000000000000000000000000000000000000000000000000000000000000cb
:0db77a0000000000000000000000000000c2
:20b78700100000003181a730000a01e3c1055000000000b3aa0000000437c8ca01020001d7
:20b7a7000583d42400096604bcc00008050096ffc00000000000000000007415480001409f
:20b7c700000000000000000000000000000000000000000000000000000000000000000062
:0db7e7000000000000000000000000000055
:20b7f4000000000001b5e0cc0004006284c5500000018057291800023c365cc070000000bb
:20b81400e92a810000a547e5e332001100009b7dc00000800000000003803729400000000e
:20b8340000000000000001e000000000000000000000000000000000000000000000000013
:0db8540000000000000000000000000000e7
:20b8610000000000000bc330010001c425c5700000000ddff30000403c21c9ca0000007822
:20b88100efa2ac800014602d0a0000280080983e80000000000000000f0f00000000000023
:20b8a100000000000000000000000000000000000000000000000000000000000000000087
:0db8c100000000000000000000000000007a
:20b8ce0000000000000520cc480002e3b49a741000451b7a4cc020a00067dbc0600004d18d
:20b8ee009ffe9d00000a400faf5400030380b328101000000000000003010000000000001f
:20b90e00000000000000000000000000000000000000000000000000000000000000000019
:0db92e00000000000000000000000000000c
:20b93b00060000040081003c40020144150cc000000f0834330040000201ddfa30000009ec
:20b95b00ab394820080242e50aa00000071eb82a80400000000000000710000000000000c7
:20b97b000000000000000000000000000000000000000000000000000000000000000000ac
:0db99b00000000000000000000000000009f
:20b9a8000000000201896bc000000207b7a33030000801bf0cc080000e007fe24000001131
:20b9c800c9fe45000008073eca541000001cb7295040000000000000070e00000000000037
:20b9e80000000000000000000000000000000000000000000000000000000000000000003f
:0dba08000000000000000000000000000031
:20ba15000000010000800000000062626d0aa000282b1ad403c000a0047acccf000008f000
:20ba35008fc2ec000003c2ec0a0110104b98041540000100000000000f800000000000000c
:20ba55000000000000000000000000000000000000000000000000000000000000000000d1
:0dba750000000000000000000000000000c4
:20ba82000000000000b00000000000e2a1c55000001f1c573c00004e2667dbc5410000f8da
:20baa2001763740800020015af540008090f1f1548000080000000000f80000000000000c9
:20bac200000000000000000000000000000000000000000000000000000000000000000064
:0dbae2000000000000000000000000000057
:20baef0000000000000582a8040003c3ae00f00000000013bf000000042e50aa000000f0b2
:20bb0f00e30330000017603d055010000b9d13f28810000000000020000f00000000000073
:20bb2f000000000000000000000000000000000000000000000000000000000000000000f6
:0dbb4f0000000000000000000000000000e9
:20bb5c000000000011a932940000000006ef001000019e96f918400000001e55000008b88b
:20bb7c001970cc0a1001e21eca541000090e873150000000000000000000000000000000ec
:20bb9c00000000000000000000000000000000000000000000000000000000000000000089
:0dbbbc00000000000000000000000000007c
:20bbc9000000000079fd3d98a0000063eeacc0000001087273c43001422460cc0100000836
:20bbe90000c154000003401500f01000000093264200000000000000000078330000000029
:20bc0900000000000002000000000000000000000000000000000000000000000000000019
:0dbc2900000000000000000000000000000e
:20bc360000000000b8890295020016602fc330000008001fb1504001d405fc330280007811
:20bc560007f154010020662dcf0100000000b829400000000000000000001f8cd4800000de
:20bc76000000000000000000000000000000000000000000000000000000000000000000ae
:0dbc960000000000000000000000000000a1
:20bca3000000020071ef003c000003602d8d900000018a1fa84c0000042ef00f0002000065
:20bcc300877b60200000626e0d30006010809a74080000000000010000001bb300000000fd
:20bce300000000000000000000000000000000000000000000000000000000000000000041
:0dbd03000000000000000000000000000033
:20bd10000000000081f563c0400402e03e9c1008000d00f6e450000020015af000000000c0
:20bd300011af01420003c034c91024002500f3b540000000000003000000ff0cc000000021
:20bd50000000000000000000000000000000000000000000000000000000000000000000d3
:0dbd700000000000000000000000000000c6
:20bd7d0000002100d8ebc33080800240270d3012030910b333cc088016000055002000082e
:20bd9d00c36628008000061efdb00200010b000000000000000002002d1f7654404000003e
:20bdbd00000000000000000000000000000000000000000000000000000000000000000066
:0dbddd000000000000000000000000000059
:20bdea0000002a00d81be8cc08a002063de9102281800e1fb1500a003460585500280011ad
:20be0a00a3379404a0000745ea0002800818000000000000000002800808bbe9c0000d002b
:20be2a000000000000380000000000000000000000000000000000000000000000000000c0
:0dbe4a0000000000000000000000000000eb
:20be57000000000051ff6730000000039dcfa0000000081bb90400002429cca00900000033
:20be77000b6bd4000002c2050aa01000000c7691c200000000000000000000000000000009
:20be970000000000000000000000000000000000000000000000000000000000000000008b
:0dbeb700000000000000000000000000007e
:20bec400000000007891accc0204e007bfc810000007199af018000026046ae24000005889
:20bee400033e0400000200158a5500002000b700100000000000000000000000000000001c
:20bf040000000000000000000000000000000000000000000000000000000000000000001d
:0dbf24000000000000000000000000000010
:20bf310000000000108bc2a8000000c61e055010000100b81540000100342055000100b039
:20bf5100bbffd40502000000000000000f8cb73d42000000000000000b0d00000001000051
:20bf7100700000000000000000000000000000000000000000000000000000000000000040
:0dbf910000000000000000000000000000a3
:20bf9e0000000000001f32950000020724ea50000000005f2950400080056a550102008156
:20bfbe00857b898004006000000000000380faa04000000000000000000000000000000099
:20bfde003c0000000000000000000000000000000000000000000000000000000000000007
:0dbffe000000000000000000000000000036
:20c00b00000000000080f6c4000000223efff10000070c0000000000002250fa010000719a
:20c02b008be54804000003a6d4200000000e0000000000000000000000000000000000008e
:20c04b000000000000000000000000000000000000000000000000000000000000000000d5
:0dc06b0000000000000000000000000000c8
:20c078000000000018d3fac5000000c3cfbf7000000198000000000000665ea04000000000
:20c09800ef3289000081c02e1e7400000000000000000000000000000000000000000000dd
:20c0b800000000000000000000000000000000000000000000000000000000000000000068
:0dc0d800000000000000000000000000005b
:20c0e5000000000000c743d4000000403e0a02040007cf0c154000000040c8d80000009820
:20c1050083434c000000022e0a000000001d000000000000000000000000000000000000b1
:20c125000000000000000000000000000000000000000000000000000000000000000000fa
:0dc1450000000000000000000000000000ed
:20c15200000000000189f28001000206bfaf54000001013215400020067218e4404010d089
:20c172001dba440900e00277ef540040001c00000000000000000000000000000000000e83
:20c1920000000000000000000000000000000000000000000000000000000000000000008d
:0dc1b2000000000000000000000000000080
:20c1bf000000000008d17760000000100e0fa010000b0e96b9800000800049db00028019ac
:20c1df00032990000200002e0500000000801f73000000800000000000000828000000008d
:20c1ff00000000000000000000000000000000000000000000000000000000000000000020
:0dc21f000000000000000000000000000012
:20c22c000000000030187b91000400603eaa04000000081ea90000001e02418160000091ac
:20c24c00c7e794001000002faf56000003007bccc80004000000000000007fa800400000cf
:20c26c000000000000000000000000000000000000000000000000000000000000000000b2
:0dc28c0000000000000000000000000000a5
:20c2990000000000100fc1402100014005f7200000000f741400400a0002587208000078ba
:20c2b9000503300400f0642d0a0080004000000000000000000000000000000000000100dd
:20c2d9000010550101000000000000000000000000000000000000000000000000000000de
:0dc2f9000000000000000000000000000038
:20c306000000000080032bd50000006020bb1404000018bbbd540000007a0eb1408202b0b0
:20c326000930cc4800eb42b6af550003200000000000010000000003c0000000000000805c
:20c34600007e55000000000000000000000000000000000000000000000000000000000004
:0dc3660000000000000000000000000000ca
:20c3730000000000000775c8400003c01705000430008f9614800000240250501100000083
:20c393000f4330000000421f05501020001000000000000000000000000000000000000012
:20c3b30000000000000000000000000000000000000000000000000000000000000000006a
:0dc3d300000000000000000000000000005d
:20c3e0000000000001803ac5000002663eef54002803013a2890000036684ef54000020093
:20c40000af78cc0a00026654ea570010001e000000000000000000000000000000000000f4
:20c420000000000000000000000000000000000000000000000000000000000000000000fc
:0dc4400000000000000000000000000000ef
:20c44d000000203010054154008403e03cfe2082000f80f4154448000460ea0000210008f7
:20c46d00b3f330008000026c0a000000400000000000000000000000000000000000012c74
:20c48d0000000000000000000000000000000000000000000000000000000000000000008f
:0dc4ad000000000000000000000000000082
:20c4ba0000002800800f329500a8004020ad14028007007729500a0020767880002a8070f0
:20c4da0001f4cc02a000003eaf540000201e000000000000000000000000000000000080e0
:20c4fa00000000000000000000000000000000000000000000000000000000000000000022
:0dc51a000000000000000000000000000014
:20c5270000000000000702a800000003c6c00000000f081b3308000002325b00000000902e
:20c54700d3f15c0000000016050100000f00043d4200000000000000000000000000000006
:20c567000020fa10000000000000000000000000000000000000000000000000000000008a
:0dc5870000000000000000000000000000a7
:20c594000800000000037a94000000007cd80000000809d38cc000040400dc800000000086
:20c5b40007369d000000000eaf54000008007e3d4200000000000000000000000000000077
:20c5d40001fcfa000000000000000000000000000000000000000000000000000000000050
:0dc5f400000000000000000000000000003a
:20c6010000000000000000000000000000000000000d0ed03fc01000002160f5010038016f
:20c6210003c280200003e21f0f5000000b087372c000000000000000500800000000000021
:20c641000000000000000000000000000000000000000000000000000000000000000000d9
:0dc6610000000000000000000000000000cc
:20c66e0000000000000000000000000000000000000001dbbf40800000076aa040080000f8
:20c68e00e36bd500000360778a0400000101fbf05000000000000003a00100000000000020
:20c6ae0000000000000000000000000000000000000000000000000000000000000000006c
:0dc6ce00000000000000000000000000005f
:20c6db000000000000000000000000000000000000150ab3000000800029e0f520000000cf
:20c6fb008f350800000002f50500001000085c1400000000000000000f0034280000000064
:20c71b000000000000000000000000000000000000000000000000000000000000000000fe
:0dc73b0000000000000000000000000000f1
:20c748000000000018000000000000000000000010058073200000000c05f8a04000001890
:20c768001b079d000000007fef540020019fb7bd50000000000000000180f7bd5000000027
:20c78800000000000000000000000000000000000000000000000000000000000000000091
:0dc7a8000000000000000000000000000084
:20c7b5000000000000000000000000000000000000000dffffc000000000d0fa00000200cd
:20c7d5008582a8000a03c03c050000002000f35c80000000000000000b000000000000008d
:20c7f500000000000000000000000000000000000000000000000000000000000000000024
:0dc815000000000000000000000000000016
:20c822000000000000e000000000000000000000000000d6bdc00000066bc8a041000000a9
:20c84200196294041402002faf540000101806ac5000000000000000080000000001000048
:20c862000000000000000000000000000000000000000000000000000000000000000000b6
:0dc8820000000000000000000000000000a9
:20c88f00000000000000000000000020040f5004000d1eb02800000000205ed80000001099
:20c8af00ab014000000000360aa00000501f7231c0100000000000000000000000000000bb
:20c8cf00000000000000000000000000000000000000000000000000000000000000000049
:0dc8ef00000000000000000000000000003c
:20c8fc000000000000000000000001c016ca040003051c96bd504000006e0ee44000007858
:20c91c001b6bd5000001e01cca501000001cfaf05000000000000000000000000000000023
:20c93c000000000000000000000000000000000000000000000000000000000000000000db
:0dc95c0000000000000000000000000000ce
:20c969000000000000000000000000400000000000010d00000000203c3e40aa08000010c4
:20c98900034280400400001d0a00000000005fa1400000000000000000000000000000001e
:20c9a90000000000000000000000000000000000000000000000000000000000000000006e
:0dc9c9000000000000000000000000000061
:20c9d6000000000000000000000002000000000000099f000000004020646ea5408000817f
:20c9f600832bd50000006636af540000018053f950000000000000000000000000000000e2
:20ca1600000000000000000000000000000000000000000000000000000000000000000000
:0dca360000000000000000000000000000f3
:20ca430000000000000000000000000000000000000110942a804000022820f500000010f5
:20ca6300074140800000020d0a0004100d00f82d400000000000000001000000000000000b
:20ca8300000000000000000000000000000000000000000000000000000000000000000093
:0dcaa3000000000000000000000000000086
:20cab0000000000000000000000000000000000000099e7b295000201c64dcf500000081d9
:20cad000833bd50000000664af540028001877a8508000000000000008000000000000000f
:20caf000000000000000000000000000000000000000000000000000000000000000000026
:0dcb10000000000000000000000000000018
:20cb1d0000002000000b02800180000000000002000000935c800800042b50ff002000f0c3
:20cb3d000531c820801003850fa0020001000c3e8000000000000200400050140000000080
:20cb5d000000000000000000000000000000000000000000000000000000000000000000b8
:0dcb7d0000000000000000000000000000ab
:20cb8a000000280000093bd501a000000000000280000a82ac500a0c3c026cf7022800803e
:20cbaa00083ac500a008000eaa0402800800323e80000e000000028020003bbd500000008e
:20cbca0000000000000000000000000000000000000000000000000000000000000000004b
:0dcbea00000000000000000000000000003e
:20cbf7000000000050000000000002400000000000008858140c0000003f79ff00000000d5
:20cc1700ed0140240000001c05501028000d000000000000000000000000343d4000000044
:20cc37000000000000000000000000000000000000000000000000000000000000000000dd
:0dcc570000000000000000000000000000d0
:20cc64000000000000000000000000000000000000070132bd5000a08060ebf70000000007
:20cc84001b2bd50000006024ca5000100000000000000000000000000000d7a81000000038
:20cca400000000000000000000000000000000000000000000000000000000000000000070
:0dccc4000000000000000000000000000063
:20ccd100000000300080000000000806270a000000000974280000000002d0a0000020001d
:20ccf10000000000000002170a0000000118b8158000000000000000000800000000000092
:20cd1100000000000000000000000000000000000000000000000000000000000000000002
:0dcd310000000000000000000000000000f5
:20cd3e000000000000100000002014027faf54000005801ebd50000000027af540000000ac
:20cd5e0000000000000002ffaf540000080dfaa95080000000000000000100000000000028
:20cd7e00000000000000000000000000000000000000000000000000000000000000000095
:0dcd9e000000000000000000000000000088
:20cdab00000000005089428000000000250a0000000708b4280000000022f0aa00003000c7
:20cdcb0000000000000000060f5100000088083d4000000000000000000814280000000091
:20cdeb00000000000000000000000000000000000000000000000000000000000000000028
:0dce0b00000000000000000000000000001a
:20ce18000000000098177bd5000000002fef540000018116bd50000006067ca54100000076
:20ce3800000000000000003eaa040000070116bd4000000000000000018197bd50000000ad
:20ce58000000000000000000000000000000000000000000000000000000000000000000ba
:0dce780000000000000000000000000000ad
:20ce850000000000000f81400000002000000000000008d39c8000000062c0a000000000e4
:20cea5000000000000000000000000100000382800000000000000100000f01400002000c9
:20cec50000000000000000000000000000000000000000000000000000000000000000004d
:0dcee5000000000000000000000000000040
:20cef2000000000000096bd5000000400000000040010086ac500000007f5af540000000c6
:20cf120000000000100000000000002007d856bd500000000000002800009ebd500040007a
:20cf32000000000000000000000000000000000000000000000000000000000000000000df
:0dcf520000000000000000000000000000d2
:20cf5f000000000000058140000000003605000000050ed82a80000000000000000000001c
:20cf7f0000000000000000030af000000780782800100000000000000000521c8000000070
:20cf9f00000000000000000000000000000000000000000000000000000000000000000072
:0dcfbf000000000000000000000000000065
:20cfcc0000000000000d6bd50000000027af540000080157294010000000000000000000f5
:20cfec0000000000000000168af2000007185fbd5000000000000000000086ec5000000046
:20d00c00000000000000000000000000000000000000000000000000000000000000000004
:0dd02c0000000000000000000000000000f7
:20d03900000000001005c140000000400000000000000874280010000002f0a0000000003b
:20d05900000000000001c3c0000000000b0bfb71c800000000000000010054140000000080
:20d07900000000000000000000000000000000000000000000000000000000000000000097
:0dd09900000000000000000000000000008a
:20d0a6000000000098092bd500000206000000000001995abd50000006624af540000000d9
:20d0c6000000000000020600000000000180fb3050000c000000000009809abd500000000a
:20d0e60000000000000000000000000000000000000000000000000000000000000000002a
:0dd10600000000000000000000000000001c
:20d113000000000010edc140000000400000000000000d741400000004037050000038002a
:20d13300000000000002c000000000000190541400000000000000000100d61c80000000ae
:20d153000000000000000000000000000000000000000000000000000000000000000000bc
:0dd1730000000000000000000000000000af
:20d180000000000081953bd50000020000000000000018f3bd5000003460eef54000000098
:20d1a0000000000000020000000000000d0ab3bd5000000000000001881803ec50000000b6
:20d1c00000000000000000000000000000000000000000000000000000000000000000004f
:0dd1e0000000000000000000000000000042
:20d1ed0000002100000f8140008000074000000200050070280208003c43cd720000000003
:20d20d00000000008001c0000000020000801b1580000000000002020f00f0140000000077
:20d22d000000000000000000000000000000000000000000000000000000000000000000e1
:0dd24d0000000000000000000000000000d4
:20d25a0000002a0000013bd500a000078000000280080033bd500a0000280fb14000000056
:20d27a0000000000a00200000000028003807ae950000000000002c000001bbd5000000050
:20d29a00000000000000000000000000000000000000000000000000000000000000000074
:0dd2ba000000000000000000000000000067
:20d2c7001000000000e7814080000000250f5000000000b8154000000029e0500000000025
:20d2e7000000000000000400000000000010702802000000000000000080721c88000000e3
:20d30700000000000000000000000000000000000000000000000000000000000000000006
:0dd3270000000000000000000000000000f9
:20d334000000000000152bd50000000035ea0400000780ff294800000004eaf5400018006f
:20d35400000000000000030000000000019e1abd5000000000000000050002ec50000000ad
:20d37400000000000000000000000000000000000000000000000000000000000000000099
:0dd39400000000000000000000000000008c
:20d3a100000000000880000000000002000000000000000000000000000370a000000000cf
:20d3c1008b428000000003c0000000002000142800400000000000000000000000000000a0
:20d3e10000000000000000000000000000000000000000000000000000000000000000002c
:0dd40100000000000000000000000000001e
:20d40e0000000000701000000000000040000000000000000000004000025af5400000006d
:20d42e0011ebd500000000400000000000009ebd50000e0000000000000000000000000014
:20d44e000000000000000000000000000000000000000000000000000000000000000000be
:0dd46e0000000000000000000000000000b1
:20d47b000000000000874280000003c00e0f50000000080000000000000000000000000010
:20d49b008fc280000000020000000000000d00000000000000000000000000000000000091
:20d4bb00000000000000000000000000000000000000000000000000000000000000000051
:0dd4db000000000000000000000000000044
:20d4e80000000000181dfbd5000002601eca04000020010000000000060000000000001991
:20d50800f1fbd5000000604000000000018100000000000000000000000000000000000020
:20d528000000000000000000000000000000000000000000000000000000000000000000e3
:0dd5480000000000000000000000000000d6
:20d555000000000008038280000000003c0500000000000000000000000000000000000068
:20d575000b828000002003fc0a0000000d80000000000000000000000000000000000000d3
:20d59500000000000000000000000000000000000000000000000000000000000000000076
:0dd5b5000000000000000000000000000069
:20d5c20000000000700debd5000000002daf540000000000000000000000000000000000dc
:20d5e200016bd5000000006daf5600000380000000000000000000000000000000000000f3
:20d60200000000000000000000000000000000000000000000000000000000000000000008
:0dd6220000000000000000000000000000fb
:20d62f000000000000050140000003c294c720000000000000000000000260a00000000053
:20d64f00058140000001402e0a00000000003a31c000000000000000000000000000000051
:20d66f0000000000000000000000000000000000000000000000000000000000000000009b
:0dd68f00000000000000000000000000008e
:20d69c0000000000000bebd5000003e061ab1400000000000000000000027af540000001ee
:20d6bc00eb6bd58000034027af5400000000f770500000000000000000000000000000007f
:20d6dc0000000000000000000000000000000000000000000000000000000000000000002e
:0dd6fc000000000000000000000000000021
:20d70900000000001100000000000040150500000070000000000000043c000000000010d5
:20d729000000000000004017050000000000941400000000000000000000000000000000dc
:20d749000000000000000000000000000000000000000000000000000000000000000000c0
:0dd7690000000000000000000000000000b3
:20d776000000000098800000000002602caf5400007000000000000020640000000000995d
:20d79600800000000002602eaf5400000398dabd50000000000000000000000000000000de
:20d7b600000000000000000000000000000000000000000000000000000000000000000053
:0dd7d6000000000000000000000000000046
:20d7e300000000001007c2800000004000000000000000dc28000000000000000000001079
:20d803000fc280000000402d0a0000002108d69c8000000000000000000000000000000022
:20d823000000000000000000000000000000000000000000000000000000000000000000e5
:0dd8430000000000000000000000000000d8
:20d8500000000000800fbbd5000002060000000000001e13bd5000000000000000000080d3
:20d8700007bbd5000002062cef540000581902ec50000000000000000000000000000000db
:20d89000000000000000000000000000000000000000000000000000000000000000000078
:0dd8b000000000000000000000000000006b
:20d8bd0000002000000f31c8008000001e0a00021000000000000800007f60a00020005171
:20d8dd000f8140008000043e050002002110d014001000000000000000000000000000006d
:20d8fd0000000000000000000000000000000000000000000000000000000000000000000b
:0dd91d0000000000000000000000000000fd
:20d92a000000280000003ec500a000000cef5402a000000000000a00002f6ef5402800819c
:20d94a00e73bd500a000028eef5402801b8a5bbd50000000000000000000000000000000c4
:20d96a0000000000000000000000000000000000000000000000000000000000000000009d
