:02000000ff00ff
:080002004c6174746963650030
:17000a00694345637562653220323031372e30382e32373934300069
:15002100506172743a2069434534304c50384b2d434d3831003f
:1b003600446174653a2053657020313220323031392031333a35383a30350076
:0200510000ffae
:040053007eaa997e6a
:02005700510056
:0200590001059f
:03005b00920020f0
:03005e00620367d3
:0300610072011019
:0300640082000017
:02006700110086
:02006900010193
:20006b00000000000000000000000000000000000000000000000000000000000000000075
:20008b00000000000000000000000000000000000000000000000000000000000000000055
:2000ab00000000000000000000000000000000000000000000000000000000000000000035
:0d00cb000000000000000000000000000028
:2041fd0000000000000000000001000000000000040000000000001000000000000040004d
:20421d00000000000000000000000000000000000000000000000000000000000000000081
:20423d00000000000000000000000000000000000000000000000000000000000000000061
:0d425d000000000000000000000000000054
:20426a00000000000000000000000000000000000000000000000000000000000000000034
:20684f0000000000000000000000000000000000000000f30cc0000000000000000000006a
:20686f00000000000000000000000000000000000000000000000000000000000000000009
:20688f000000000000000000000000000000000000000000000000000000000000000000e9
:0d68af0000000000000000000000000000dc
:2068bc0000000000000000000000000000000000000000b7f3001000000000000000000002
:2068dc0000000000000000000000000000000000000000000000000000000000000000009c
:2068fc0000000000000000000000000000000000000000000000000000000000000000007c
:0d691c00000000000000000000000000006e
:2069290000000000000000000000000000000000000000000000000000000000000000004e
:2069490000000000000000000000000000000000000000000000000000000000000000002e
:2069690000000000000000000000000000000000000000000000000000000000000000000e
:0d6989000000000000000000000000000001
:206996000000000000000000000000000000000000000000000000000000000000000000e1
:2069b6000000000000000000000000000000000000000000000000000000000000000000c1
:2069d6000000000000000000000000000000000000000000000000000000000000000000a1
:0d69f6000000000000000000000000000094
:206a03000000000000000000000000000000000000000c0000000000000000000000000067
:206a2300000000000000000000000000000000000000000000000000000000000000000053
:206a4300000000000000000000000000000000000000000000000000000000000000000033
:0d6a63000000000000000000000000000026
:206a7000000000000000000000000000000000000000000000000000000000000000000006
:206a90000000000000000000000000000000000000000000000000000000000000000000e6
:206ab0000000000000000000000000000000000000000000000000000000000000000000c6
:0d6ad00000000000000000000000000000b9
:206add00000000000000000000000000000000000000010000000000000000000000000098
:206afd00000000000000000000000000000000000000000000000000000000000000000079
:206b1d00000000000000000000000000000000000000000000000000000000000000000058
:0d6b3d00000000000000000000000000004b
:206b4a000000000000000000000000000000000000000d000000000000000000000000001e
:206b6a0000000000000000000000000000000000000000000000000000000000000000000b
:206b8a000000000000000000000000000000000000000000000000000000000000000000eb
:0d6baa0000000000000000000000000000de
:206bb7000000000000000000000000000000000000001e00000000000000000000000000a0
:206bd70000000000000000000000000000000000000000000000000000000000000000009e
:206bf70000000000000000000000000000000000000000000000000000000000000000007e
:0d6c17000000000000000000000000000070
:206c2400000000000000000000000000000000000007000000000000000000000000000049
:206c4400000000000000000000000000000000000000000000000000000000000000000030
:206c6400000000000000000000000000000000000000000000000000000000000000000010
:0d6c84000000000000000000000000000003
:206c91000000000000000000000000000000000000000000000000000000000000000200e1
:206cb1000000000000000000000000000000000000000000000000000000000000000000c3
:206cd1000000000000000000000000000000000000000000000000000000000000000000a3
:0d6cf1000000000000000000000000000096
:206cfe00000000000000000000000000000000000000000000000000000000000000050071
:206d1e00000000000000000000000000000000000000000000000000000000000000000055
:206d3e00000000000000000000000000000000000000000000000000000000000000000035
:0d6d5e000000000000000000000000000028
:206d6b00000000000000000000000002bcbd060000081f53021000002001e096c0000000a4
:206d8b000000000000000000000000000000000000000000000000000000000000000000e8
:206dab000000000000000000000000000000000000000000000000000000000000000000c8
:0d6dcb0000000000000000000000000000bb
:206dd80000000000000000000000000407cc011000010ade000800a0040008960000000080
:206df80000000000000000000000000000000000000000000000000000000000000000007b
:206e180000000000000000000000000000000000000000000000000000000000000000005a
:0d6e3800000000000000000000000000004d
:206e4500000000000000000000a080000faa040280000037fdc00a000001c896c028000089
:206e65001000000000000000000000000000000000000000000000000000000000000000fd
:206e85000000000000000000000000000000000000000000000000000000000000000000ed
:0d6ea50000000000000000000000000000e0
:206eb200000000000000000000800342c10a00020000009fffc00800000000960020020010
:206ed200f00000000000000000000000200000000000000000000000000000000000000090
:206ef200000000000000000000000000000000000000000000000000000000000000000080
:0d6f12000000000000000000000000000072
:206f1f00000000000000000000000000148f500000000a7f3dc8900000654896c00000003e
:206f3f0007bf950200000000000000000000000000000000000000000000000000000000d5
:206f5f00000000000000000000000000000000000000000000000000000000000000000012
:0d6f7f000000000000000000000000000005
:206f8c00000000000000000000000002c30f500000001b343fc2400000202096000000005b
:206fac000b75284100000000000000000000000000000000000000000000000000000000dc
:206fcc000000000000000000000000000000000000000000000000000000000000000000a5
:0d6fec000000000000000000000000000098
:206ff900000000000000000000000142acef0208000000000000000026054896e000007136
:20701900cde8cc0000000000000000000000000000000100000000000000000000000000d5
:20703900000000000000000000000000000000000000000000000000000000000000000037
:0d705900000000000000000000000000002a
:207066000000000000000000000000242d00f10000000000000000080420209600000801dd
:207086000b7b30200000000000000000000000000000000000000000000000000000000014
:2070a6000000000000000000000000000000000000000000000000000000000000000000ca
:0d70c60000000000000000000000000000bd
:2070d3000000000000000000000000000000000000000e733d40000000016896c0000000e0
:2070f30010000000000000000000000000000000000000000000000000000000000000006d
:2071130000000000000000000000000000000000000000000000000000000000000000005c
:0d713300000000000000000000000000004f
:207140000000000000000000000001400000000000050a1c3fc0000000000096000000002e
:2071600080000000000000000000000000000000000000000000000000000000000000008f
:207180000000000000000000000000000000000000000000000000000000000000000000ef
:0d71a00000000000000000000000000000e2
:2071ad000000000000000000000202028faa04003840183a2058800000016896c0000000fe
:2071cd0081f940800000000000000000000000000000000000000000000000000000000068
:2071ed00000000000000000000000000000000000000000000000000000000000000000082
:0d720d000000000000000000000000000074
:20721a00000000000000000000000140000a0000380d00d4214010000000009600000001e8
:20723a0090c1400000000000000000000000000000000000000000000000000000000000a3
:20725a00000000000000000000000000000000000000000000000000000000000000000014
:0d727a000000000000000000000000000007
:20728700000000000000000000000007bc9d0600008581000000000086016896c000000036
:2072a7001000000000000000000000000000000000000000000000000000000000000000b7
:2072c7000000000000000000000000000000000000000000000000000000000000000000a7
:0d72e700000000000000000000000000009a
:2072f40000000000000000000000000687cc001000000800000000004000209600000070a3
:20731400e00000000000000000000000000000000000000000000000000000000000000079
:20733400000000000000000000000000000000000000000000000000000000000000000039
:0d735400000000000000000000000000002c
:207361000000000000000000000000000f8a0400000d8b7bbd4000000061e896c000008040
:2073810080000000000000000000000000000000000000000000000000000000000000006c
:2073a1000000000000000000000000000000000000000000000000000000000000000000cc
:0d73c10000000000000000000000000000bf
:2073ce00000000000000000000000000010a000000050a003d40000034002096000008f125
:2073ee000000000000000000000000000000000000000080000000000000000000000000ff
:20740e0000000000000000000000000000000000000000000000000000000000000000005e
:0d742e000000000000000000000000000051
:02743b0000004f
:02743d0011013b
:02743f00010149
:20744100000000000000000000000000000000000000000000000000080000000002000021
:2074610000000000000000000000000000000000000000000000000000000000000000000b
:207481000000000000000000000000000000000000000000000000000000000000000000eb
:0d74a10000000000000000000000000000de
:2074ae000000000000000000000000000000000000000000000000000100000000000000bd
:2074ce0000000000000000000000000000000000000000000000000000000000000000009e
:2074ee0000000000000000000000000000000000000000000000000000000000000000007e
:0d750e000000000000000000000000000070
:20751b0000000000000000000000000000000000000000000000000000000000000100341b
:20753b00000000000000000000000000000000000000000000000000000000000000000030
:20755b0000060000000000000000000000000000000000000000000000000000000000000a
:0d757b000000000000000000000000000003
:207588000000000000000000000000000000000000000000000000000000000000000000e3
:2075a8000000000000000000000000000000000000000000000000000000000000000000c3
:2075c8000000000000000000000000000000000000000000000000000000000000000000a3
:0d75e8000000000000000000000000000096
:2075f500000000000000000000000000000000000000000000000000000000000002000074
:20761500000c00000000000000000000000000000000000000000000000000000000000049
:20763500000000000000000000000000000000000000000000000000000000000000000035
:0d7655000000000000000000000000000028
:20766200000000000000000000000000000000000000000000000000000000000000000008
:207682000004000000000000000000000000000000000000000000000000000000000000e4
:2076a2000000000000000000000000000000000000000000000000000000000000000000c8
:0d76c20000000000000000000000000000bb
:2076cf00000000000000000000000000002400000000000000000000000000000000000077
:2076ef0000000000000000000000000000000000000000000000000000000000000000007b
:20770f0000000000000000000000000000000000000000000000000000000000000000005a
:0d772f00000000000000000000000000004d
:20773c0000000000000000000000000000200000000000000000000000000000000000000d
:20775c0000000000000000000000000000000000000000000000000000000000000000000d
:20777c000000000000000000000000000000000000000000000000000000000000000000ed
:0d779c0000000000000000000000000000e0
:2077a9000000000000000000000000001000000000000000000000000000000000000000b0
:2077c900000000000000002000000000000000000000000000000000000000000000000080
:2077e90000010000000000000000000000000000000000000000000000000000000000007f
:0d7809000000000000000000000000000072
:20781600000000000000000000000000000000000000000000000000000000000000000052
:20783600000000000000000000000000000000000000000000000000000000000000000032
:20785600000000000000000000000000000000000000000000000000000000000000000012
:0d7876000000000000000000000000000005
:2078830000000000000000000000000000000000000000000000000003000d0000000000d5
:2078a3000000000000000000000000000000000000000000000000000000000000000000c5
:2078c3000000000000000000000000000000000000000000000000000000000000000000a5
:0d78e3000000000000000000000000000098
:2078f00000000000000000000000000000000000000000000000004008000d000000000023
:2079100000000000080000000000000000000000000000000000000000000000000000004f
:20793000000000000000000000000000000000000000000000000000000000000000000037
:0d795000000000000000000000000000002a
:20795d0000000000000000000000000000000000000000000000000000000000000000000a
:20797d000000000000000000000000000000000000000000000000000000000000000000ea
:20799d000000000000000000000000000000000000000000000000000000000000000000ca
:0d79bd0000000000000000000000000000bd
:2079ca0000000000000000000000000000000000000000000000004000000000000000005d
:2079ea00000000000400000000000000000000000000000000000000000000000000000079
:207a0a0000000000000000000000000000000000000000000000000000000000000000005c
:0d7a2a00000000000000000000000000004f
:207a370000000000000000000000000000000000000000000000000000000000000000002f
:207a570004000000000000000000000000000000000000000000000000000000000000000b
:207a77000000000000000000000000000000000000000000000000000000000000000000ef
:0d7a970000000000000000000000000000e2
:207aa400000000000000000000000000000000000000000000000080000000000000000042
:207ac400000000000800000000000000000000000000000000040000000000000000000096
:207ae400000000000000000000000000000000600000000000000000000000000000000022
:0d7b04000000000000000000000000000074
:207b11000000000050ef809006000260050a011300000000000000003c7d59c301000000a4
:207b3100f000000000000235af0008000088342800000000000000000000342800400000d6
:207b51006400000000000000000000000000000000000000000000000000000000000000b0
:0d7b71000000000000000000000000000007
:207b7e0000000000d99fe829490002662def540300070000000000000621ebd140000018f8
:207b9e00e00000000000006dae2408100799d7bd50400000000000000780bebd500000007a
:207bbe00240000000010000000000000000000000000100000000000000000000000000063
:0d7bde00000000000000000000000000009a
:207beb00000000000080828000000040340e00040020007029400000002360a9000002004b
:207c0b00000000000009c02d05008000000f7c2800400c4000000000000800000000401c3b
:207c2b002060f5008000000000000004e80000000000000000000000000000000000000058
:0d7c4b00000000000000000000000000002c
:207c58000000000058172a800000c20020ed0020001100001680000000057ca5420000787d
:207c7800000000000002603def5408000001bfbd5800008000000000000100000000200686
:207c9800276ea040000000000000000804000000000000000000000000000000000000004b
:0d7cb80000000000000000000000000000bf
:207cc5000000000000093ff8000000000f00000000000008280000000243d9ff00000011f2
:207ce500f503d40100006380000000000080382800000000000000000100000000000140ad
:207d05003af8c3010000000000000000000000000000000000000000000000000000000068
:0d7d25000000000000000000000000000051
:207d32000000000001883bf40000016006ca00100000005aa80000001c3adeef0000008192
:207d5200ffba810400e1e00000000000079e96bd5060000000000000078000000000009e45
:207d720001fdd14000000000000000000000000000000000000000000000000000000000e2
:0d7d920000000000000000000000000000e4
:207d9f00000000000080c280000201c2a405b080000008b00008000017004019290000010a
:207dbf008b730c000003e2648d300000201c14330000000000000000100078280000000061
:207ddf0043fae3000000000000000000000000000000030000000000000000000000000061
:0d7dff000000000000000000000000000077
:207e0c000000000000176280000401604fea5028000181302940000c3e027e25724000018a
:207e2c00f9ff458000006005d8340000478f138cc080000000000080200096bd52000140cd
:207e4c00387f910800000000000000000000000000000000000000000000000000000000c6
:0d7e6c000000000000000000000000000009
:207e7900000000000007c28002080002f68400000000100733c0000014225e00000000502c
:207e9900c5c3d4000003c29d0a000000000edb3300000000000000200100f41404100002a6
:207eb900200000000000000000000000000000000000000000000000000000000000000089
:0d7ed900000000000000000000000000009c
:207ee60000000000180d23d50000000697e0000000001c0333c802002c057f7a000000801c
:207f06000d2281000003e6078f560400419b5e0cc80000000000000008187abd5000009e7f
:207f260004000000000000c000000000000000000000000000000000000000000000000077
:0d7f4600000000000000000000000000002e
:207f5300000000009000400c00000142ac0fa003000080b83fc000002c7870a0008008001e
:207f73000bc148200001c64eaf018000010e00000000a000000000030300742800004004e0
:207f93000070a000800010000000000400000000000000000000000000000000000000002a
:0d7fb30000000000000000000000000000c1
:207fc000000000008180780d4900f00040cf510108038c1000100000067f4ef54080000141
:207fe000817ad508000203d7be2600000f01000000004a00000000000818d3bd501220203d
:20800000036ef540000080000000000a000000000000000000000000000000000000000030
:0d8020000000000000000000000000000053
:20802d00000020000109832c00c000033405a00200000036668008000402c050202000b092
:20804d000b43bc40806043de0a0102000580de3fc200000000000220000000000008400ce1
:20806d00014050012000000000000000000000000000000000000000000000000000000041
:0d808d0000000000000000000000000000e6
:20809a0000002800018fba2408a000e0600a55028000000319500a002c626af5482800583c
:2080ba0001fbfc08a0020054ef5402800580b7fdc00040000000029000000000000a0146cf
:2080da00706ef5502802000000000000000000000000000000000000000000000000000039
:0d80fa000000000000000000000000000079
:208107000000000000dbbb680014000376910000020010b01680010004404e6a08000001de
:20812700a0c2bc000600036dc98000000f0f78280a000080000000000000000000006000b3
:208147000040f5010000040d028021000000000000000000000000000040000000000000ee
:0d816700000000000000000000000000000b
:20817400000000000013ac140010006074a1810000001e303fc801002030dba540000000ac
:20819400d3eabc000801600cbe5200000b80b2bd5000014000000000000e000000008000b4
:2081b400035ca040000050092bd50000000000000000000000000000008000000000000093
:0d81d400000000000000000000000000009e
:2081e100000000005007c3c081000002270ff0001005097f6fc8000000200000000288d8a5
:2082010007c280200008022d0f82000047009a0000000000000000080f1ef403c2000094c9
:208221002ce0f5000010008583fc0000000200000000200000000000000000000000000006
:0d8241000000000000000000000000000030
:20824e0000000000018febd500000003ddaf70202000003b3fc00000060400000000003805
:20826e00096bd500000003f4ae06200029c073a00000000000000000010c773c00000176a9
:20828e003f7aa0608000100f33dc2800000040000000000000000000000000000000000001
:0d82ae0000000000000000000000000000c3
:2082bb000000010250013c2800000004020f50000009807a6a400000a426505000800000ef
:2082db000d6000800a11c2bcbff390080f88000000000e00000000000908ba94800080248b
:2082fb002250a0000118d007ebfc0000e002270a0010000000000000000000000000000057
:0d831b000000000000000000000000000055
:208328000000000580ef78180000000297af5000000d185ae95020002606fef548800018c2
:208348000922000004026066def208000d19000000000000000000000181b32d5000402608
:20836800065af5410200198dafdc0000006067ef5480000180000000000000000000000021
:0d83880000000000000000000000000000e8
:208395000000000000074280800000200c87220000050e70280800003e00e0a0004200d027
:2083b500a702800000014026ecc080000f8f735c80000000000000000008b23c0250014274
:2083d50039c0cc110000f103c03c000001c400000000000f000000000000000000000000ee
:0d83f500000000000000000000000000007b
:208402000000000001ada3d50000004621bb1400000001b6bd5020002e025ef54001000155
:20842200dfebd582000167a5c3300003070907ec5010000000000000010156b89010008e75
:2084420001f83302000078e12bc00000020680000000000800000000000000000000000018
:0d846200000000000000000000000000000d
:20846f0000000100000d83fc0000400380000000000d9e343d404101402000000000800817
:20848f00ebe31c0400000004af4080020000d003c0000000000000038088702802004004ee
:2084af0000005500000010b3630c800400000000000003800000000000000000000000001f
:0d84cf0000000000000000000000000000a0
:2084dc00000000005801ebdc0800000000000000000d19dfa81001008c0400000000803951
:2084fc00f977050004016035ae04000007805b3c0000000000000003871d9ebd5400a0008b
:20851c0001f855000000d8097345020800020000000000000000000000000000000000004c
:0d853c000000000000000000000000000032
:20854900000000059000c3d400000942800fc010000108783d400000013dca00000000f046
:2085690007c28000000064150aa01000078ab428001000010000000041003c3d4060001e80
:2085890020f0f500000038afc2802000000000000000000000000000000040000000000044
:0d85a90000000000000000000000000000c5
:2085b6000000000098a7e3d400000462818fc020000981f62818000016007a8010000099e0
:2085d6008b2bd5800002e221855000000b199bbd50000000000000020980d7a81000017c3d
:2085f600675ca0400000380b3bd5000000000000000000a0000000000000000000000000cf
:0d8616000000000000000000000000000057
:208623000000000009b580bc00000140150c3000000d1000000000091402ec560800001015
:208643000303d4400001e41d00f080002d001f3e00400c0000000012a1805f70c0200006cd
:20866300015cf0000000008fc14001000040270f500000000e000000000000000000000045
:0d86830000000000000000000000000000ea
:208690000000000018a3b03c0802034005c8302000500a0000000000a001cda54002808109
:2086b0008daa81800003e796ef01000090085bf810000800000000200f9837b45040003e7f
:2086d000616ee258000000b7abd5040002003dca04800000000000000000000000000000b9
:0d86f000000000000000000000000000007d
:2086fd0000002000d19d43d400800360010ef00200070d1f14800800162cc0a00020001033
:20871d000bb7e0008001c664ff800a000f00740000000000000002020080b3bc0008002cbc
:20873d0037e05000a400d0033dc800800003ac8f0002000000d03d4020000000000000000c
:0d875d00000000000000000000000000000f
:20876a000000280001903be800a000e014cef0228008011aa9d20a0026026ef550a8008074
:20878a0003bf8100a002c654fe0402800800dea00080000000000280030053b8940a021600
:2087aa00066ef540682c80083ec500a000030eee2486800000772818000000000000000067
:0d87ca0000000000000000000000000000a2
:2087d7000000000001a5c3c0000081443d852000000100182a800100003c205500000071cc
:2087f700d302800410084284ad8280000780b2000000a000000000000000703d44000000b2
:2088170003caf800000078a103e800000000260a0000030000000000000000000000000045
:0d8837000000000000000000000000000034
:208844000000000000a9628000000163b5ea520080098817a95011000005785520000058b8
:20886400bb2bd50400020781de4400000f0cd76000004000000000020700d7a81400000457
:20888400036ae048c000b8183bd4000201603eaf56000000000000000000000000000000fa
:0d88a40000000000000000000000000000c7
:2088b1000000000054e0a484000000c61f0a0000000d8872f6400001b43dd0a0000000902d
:2088d100f002580400e00217acc0100180089c03c000a000000000282f08defc04100000ef
:2088f10022f0a0010000008b4280010000400000000000000800000000000000000000001e
:0d8911000000000000000000000000000059
:20891e000000000081b1a610000001c776af5400000900fee90000016602daf5414000580f
:20893e00b53a580800000076e33000000001d23c004000000000001000013ef890200300f8
:20895e00255af54000021995fbd5000002e20000000000001d0000000000000000000000c4
:0d897e0002000000000000000000000000ea
:20898b000000010050090048000004400e0a00002800080000000040003d50500000011070
:2089ab00e73f30200000000f9f801008030cbebc02400000000000001008342800000004ad
:2089cb0003fdf0010000f00361c84000000200000000000008fc28002000000000000000f1
:0d89eb00000000000000000000000000007f
:2089f8000000008080af2212000002001f8f54001b858100000000a00401faf540800018eb
:208a18000f74cc0000000717ee040400099ff7b8900000000000000007897fbd54000000d4
:208a3800627ee240800019c07ac50400000000000000000001bfbd500000000000000000b3
:0d8a58000000000000000000000000000011
:208a65000000000000af80480000000255c1800000000f343e8000000031e0a000800804a4
:208a8500a3fd58201a034776df001028301bd0280000004000000000090dde30c00101005f
:208aa5004278c310000001030140040000000000000000008000000000000000000000005b
:0d8ac50000000000000000000000000000a4
:208ad20000000000001ba212000000001fe0800000019bb72818400000075ef550000018a1
:208af20089729500100003e5ae240802900e36bd541004800000000000013bf4580002807d
:208b12002bebd149000011817bd5000040020000000000071e0000000000000000000000ca
:0d8b32000000000000000000000000000036
:208b3f0000020400000f0048000022c0040fa00000a91000000001009d0150cc008610f822
:208b5f00eb7364000a23c6e68f0180038b09ba7c02404000000000000900343d40400014ee
:208b7f00287f5608000071010280040003c01e8f00800000000000000000000000000000e9
:0d8b9f0000000000000000000000000000c9
:208bac000000040001a7a212000002603faa0400000008000000014014024e330204bc78e0
:208bcc0017f2900000000397be2400000800f3f8900080000000000001805fa814000020b5
:208bec007779a540000010876bd5020002003dfe240000000000000000000000000000005a
:0d8c0c00000000000000000000000000005b
:208c190000000000010f804800020042a405500400008c0000000000002040cc000000006a
:208c390001c14001000046e7852090000d005c03c000a14000000048410ed671c000a00c5f
:208c5900327ea10042001009e71c000a1243de00f01000000000000000000000000000000f
:0d8c790000000000000000000000000000ee
:208c860000010000008fa2120004020644ca540000070100000000000c67d8330200000094
:208ca60001abd58000a263858a7400000180d23c02000000000000020819773052004360d5
:208cc60063dea7480000f0cdbb056004000066cf0100110000000000000000000000000036
:0d8ce6000000000000000000000000000081
:208cf30000000000000f0048000003602dacc0800001003c280800000400105500000208ae
:208d1300000000000011402e0cc0000181891e330000008000000000000ebf3c040000000c
:208d330040305500000410814280400000400005c010000100f83d40000000000000000039
:0d8d53000000000000000000000000000013
:208d6000000000000001a212000000c6a58330000008003bbd5401003e38de550840005189
:208d8000800000000802078f833020010b9e970cc8000100000000000000d3f8900000006f
:208da000285c550000028013abd50000020015a5c020000800f2a810400000000000000037
:0d8dc00000000000000000000000000000a6
:208dcd008000000009bf80480480014015c0001210000013548028002e004e991021020063
:208ded00f3bfe0209010c2c109600200471ed82800102000000002281700303e8408010451
:208e0d00400055012400d009b7c0448201c26fb5a0022000000000000000000000000000cc
:0d8e2d000000000000000000000000000038
:208e3a000000800050ada21200a003639fe20402a8000013ad500a001e0041a5402a050025
:208e5a0003bb8100a001600ea9602280480f73bd5010000000000291a1803628100a00a646
:208e7a00206c5501280080ef3f8900a4000065fe000280000000000000000000000000000e
:0d8e9a0000000000000000000000000000cb
:208ea7000000000000b98048080001400d0f0004280700343d4000002402c050080400108f
:208ec700fbe30c0400826204dcc00041071fb76844000000000000000140ba30c40000441c
:208ee70003e8c3000000900fa3c0040000023f9f5000000000f02800000c00000000000063
:0d8f0700000000000000000000000000005d
:208f14000000000000032212000002461daf54001b018057a81800000603eaf5500401f8b6
:208f34000f7b45000013e615b3308040000ed3a9d2000000000000000818d33454000a209c
:208f5400627ad16840000181af890000000037ce1000000000babd5800000000000000000a
:0d8f740000000000000000000000000000f0
:208f81000000000090c00000000000c34000000000000cb4330000000073f0cc0002001049
:208fa100000000000001c24000000000410bbf1588402000000000080019b0330040003e23
:208fc10036df7208008091837b30000000235d8f4080000000b771c04000000000000000cb
:0d8fe1000000000000000000000000000083
:208fee00000000005010000000000202c0000000000000168cc0800004696a3302001880b9
:20900e00000000000080024000000003200cfb695000060000000000050e970cc280461445
:20902e00641fb14001001895b8cc020000e045ae040010001c3ff0504000000000000000b8
:0d904e000000000000000000000000000015
:20905b000000000010800000000001c225a5200012070e040cc00002043c209600000000c9
:20907b008000000000000235bf0100000009d803c00008000000000040887ef30000016414
:20909b0042d95608000050ef4280410001c340000000000010b694804000000000000000dc
:0d90bb0000000000000000000000000000a8
:2090c80000000000701000000000004224db5410000b19020cc080800665f89602003858e6
:2090e8000000000000004037ae240800818052bc00000000000000022781f28cc0400006da
:209108002bd8a540800099bffbd5000000004000000000018eb369d00000000000000000fc
:0d912800000000000000000000000000003a
:209135000000000008992188010000003e9e6000000f8037330000009402e00f01002c10d8
:209155009f003c2002001016df00002010803afc0040000000000020559e3828000081409e
:2091750021e9f80002a8110fabc0240000029500f080000188531c802000000000000000e0
:0d91950000000000000000000000000000cd
:2091a20000000000100fe50900000040358c10080001801accc040014023d8f000001a30aa
:2091c200033bc00000000237ae2600100118b6f89040000000000028a91efebd504000148d
:2091e200065be061008058e37b8980002006edcf001010011986ec500000000000000000ae
:0d920200000000000000000000000000005f
:20920f000000000001877764001400041efd90800080081b1582000602006956210000f087
:20922f0093a730000000475fce6010008189101a48000000000000000b087b3c02004480c5
:20924f00037fcc00028000dbb3c02000014207e56000000018d014004000000000000000f6
:0d926f0000040000000000000000000000ee
:20927c000000000059d77e90001000e715ca4000010189fee95040001e624da540000501c4
:20929c00ad28cc000000038faa4000020d00032580802100000000028f8116b89000284065
:2092bc003b6a3308000071f76f89210002007efa560800039d3ebd5000000000000000006e
:0d92dc000000000000000000000000000085
:2092e900000000000007bf40000000200000000010090956fc00004c1c00edc3080000901b
:2093090003c330000803c6179c3000020008f03300002040000000000100967c00000014e6
:209329003950cc10000010000000000203402e00f0000001003c3d40400000000000000052
:0d9349000000000000000000000000000017
:2093560000000000000bbb54000000400000000028001ebbf89600a021687ed140001081c5
:20937600cbe0cc08040067f7ed1680000198de0cc080448000000022099c72f89e000026f7
:209396007d7c33020000f00000000004c0062d8f0000108980d3a81000000000000000006f
:0d93b60000000000000000000000000000aa
:2093c30000000000000b695800000007bdf76008008000b314800000006259f00180007038
:2093e300fda7300000a8c4060cc08002ad1ad83fc000000000000040000b7b70c000c2047c
:209403002dcecc000080f007403c040008042db52018000000b69482000000000000000099
:0d942300000000000000000000000000003c
:209430000000000078033295000000667eea100002870a5bed502000007ecae24080008047
:20945000e368cc000051e7bca3302000400e90000000000000000000001813345000002051
:20947000017933000100000173c0000014079cea74000003983329d200000000000000001c
:0d94900000000000000000000000000000cf
:20949d000000200071000000008001c21e0a000e00010e3a958008000626605008000070eb
:2094bd00c7c33c008013c0040cc0020b5d003bbc0040000000000200501000000008070292
:2094dd004268f0102204080bbfe02080004400000002000000ba7c040000000000000000cd
:0d94fd000000000000000000000000000062
:20950a00000028001880000000a0020044af54028008011f69520a002e2beef5400010019c
:20952a00adb3cc28a0020014e33022808000b3f8980000000000028000080000000a4e8637
:20954a007a4ee248283a18033b8100a04206800000028000007bb892000000000000000027
:0d956a0000000000000000000000000000f4
:2095770000000000100182a84000006204a520000007105ba6020000003bccd301000050e9
:20959700d1e330000020e006dcc000000300b730c2100080000000000700bee60000000641
:2095b7002668c30100020807003c4000a1425d9c300400010b16548040000000000000006f
:0d95d7000000000000000000000000000087
:2095e4000000000080817295400003e684db548020081e7339400000003d6f910000000193
:2096040081a4cc000003c61fe3300000000a3bb45000014000000000081cf7f94020023c1e
:20962400007cd14001055003e3c000000040258d14800008083329d00000000000000000db
:0d9644000000000000000000000000000019
:209651000000000000000000000000003c00f00400091f7b33000001843270a00004001018
:20967100d3ff3000000143c000000000000f0000000040400000000bd00800000000a0269b
:2096910062d0cc000004f081c330000815c66ef56200384b889ab9c040000000000000004d
:0d96b10000000000000000000000000000ac
:2096be00800000000000000000000060058f000000038e7f0cc00000e001daf5400400d078
:2096de001ba4cc000003e000000000280109000000002000000000119580000000000d1c5d
:2096fe00236e330a0002800f60cc0c00cb67bfda5480182f81d860500000000000000000c6
:0d971e00000000000000000000000000003e
:20972b008000000000800000000000020d0aa014080b80775d800002a626e952080028f041
:20974b0007003c0004242725ecc0000b0088000000000600000000100f08d4280200801e3f
:20976b002350cc000003f080015400001402b70cc00002870074280040003c380000000164
:0d978b0000100000000000000000000000c1
:2097980000000000001000000000000027aa5500108900fe684000010e33eca740000080a7
:2097b800afebc0000208e3e4f33000020101000000000140000000010781debd5040001e2c
:2097d800665e3302000459b5b15400000940358330a0000980bfbd540000007c00000002b9
:0d97f80000980000000000000000000000cc
:209805000f40000070057144000000c34cdf820040078c00000000400020205520020498f4
:209825008702a8000a014000000000001d9fbc330000000000000000000a323d0600003c41
:209845003c0055010014709327c0020806400c8cc20008111e7bbc000000000360a0000058
:0d98650000000000000000000000000000f6
:209872004a60000000096a9c0000024775ee0600400f0100000000a00004f85500010258cf
:20989200087954020480000000000002af1edb0cc880000000000000078016f810000000b8
:2098b20069d85500003a780beb89000409e61d933000110f8abeb898000000017af5600074
:0d98d2000000000000000000000000000089
:2098df000000000009000000001000400000000000008000000000808c75d8cb0000090063
:2098ff00f5afc0000e60267e0cc00001000ebfb30000000000000000070eb2330400204028
:20991f00006d52008005b0f337c0200009c20c0f50000000103c2a800000000000000000fe
:0d993f00000000000000000000000000001b
:20994c000000000010c00000001016020000000000038000000000215c20dfc150012000d2
:20996c00f37f892008006647a3302000000096ccc0000700000000000709d3ccc000400040
:20998c007adfa7400002701bef89002a97e056aa0600010008d62950400000000000000037
:0d99ac0000000000000000000000000000ae
:2099b90000000018d0090294000001e3e60e3008000b0096bc0000000003d9cc090005b82c
:2099d900078330000405c02e00f00000001bf73c0000014000000008131894280200a0a409
:2099f900417df810000111e77f3040000040020551000381007671c40000000370a0004086
:0d9a19000000000000000000000000000040
:209a26000028000000880168000a01e7a7a91020000d0072b890000000607933000000d9e9
:209a4600a368cc090aca000dcf000000010ef2f89600000000000010299fb2bd50004c36c8
:209a66003beee05002829cbf6ccc400013660da550040001989f305000020669caf5400089
:0d9a860000000000000000000000000000d3
:209a9300000000000003e6840000002037b8a00000050056330020a6043050cc00010800ea
:209ab300b78330000400401d0cc0001000007f3c04004100000000000900983e880040ac99
:209ad30040d9cb1001000003b684000200428e9f018000010f0415440000003c1055080039
:0d9af3000000000000000000000000000066
:209b000000000000000f36d5040011c3af8e5000000818bfccc0004420006a3302001070d8
:209b20001960cc09020200148330a00110187bf8900082800000000000181f28100021604e
:209b40007becc1400000700f729d010402003ffe240000080157154000000065ce5500006a
:0d9b600000000000000000000000000000f8
:209b6d000000200000f00000008003c36d8c30020007005403c04800062dfecc0020800054
:209b8d00a08154000a104646fcc00203200e1438c0004000000002000910b7ffc019a10413
:209bad003570e300200408d37bc004841147c5fcc0020037107b7c0048004000000000208d
:0d9bcd0000000002584000000000000000f1
:209bda000000280000b0000000a001e715cd160280001e92bc000a0a2e766c33002900584d
:209bfa001771540000cae7a593300280470117a444808000000002810f9e72bdc00a002044
:209c1a00055891122800100ba38980a003c2dec3300280580ebbb8900a00000000000028e8
:0d9c3a00000007225900000000000000009b
:209c47001000000530000000000003c00d0aa00820271000000000401c7cd0f53000009082
:209c6700b96330000002e39c8cc0000027005a7a8000a200000000202708bfb30040002e78
:209c870021e8d900040001f3ea60001840200c0a0000000f00b230c0000e0000000000004c
:0d9ca7000000000258500000000000000006
:209cb40000000002000000000000006017aa540000481c000000002040754ca04000800034
:209cd4008fa8cc000201e2fec33000100f0cf6614000400000000000581f17ccc000003c3f
:209cf40007cea400060001f5bb94000020400eaf5400080818ff3458100000000000000058
:0d9d1400000007225b0000000000000000be
:209d210000000000018b43440002e002800000000000003a730010001c42fecc0002ac31e7
:209d4100a0815404020006c000000000039008154400200000000000111cdb764800800463
:209d6100200000000280109d6fd000000007800000000390003ebc0440a00000000000005c
:0d9d81000010008258000003c02ce56010a7
:209d8e000000000001e073898804b4000000000003000032ccc400003c7b493300012af87d
:209dae00e5b9540000000280000000018f1c1e954000400000000001280dd6690000862027
:209dce000400000001008183ff81040a00064000000000501e16f89000000000000000008c
:0d9dee00008187a25b040002002f9a540040
:209dfb0000000000008d8140000000e3c0000000020f8f7c330001400002fa52010000393f
:209e1b008782ec200003c000000000000019d63300000000000000000010fbf30000009699
:209e3b0025ddf0004038000be558400000203d0cc01028000f9772c20000000000000000da
:0d9e5b008010008258000000000000000090
:209e680000000000000babfc000002500000000000290e3a0cc081000662cba74000007985
:209e8800dfebb808001a600000000029000e970cc0000c000000000101887eccc040005ede
:209ea800007fe2400100008fae95000000602de33020100118b2f05000000000000000004b
:0d9ec800009805a25b800000000000000073
:209ed5000000000000ffc38c00000143800000000005101403c020403c601055200000b03e
:209ef500d0c25800000000050bb000000100f03300000000000000080008ba7c0640800073
:209f1500304af010000270816b3000020002b40cc0002847080015440000000000000000d0
:0d9f35000500000258000002c000000000fe
:209f420000000000008d624408000200400000000008183abc000082202c6c55000000805d
:209f62001762580800016005edd0200380187f0cc080440000000010001c16f8900040000f
:209f820003dae2480001019d68cc20040046dda33020102801769540000000000000000027
:0d9fa200020005a25b800000060000000028
:209faf0000000000f809039c00000000140d1080280088f638c0000a00607f520000020066
:209fcf00e1e730000003e79e9cc000005b0e0c1540400000000000002010b03d400000002f
:209fef0001c9f0008000b1ef82800000000037dcc0000000001314824000000000000000ba
:0da00f0000000002580000000000000000ea
:20a01c0000000000708362800800006324c4242000251936e44000001e3f4da74100150079
:20a03c000138cc00000443def3300020080052154000010000000000000efe28180001405a
:20a05c00007fe241000801f37bd502000162a69330008007809369d0000000000000000055
:0da07c00000007a25b0000000000000000d3
:20a08900000000000009bd880000e2c42e0d9000080019ff70c000a14e42eba1100038f8ab
:20a0a90007aa84040c09c00cccc00008401e96d58840400000000020570ed654c0008034f5
:20a0c900016bcc000285b0cbc03c000400040f0a0008000d801c3d444000000000000000ae
:0da0e9000000808258000000000000000010
:20a0f600000000000087b2d40000024307cc10200000081eb45000029e71dcb540000411d4
:20a11600ebead5000282c726a3300010851e52e95000a0000000001089800728d0400c06f3
:20a13600024a3301013e80aba3c00002094226af5400032118f2a810000000000000000060
:0da15600001815225b000000000000000052
:20a16300000001007000000000c0000017998000000f90b6558050004022fe52080000b097
:20a183000b332c040084202f0cc000000018de2840000480000000000108175c8400001eaf
:20a1a3002c205500423019d9e1480400a003c305500002808d1c3300400000000000000011
:0da1c3000000808258000000000000000035
:20a1d0000000000001e00000004000439dfe5000000d0e73e950014000794da74002808168
:20a1f000e57f050200016006c3302000070f56e9d000004000000038080d02ec5000000674
:20a21000795a55200105d0b5ae9d000001e64dc5500000038e938cc08000000000000000d7
:0da23000000195225b00000000000000000e
:20a23d000000200008e00000008001c3950e600228071e0000000801443eebf410200008c1
:20a25d00f1fb300000f242440aa00200030e7c38c0100100000002205f90981400480164a1
:20a27d003fded9002000f8c040cc00801003a50cc00628218904154400000000000000208e
:0da29d000000000258008003c00000000017
:20a2aa00000028005010000000a0000027cc1022c1081e0000000a00a0056ee040e83038d3
:20a2ca000d78cc0000a3e3a1a5500281880fb3a44080000000000280071e3bbd501b008c40
:20a2ea00046ac1006818900028cc48a0080354833122901b801795400000000000000028c5
:0da30a00000007225b00a002000000000020
:20a317000000000101f00000000800201cbea0000000999a7e0800a01c2c49cc000400f0e8
:20a33700b000000000004034ccc000508380ff2600000000000000038f0c9a3c0210004018
:20a35700240000000134008bb3300000000234d9900400011d1294800000800000000000b8
:0da37700000000025810000000000000006f
:20a384000000000000900000000400e01db8500000070872f81800000000db3300040881f4
:20a3a400800000000002c02fa33000686d98d63940000b0000000000081832b89400088068
:20a3c400040000000280019168cc400a0016e0166000000f8a1329d0200c40000000000066
:0da3e400000007225b0000000000000000e8
:20a3f100000000001000000000040002c29a3080000018db330001000040000000000001c2
:20a41100c00000001013c280000000130b1d343300004000000000000708dc140000e02421
:20a4310042eb56000000d9b9e3d0200408042def000008139fdc1400400086200000000067
:0da451008010008258000000000000000094
:20a45e000000000081e00000000800024eda340003a00d9b0cc00100003800000000005077
:20a47e009000000010aa000000000088081e978cc0808000000000018500d6bd5800c02092
:20a49e00235ba5410088b1cbeb8104000007bdae241010291cb6bd50000104000000000102
:0da4be00008187a25b00000000000000008c
:20a4cb0000000000b0812788040002440e9812000000185c1400000040000000000000d0f7
:20a4eb0000000000009440250f30000000100415400100c0000000000f08dc280000402c68
:20a50b002030550000000081754c040802c42de5601000000dbc28040000007c0000000183
:0da52b000010008258000000000000000039
:20a5380000000000b1fde14100000162061e741000011c37bd5400040e7000000000001829
:20a55800e0000000000a033fecf02000011a3715400003c000000000098076bd5001202004
:20a578003dc85508000018106e8d00040247afca54000000011ebd5000001c3c000000029e
:0da59800809805a25b00000000000000009c
:20a5a50000000000500000000000004640000000005f00d238c00000002250fc00008504a0
:20a5c500f703dc000002c3159cc000080010543300000e0000000000471d1f958800a04439
:20a5e5002270cc0000000181c3e8240050020700f01041000e1bbc0000001e3bc0c9000046
:0da6050000000002580000000000000000ee
:20a612000000000080000000000020078000000028000e1f6448000c003adaf302010200e8
:20a63200e77bf408008bd046933000100188b28cc080000000000001ad88b66950004e80bc
:20a6520066ec3302000051f9b281000009e777cf000043800f1ef89240003e046cc512006f
:0da67200000005a25b0000000000000000d9
:20a67f000000000070f1329c000002e62fee300000071fba9088000104306acc00000009eb
:20a69f008983300000000376fcc000100f8008154000a08000000000001c9630c04000002c
:20a6bf0070305500003500d902800000000240000000000b1d77330800000e30c0e00000fc
:0da6df000000000258000000000000000014
:20a6ec000000000080196c05000003c71fa91000000f093039d00000a6294c330000007093
:20a70c00f7b0cc0800000795c33000039f9836154000600000000090001ffbf45000000010
:20a72c00315c55000102781febd50600000000000000000f1fb78cc0000024045ed502003d
:0da74c00000007a25b0000000000000000fc
:20a75900000000001007ff4000000803adc3e100018f0bbc28000020244010550000800145
:20a779000dc03c0000040000000000004d00bbd48600000000000068000874330200020234
:20a79900364b5620000010936b3000000bc0000000000000081e70c040000003dc760000b5
:0da7b9000000808258000000000000000039
:20a7c60000000000000f2b540000040066c7e2002808007abd5400400029dc550001380044
:20a7e60085fbc00000000000000000002f801be9d00000000000005005195a0cc080060472
:20a806007c7ba5480001858ff8cc02001606000000000381991a345a00000003cfa100001f
:0da82600001815225b00000000000000007b
:20a833000000100001a14388000000038e0fa00030090dfb7c0050003f2660cc00000208a0
:20a8530081772c040005c680000000100010f6b30000000000000000001053b30000200271
:20a87300257af0010280f005e3c04000004000000000000100ff7304000000000000000024
:0da89300000080825800000000000000005e
:20a8a0000000300001cda941080000006ce8102020039976b8980002b660ca3322001d58f6
:20a8c00009e30540120203000000000a81887a4cc00000000000000005081f4cc400401605
:20a8e000276ee24100007001bf894004020000000000000980b74cc0000000000000000055
:0da90000000195225b000000000000000037
:20a90d000000200079e98398008005c2370c600200078956754000000002f8cc002000f12f
:20a92d000d4330008003c782055002002f0910280000000000000240110db003c208015ebb
:20a94d0041d8cc002005919b27e00080e020178e300228000df8280010001c40e0e60020af
:0da96d000000000258000000000000000083
:20a97a0000002800d09fbb0408a008065ecc5022800f801221400004006bec33002800716c
:20a99a00c570cc08a0c007cdc55082830f001abd50100a00000002c02981d73c000a00b6b7
:20a9ba0032ef33102802988d3f8140a00067bde9120291000d12bd5800002072dcc10228eb
:0da9da00000007225b0000000000000000ec
:20a9e7000000000008f9b340000000043fde600000db1d7fd58800000e676fcc00000070e7
:20aa0700f1ff3000080002ee0a001000239000000000000000000040500cbfb30000060036
:20aa270003dbd300000510896330000000002e0a000000070c923c0010000002ded900004b
:0daa47000000000258100000000000000098
:20aa5400000000005809bb54000000078e8a400000280b3ba95010001c385a3300008080bb
:20aa74000370cc000020002cef5400000108000000000140000000406000b78cc8000000ff
:20aa940063cd91200114700378cc800001e006af540802871992b89400000602d9a400007e
:0daab400000007225b000000000000000011
:20aac10000000000009000000000002417fe200000009816f8c00100043c0000000007904e
:20aae10000000000000443b705000010079812b8c001004000000010400f00000000210058
:20ab010026d9f0090001008fc140200012462d0aa000000000000000002004000000000434
:0dab2100001000825800000000000000003d
:20ab2e000000000000000000000000c7a6c504000107895b644201021e340000000003588f
:20ab4e00e00000000003e2afaf5408280b887364401108800000000000000000000000807d
:20ab6e00007ae2400002001f6bd50200e80277ea560000000e0000000040000000000000d9
:0dab8e00008187a25b0000000000000000b5
:20ab9b000000000098a00000000000034000000040079e7c28004000042670cc00020008e6
:20abbb00000000000000040000000000070012a6002000000000000a8710000000000000f6
:20abdb0022f00f110001018f4280400001423f0a0000000b0efc28020000000000000000ca
:0dabfb000010008258000000000000000063
:20ac08000000000070c00000000000038000000043891e3fbd50600020696e330200301077
:20ac28000000000000000200000000000380fbb94000000000000002499e000000000000aa
:20ac4800007ef000000800957bd5000002007def540400099fbebd50000000000000000058
:0dac6800009805a25b000000000000000045
:20ac75000000000090000000000003c016de200000001000000000c0c025d0cc000011b83e
:20ac9500a000000000002377acc00010070df22e4000200000000009c099b033000000020e
:20acb50000d0c901001c00000000000a0143850aa08000000ebb30c00000ac000000000067
:0dacd5000200000258000000000000000016
:20ace20000000040700000000001000027e5040004001c00000000d1dc027c33020040d001
:20ad0200000000000100e046f330002c5009bfa842000000000000142708930cc2801c0475
:20ad22002858c502047200000000002503c62fea540004018c5b7450409020000000000059
:0dad4200400005a25b0001000000000000c1
:20ad4f000000000000a0c344000003c280000000000f0f0000000000004000960000000400
:20ad6f00076ff800000806ae0a0014680788000000000000000000000b0dbbf3000041443a
:20ad8f0028e96400000000ef43d4000802c004f72000000d00f43d400000000000000000c6
:0dadaf00000000025800000000000000003d
:20adbc000000000071d1a3440c000006c000000000280000000000000020f896020000188c
:20addc00036ffc000405673fef540040090100000000000000000000200b138cc00080346f
:20adfc0075dbe50000000015aa810100000021bb141000001cdba810100000000000000002
:0dae1c00000007a25b000000000000000025
:20ae29000000040000e3ef50000002400000000000008e17b9800000c03960cc004038998d
:20ae4900a103fc000401c34d0cc100104b009a1444000740000000000d9bfc14000000bc5f
:20ae690000009610000810000000000a00601d953010004108dc14004001403400000000c1
:0dae89000000808258001000000000000052
:20ae96000000040010132f90000002000000000000010137b040004dc1055e330200005095
:20aeb600f1ebdc080c02065fe330202820001ae9c000088000000008051ababd5402401e31
:20aed600616c96220282b98000000004e3c021ea340003280dfabd50000180000000000074
:0daef600001815225b0000000000000000a5
:20af0300000000000105e7c800c0024025fd100000000a7c364000003c4030550000000840
:20af2300f377fc00004043c3055000000000b7f60040400000000000010e57b30040000087
:20af43002770cc000000f0dbebc0040004437d0a0100000008fc3d40000000400000000081
:0daf63000000808258000000000000000087
:20af70000000000000afba8800c002003695040000000093b04081002061f85520040078d1
:20af90000bafdc0010020005855000000300077914000000000000000819db0cc0000400bc
:20afb000755c3302000080013f8900000a002eef5400000019d22810100000300000000054
:0dafd000000195225b000000000000000061
:20afdd0000000000010703640080000280000002000000de660008201e025005000085116a
:20affd00078330008003464d8cc0020b8b0f0c1540002040000002280000dafc0008417ceb
:20b01d00703055012000000000000082014035ee60020a0080d8140200000001dbd9006028
:0db03d000000000258000a000000000000a2
:20b04a000000000001e3bb0408a000000000000283800013b9400a003e780e0a200002810f
:20b06a00e928cc08a80003a6c33202938f1b371540000080000002c280005bf89c0aa0a0d3
:20b08a002968550028000000000000a012600dcc11029003007bbd5400000002eba40028c2
:0db0aa00000007225b000400000000000011
:20b0b7000000000001d3bf80000000200ccd000000000c00000000000033e0a01000000896
:20b0d700c77f30000000042e0a0080200010f43d40100100000000000710b0280010200452
:20b0f70024d856100000000000000000000002fb1004000010b3e2800000000000000000a1
:0db1170000000002580800000000000000c9
:20b1240000000000018b735400000067a4ad500408250a0000000004002acef540800210b2
:20b144000de4cc001401e7acaf5400380308b6281800208000000000081ebabd50000000bd
:20b1640068eda540000000c000000000000604bb148000001ef639400000000000000000eb
:0db18400000007225b00000000000000003a
:20b191000000000000a00000000408001590008b0020000000000000027840e300410000c4
:20b1b1000df34020000842269d908010278fd42800300000000000082b90000000000080cc
:20b1d10039e9c31800b80085c3d400000007c0000000102000000000000000000000000096
:0db1f1000000000000000000000000000051
:20b1fe000000000000100000000804163cd2041100100000000000001e3c5c910202800001
:20b21e00032b54000017c075ea4000000718b7bd5000000000000010090e000000000146c7
:20b23e0004ebd140013850bdfa8101000007c0000000000000000000000000000000000067
:0db25e0000000000000000000000000000e3
:20b26b00000000000000000000000002830f501000010000000000000001ff980000010431
:20b28b00bbb948420007c36fcf000400290800000000000000000000400000000000003cec
:20b2ab00200000000000008d4140000000043e0e30000000000000000000000000000000d5
:0db2cb000000000000000000000000000076
:20b2d8000000000000000000000000604cef501000099c0000000000002aebe500000210aa
:20b2f80009729d000000766dfe250800101f00000000040000000081000800000000002034
:20b31800040000000000181dfbd58000000396c91030000180000000000a0000000000005f
:0db338000000000000000000000000000008
:20b3450000000002000000000000c00435908090000000000000000e1c38fd0c01000000e1
:20b36500800000000001c7eeecc000080000943980004000000000280d0e56764000003cc6
:20b385007740f5000038b0000000000021e03ed980000020001028004000000000000000e4
:0db3a500000000000000000000000000009b
:20b3b2000000004100000000000b01c63cd0000004000000000000100034ee4e0000407028
:20b3d2001000000001000376d33010170100933042800000000000100f01bb6900001100cc
:20b3f2007feaa041007801e00000000102e03fce500007000076bd500000000000000000ce
:0db41200000000000000000000000000002d
:20b41f000000000800000000000002436ece5000100000002580000000000000000000007f
:20b43f00f1a948c00002662eaf0210000d1b9439c000004000000000400cb438c0004102c4
:20b45f003a699801000070d0000000000004140a000000000000000000000000000000002f
:0db47f0000000000000000000000000000c0
:20b48c0000000000000000000000020697a800000000005a259850008660000000000058b4
:20b4ac0019729d8000a0c6edfe240000000f5ba800800000000000000001bea44080281c6a
:20b4cc0007ece500000000100000000001c38faf5410000000000000000000000000000012
:0db4ec000000000000000000000000000053
:20b4f9000000000000b00000000002c6cdbf2000000180082580104002015dcf20400008fa
:20b51900004154000008042ffa100040030f56d5c00020800000002b4b895676400001004f
:20b53900300000000482100b270c6000004240000000020000000000000e000000000000fc
:0db5590000000000000000000000000000e5
:20b56600000000000010000000000202e48a2000000b805225b8008004016e8d61c0007850
:20b58600c1f154020001c29dca74004008017e2840000140000000002780dbe90000000024
:20b5a600040000000100018b3b4500000200000000000001800000000000000000000000f1
:0db5c6000000000000000000000000000078
:20b5d300000012800801eb8800000012b58710010000080825884000043dffd90000005085
:20b5f30089a148000a00042ddc700003510f9439800000000000000000007a36400020027d
:20b6130002f0a0000000f003fbc00000e000000000000000100000000000000000000000e7
:0db63300000000000000000000000000000a
:20b64000000011005007e94100000003e7cb10010000195225b00000200659a42000007996
:20b66000f1729d000000022ccc1400002800bfb0408002000000000000009fb04000001cb8
:20b6800000eef56000188003bf89c00000400000000000000a00000000000000000000007a
:0db6a000000000000000000000000000009d
:20b6ad0000002000000000000080e06014934002000000002580480c0002d00500200010b4
:20b6cd000fab30208000002dea100210400e7e514000a000000000000b000000000800800a
:20b6ed003f4881202285000582802080000000000002000000143d40000000000000000034
:0db70d00000000000000000000000000002f
:20b71a00000028000000000000a007463d9104868000007225b86a0000796e2e522800805a
:20b73a0005e8cc00a000031dca740280201f76394000000000000000000e0000000b01402e
:20b75a0066e0e7502902000b3bd500a0c0000000000283000072a8101021000000000000cc
:0db77a0000000000000000000000000000c2
:20b7870010000000f08000000000024236f5604000000803e5844000044020f5000000f016
:20b7a700800000000004042ffd0010000f0ffa76400001400000000001001ffa80400000d5
:20b7c700200000000000000301540000000000000000028000000000000000000000000068
:0db7e7000000000000000000000000000055
:20b7f400000000000000000000000003c49950800100007025b420001639ecf5000000016a
:20b81400b0000000002803858d500002401f37e90000000000000000000c96614000080605
:20b83400000000000028018d6a95c0000000000000000003800000000000000000000000fc
:0db8540000000000000000000000000000e7
:20b8610000000000000b81180010000014b560000000980000000000000000000000000052
:20b88100000000000400002eaf10100000900000000000000000000009000000000000000d
:20b8a100000000000000000000000000000000000000000000000000000000000000000087
:0db8c100000000000000000000000000007a
:20b8ce0000000000000d32050c1000078489580000038b0000000000000000000000000000
:20b8ee00000000000a000027ca200000011c00000000000000000000000000000000000002
:20b90e00000000000000000000000000000000000000000000000000000000000000000019
:0db92e00800000000000000000000000008c
:20b93b000000000051896fd40000000004956010000010f42800500000000000000000301a
:20b95b00000000000000000000000000031000000000000000000000000d000000000000ac
:20b97b000000000000000000000000000000000000000000000000000000000000000000ac
:0db99b00000000000000000000000000009f
:20b9a80000000000809323dc00000006b689580000000857bd500000000000000000000064
:20b9c800000000000040000000000000080800000000060000000000000100000000000008
:20b9e80000000000000010000000000000000000000000000000000000000000000000002f
:0dba08000000000000000000000000000031
:20ba15000000000000093b080000600036b560100000003c3e800000000000000000080008
:20ba35000000000000014400000000205b8000000000014000000000090000000000214006
:20ba5500000000000080000000000000000000000000000000000000000000000000000051
:0dba750000000000000000000000000000c4
:20ba8200000000000180630580000007a6895800000180f2281840000000000000000000ba
:20baa200c000000000020380000000102f8000000000008000000000000000000000408040
:20bac20000000000010000000000000000000000000008000000000000000000000000005b
:0dbae2000000000000000000000000000057
:20baef000000000010000000000000001495601000200000000000000000000000000000ee
:20bb0f00000000000000000000000000030fb03d4000000000000000008000000000000057
:20bb2f00000000000000080702800000000000000000000000000000000000000000000065
:0dbb4f0000000000000000000000000000e9
:20bb5c0000000000d000000000000006a6895800001700000000000200000000000008004b
:20bb7c00000000000000000000000000098113204080000000000000070000000000000025
:20bb9c0000000000000070036bd504000000000000000000000000000000000000000000d2
:0dbbbc00000000000000000000000000007c
:20bbc900000000000000000000000142aeb5600000000098140000000000000000000000aa
:20bbe90000000000000000000000000203007c38c0000000000000000d909c38c000a000f2
:20bc090000000000008010000000000a000000000000100000000000000000000000000071
:0dbc2900000000000000000000000000000e
:20bc36000000000000000000000001429c8958000000007fa95000020000000000000000b4
:20bc560000000000000000000000000000007aa44080000000000000051e9a2444806000eb
:20bc7600000000000100800000000004000000000000000000000000000000000000000029
:0dbc960000000000000000000000000000a1
:20bca3000000000001edc29420000246769560000007000000000000000000000002000061
:20bcc300000000000001c000000000000010373640000000000000280000d03d400000006e
:20bce300000000000000000000000000000000000000000000000000000000000000000041
:0dbd03000000000000000000000000000033
:20bd10000000000001872299080002060489580001080e00000000000000000000000000c4
:20bd30000000000000020000000000000008de2900000000000000000000b6a040800000cc
:20bd50000000000000180000000000000000000000000000000000000000000000000000bb
:0dbd700000000000000000000000000000c6
:20bd7d00000020005003ec0000000142a6b5600200000f1f38c040000000000000000000e1
:20bd9d00000000000000038000000000501078398000000000000000001e73e440000000bd
:20bdbd00000000002000000000000000000000000000000000000000000000000000000046
:0dbddd000000000000000000000000000059
:20bdea00000028000005238800000142b68958028000001aa4400000000000000000000007
:20be0a00000000000000004000000000001c77b04080000000000000001fdf2d400000006a
:20be2a0000000000280000000000000000000000000043800000000000000000000000000d
:0dbe4a0000000000000000000000000000eb
:20be570000000000089f4000400002463e95602000008f000000000000000000000000007a
:20be770000415400000000000000000000103b364000000000000000000b0000000000004a
:20be970000000000000000000000000000000000000000000000000000000000000000008b
:0dbeb700000000000000000000000000007e
:20bec4000000000078917280000002062e89580001051a000000000000000000000000002c
:20bee400077154000000000000000002071e9729000000000000000000000000000000008b
:20bf040000000000000000000000000000000000000000000000000000000000000000001d
:0dbf24000000000000000000000000000010
:20bf310000000000000083d400000000060500000020100000000c00000000000000000052
:20bf51000000000000000000000000000000000000000000000000000000000000010000cf
:20bf71000000000000000100000000000000000000000000000000000000000000000000af
:0dbf910000000000000000000000000000a3
:20bf9e00000000000003bbd4000000000f8a540000100a00000004000000000000000000e6
:20bfbe00000000000000000000000000000000000000000000000000000000000001000062
:20bfde000000000000000080000000000000000000000000000000000000000000000000c3
:0dbffe000000000000000000000000000036
:20c00b0000000000000000000000000005dd0000000000000000000000203055000000008e
:20c02b0000000000000000000000000000001003c40000000000000000000000000000001e
:20c04b000000000000000000000000000000000000000000000000000000000000000000d5
:0dc06b0000000000000000000000000000c8
:20c078000000000259a0000000000006a1de040000000e00000000000061dc550180000003
:20c098000000000000000000000000000000b2bc000000000000000000000000000000001a
:20c0b800000000000000000000000000000000000000000000000000000000000000000068
:0dc0d800000000000000000000000000005b
:20c0e5000000000000904284010400274e0500000000100830800000003c00000000000062
:20c1050000000000000000000000000000000000000000000000000000000000000000001a
:20c125000000000000000803014000000000000000000000000000000000000000000000ae
:0dc1450000000000000000000000000000ed
:20c152000000000019817285080a00e76f8a540000001c56b0808000007400000000000060
:20c172000000000000000000000000000000000000000000000000000000000000000000ad
:20c192000000000000001009ebd54000000000000000000000000000000000000000000074
:0dc1b2000000000000000000000000000080
:20c1bf000000000000097c288000014304dd000000070bfec00000000002cfb200000000bb
:20c1df000000000000000000000000000080000000000000000000000000000000000000c0
:20c1ff00000000000000000f21c80000000000000000000000000000000000000000000028
:0dc21f000000000000000000000000000012
:20c22c00000000000003f008800003c2e0de04000008003a9604000000021a716100000026
:20c24c000000000000000000000000000700000000000000000000000000000000000000cb
:20c26c0000000000000000086ec50400000000000000000000000000000000000000000073
:0dc28c0000000000000000000000000000a5
:20c299000000000000000000000000422700b080000000b82800000004003055090000007a
:20c2b900000000000000000000000000000000000000000000000000000000000000000065
:20c2d900000000000000100000000000000000000000000000000000000000000000000035
:0dc2f9000000000000000000000000000038
:20c306000000000000000000000002664dc04428000700b3295000003601dc55600000003b
:20c326000000000000000000000000000000000000000000000000000000000000000000f7
:20c3460000000000000098000000000000000000000000000000000000000000000000003f
:0dc3660000000000000000000000000000ca
:20c37300000000009000000000000000000f301000000a0000000c00004000000000000075
:20c393000000000000000000000000000b000000000000000000000000000000000000007f
:20c3b30000000000000000000000000000000000000000000000000000000000000000006a
:0dc3d300000000000000000000000000005d
:20c3e000000000008000000000000000018f302000001b0000000400146800000000000042
:20c40000000000000000000000000000080000000000000000000000000000000000000014
:20c420000000000000000000000000000000000000000000000000000000000000000000fc
:0dc4400000000000000000000000000000ef
:20c44d00000020000000000000800140340f00021000000000000800000010a001000000e0
:20c46d000000000000000000000000020b00000000000000000000000000000000000000a2
:20c48d000000000020009000000000000000000000000000000000000000000000000000df
:0dc4ad000000000000000000000000000082
:20c4ba00000028000000000000a0036036ce00228000000000000a00000148a0000000009e
:20c4da0000000000000000000000000008000000000000000000000000000000000000003a
:20c4fa000000000028000000000000000000000000000000000000000000000000000000fa
:0dc51a000000000000000000000000000014
:20c527000000000010800258100000203dbf500000000037f08000000028000000000000bf
:20c547000000000000000000000000000000000000000000000000000000000000000000d4
:20c567000000000000000000000000000000000000000000000000000000000000000000b4
:0dc5870000000000000000000000000000a7
:20c5940000000000000522580000014616de500000800007705000010000000000003800fd
:20c5b400000000000000000000000000000000000000000000000000000000000000000067
:20c5d400000000000000000000000000000000000000000000000000000000000000000047
:0dc5f400000000000000000000000000003a
:20c601000000000000008258000000002d953000000010b034c00000002000000000000079
:20c62100f543448000000200000000000000000000000000000000000000000000000000fb
:20c641000000000000000000000000000000000000000000000000000000000000000000d9
:0dc6610000000000000000000000000000cc
:20c66e000000000001a3225a0000016021aa340000001c9b3cd080000004000000000000e5
:20c68e00186b89080000034000000000000000000000000000000000000000000000000035
:20c6ae0000000000000000000000000000000000000000000000000000000000000000006c
:0dc6ce00000000000000000000000000005f
:20c6db00000000000000025800000140360a10000251009ef4c0004000237030000000b0fc
:20c6fb00f0c2ac000003c02cf4a080000000000000000000000000000000000000000000be
:20c71b000000000000000000000000000000000000000000000000000000000000000000fe
:0dc73b0000000000000000000000000000f1
:20c74800000000005801225a000002062ca0002000280016e84000a00604fe144200008123
:20c76800f77aac080002003cbe54000000000000000000000000000000000000000000003c
:20c78800000000000000000000000000000000000000000000000000000000000000000091
:0dc7a8000000000000000000000000000084
:20c7b5000000000000000258000000000f0f00000005007016800000242010d000000000bd
:20c7d5000d8280000000020000000000000000000000000000000000000000000000000033
:20c7f500000000000000000000000000000000000000000000000000000000000000000024
:0dc815000000000000000000000000000016
:20c82200000000000007225a000001661cce002000081816a9c88000263d4ad0020000005c
:20c842008933d4000000004000000000000000000000010000000000000000000000000005
:20c862000000000000000000000000000000000000000000000000000000000000000000b6
:0dc8820000000000000000000000000000a9
:20c88f000000000000a0825800000342358f5000000100043d4000000002d00000000090d2
:20c8af000d69c400000000050aa00000000000000000000000000000000000000000000080
:20c8cf00000000000000000000000000000000000000000000000000000000000000000049
:0dc8ef00000000000000000000000000003c
:20c8fc000000000001b3225a00000066c5de5000000980323d40000000024ea000000098d3
:20c91c00012ac40000000001e55200000000000000000000000000000000000000000000d4
:20c93c000000000000000000000000000000000000000000000000000000000000000000db
:0dc95c0000000000000000000000000000ce
:20c9690000000000000d8048000001441da8100000050a540082008000024a2000000030be
:20c98900a74280000000000000000000000000000000000000000000000000000000000025
:20c9a90000000000000000000000000000000000000000000000000000000000000000006e
:0dc9c9000000000000000000000000000061
:20c9d600000000000007a212000003669efa0400000599b29498804000015c180000003997
:20c9f60091abd5000000000000000000000000000000000000000000000000000000000010
:20ca1600000000000000000000000000000000000000000000000000000000000000000000
:0dca360000000000000000000000000000f3
:20ca43000000000000f08258000000402eb60000004000f3368000001403600f0000040072
:20ca6300a00000000003c00000000000000000000000000000000000000000000000000050
:20ca8300000000000000000000000000000000000000000000000000000000000000000093
:0dcaa3000000000000000000000000000086
:20cab000000000000001225a0000020287da0400002018b6e00000003661dc0040000259a4
:20cad0009000000000020000000000000000000000000000000000000000000000000000b4
:20caf000000000000000000000000000000000000000000000000000000000000000000026
:0dcb10000000000000000000000000000018
:20cb1d000000000091000258008001400ce6000200010056448208000000df2500a000701f
:20cb3d0003b528648000000000000000000000000000000000000000000000000000000014
:20cb5d000000000000000000000000000000000000000000000000000000000000000000b8
:0dcb7d0000000000000000000000000000ab
:20cb8a00000000008181a25a00a0000697ea0402800800b214180a000003ca40402800007b
:20cbaa00076f9500a0000000000000000000000000000000000000000000000000000000c0
:20cbca0000000000000000000000000000000000000000000000000000000000000000004b
:0dcbea00000000000000000000000000003e
:20cbf7000000000009008258080000000cb9000000050f9b00020040000000000000000875
:20cc1700a00000000001c0000000000000000000000000000000000000000000000000009c
:20cc37000000000000000000000000000000000000000000000000000000000000000000dd
:0dcc570000000000000000000000000000d0
:20cc6400000000001981a25a0000014695da040000081916881400200668000000000038c7
:20cc8400000000000000000000000000000000000000000000000000000000000000000090
:20cca400000000000000000000000000000000000000000000000000000000000000000070
:0dccc4000000000000000000000000000063
:20ccd100000000000000000000000002dcde000000000000000000001400000000000090e3
:20ccf100800000000002402d0a00000000000000000000000000000000000000000000002a
