:02000000ff00ff
:080002004c6174746963650030
:17000a00694345637562653220323031372e30382e32373934300069
:15002100506172743a2069434534304c50384b2d434d3831003f
:1b003600446174653a2053657020313220323031392031393a31383a33300076
:0200510000ffae
:040053007eaa997e6a
:02005700510056
:0200590001059f
:03005b00920020f0
:03005e00620367d3
:0300610072011019
:0300640082000017
:02006700110086
:02006900010193
:20006b00000000000000000000000000000000000000000000000000000000000000000075
:20008b00000000000000000000000000000000000000000000000000000000000000000055
:2000ab00000000000000000000000000000000000000000000000000000000000000000035
:0d00cb000000000000000000000000000028
:2041fd00000000000000000000000000000000000000000000000010000000000000400052
:20421d0000000000010000000000000400000000000000000000000000000000000000007c
:20423d00000000000000000000000001000000000000000000000000000000000000000060
:0d425d000000000000000000000000000054
:20426a00000000000000000000000000000000000000000000000000000000000000000034
:20428a00000000000000000000000000000000000000000000000000000000000000000014
:2042aa000000000000000000000000000000000000000000000000000000000000000000f4
:2059d50000000000000000000000000000000000000000000000000000000000002800008a
:2059f500000000000000000000000000000000000000000000000000000000000000000092
:205a1500000000000000000000000000000000000000000000000000000000000000000071
:0d5a35000000000000000000000000000064
:205a4200000000000000000000000000000000000000000000000000000000000020009094
:205a6200000000000000000000000000000000000000000000000000000000000000000024
:205a8200000000000000000000000000000000000000000000000000000000000000000004
:0d5aa20000000000000000000000000000f7
:205aaf000000000000000000000000000000000000000000000000000000000000000001d6
:205acf00800000000000000000000000000000000000000000000000000000000000000037
:205aef00000000000000000000000000000000000000000000000000000000000000000097
:0d5b0f000000000000000000000000000089
:205b1c00000000000000000000000000000000000000000000000000000000000000000069
:205b3c00000000000000000000000000000000000000000000000000000000000000000049
:205b5c00000000000000000000000000000000000000000000000000000000000000000029
:0d5b7c00000000000000000000000000001c
:205b89000000000000000000000000000000000000000000000000000000000000000000fc
:205ba9000562814000000000000000000000000000000000000000000000000000000000b4
:205bc9000000000000000000000000020000000000000000000000000000000000000000ba
:0d5be90000000000000000000000000000af
:205bf60000000000000000000000000000000000000000000000000000000000000000008f
:205c1600008282010000000000000000000000000000000000000000000000000000000069
:205c360000000000000000000000000000000000000000000000000000000000000000004e
:0d5c56000000000000000000000000000041
:205c6300000000000000000000000000000000000000000000000000000000000000000021
:205c8300000000000000000000000000000000000000000000000000000000000000000001
:205ca3000000000000000000000000000000000000000000000000000000000000000000e1
:0d5cc30000000000000000000000000000d4
:205cd0000000000000000000000000000000000000000000000000000000000000000000b4
:205cf000000000000000000000000000000000000000000000000000000000000000000094
:205d1000000000000000000000000000000000000000000000000000000000000000000073
:0d5d30000000000000000000000000000066
:205d3d00000000000000000000000000000000000000000000000000000000000000000046
:205d5d00000000000000000000000000000000000000000000000000000000000000000026
:205d7d00000000000000000000000000000000000000000000000000000000000000000006
:0d5d9d0000000000000000000000000000f9
:205daa00000000000000000000000000000000000000000000000000000000000000009049
:205dca000000000000000000000000000000000000000000000000000000000000000000b9
:205dea00000000000000000000000000000000000000000000000000000000000000000099
:0d5e0a00000000000000000000000000008b
:205e170000000000000000000000000000000000000000000000000000000000000000006b
:205e370000000000000000000000000000000000000000000000000000000000000000004b
:205e570000000000000000000000000000000000000000000000000000000000000000002b
:0d5e7700000000000000000000000000001e
:205e84000000000000000000000000000000000000000000000000000000000000000000fe
:205ea4000000000000000000000000000000000000000000000000000000000000000000de
:205ec4000000000000000000000000000000000000000000000000000000000000000000be
:0d5ee40000000000000000000000000000b1
:205ef100000000000000000000000000000000000000000000000000000000000030000061
:205f11000000000000000000000000000000000000000000000000800000000000000000f0
:205f3100000000000000000000000000000000000000000000000000000000000000000050
:0d5f51000000000000000000000000000043
:205f5e00000000000000000000000000000000000000000000000000000000000010000013
:205f7e00000000000000000000000000000000000000000000000000000000000001000002
:205f9e00000000000000000000000000800000000000000000000000000000000000000063
:0d5fbe0000000000000000000000000000d6
:205fcb000000000000000000000000000000000000000000000000000000000000000000b6
:205feb0000000000000000140a54080000000000000000000000000000000000000000001c
:20600b00000000000000000000000000000000000000000000000000000000000000000075
:0d602b000000000000000000000000000068
:20603800000000000000000000000000000000000000000000000000000000000000000048
:2060580000000000000000140008000000000000000000000000000000000000000000000c
:20607800000000000000000000000000000000000000000000000000000000000000000008
:0d60980000000000000000000000000000fb
:2060a5000000000000000000000000000000000000000000000000000000000000000000db
:2060c50000000000a00000000000000000000000000000000000000000000000000000001b
:2060e50000000000000000000000000000000000000000000000000000000000000000009b
:0d610500000000000000000000000000008d
:2061120000000000000000000000000000000000000000000000000000000000000000006d
:206132000000000080000000000000000000000000000000000000000000000000000000cd
:2061520000000000000000000000000000000000000000000000000000000000000000002d
:0d6172000000000000000000000000000020
:20617f00000000000000000000000000000000000000000000000000000000000000000000
:20619f00000000000003c0000000000000000000000000000000000000000000000000001d
:2061bf000000000000000000000000000000000000000000000000000000000000000000c0
:0d61df0000000000000000000000000000b3
:2061ec00000000000000000000000000000000000000000000000000000000000000000093
:20620c00000000000000400000000000000000000000000000000000000000000000000032
:20622c00000000000000000000000000000000000000000000000000000000000000000052
:0d624c000000000000000000000000000045
:20625900000000000000000000000000000000000000000000000000000000000000000025
:20627900000000000000000000000000000000000000000000000000000000000000000005
:206299000000000000000000000000000000000000000000000000000000000000000000e5
:0d62b90000000000000000000000000000d8
:2062c6000000000000000000000000000000000000000000000000000000000000000000b8
:2062e600000000000000000000000000000000000000000000000000000000000000000098
:20630600000000000000000000000000000000000000000000000000000000000000000077
:0d632600000000000000000000000000006a
:2063330000000000000000000000000000000000000000000000000000000000000000004a
:2063530000000000000000000000000000000000000000000000000000000000000000002a
:2063730000000000000000000000000000000000000000000000000000000000000000000a
:0d63930000000000000000000000000000fd
:2063a0000000000000000000000000000000000000000000000000000000000000000000dd
:2063c0000000000000000000000000000000000000000000000000000000000000000000bd
:2063e00000000000000000000000000000000000000000000000000000000000000000009d
:0d640000000000000000000000000000008f
:20640d0000000000000000000000000000000000000000000000000000000000000000006f
:20642d0000000000000200000000000000000000000000000000000000000000000000004d
:20644d0000000000000000000000000000000000000000000000000000000000000000002f
:0d646d000000000000000000000000000022
:20647a00000000000000000000000000000000000000000000000000000000000000000002
:20649a00000000000003c0000000000000000000000000000000000000000000000000001f
:2064ba000000000000000000000000000000000000000000000000000000000000000000c2
:0d64da0000000000000000000000000000b5
:2064e700000000000000000000000000000000000000000000000000000000000000000095
:20650700000000000000000000000000000000000000000000000000000000000000000074
:20652700000000000000000000000000000000000000000000000000000000000000000054
:0d6547000000000000000000000000000047
:20655400000000000000000000000000000000000000000000000000000000000000000027
:20657400000000000000000000000000000000000000000000000000000000000000000007
:206594000000000000000000000000000000000000000000000000000000000000000000e7
:0d65b40000000000000000000000000000da
:2065c1000000000000000000000000000000000000000000000000000000000000000000ba
:2065e10000000000c0000000000000100000000000000000000000000000000000000000ca
:20660100000000000000000000000000000000000000000000000000000000000000000079
:0d662100000000000000000000000000006c
:20662e0000000000000000000000000000000000000000000000000000000000000000004c
:20664e000000000040000000000000280000000000000000000000000000000000000000c4
:20666e0000000000000000000000000000000000000000000000000000000000000000000c
:0d668e0000000000000000000000000000ff
:20669b000000000000000000000000000000000000000000000000000000fe5040800000d1
:2066bb00000000000420000000000000000056a8102000000000000000000000000000006d
:2066db0000000000000000000000000000000000000000000000000000000000000000009f
:0d66fb000000000000000000000000000092
:20670800000000000000000000000000000000000000000000000000002260f0804000003f
:20672800000000000a000000000000000000002820000000000000000000000000000000ff
:20674800000000000000000000000000000000000000000000000000000000000000000031
:0d6768000000000000000000000000000024
:20677500000000000000000000000000000000000000000000000a000000000000010000f9
:2067950000000000000007000000028000000000000000000000000000000000000000005b
:2067b5000000000000000000000000000000000000000000000000000000000000000000c4
:0d67d50000000000000000000000000000b7
:2067e20000000000000000000000000000000000000000000000080000000000000280000d
:20680200000000000000040000000200000000000000000000000000000000000000000070
:20682200000000000000000000000000000000000000000000000000000000000000000056
:0d6842000000000000000000000000000049
:20684f00000000000000000000000000000000000000000000000000000000000000000029
:20686f00000000000000000000000000080000000000000000000000000000000000000001
:20688f000000000000000000000000000000000000000000000000000000000000000000e9
:0d68af0000000000000000000000000000dc
:2068bc000000000000000000000000000000000000000000000000000000000000000000bc
:2068dc0000000000006000000000000001000000000000000000000000000000000000003b
:2068fc0000000000000000000000000000000000000000000000000000000000000000007c
:0d691c00000000000000000000000000006e
:2069290000000000000000000000000000000000000000000000000000000000000000004e
:206949000000000000000000cc0080000f8000000000000000000000000000000000000053
:206969000000000000000000000000200000000000000000000000000000000000000000ee
:0d6989000000000000000000000000000001
:206996000000000000000000000000000000000000000000000000000000000000000000e1
:2069b6000000000000000000fc0000000700000000000000000000000000000000000000be
:2069d6000000000000000000000000000000000000000000000000000000000000000000a1
:0d69f6000000000000000000000000000094
:206a0300000000000000000000000000000000000000000000000000000000000000000073
:206a2300000000000002000000000000000000000000000000000000000000000000000051
:206a4300000000000000000000000000000000000000000000000000000000000000000033
:0d6a63000000000000000000000000000026
:206a7000000000000000000000000000000000000000000000000000000000000000000006
:206a90000000000000014000000000000000000000000000000000000000000000000000a5
:206ab0000000000000000000000000000000000000000000000000000000000000000000c6
:0d6ad00000000000000000000000000000b9
:206add00000000000000000000000000000000000000000000000000007000000000000029
:206afd00000000000000000000000000000000000000000000000000000000000000000079
:206b1d00000000000000000000000000000000000000000000000000000000000000000058
:0d6b3d00000000000000000000000000004b
:206b4a0000000000000000000000000000000000000000000000000000000000000000002b
:206b6a0000000000000000000000000000000000000000000000000000000000000000000b
:206b8a000000000000000000000000000000000000000000000000000000000000000001ea
:0d6baa0000000000000000000000000000de
:206bb7000000000000000000000000000000000000000000000000000000000000040000ba
:206bd7000000000000000006ea0000000000000000000000000000000000000000000000ae
:206bf70000000000000000000000000000000000000000000000000000000000000000007e
:0d6c17000000000000000000000000000070
:206c2400000000000000000000000000000000000000000000000000000000000000000050
:206c440000000000000002430a008000000000000000000000000000000000000000000061
:206c6400000000000000000000000000000000000000000000000000000000000000000010
:0d6c84000000000000000000000000000003
:206c9100000000000000000000000000000000000000000000000c001e00000000000000b9
:206cb1000000000000000000000001000000000000000000000000000000000000000000c2
:206cd1000000000000000000000000000000000000000000000000000000000000000000a3
:0d6cf1000000000000000000000000000096
:206cfe00000000000000000000000000000000000000000000000c002c000000000000003e
:206d1e00000000000000000000000300000000000000000000000000000000000000000052
:206d3e00000000000000000000000000000000000000000000000000000000000000000035
:0d6d5e000000000000000000000000000028
:206d6b0000000000000000000000000000000000000000000000000000035a50400000001b
:206d8b00000000000000001dea0000000000000000000000000000000000000000000000e1
:206dab00000000000000000000000000004000000000000000000000000000000000000088
:0d6dcb0000000000000000000000000000bb
:206dd8000000000000000000000000000000000000000000000000000003f0f09800000020
:206df80000000000000000010a00040000000000000000000000000000000000000000006c
:206e180000000000000000000000000000200000000000000000000000000000000000003a
:0d6e3800000000000000000000000000004d
:206e4500000000000000000000000000000000000000000000000a00000000000000000023
:206e6500000000000004000000000000000000000000000000000000000000000000000009
:206e85000000000000000000000000a000001cca5400000000000000000000000000000013
:0d6ea50000000000000000000000000000e0
:206eb2000000000000000000000000000000000000000000000008000000000000000000b8
:206ed2000000000000000000000000000000000000000000000000000000000000000000a0
:206ef2000000000000000000000000800000050552000000000000000000000000000000a4
:0d6f12000000000000000000000000000072
:206f1f00000000000000000000000000000000001000000000000000000000000000000042
:206f3f00000000000000005cb0200000000000000000000000000000000000000000000006
:206f5f00000000000000000000000000000000000000000000000000000000000000000012
:0d6f7f000000000000000000000000000005
:206f8c000000000000000000000000000000000000000000000000000038000000000000ad
:206fac00000000000000032fe0a01000000000000000000000000000000000000000000003
:206fcc000000000000000000000000000000000000000000000000000000000000000000a5
:0d6fec000000000000000000000000000098
:206ff900000000000000000000000000000000000000000000000000000000000000000078
:20701900000000000000020000000000000000000000000000000000000000000000000055
:20703900000000000000000000000000000000000000000000000000000000000000000037
:0d705900000000000000000000000000002a
:20706600000000000000000000000000000000000000000000000000003c000000000000ce
:207086000000000000000400000000000000000000000000000000000000000000000000e6
:2070a6000000000000000000000000000000000000000000000000000000000000000000ca
:0d70c60000000000000000000000000000bd
:2070d30000000000000000000000000000000000000000000000004000000000000000005d
:2070f30000000000000000000000000000000000000000000000000000000000000000007d
:2071130000000000000000000000000000004000000000000000000000000000000000001c
:0d713300000000000000000000000000004f
:2071400000000000000000000000000000000000000000000000000000000000000000002f
:2071600000000000000002c00000000000000000000000000000000000000000000000004d
:2071800000000000000000000000000000038000000000000000000000000000000000006c
:0d71a00000000000000000000000000000e2
:2071ad000000000000000000000000000000000000000000000000000000000000000000c2
:2071cd000000000000e0000faa000400000000000000000000000000000000000000000005
:2071ed0000000000000000000000000014000000000000000000000000000000000000006e
:0d720d000000000000000000000000000074
:20721a0000000000000000000000c000000000000000400000000000000000000000000054
:20723a00000000000008c0010a000000000000000000000000000000000000000000000061
:20725a0000000000000000000000000008000000000000000000000000000000000000000c
:0d727a000000000000000000000000000007
:207287000000000000000000000000000000000000000000000000000000000000000000e7
:2072a700000000000000004000000000000000000000000000000000000000000000000087
:2072c700000000000000000000000000006000000000000000000000000000000000000047
:0d72e700000000000000000000000000009a
:2072f40000000000000000000000000000000000000000000000000000000000000000007a
:2073140000000000000142c000000000000000000000000000000000000000000000000056
:20733400000000000000000000000000000000000000000000000000000000000000000039
:0d735400000000000000000000000000002c
:20736100000000000000000000000000000000000000000000000c001438000000000000b4
:2073810000000000000040400000000000000000000000000000000000000000000000006c
:2073a100000000000000000000000000000000000000000000000000000c000000000000c0
:0d73c10000000000000000000000000000bf
:2073ce00000000000000000000000000000000000000000000000c00004000000000000053
:2073ee000000000000000380000000000000000000000000000000000000000000000000fc
:20740e0000000000000000000000000000000000000000000000000000000000000000005e
:0d742e000000000000000000000000000051
:02743b0000004f
:02743d0011013b
:02743f00010149
:207441000000000000000000000000000000000000000000000000000180000000020000a8
:2074610000000000000000000000000000000000000000000000000000000000000000000b
:207481000000000000000000000000000000000000000000000000000000000000000000eb
:0d74a10000000000000000000000000000de
:2074ae0000000000000000000000000000000000000000000000000000800000000000003e
:2074ce0000000000000000000000000000000000000000000000000000000000000000009e
:2074ee0000000000000000000000000000000000000000000000000000000000000000007e
:0d750e000000000000000000000000000070
:20751b0000000000000000000000000000000000000000000000000000000000000100004f
:20753b00000000000000000000000000000000000000000000000000000000000000000030
:20755b00000000000000000000000000000000000000000000000000000000000000000010
:0d757b000000000000000000000000000003
:207588000000000000000000000000000000000000000000000000000000000000000000e3
:2075a8000000000000000000000000000000000000000000000000000000000000000000c3
:2075c8000000000000000000000000000000000000000000000000000000000000000000a3
:0d75e8000000000000000000000000000096
:2075f500000000000000000000000000000000000000000000000000000000000002000074
:20761500000400000000000000000000000000000000000000000000000000000000000051
:20763500000000000000000000000000000000000000000000000000000000000000000035
:0d7655000000000000000000000000000028
:207662000000000000000000000000004000000000000000000000000000000000000000c8
:20768200000c000000000000000000000000000000000000000000000000000000000000dc
:2076a2000000000000000000000000000000000000000000000000000000000000000000c8
:0d76c20000000000000000000000000000bb
:2076cf0000000000000000000000000000240000000000000000000009000000000000006e
:2076ef0000000000000000000000000000000000000000000000000000000000000000007b
:20770f0000000000000000000000000000000000000000000000000000000000000000005a
:0d772f00000000000000000000000000004d
:20773c00000000000000000000000000002000000000000000000000080000000000000005
:20775c0000000000000000000000000000000000000000000000000000000000000000000d
:20777c000000000000000000000000000000000000000000000000000000000000000000ed
:0d779c0000000000000000000000000000e0
:2077a900000000000000000000000000100000000000000000000000000000000000001c94
:2077c900000000000000002008000000000000000000000000000000000000000000000078
:2077e900000000000000000000000000000000000000000000000000000000000000000080
:0d7809000000000000000000000000000072
:20781600000000000000000000000000000000000000000000000000000000000000000250
:20783600000000000000000000000000000000000000000000000000000000000000000032
:20785600000000000000000000000000000000000000000000000000000000000000000012
:0d7876000000000000000000000000000005
:207883000000000000000000000000000000000000000000000000000000070000000000de
:2078a3000000000000000000000000000000000000000000000000000000000000000000c5
:2078c3000000000000000000000000000000000000000000000000000000000000000000a5
:0d78e3000000000000000000000000000098
:2078f000000000000000000000000000000000000000000000000040000007000000000031
:2079100000000000080000000000000000000000000000000000000000000000000000004f
:20793000000000000000000000000000000000000000000000000000000000000000000037
:0d795000000000000000000000000000002a
:20795d0000000000000000000000000000000000000000000000000000000000000000000a
:20797d000000000000000000000000000000000000000000000000000000000000000000ea
:20799d000000000000000000000000000000000000000000000000000000000000000000ca
:0d79bd0000000002000000000000000000bb
:2079ca0000000000000000000000000000000000000000000000004000000000000000005d
:2079ea00000000000400000000000000000000600000000000000000000000000000000019
:207a0a0000000000000000000200000000000000000000000000000000000000000000005a
:0d7a2a00000000000000000000000000004f
:207a370000000000000000000000000000000000000000000000000000000000000000002f
:207a570004000000000000000000000000000000000000000000000000000000000000000b
:207a77000000000000000000000000000000000000000000000000000000000000000000ef
:0d7a970000000000000000000000000000e2
:207aa400000000000000000000000000000000000000000000000080000000000000000042
:207ac40000000000080000000000000000000000000000000000000000000000000000009a
:207ae400000000000000000000000000000000000000000000000000000000000000000082
:0d7b04000000000000000000000000000074
:207b110000001000f9000000000000020402100300000000000000000620d0fa000000013f
:207b310090000000000026250a00000003099e094000000100000000090a0c2800400026ae
:207b5100200000000000010bc3c000c00003c000000000030cf803c00c000000000000000c
:0d7b71000000000000000000000000000007
:207b7e000000300038e00000000000003488400300038000000000000e645ea0400000313c
:207b9e0090000000000163ec8e20200008015740020000000000000007015aa80000000469
:207bbe0004000000000058efabd42040000680000000028801da3c10040000000000000042
:0d7bde00000000000000000000000000009a
:207beb00000000001000000000000000160120000000001f4e0200000c00e0fa00000000de
:207c0b000b00482000000007ecf00000001f5e3c0000000000000000070000000000000241
:207c2b00267b74000200000fb680200002c0010a0080280d0802658000000200000000004a
:0d7c4b0000000b6520000008000000000094
:207c58000000000000000000000000000c88488000000016c41060002001eea56100000051
:207c78000ba21000000000369cb00800001ffa3d00000600000000000180000000000006c2
:207c9800387f5040010001abeb45010002000eaa0000900b813a65b000001c000000000066
:0d7cb800000009708420000400000000009e
:207cc5000000000019017bcc020000000401200000000c00000000002424ca1a08000000d7
:207ce5009f004802000243ecaa4000000b09fc2040000000000000000008982880000002c1
:207d05000000000000000109432822000002820a0a8000038c0a2580000000000000000071
:0d7d25000671f000000000000000000000ea
:207d32000000000038e7efdd8600000006884800008001000000000006065f4060800010ce
:207d52001fa2120000000056d6460000098153b4408002000000000001803b29c080000e46
:207d720000000000000001effb01080000605eaa04000003803265b00000000000000000c7
:0d7d92000681f0000000000000000000006d
:207d9f0000000000000003d4000020001601208000200000000000a03c000000000000001a
:207dbf000b2448200001602d0fa0002000003e83c0002000000000000300d43d4000a0001b
:207ddf0041c05500010000c0c280000408024000000000000c02258000000001c0008000e9
:0d7dff000001f081540204000000000000ab
:207e0c00000000000001fbd4000000421488480000500000000000402400000000000000ac
:207e2c000822120000024620cf50001280189602c000400000000002880007be8000400022
:207e4c00207ca50002000015f28000081400000000000001817265b00000000160a5688039
:0d7e6c000079e16954000a000000000000e8
:207e790000000000010b0020000003e00401200000000c00000000001c0279100000007092
:207e9900008258000001c2ad098180000090fc3fc0000000000000000010000000000000da
:207eb9003800000000003099ef2820000020020a0b800000000a65800000140010a089007e
:0d7ed900005000000000000000000000004c
:207ee60000000000188de0000800006016884800008000000000000020287d002000000044
:207f0600e5a25a8000026601e6462c00038e56bec080000000000000001a0000000000003a
:207f2600340000000000000f7b01000001e38eaa04000000183a25b000022401caa0610043
:0d7f460000800000000000000000000000ae
:207f53000000000000000280000000039401208000000000000000020428e0ff0000000047
:207f7300d08258000000400e03c000100000343c8000000000000000001000000000000023
:207f930001d8f108128059b0000000400023c50510800080000b258004001429c0008051a2
:0d7fb30000000000000000000000000000c1
:207fc0000000000001817280000001600c884800000000000000000000035ef70200000096
:207fe00015225a040002002ca3802000071afe3c0080000000000000001e00000000000082
:2080000003eea2001000f8f0000000c011c61def10200000007265b00400206d40a549328a
:0d8020008001c00000000000000000000012
:20802d00000020001897c2800000024004f120020000000000000800007950fa00000000fe
:20804d00008258008002c42fcf700200008c943e80000000000002000500703440080002b0
:20806d004000000020000100000000800000350500020001080325800800000008c0806075
:0d808d00000003400c040000000000000093
:20809a00000028009807a94808000340009848068000000000000a00003c1af50000000008
:2080ba0007a25a00a002060fae700280039a5f2940000000000002818000fb94128a0004b5
:2080da007800000028000080000000a0000280aa00028009817225b00a0016000fc04128ef
:0d80fa00000003aa8d080000000000000037
:2081070000000000080127080000000014012020000d0000000001001c43c0a500000000f9
:20812700e0025810000806a7c760000001009a16c2100100000000000000322140000014e7
:208147003f7f12000000009faa80a0003440370550000001000225810000003de00098057c
:0d8167000000abe52000000000000000005b
:20817400000000001809770c0000016016884a000308080000000000006a005a0000000027
:2081940005a25a010004061f8b500000080ab722d60000000000000000083bd140000000b0
:2081b400076c84000000000bab450000620026aa50000008187a25b00000000540a540029c
:0d81d4000059ab70840000000000000000a6
:2081e1000000000090ef82800000000627025000000900b0280200000020f0a200000008e1
:20820100938048000000021cd8028000091ed80108200000000000000b8e382140004026ca
:20822100000000000100b8e0000000000004068030800003100b65820000343c50d10800cc
:0d824100000000000000000003c200520c0d
:20824e0000000000581debd500000003afe18020000500079400000000056aa1420000189e
:20826e0015a21200000007c0b40004000998bf2b548000000000000001495e1150800004bc
:20828e0000000000020090000000002000070fba34008000087a65b00000200748db43086e
:0d82ae000038000000000001e04da0500865
:2082bb000000000001af0108000000242700f000000b1fb27ec02000002010f7200000002e
:2082db0000025800000140040000000000105e540000000000000000001f7016c00040007d
:2082fb00200000000025000502280000e00000000000000d0002658001411c41400000003c
:0d831b0030d0b0000000000004010550004b
:2083280000000000589002040c00004385aaf00000000a9affc0000016054af70200000018
:2083480005a25a00100000040a5000000718b6684000000000000080059f5f004080800066
:20836800000000000002180d73940800000000000000000b803a65b000a0a07a40a5000046
:0d83880000000000000000000395e5500813
:2083950000000000000b2bfc02000146060f500000098af83d400000000268ff000018005f
:2083b500038048000000029d0e2000000d0d566900000000000000002080fa290000c03c78
:2083d5002b604200003a100d014000000002860a501000018c0a25800000000000000002f3
:0d83f5000201097708800000000000000070
:2084020000000000008fbb9482000366378a5410000d017729580002960259f7000000007c
:208422000122120000200695ca00200000017f991000000000000000038057990000a00024
:20844200077e4702000070007280000000005fa50280800b983265b40000000000000001f5
:0d8462000101e12f98000000000000000063
:20846f0000000000000f83d400100000350a0018002000303c0000000000100f0000040869
:20848f0000825800002140370d3100038918fa1088000000000000002000f7d6c0000c002e
:2084af0001daf1000002000d403c800088000000000000500e0325800000003c000000000c
:0d84cf000001052f30200000078000000094
:2084dc000000000000077bfc0410000017cf540000551cdf3d58000014001e0f000000701e
:2084fc0007a25a0000126015ee702000080b12d1dc400000000000001100938040000800da
:20851c006b6ca200000570e7fbc080021540000000000001807265b00008000000000000c8
:0d853c000000893ccc00000007400000005a
:208549000000000000000000000a00460003000000010f9ee40010a000000000000000502d
:20856900d0025800000560160ff00000008e0c3d40000000000000000d00000000000034f6
:2085890068000000000008a1034000000000060550102000000a6580000016034e0310008a
:0d85a900000809b56420000023b70500009c
:2085b60000000000518000000000020280e30020000801527018604000600000000000006a
:2085d600b7a25a0000006027af500400038172bd40000000000000004818000000000000f5
:2085f6006800000000003007eb54080000c01faa50008000003a25b000002c016ba3680074
:0d8616000038e1fa95200000e03ca0500083
:2086230000000000f0000000000001440d0ff000000f000c28000000146f50f5000000509b
:20864300000258000001e2b6ff300000010db2864240000000000010001000000000602c81
:2086630000000000000011f7814000c0080414f240000089000265800c0002296d8108007f
:0d8683001809016b300000e8400000000005
:2086900000000280180000000000000227efd0a000081c5a280240000060eea0400000583a
:2086b00005225a0000016284bfb000000b1a7a895800000000000020018e00000000803ce8
:2086d00000000000000080b533d400401407a41bd6008000007a25b00c4a0c044ee2404079
:0d86f00000118f38cc8000020380000000d4
:2086fd0000002100080f03440480014257c0000200098b733fc008401643d8c00000185057
:20871d000002580080000286c4200202010e942800100000000003000b0b77e90008010095
:20873d00016fa2002000900b2d900280000000000002100008032580088002014f0301a0d0
:0d875d0000d0f00000008004038000000048
:20876a0000002a0078082b8908a00062dd980002800f00963dc40a200663cac54000008008
:20878a0005225a00a0000004c4750a80081d321d1cd00000000002800001d679500a20003b
:2087aa0000fea70028000007669100a001e0000000028801817225b00a4004036ba3402948
:0d87ca00180010000000a0a00040000000fa
:2087d7000000000000050084100000038000000000190e9b820440000028000000000000b6
:2087f700a1837828000143c000000000451f1f820000000000000000008000000000000411
:20881700004c5a0000020100ef440000202014f81110000108022589000f402c00000000c4
:0d88370002b80000000004e8001d9641801a
:20884400000000000001a210000200020000000000000ab3c00400000600000000000000d6
:208864001da2de000001460000000000000957800000000000000000030000000000002c01
:20888400005fa640000510e52344000000c024de24800008195225b0000096680000000181
:0d88a4000551800000000a140034da441071
:2088b1000000000000050048000401c40208000000008db83d4000400e22fe5100400010b6
:2088d100b9c2a80000014280096000102088b7468010000000000000004f90154000002699
:2088f1000340ff20018200c340c0010405e70000000003930b0be580008500637a25100026
:0d8911000000000000000003e0020a00006a
:20891e000000000000aba212000a00629fc8002000071df6295040803e6e6fa14000009008
:20893e000daa95000003405e89600022810fb789900000000000000003809fa94040001e58
:20895e000040a50002050019eac50b004847c000000001a1815a65b800409c24eba740017e
:0d897e00307800000000000ae014aa02009a
:20898b000000000000a180480000000627e00000000b0f04280000001c2bfc80000000b895
:2089ab008dfa000000080282096000000f009b8980000000000000000088000000000000f5
:2089cb0070f9810000007005f20460000004070a701000230b02658000a02c276aa400002c
:0d89eb00203000000000000000000000002f
:2089f800000000005819a212040010674ce8000000084f1f28000000066dfbe550000090ba
:208a180005fb95040005401e896800008980fac95000000000000000078000000000001698
:208a38007cca4700000001e3fd0000003403978014200000013a65b800402405fc644000cd
:0d8a58000091e0000000000002000000009e
:208a650000000000500b804800040142400f100010000d77004240001400fd51000000b000
:208a85000742a80008014000c9600000008b143e80000000000000000000003c0400009c35
:208aa500000000000102188d000000042023a70a300001008c03e5804000027e40aa000042
:0d8ac50000080d77300000000240000000a6
:208ad2000000000000ada212000803601ecf14302801997b4694000006626ea14000008039
:208af20005aa95840400000089680000051886bd40000000000000000000033c1800004070
:208b120020000000020011fb0294000890601e8030202183807a25b000009c7ff8a5080066
:0d8b32002839c33ccd0000480000000000c1
:208b3f0000020000000f0048800002c03d95a00000000fb428000000000000f500000030f9
:208b5f0009424404009400020960002007187a2048200000000000000f0e1416c000000c10
:208b7f00004f2a00000290c5b3c4000441c355ea2000200d0c03258800010020505000007e
:0d8b9f0000b0e00000000000000000000039
:208bac000000000001a9a212000002060e9e5210400000dbbd58000156285cf50000000035
:208bcc000ffa85080001601c89680008000ed2d1dc0000000000001008019f805080003cac
:208bec007a7e2540000518a36ec1800200007e9a70001009805a25b0000e8e021ea00040af
:0d8c0c0000800000000000000000000000db
:208c190000000000710b0048000000402db5300003a1809c00000040002e70ff000000f098
:208c39008f43d4000a000000096000135500583fc4000000000000280d105428c00040007e
:208c59000240d001003a1097ad98200002420ef660000181000a658000001c24ffe2100058
:0d8c79000500000000000000001d00f000dc
:208c86000001000080af22120000020001ca340000198a1fbc18408000025ef72200009901
:208ca60097a168000000000e89680028099a9ebdc080000000000000081ef300c080e4006c
:208cc60001ecd502000d8181869400000160661a50048008183a25b400400005f8f060002c
:0d8ce6000218000000000000003fcf060053
:208cf30000000000000f804800000142ad0f5000000100d402c40000824010f500000000d9
:208d1300bd33440104042000096014000d0abffc00000000000000000000982ac000000012
:208d330039d055000100300ba16c00002403c000000000000002658000001665d9cc00107b
:0d8d53000000e53b3020c0200000000000c3
:208d600000000002000b221200000206f4ea0400080800d600c090010660dcf50000000159
:208d8000806f89800801401e89680000000dd2780000000000000000000016a840800000ae
:208da00000caa50002807801a80400000800400000000000007a25b010001e255c332030d4
:0d8dc00000000bbccd00c001c2800000000f
:208dcd0080000000780b004800800023c60f500200050df620000840402dc0f510200001ae
:208ded00b17d44040000000009600228010a523440000000000002100110f428000800063f
:208e0d0002c04500203af1f3f10820800803830550021280080b258018002c3de081002036
:0d8e2d0000000000000080000000000000b8
:208e3a0000008000d9e9221280a000e034ea0402800d9bde90800a000079eea050280000df
:208e5a00a32e850000000014896802800d817bd410000000000002800f0a16bd400a003442
:208e7a0002ec8502282d01dbbb8900a00007cec550028810013225b00a00202cd847222803
:0d8e9a000000e0000000a00000000000004b
:208ea70000000001f00f804808040047840f5004000080043d400000022d7bff000000f00f
:208ec7009de3882000000000e96000000000d34000000040000000000f1f0000000000aced
:208ee700703005000007d0000000000001c3bdccc2040001080225850000006870a00000af
:0d8f07000000076a140000000000000000d8
:208f140000000000000f221200000202dfaa540000011817bd4000001401def7000000986a
:208f3400157a05800001400409680000001a77040000000000000000001b00000000016042
:208f540079ca05000005800000000000000316a330000008197225b00000003a5af5000053
:0d8f74000050016514400060000000000086
:208f81000000000000ab8140000001401ec40110000318f6c0004000bc26e051000000f01c
:208fa10090000000000000000f000000070d0000000000000000000000009c2a80100000a7
:208fc10001e05520020000e5b744400001438205520000030b0be58000017c02d94a0800d3
:0d8fe1000801f5003c01000803b405300054
:208fee000000000059bfb3d5000002063f9004000008097380800000603beaa4420000b049
:20900e0000000000000000018f0400000181000000000000000000000180d6a94000001ece
:20902e0000dca500018000033a04000002000fa5500000000f5a65b00000b422cfe5400091
:0d904e000079b5b3c00000600014e030a050
:20905b000000000000af0280000000020d8ff00000059a38004000003c2830a0000000707b
:20907b00c082ac000201426f05500000100f00000000008000000000000f0000000000969a
:20909b0028e0500002b0080dc03c80009400000000000003000a6580000c1c0349cc08004c
:0d90bb00040101bf4080000003140e60009e
:2090c800000001001818714000000000658f7000000b8fffb050a00000045ea000000018ef
:2090e80013faac0c000a0016ea520002a00100000000054000000000000000000000006ef1
:20910800785805004102798963c004000c00000000000000005265b40000a078ff33200025
:0d912800000087efd1000000e04ecc1020c9
:209135000000000000000000000007c21d007010000f1073fd4000000039fbff01000001b0
:20915500e90398000001c404d00110000b00901540400080000000000000d6900000803ef8
:209175003c00000000000003a1a8800a00235e8d011000010c0a25880000dc3a4069200006
:0d91950000010b02a8000000c745051000f6
:2091a20000000000598000000000006077e0452000000adf7d0040000064dcf700000000db
:2091c2008dab040800026705b0160000080e7aa9500001c000000000000002600200000463
:2091e200240000000000180d6e950000004075bf44000048007a65b00000b6641e960201c1
:0d9202000001a0795400000243d5cf1020d8
:20920f00000000001007fc60000000000d0ff200000d0818008040001c2240f5008000f9e5
:20922f00cb6e60000007c68605a01c00000f04154000000000000000001094140000003e14
:20924f0039dda400000101d5c03c000001c00000000000000c03258000003c03d0cc000022
:0d926f0000b9ef7330800014434e00000082
:20927c000000000081afbc8000000000258f70200028019e9494800020060afa00000098f1
:20929c00f137940000ca036fca643000000017954040000000000000001c02a800000a3e22
:2092bc00056f6440000601d17bc002021806800000000001805265b000083c6bdc330a0015
:0d92dc0000b8b368cc00000a67ac0a50006f
:2092e90000000000009f34b0000000028700000038019b12f9400000dc2f49ef0000000ceb
:2093090007c2a804000002c4d20000024000f43e80000000000000405510002ac2000c04a2
:2093290000e0a7000000d105e09400004006b40cc2000000000a65800001400150cc00003e
:0d9349000270fbffc4400000003f9a70005e
:209356000000000000a1f89000000062e7aa0000000d0fb66000000aa0066de72080007194
:20937600a1aa958000006645d91000002000033d40120000000000402508562ac080003ec6
:20939600014e0152000090af229d01001467d58330200000183a25b0000e8e00fc330200ff
:0d93b60000901b2ec100000000148a14005e
:2093c3000000020000000000000000000d800000280108b2cb0040001c2ac050080000f9b6
:2093e30003f4000000004035c9100000000b32c64040000000000000009a58154000000259
:20940300257f4a0000049000000000002062b500f000280b0802658000001641600f0000b8
:0d9423003ad0f9c000610000028000000096
:209430000000003801800000000000062580200013880172c118200016045ef5400000f8ec
:20945000a1be00000002e79cca100002a79e9f895000020000000000031eb6a940000014a9
:20947000615c4500000058c0000000000347afaf00000008007a25b000065c20ccf0000085
:0d949000018193aa80c00001c60000000009
:20949d0000002000100d428000802042b700e002000500dc3f801800142800000020000021
:2094bd00ff42a80080004002005002000080000000000000000002000310f410400800367b
:2094dd000040fa00a00008000000008013e03e00f1021a80080b2580184000240055202086
:0d94fd000090038154008420000005000051
:20950a0000002800800f6bd500a00346aea0c022800d9a7ebd408a00207c00000028000140
:20952a00bf2a9582a002e01780500280058000000000000000000282800e0220988a001c3f
:20954a0001faa040281870a0000000aa09e036cf02028801813225b00a2000696a550028af
:0d956a00800005629400a000000ec5000006
:2095770000000000000d8048100000403d00f000001000ffbfc010060003e0a00000010852
:209597000702a8000001c0140aa00020309f9c168000000000000000008f743d40000000e3
:2095b70000405000010010f923080000e003a6bf120000010802258800000001d0aa000240
:0d95d70000308d02a8400414028fd1a000c6
:2095e400000000000003a210000401602eeaf000012000773dc800000e2bdaf50000007030
:209604000d3295800003e0158a548400371f572bc000000000000000030193bc00000006a7
:209624007afaf520029090916b1d000000000cab04000008197025b00000002a08550001b9
:0d964400200000695400080143dfc26400eb
:209651000000000000090048000000039eb00000002d0d0000000000002260aa01000200ee
:209671008f82a8000002427d9f0200000f08d2f3020000000000000000801c3240000002d0
:2096910036f0f500000239073508040002c01500f00002810008258040a03c3000000000d8
:0d96b1000c08e0c154020014068000000007
:2096be0080000000580522120000606014d80000005300000000000006056ea54000050514
:2096de0097aa95400002066ffe2400000b0016ccc0000000000000000580d23140c0000484
:2096fe00075aa04800019083b7890000e200058f00100008005a25980040200000000000aa
:0d971e00025001b9540000080700000000cf
:20972b0080000000000d0048000003c434de7000400700fa6e8800016c2260aa00400000f0
:20974b00e543d4000a02420000000000001cbfbc00000040000000038000765900000e027b
:20976b0000d95b01000070f00000000000200000000000010008258040017c0000000000be
:0d978b0002000b0280000801c2ee00f00099
:2097980000000000500522124000086724181400400d8c7f7e800100ac05eca54000000050
:2097b80001fa810414a200400000000003ce16b89000000000000000000093394000001ec2
:2097d800624c0100010098100000000a5040000000000009805a25b2500004680000000009
:0d97f8000401e573d4000441c01eef000021
:209805000b00000000a30048000003c2240a0000000000083d480000007b59a10000040054
:2098250093c148600000c37cef0080030000b7ddc040a0000000000051005e7c8000000493
:2098450042d0f5200030b09000000000000016cb210000500000258040008039facc0000b6
:0d9865001071d00154000000200000000030
:20987200490000000017a212000000007faf540000071e1fbd4000040023f9a761000018bf
:209892000b6ad5280002006fbe240000001efefb8000000000000000280096e88000000034
:2098b200700efa00000081800000000401c02d8b10000020005a25b000004004ee3348088c
:0d98d2003811d17154040000e000000000c6
:2098df000000000000078048000002424e8c200000000000280000000c34000000000009eb
:2098ff00e083d40000004405055000002109f02fc00100000000000000003a04000000002c
:20991f0028000000010058eb63300000c0230000000000000000258010001c000000000273
:0d993f000000f000000000e1c7d69cc00051
:20994c000000000051a522120400034034dc45000300005fa80040000c380000000000782f
:20996c009333d402000203a6ca541000580117bbc8800200000000000008d2f810000016f9
:20998c007c0000000000d1cb24cc4000a1e0400000000000007a25b8200a013800000001f7
:0d99ac000000100000000003632cc3320017
:2099b900002800000003004800000006e70f5000000d0000000000000036f05500400051b6
:2099d900a00000000000143d9f0000000008d02a80000000000000002710000000000e0017
:2099f900027f2500000000076330000000c30000000000000808258220000002d0cc208036
:0d9a190002b9058330000400028000000047
:209a2600000000000001221200000162e4aa0400000000000000000e0066dca050000000b6
:209a4600800000000000662eae240400039d06954000400000000000000e0000000000004d
:209a660061d9a7400000000930cc80000003800000008021995225b020001c38ce3342009f
:0d9a860001d0adf8cc080a016040000000de
:209a930000000000d9f780480000e0432ffef20000000f1828020000040250d80100001049
:209ab3008be284800000428f9a1080000b08981400000080000000400d9c5a6408002e000b
:209ad3004000000002041007e60c00000b4037ecc0000000080825802c003c037acc000090
:0d9af3000070ffc3300000c0001fca40001b
:209b000000680000d0b322120000020605eff000000181bbbd40000020200ee4420000d8b4
:209b20001d6a9d800462063cba74000123001abd5412014000000000051e52b010000000d4
:209b4000680000000002800b3b4d0000f40025a330000000195225b02440007a7f330000cc
:0d9b6000008003a8cc0800000017e64000bc
:209b6d000000000008038048008008440009600200050bd02a8808814066f8ff00200008ee
:209b8d000101540080004395eb7002000f10001542400000000002000d80000000084080a0
:209bad003bc0ff006000f00b3e90000012c3c000000210000000258248034040000000005c
:0d9bcd000000efa330010004002605500049
:209bda00000000005803a21200a016029c89640280080053a9500a00002558fe0028005840
:209bfa00012a9580a0036785ade00280081c1b154000000000000280071e0000000a0040e8
:209c1a0003eef500288080077b950000020040000002a800007225b00a0000680000000060
:0d9c3a0000581beccc000000000cea5000ac
:209c4700100000005107004808000002800960400000000000000000003cc0fa100005b05f
:209c67000503d4200003402dcc70000005183694c2000e00000000100088000000000000e6
:209c870032d0aa00810058877e9400080240000a018000100000258350004041eacc010585
:0d9ca70000300000000000e407fe00a000f7
:209cb4000000000000a1a21240000167d4896c0000000000000000001c754ea5600002984c
:209cd40005aa8100200003bfec1484000d8903a8d200000000000020050100000000000c95
:209cf40020cca500002871fd36990000c0079fca00000000007225b0000000785f33400297
:0d9d1400800000000000006007bdc00200dc
:209d2100000000000c0f75680000004002096000400d80bc064070000062ee0001000018d7
:209d41008fc3d0020001c307fa1200000000182a8200000000000000011e1786c000003c8b
:209d6100627bf00800000000000000000023250a2008000100082588100034000000000099
:0d9d81000200f000000000000000000000e3
:209d8e000000000030037780000002061e896c00400f0efb89548000007efa0208400451a4
:209dae00937b810c000260569a7400000300dfa95040000000000000099c8689c00000168f
:209dce003ff9e240000070000000000000607eea70200008187a25b000002c0000000000b8
:0d9dee000500100000000200000000000051
:209dfb000000000090910294000800400209600000001bfe99000000043250fa0000005854
:209e1b00c333fc000203e2eda52010004f0c3c3ec0008e0000000000091fbc1400002c0045
:209e3b0003faa1080000b900000000040347940a000010510008258820000000da8200002a
:0d9e5b0030f00b773001000800000000001f
:209e6800000000081008016800000a6016896c0000818eb68600000000025ea050010090b0
:209e88000b7bbc400061e625aa7400002700ba37c080400000000000000fbfbd5400000037
:209ea80003f8a740000090e0000000020806aecf50002009805a25b0400000381d4100803d
:0d9ec8000001ef78cd010014000000000043
:209ed5000000000018a323f4000200000009600040000d1414800040007c5055200008f8ba
:209ef5009000000000002205ca1000000110572dc0000000000000000788933c0000009e6b
:209f15004000000000003801001400000023800000004000000025804000003ec0a0100029
:0d9f35000000a0000000080000000f500018
:209f42000000000091b87ff80104000016896c10400319df2d5cc020143a4ca540000010ec
:209f6200000000000001405e9a750002811ef6b780000000000000000f1f3ff89000007cf2
:209f82007000000000003001fabc000001c0000000000000005a25b0400000317e05000084
:0d9fa2000000000000000000000d8f5010b6
:209faf000000000051d7732c0400000000096000000010043e8200800c325055000700f828
:209fcf00f1b56c060200c00600f0000000005631c0000000000000080f00972a4000203ce7
:209fef003c000000011000a000000000002007d5b00020000000258000003c400000000177
:0da00f000800f000000000e140000000002b
:20a01c000000000051e72705000420001e896c0000000e3bbe88000e260178a5400380f0f5
:20a03c000d6e85010403c026ef001000878e3af050000e00000000000800fa69500000209f
:20a05c003c000000028000000000000025c035fa14001000007a25b820000c300000000239
:0da07c008000100000000002000000000045
:20a089000000000000034074800000020209600000008fb83d40000004025ce2000000d833
:20a0a900004154200001c28f0f4000000b0cdc3d40400000000000000f1d00000000002c39
:20a0c9003e6d2001000000000000000001c000000000000008082582300082000000000081
:0da0e900000000000000000000000000006a
:20a0f60000000000018068b80800006054896c00080501d6281000003e020bd14800025026
:20a11600a7e954400a00e646ee0420000818d2281040000000000000081800000000000033
:20a13600397f5250000000000000000008e0000000000001815225b02001440000000000b9
:0da1560000000000000000000000000000fc
:20a1630000000000110bf3d40000100202096000000f8000014400400620f0aa2000001078
:20a18300f76a84210008401caff01028100a983e800000000000001000003437c0000d06bd
:20a1a30002e9d000300000000000000401c3860a02000800080825804ca00000000000307e
:0da1c300010000000000008000000000000e
:20a1d0000000090080abbb840000080654896c000305987a8140008026654ea5400000800c
:20a1f00013fe9d0000eec01fbbf1001021195ba81200060000000030030013bec08000acd3
:20a2100000dcd520300000000000000000001da050000000195225b02c041400000000306c
:0da2300002000000000000a400000000007b
:20a23d0000002000380363bc4480000000096002000310b2388018000034f0550820001012
:20a25d0007c03c008001433e00f00240018000154000000000000240008c9ebb80080e8097
:20a27d00344ea0082400f003403c808000440000000200000000258468000000000000208d
:0da29d000000000000000002c000000000f2
:20a2aa0006002800300fb79c00a000001c896c0280019a83f4500a00066dfca54028008039
:20a2ca00016bc001a00006cecf0082c08f0013954800000000000280018cfbddc00a000092
:20a2ea00345d42002800800bb3c180a00217000000028000007225b00a0400000000002822
:0da30a0080000000000000020000000000c4
:20a3170000000000010d83e800000000000960400041007e32c01080263d50aa080080904e
:20a33700b7628400001422249f0000000d180c28080000000000000000907ebb80000006c0
:20a3570077cca10100000907803c210003c00405010000000000258110010002cacc1000e8
:0da3770002000000000000000000000000d7
:20a384000000000001a32a81000000001c896c00102808963050000834054ea54001080086
:20a3a400057a9d0000e1c044be240001800b33a80000000000000002070cf69dc0000004e3
:20a3c4007b5aa740000030813bc10004001034ef50000000007225ba00008003ec33400056
:0da3e4000000000000000008000000000064
:20a3f100000030000000000000000040020960000005089c280000000063f05000000031cc
:20a4110089f71c010000443f0ff000000f09b43bc040a00000000000099000154020003c1b
:20a4310072efff00000010d000000000000017055200000100082588200034000000000053
:0da4510000018fc154060001c67d0cc0083b
:20a45e000000100000000000000002061e896c0000001bfebd500000862ffaf540000201a6
:20a47e00dbe705000002061cacf120000801533ec080000000000000010877154000001e49
:20a49e002efef7004000381000000000006036ca54000008187a25b020040070000000003c
:0da4be00300095aa95040000e625e330204b
:20a4cb00000000000000000000000040020960000800809c2a80000002425f7200000001e2
:20a4eb00f9ffc000000026010d70002350181c374000000000000003871d0000000000c26e
:20a50b002c0000000001010d015400000040000000000021000825806000006000000000d2
:0da52b000110fdc280000003c002055000b9
:20a5380000000000000000000000026016896c00100100de295000001c2a1fb1400002785e
:20a55800fd7f8940000047448d702000219f3b9dc0804000000000000f8f0000000000043c
:20a5780000000000000038e7e29400000263800000000009805a25b040020024000000002b
:0da59800020181fbd50400000716e551000b
:20a5a500000000000000000000000000000960000000087c00080000027a4ca100000078c0
:20a5c500c9e31c800002462cccc000000f00342a88000080000000000f085c3ec000a08028
:20a5e5003fe0af008200f8856188000000002cd2500000004000258010003c002ed1100012
:0da60500000003c2a820040403cf0aa00037
:20a6120000000000000000000000000016896c00000000d7a80000000e63efa741080071dd
:20a632008b67050100c002bcc3300000000e061548000000000000000180fbb7c080a14ecc
:20a652007fea05600000d8193b8c000001471fba76000000005a25b820a00001dbd15100d6
:0da6720000180faa950600006066ea54006b
:20a67f00000000000000000000000000000960001001001c2a8000000202f9ff008000f00f
:20a69f00d3415400000246bd8a100003008e3a3308010000000000000f0e3a77800000003f
:20a6bf000000000000000100000000000003a60fa000428000002586400000000000000075
:0da6df000009000000000802603c0a008035
:20a6ec000000000010000000000000001e896c0009081eb629500040146adef700000084b6
:20a70c0015ea95000002663eba740000019ffeccc000000000000000080177edc00021004d
:20a72c000000000000800080000000040003c4aa00084800007a25b02000000000000000d9
:0da74c000071c00000000401c00daf54807a
:20a759000000000000f00000000008020209600000010d543e8000003400100f08000010f0
:20a77900edc280000021602faff00008059b3c3300100000000000000d000000000000000e
:20a7990001d0d000003810000000000002400f0550002000080825846000000000000000d8
:0da7b90000d003c15420000062860530006e
:20a7c60000000000381000000000146054896c00000819773fcc000000601e0f01000080bd
:20a7e6001f2bd5000002c20edf708010010a1e8cc080000000000000010000000000404409
:20a80600036ad5020000000000000000a3c634ca54800001815225b42000060000000000e0
:0da826000081872a95800002e00fe03020bd
:20a8330000000000000000000000000202096000005110d8000000808003c9d108000000ba
:20a85300d9a70c80000002d78a1000200090081542000000000000000d00b3bec000000415
:20a8730039e9ea00000000078154040000c000000000000008082584008284016f66100173
:0da893000801008154040008400c0e300044
:20a8a00000000000000000000000000654896c0000254afea002800040020ce24000001931
:20a8c00089f345000a0802bcba740000851e7e954000000000000000000072ff80000c3690
:20a8e000245ce000000001efe2940000e006000000004000195225b070013601c0a54002dd
:0da900000000833954000006000f8910206c
:20a90d00000020000000000000800000000960020001180028000800246570ff08a0000036
:20a92d00b73e84008001c036cc7002008d0e74154000000000000000250d043442080000c4
:20a94d000000000000000803032400800803c505501a000000002580480000000055002097
:0da96d000000c5c15400800403d49d00000b
:20a97a00000028000000000000a000001c896c0280080b5328000a002067dafd022800182a
:20a99a00ad729d03a0c00017ac140280000bf2a9501000000000000003015f34408a0000be
:20a9ba00000000000000100f73140aa0a4001cca54028000007225b02a0000005c55002883
:0da9da000001f92a9581a008c38dbd500031
:20a9e70000000000900143c20000000000096040000000383e800000006278000000001031
:20aa070087a31c640000240d000000000300febf48000001000000000008923fc05000045e
:20aa27007050550981001003f78000000827e6fd000000000000258501a05c03cf66008075
:0daa47000200f943d4040002403c0a000064
:20aa54000000000000036941a00000001c896c004000001fa8180000002e5d8000000080da
:20aa7400177b0500000062b6ca00100020005e7fc00000000000000000013e7dc2000000fe
:20aa9400714aa540028010e93754000004626eef44800120007225b8210a000340a548406a
:0daab40001001bfa80000001c01eaf54001d
:20aac10000003000109000000000004002096000028b08bc3d4040000000ec472000000198
:20aae100e1c3e880000ae617050008080088181dc0000000000000100f8e7414c800082c7f
:20ab01002560aa180000010000000000000000000000000100082588400000746055084085
:0dab210004508b82a80004200376cf208012
:20ab2e000000100000000000000002061e896c00000001de281000000000c9d1000000101b
:20ab4e00eb73fc030002e74faf540010038117b740800000000000200f191700d0a020201e
:20ab6e00797aa540000031e000000000a1c0000000000008187a25b02000007f6aa5400020
:0dab8e0002f01b3a95400e0006cdaa2000f3
:20ab9b00000000000000000000000040020960001010009c154000005c026b5600000010af
:20abbb0005c140020003e2cf0aa000000f88040cc8000000000000000180f417c000003425
:20abdb003bddbb00000000000000000034041d0d110000010008258440031e02d0cc08005b
:0dabfb000198874280000001c4270aa000d5
:20ac080000000000100000000000026016896c000001807f295400402000c895808008006d
:20ac2800e36bd5000401439eaa5400000101030cc0800000000000018100f70140000004f6
:20ac480003fdee0000380000000000000006ada424200089805a25b000009c205e330202a2
:0dac68000018117bd5020400022dea5400f3
:20ac750000000000000000000000000000096000000010bb31c040002c2dec5600000010af
:20ac9500d72c0000040023dcecc2000000095403c800000000000000078b0000000000022f
:20acb50077ecd10000000095c214010000240d0e60000020000025840000004020550000c2
:0dacd50000b0077b988000000741ca3200e4
:20ace20000000040000000000001000016896c0004018853705840101624e8958080400116
:20ad0200b7f200000b094065e330000707007abc00400000000000040b8b00000000101c72
:20ad22007e6f8110004000017115080101668dac10200410005a25b2401000795a55000234
:0dad4200428187af040001a062c5da340829
:20ad4f0000000000000000000000000000096000000b1d1c2a88400064606b56000005f0cb
:20ad6f00c181400600834034d7201000100ed83d40000800000000000780db1fc0000f4033
:20ad8f0034604209000001ffea14001003c3e50510003880000025880004002140a0084243
:0dadaf0080f0e00000001000c7ae0ea00014
:20adbc000000000000000000000000001e896c0000080edf29500000ac6a689580801001d2
:20addc00f36bd5000001e6a1bb1400000019d6a810400a00000000020f80d7bf4000000075
:20adfc003cce4742000000b9ed14001002c04dcf10200800007a25b000420001daf5400023
:0dae1c000000100000000003c704e85020f3
:20ae290000000000000000000000000202096000000009da704a204a02014c560802801056
:20ae49008bc28020000840050cc000000100b41540100000000000000000000000000006c3
:20ae69003a4ae700002800d00000000014264d0e60002800080825800000043820550000e3
:0dae89000000db014000000343ce05500037
:20ae960000000000380000000000006054896c000000185331d840800600489580010080a3
:20aeb600172bd50000120625e3302000091e5ea95000000000000000000c00000000003c2f
:20aed6006241420000001010000000000163f78c10200001815225b421003461ee5520007a
:0daef60000000973d40000014026ca50007e
:20af030000000000000000000000000202096000100008b03d42400024426b5601000138d9
:20af2300d343e8000807c303055010002f1eb43d40400000000000100009743bc000005c34
:20af430022f0a50010007001ba88004080043cbdb00002200808258200000003f05f0000dc
:0daf6300000107738800021c02be9cc004a0
:20af700000000000000000000000000654896c0000000e07be800000202ae8958000005187
:20af90009573fc020042605cc5500080780af3a8100000000000000000003fbfc08000a0fd
:20afb000054e5541300000032e9c00c000028f8a00000040195225b020001438faa5100025
:0dafd0008518803b4502001d606fa3300016
:20afdd000000200000000000008000000009600200010bb0280000c024664c56002002084f
:20affd000b6bfc208003e0340f501220800a942a88000100000002000000327fc0080e0020
:20b01d007800000020000000000000800023c000000300000000258048000001e0550020d2
:0db03d0000000d01540080000205bcc000a1
:20b04a00000028000000000000a000001c896c028008009bbd5040002074c8958028007989
:20b06a00eb3bf400a001e01caa040280000106154020008000000280000e7f73000a000057
:20b08a0028000000280000a0000000a001e0400000028000007225b42a011f004aa5602867
:0db0aa0000000d3a9560a0080054f332003c
:20b0b700000000000000b90e020000000009602000000900000000821c654c12040000d0e9
:20b0d7008fe730000a114004fcf00010008a777742000000000000000d0000000000001d74
:20b0f70001d00f0000003080000000000802800000002030000025808040023c000000022a
:0db117000010000000000001e3c000000077
:20b12400000001000007f90d800000001c896c0000501800000000000066c9b7810100009c
:20b144000fe0cc00040a002dcf310028011e3f9dc000000000000000000000000000000012
:20b16400017a05200000801000000000f000000000000840007225b820201e0400000000b2
:0db184000070000000000000468000000088
:20b19100000030000003c3c204400000000000030000000000000000003a6f5600000000a0
:20b1b100f56c000040080034c0000000000eb43e80000000000003000080000000000024ba
:20b1d1002370552000029009832400000362c50aa200004780377440000004025bcc080057
:0db1f1000010ff3e8000040020260aa08010
:20b1fe000000100000052141004014000000000100000000000000000068c995a0010038c6
:20b21e00096200004a14c01db8000800001ddb2810400000000003000700000000000040f0
:20b23e00277ea54040058083eb14080003e05eca500001a10007789000003e01cd330000cc
:0db25e0000f8ffbb9c010a01c02d8a5500bd
:20b26b000000000000000000000000000000000000000000000000000623cd5601000a006c
:20b28b00097400000000202d90020000001854280040000000000000000000000000000073
:20b2ab0003d0a0010000f0e327a800001540040fa0101100009814c00000846050aa0000fa
:0db2cb0001f0e303a8800413c0040aa000f2
:20b2d8000000000000000000000010000000000000010000000000001e02e9958000050022
:20b2f800edaa00000041e036b8000000071d9ebd5000000000000000000000000000001ca5
:20b31800225ef541000091dbba14000008463faa0000280000b280c080015426eaa55040ba
:0db3380002f1adba140800000000e5500855
:20b3450000000000000000000000000000000000000000000000000002386f5608010000e0
:20b36500d56c00000003e274900008004d00083d42000000000000000000000000000000c2
:20b3850038000000000030c0b388000001c66e0a008000700c73508000003637ce3c0880c8
:0db3a5000078b38280000000e7cd998000a1
:20b3b20000000040000000000001000000000000040040000000001e1e0069958002c0007a
:20b3d20019e200000103605da800000400185f3d4000000000000004000000000000b00c3f
:20b3f20004000000004098133f8900011607e7af540004605892fd40001a1404c0c300003c
:0db4120040f00b2bd4000103e77fce50006b
:20b41f0000000004080000000000002000000000200000000000000000254d56000004f005
:20b43f00c97400000000002db0000000000f16b600000000000000000000000000000000f8
:20b45f006fc00000800000ef4154a00a03c3070aa28020001870154000001c285055000011
:0db47f002af88f014000000002c60a00807c
:20b48c000000000210000000000000e00000000000050000000000000021c995a00000800a
:20b4ac001dae000000006036a8008010000186f9180000000000000000000000000000004f
:20b4cc0078fe58020010001dba954004020005ca540010259ddb2950400f6001eaa5418184
:0db4ec000178f97bd52400000075af5400f5
:20b4f9000000000000000000000000038000000000000000000000e00e016d1210010090a1
:20b51900056c000000014035a40008000048943e80404e000000000000000000000000c097
:20b539003ef0ff01000010076b9c0004004003ed108000210034280240415c2770a020002f
:0db5590001300df33000000843740cc08079
:20b566000000000010000000000000004000000000038000000000001e00e8b780009cb861
:20b586000b6200000000e001d800000007195ba8100000000000000107000000000001c083
:20b5a600646cf71a00009003aa8080020a6004ed1500034b801abd5000262004eaf568006f
:0db5c600028003b8cc2006c2002ea3302066
:20b5d30000000000000000000000000000000000000000000000002026386d560000040112
:20b5f3009968000000000695e00000005000fc2a8000000100000000590000000000060264
:20b613003970dd0000003100000000008743ede57000004f80b232824001043cd07221003b
:0db633008010fb336c0000e042410330103a
:20b6400000000000008000000000000700000000038000000000004026054995a0000000f7
:20b660009dae0000000066aca80200102000f7a95000000000000000200000000000001c67
:20b68000006a77020280018000000002026075ea1000082d980371500020a0660eb14a0031
:0db6a0000098110205810003430183302052
:20b6ad000000200000000000008003c000000002000000000000000000394f56002280b0e8
:20b6cd00afe31c008003d3440f090a00018012400000000000000200008000000008000096
:20b6ed002c1055302000000179400080634244042092000d0e98154048003435500a31a09f
:0db70d000800013788408000c017dcc0082c
:20b71a00000028000000000000a0020000000002800000000000000000036995902800808a
:20b73a000d3b0583a002005fc50402800b807620020020000000028003000000000a000001
:20b75a0079dc550028000003be9c00a003e02dc4752280000bb6a9400a002003f8002868b6
:0db77a000000002b4504a003e60eb33000d4
:20b787001000000000f0000000040000350f0808000010783c2030001c41ed560c00017019
:20b7a700097800000000242da00100000000000000000000000000004000503c244040029d
:20b7c70000000000008018f17f28020a01c79505f00000090004154020002c03d0550100fd
:0db7e70028000f014004001540040a000076
:20b7f4000000000000100000000000000da5060000001c13141800002461c9958000009817
:20b814000dae00000000e6b6a80000000718000000000000000000008000d6141400261e34
:20b83400000000000105f8b03f150004436246a050001280005e1544000020694aa5500101
:0db854000058092bd500020207a6af5414be
:20b861000000300090000000004001c00000000100008012000800000034c912000000005c
:20b88100894000040003c4030a0001000010000000000000000001000000000000000000f4
:20b8a100000000000000000302a880000060370a0000284b89b81540000140605dd12002bf
:0db8c10000b08b8154c00043e01e05521002
:20b8ce00000010000000000000c000000000000300071ade200000000c01e9b7800000003b
:20b8ee0003b2000800020206ca020100001a00000000000000000100000000000000001d6e
:20b90e0000000000028000086154000003c23faf5410030f1e5ba950000000240de24001eb
:0db92e00009819ba95000002c036aa541006
:20b93b0000000000000000000000000000000000080000d6000010007c414e56000100f1ab
:20b95b00ef83fc810a03c7ed0e3014000000027000200040000000000000000000000000f8
:20b97b0000f05f20000010e527a800000bc28005500020000e73f882006a406350502000ef
:0db99b000008877388040008422c0aa000f1
:20b9a8000000000000000000000000000000000010018096200000012039c995a0000000e0
:20b9c8008763bc88046007b68c303800000c06700000000000000000000000000000400e4c
:20b9e800006a0541400001dd3e140000040047a5501040850c06345030a0867c5ef540808f
:0dba08001850107f450000754041a55010fa
:20ba1500000000000087c3c28000014000000000000b0012000000000242ca1200000050b7
:20ba3500d7abfc00000423170800800000800c2804000000000000000000000000000000f5
:20ba550022f0550000005803403c04000007c5ecc0800000093ef30030200200f00f00000c
:0dba750000790d0154000200039d0fa01484
:20ba820000000000000ba941040002000000000000080096200010001c79e9b7800000b86e
:20baa200f3afdc000008e706c00020001780762800000000000000000000000000000000fc
:20bac200004ca5590000b809bbc0000000074583301000059c7f0cc000060e63def000009e
:0dbae20002f9c7ba95000401c0408f520060
:20baef0000000000000000000000000000000000000000d7800000000203ce562000000097
:20bb0f00a000000000002236bf71900000000270000000000000000381000000000008045c
:20bb2f0024304720801000db828002040c002505500053d01896f30000000c3a50cc00819b
:0dbb4f001800eb403c06000342dfacc000d4
:20bb5c000000000000000000000000000000000018000096600000200e70e995800002001d
:20bb7c00100000000000e7cefff01800000002f004000000000000010000000000000006e0
:20bb9c00386a474200001011b3d58000e4021faa541019d58cbe8cc010223602dc33220201
:0dbbbc000000d7ebc00008000026f33000a9
:20bbc9000000000000000000000003c00000000010098012000000001c41481200010090a6
:20bbe9008d7400000010401d0400000800000c28000000000000000000000000000000048a
:20bc090001505f000000700fc154800001c3770a0080000d0af815400000000010551000b9
:0dbc29000500db8154020403600400f000fc
:20bc36000000000038000000000004000000000020078efe200401000061e8b7800080805a
:20bc56001bb60000000202b58c00a01007007e280200000000000000000000000000002039
:20bc7600327c0500000090053295400006067eaf550803001953a9540000000048550008b8
:0dbc96000200053a95440a005624ef020012
:20bca30000000000010000000000000000000000002000d78000400026636e560100000873
:20bcc30003f400040000e03c0f7110000700000000000000000000000100000000000e00a4
:20bce3003c000000000070f00000000023f01f0cc080100f0f7378844002026cd050380181
:0dbd03000011f7c28020000000150a0008a2
:20bd10000000000001a00000000000000000000000400096200000002c61e99580000018d9
:20bd30000fea0000000262a6cff2a00008000000000000000000000008000000000000007f
:20bd5000040000000000d9800000000000462e83302028881807b45000009e7c4ef54000bf
:0dbd70000399f1bbd5240001c004ef56007b
:20bd7d0000002000000000000080000340000002000f8e5c3c28000a02004b1200000208f1
:20bd9d000d700000000022afcff002000f8a042800400000000002000d0000000008002437
:20bdbd0000d0aa202000d1f53b98008003e3ac0aa00200008df2bd420800003440a0082093
:0dbddd000401e30154048000040003300061
:20bdea00000028000000000000a000004000000280071c9f94180000067be8b7880004187d
:20be0a00ebb600000001e05dbf7002800b811628000000000000028008000000000a00200a
:20be2a0039eca540680081ddaa9001a003404185520280010197e0400a0000054ef5482cf1
:0dbe4a000201fd3a9500a2e16780c330209f
