:02000000ff00ff
:080002004c6174746963650030
:17000a00694345637562653220323031372e30382e32373934300069
:15002100506172743a2069434534304c50384b2d434d3831003f
:1b003600446174653a2053657020313220323031392031383a30343a3130007e
:0200510000ffae
:040053007eaa997e6a
:02005700510056
:0200590001059f
:03005b00920020f0
:03005e00620367d3
:0300610072011019
:0300640082000017
:02006700110086
:02006900010193
:20006b00000000000000000000000000000000000000000000000000000000000000000075
:20008b00000000000000000000000000000000000000000000000000000000000000000055
:2000ab00000000000000000000000000000000000000000000000000000000000000000035
:0d00cb000000000000000000000000000028
:2041fd00000000000000000000000000000000000000000000000000000000000000400062
:20421d00000000000100000000000000000000000000000000000000000000000000000080
:20423d00000000000000000000000000000000000000000000000000000000000000000061
:0d425d000000000000000000000000000054
:20426a00000000000000000000000000000000000000000000000000000000000000000034
:20428a00000000000000000000000000000000000000000000000000000000000000000014
:206d6b00000000000000000000000000000000000000000000000000000000000000007890
:206d8b000000000000000000000000000000000000000000000000000000000000000000e8
:206dab000000000000000000000000000000000000000000000000000000000000000000c8
:0d6dcb0000000000000000000000000000bb
:206dd80000000000000000000000000000000000000000000000000000000000000000009b
:206df80000000000000000000000000000000000000000000000000000000000000000007b
:206e180000000000000000000000000000000000000000000000000000000000000000005a
:0d6e3800000000000000000000000000004d
:206e4500000000000000000000040000000000000000000000000080000000000029000080
:206e6500076a8180a400003daa060801800000000000400000000000000000000000000041
:206e85000000000000000000000000000000000000000000000000000000000000000000ed
:0d6ea50000000000000000000000000000e0
:206eb200000000000000000000020000000000000000000000000040000000000022380024
:206ed2000143d440820000140f500000000000000000a000000000000000000000000000b3
:206ef200000000000000000000000000000000000000000000000000000000000000000080
:0d6f12000000000000000000000000000072
:206f1f0000000000000000000004000000000000000000000000000000000000000000004e
:206f3f000000000000016000000000000000000000000000000000000000000000000000d1
:206f5f00000000000000000000000000000000000000000000000000000000000000000012
:0d6f7f000000000000000000000000000005
:206f8c000000000000000000000800000000000000000000000000000000000000000000dd
:206fac000000000000000000000000000000000000000000000000000000000000000000c5
:206fcc000000000000000000000000000000000000000000000000000000000000000000a5
:0d6fec000000000000000000000000000098
:206ff900000000000000000000000000000000000000000000000000000000000000000177
:2070190080000000000346000000000000000000000000000000000000000000000000008e
:20703900000000000000000000000000000000000000000000000000000000000000000037
:0d705900000000000000000000000000002a
:20706600000000000000000000000000000000002b8000000000000e000000000000000051
:20708600000000000003e00000000000000000000000000000000000000000000000000007
:2070a6000000000000000000000000000000000000000000000000000000000000000000ca
:0d70c60000000000000000000000000000bd
:2070d30000000000000000000000000000000000000000000000000000000000000000009d
:2070f30000000000000000000000000000000000000000000000000000000000000000007d
:2071130000000000000000000000000000000000000000000000000000000000000000005c
:0d713300000000000000000000000000004f
:2071400000000000000000000000000000000000000000000000000001000000000000002e
:2071600000000000000000000000000000000000000000000000000000000000000000000f
:207180000000000000000000000000000000000000000000000000000000000000000000ef
:0d71a00000000000000000000000000000e2
:2071ad000000028000000000000000000000000000400000000000000100000000000000ff
:2071cd0000000000001000000000000380000000000000000000000000000000000000000f
:2071ed00000000000000000000000000000000000000000000000000000000000000000082
:0d720d000000000000000000000000000074
:20721a0000000100000000000000000000000000038000000000000c0000000000000004c0
:20723a00000000000000000000000000000000000000000000000000000000000000000034
:20725a00000000000000000000000000000000000000000000000000000000000000000014
:0d727a000000000000000000000000000007
:207287000000000000000000000000000000000000000000000000000000000000010018ce
:2072a700000000000000600000000000000000000000000000000000000000000000000067
:2072c7000000000000000000000000000000000000000000000000000000000000000000a7
:0d72e700000000000000000000000000009a
:2072f40000000000000000000000000000000000000000000000000000000000000000007a
:20731400000000000000000000000000000000000000000000000000000000000000000059
:20733400000000000000000000000000000000000000000000000000000000000000000039
:0d735400000000000000000000000000002c
:20736100000000000000000000000000000000000000000000000000000000000000007894
:2073810007ebd50000000036aa0404000000000000000c0000000000000000000000000031
:2073a10000000000003000000000000000000000000000000000000000000000000000009c
:0d73c10000000000000000000000000000bf
:2073ce0000000000000000000000000000000000000000000000000000000000000000009f
:2073ee0001428004000000160f5080000000000000000000000000000000000000000000c3
:20740e0000000000000000000000000000000000000000000000000000000000000000005e
:0d742e000000000000000000000000000051
:02743b0000004f
:02743d0011013b
:02743f00010149
:207441000000000000000000000000000000000000000000000000000580000000020000a4
:2074610000000000000000000000000000000000000000000000000000000000000000000b
:207481000000000000000000000000000000000000000000000000000000000000000000eb
:0d74a10000000000000000000000000000de
:2074ae0000000000000000000000000000000000000000000000000000000000000000348a
:2074ce0000000000000000000000000000000000000000000000000000000000000000009e
:2074ee0000000000000000000000000000000000000000000000000000000000000000007e
:0d750e000000000000000000000000000070
:20751b0000000000000000000000000000000000000000000000000000000000000100004f
:20753b00000000000000000000000000000000000000000000000000000000000000000030
:20755b00000000000000000000000000000000000000000000000000000000000000000010
:0d757b000000000000000000000000000003
:207588000000000000000000000000000000000000000000000000000000000000000000e3
:2075a8000008000000000000000000000000000000000000000000000000000000000000bb
:2075c8000000000000000000000000000000000000000000000000000000000000000000a3
:0d75e8000000000000000000000000000096
:2075f500000000000000000000000000000000000000000000000000000000000002000074
:20761500000c00000000000000000000000000000000000000000000000000000000000049
:20763500000000000000000000000000000000000000000000000000000000000000000035
:0d7655000000000000000000000000000028
:207662000000000000000000000000000000000000000000000000000b00000000000000fd
:20768200000c000000000000000000000000000000000000000000000000000000000000dc
:2076a2000000000000000000000000000000000000000000000000000000000000000000c8
:0d76c20000000000000000000000000000bb
:2076cf00000000000000000000000001002400000000000000000000000000000000000076
:2076ef0000000000000000000000000000000000000000000000000000000000000000007b
:20770f0000000000000000000000000000000000000000000000000000000000000000005a
:0d772f00000000000000000000000000004d
:20773c0000000000000000000000000000200000000000000000000000000000000000000d
:20775c0000000000000000000000000000000000000000000000000000000000000000000d
:20777c000000000000000000000000000000000000000000000000000000000000000000ed
:0d779c0000000000000000000000000000e0
:2077a9000000000000000000000000001000000000000000000000000000000000000000b0
:2077c90000000000000000200000000000000000000000000006000000000000000000007a
:2077e900000000000000000000000000000000000000000000000000000000000000000080
:0d7809000000000000000000000000000072
:20781600000000000000000000000000000000000000000000000000000000000000000052
:20783600000000000000000000000000000000000000000000000000000000000000000032
:20785600000000000000000000000000000000000000000000000000000000000000000012
:0d7876000000000000000000000000000005
:2078830000000000000000000000000000000000000000000000000000000f0000000000d6
:2078a3000000000000000000000000000000000000000000000000000000000000000000c5
:2078c3000000000000000000000000000000000000000000000000000000000000000000a5
:0d78e3000000000000000000000000000098
:2078f000000000000000000000000000000000000000000000000040000007000000000031
:2079100000000000080000000000000000000000000000000000000000000000000000004f
:20793000000000000000000000000000000000000000000000000000000000000000000037
:0d795000000000000000000000000000002a
:20795d0000000000000000000000000000000000000000000000000000000000000000000a
:20797d000000000000000000000000000000000000000000000000000000000000000000ea
:20799d000000000000000000000000000000000000000000000000000000000000000000ca
:0d79bd0000000000000000000000000000bd
:2079ca0000000000000000000000000000000000000000000000004000000000000000005d
:2079ea00000000000400000000000000000000000000000000000000000000000000000079
:207a0a0000000000000000000000000000000000000000000000000000000000000000005c
:0d7a2a00000000000000000000000000004f
:207a370000000000000000000000000000000000000000000000000000000000000000002f
:207a570004000000000000000000000000000000000000000000000000000000000000000b
:207a77000000000000000000000000000000000000000000000000000000000000000000ef
:0d7a970000000000000000000000000000e2
:207aa400000000000000000000000000000000000000000000000080000000000000000042
:207ac40000000000080000000000000000000000000000000000000000000000000000009a
:207ae400000000000000000000000000000000000000000000000000000000000000000082
:0d7b04000000000000000000000000000074
:207b1100000000000001f73c00000040030e22030000c810168200003c3df0a00800001019
:207b3100008258000003c03d05300000000800000000000000000000000ff803c020000033
:207b510023f050010001010da744040000428eecc00000018c00000000000002600f000038
:0d7b71000000000000000000030000000004
:207b7e0000000000018b6b1c0000000615ee24230007c11294026000062748d002000080ed
:207b9e0005a259800002c004803430000001000000000000000000000000da3c1000000076
:207bbe006dfaf5400002188de5098600020064f33010000380000000000000025cf0000086
:0d7bde00000000000000000000400000005a
:207beb00000002800080000000000026370aa000080000083d400000bc3fc05000000010c9
:207c0b0000825820040022020a3000002008bc3d400000000000000000000a2580400100ac
:207c2b0023e0f5008008100f77440200024000000000000090342a80000080380000000075
:0d7c4b0002000000000000004000000000ea
:207c58000000010019b000000000e0637daaf00010479c133d400000260618a000000098e9
:207c780005a25b420a80e3c7ca3020000199fb28100000000000000040005a65b00000805e
:207c980027faa0400000000f370d060000620000000000039c86154020014600000000002f
:0d7cb800010000000000000260000000005c
:207cc5000000000000000000000000000000000000000bfc3c8000003c3fd0070000180072
:207ce50000025802000023270c600000000ff8140000000000000008010002e580000000e2
:207d050002e0a000000011877614020803430fc83000000f0970030200003c00000000009a
:0d7d25000100000000000000200000000030
:207d32000000080001800000000000000000000000001d973cc080000005fc024b008000aa
:207d520005a25bc00001604fac102000001cbebd500000000000000008005a25b0000000a5
:207d72006bdaf54000200197fb950404026396dd3408000b9afbab10800020000000000018
:0d7d92002200000000000001c00000000001
:207d9f000000000010a57e40000000021f8d000010a01c500000010000036c6400000000b3
:207dbf0000025820000000270450000a0000535c800000000000001050180b25801000003e
:207ddf00016050000000998942a800000023acbad08000000e1f4480000c80000000000071
:0d7dff000000000000000000024000000035
:207e0c000000000481bdf28100000077c598040000059d12940000000078cfa40000000096
:207e2c0007a25b82000000348e502000000c86ec5000000000000028018f3265b0000000b1
:207e4c0002faf540000091f87154010000401ed854000000007f6dc0000040000000000020
:0d7e6c0000000000000000000040000000c9
:207e79000000000011a981400000000335900000000d0010006000000003c0500000000016
:207e990080825806000024010a00000001005c1400000000000000000b080a6580000004c3
:207eb90000000000000001d00000000000241d98b00000000000000000001c000000000033
:0d7ed9000000000000000800000efcc100c9
:207ee60000000000d0e733d580000002b4c20600000800128018800000001ea000000019b6
:207f060095225bc00000e21daa0000000980bbbd500000000000000001991a25b0000026e0
:207f2600600000000000009000000000004216e426140000000000000000000000000000d5
:0d7f46000000000000000001e02db330003d
:207f530000000400000fc280000000002f00b20000090004030000008029fc000801050015
:207f730080825800c0002395053000200000f75c8000000000000000070c03658040a00019
:207f930027f0f500000070ff372c000003c40fdcc0010000100000000001804000000000ac
:0d7fb30002000000000000000000000000bf
:207fc0000000040000076bd50000006616804420000940078300c000003bef5808020001d6
:207fe00095225b41c000474480302010001c03ec500000000000000008005a25b000400031
:2080000003caa0400000001d3b0982020203a5f3320300000e00000000014060000000004d
:0d8020000100000000000000000000000052
:20802d0000002000000983e80080004287dff002000000bc3fc0080000000072002000042c
:20804d0000025801800002740e6002000010f8140000000000000200030d0b25802800004c
:20806d00000000002000b0e52f880080000425da4082000000ff3f0218000043daa4100019
:0d808d0000000000000080001000096000ed
:20809a000000280030af3a8100a00206858f7202800000f33dc88a001c00ee7242283800b4
:2080ba0007225b41a00002d7ec102280001e3bbd520000000000028000001225b00a0000ef
:2080da000000000028008193710980a000023cbe540280001ad3f9100a000061cbe5490084
:0d80fa00000000000000a000001c896600ce
:2081070000000000000f804810000802bc00000000090f78280000000020fd3400000000a2
:20812700000258d40003c275bea000000000dc3e8010000000000000010d02258100000012
:208147000000000000000003309401000003bca25100000500000000000e00280000000261
:0d8167000000000000000000000009604062
:208174000000000001892210000001665eca0200000f1936a940000000674920000800007f
:2081940007225b000002e33ea850000000001f3c000000000000000008185225b00000008a
:2081b400000000000000000b28998100000654f15680000800000000000000000000000134
:0d81d4000000000000000000001c896e008b
:2081e1000000000050090048000000441f0f5000000d007415400c00022000000000001007
:20820100008258400000060ed5100300008efc28000000000000000040000b65880000025b
:2082210033eb4a200000f00b003c8000a2401f08101c005f8c0000000000003c00000000a2
:0d824100000000c154400000400209600030
:20824e0000000000800d22120000020384ea000000080096a9400c001500000000000081b3
:20826e0087a25b01004006df9a700300010033bd400000000000000001803a65b000001424
:20828e00277b8a400000800163c0000000003dae2420002b810000000000807c00000000e9
:0d82ae00000001f154000002061e896c80e2
:2082bb000000040250ad8048000002c20c04000010010f00000000000200000000000010d2
:2082db00008258000012400f0a000400000edc15400000000000000000000a2580008014b8
:2082fb0043c0c5080000180d0330000001e4240470000007080000000000020000000000ad
:0d831b000200e9bca801000040020960005a
:2083280000000400d81d221200000266e1a8002008000c0000000000040000000000009847
:2083480005a25b400000003f8f540000000c7ba9400000000000000000005a65b0000000d2
:208368002ad8cf538001f1e130cc0c00e147b58d10200b0500000000000a0e300000000084
:0d8388000101d970958000026016896d001a
:208395000000000050000258000a03441ea0000010010000000000000020000000000000de
:2083b50000025802040040010a00000000000c3d4000000000000000010f02e580000000fd
:2083d50003c050000000008502a8800040200006600002070e1803c000063e606ada08001e
:0d83f5000078dfc03c0300000000096000bc
:20840200000000000001a25a0000a002ace80000280818000000000c0000000000000000d3
:2084220005a25b4500000684aa00000000001ebd400000000000000008197a25b0400000f4
:20844200020ca000000038006954000001e0040660200000015abc0010001e79ce804000c0
:0d846200007011f3c02000000016896c802e
:20846f0000000000000002580004c00236881000088010382a8000000072c0a500000000ae
:20848f00000258200000220000000000000f0000000000000000000000180b25880000361c
:2084af000140e70180200009033ca0000003de00f0800000809800c04000800060cc0000e7
:0d84cf0000008b62d4000000000009600076
:2084dc00000000000007225a00080002cfea040010010eb6a950000f002a005a01000000d4
:2084fc0007a25b800001e64000000000000100000000000000000002818f3265b000000e4d
:20851c0002ced1420000708773150c0a000045af02000005005ba8d0800140027c33024045
:0d853c000001c5b285200000001e896c0002
:208549000000000001000258000003402fb08380000b80fabc8000000203c0a500008004e3
:208569008082580000140026d4a00000058edebdc4100000000000000b080a6588000002dc
:208589002bc05000000008004280000003435f050000002b1ef02dc000402c3ae0cc0000ab
:0d85a900001099c3e8000000020209600004
:2085b6000000000000a7225a000000001ea00218000d9e1e288000000e02005a0081001836
:2085d60015225b6400080005c4040000058a1efd501000000000000000011a25b0000004bc
:2085f6007e1ea000000050876a800000000767afa60000099ffe884080203c02fc33020028
:0d86160000800732800100006054896c0074
:208623000000000008b0825880000066f7a80000100f00582288000004001050000000009b
:20864300808258400001424ed4200420019a900740100000000000000b0c0365800400004f
:208663000040cf01b00030cd000c204200c0340030833a40101b73004ca15c401033000041
:0d8683000070000258400000020209600073
:20869000000000005007225a000003e29dce04002008009bb940800020006c50000000018a
:2086b00095225b4000000675850400100d9d028b808000000000000000005a25b8040000d2
:2086d00000d8c5423280008ff28d08e02207afea343120018e96ccc0044080381a330a00b8
:0d86f0000000816a580800000654896c00e3
:2086fd0000000000d5000258008001402e94200200058a3c2a800800020000a00120000049
:20871d00000258028001c01684a00200000a92f84000000000000200030d0b2580180002b3
:20873d0003d050002000108dc0fc008001425f03f00210070074108029000c03dacc002050
:0d875d00001189803c0080000000096000d0
:20876a000000000000a3a25a00a0020034ea040280058e76a9400a001401daa00028000057
:20878a0007225b60a0014285c4040680000156fd400000000000028000001225b00a00042a
:2087aa00020ea00028008011a0c008a000c015830022802800ba3890cb00002b7f330028ca
:0d87ca000081fd73c080a000001c896c00c0
:2087d70000000004000002580800954275880000402900db288200000042d0a080400000e8
:2087f7000002583000004245c0600000000e5eb48000000000000000010d02258900013c96
:20881700243050084003d09b42a8000000e01d8cc080000189763cc0000002000000000036
:0d88370000f0014154010000000009604004
:20884400000000020007a25a00000a06d5de0400404000be68400000007948a54880000430
:2088640007225b60000262dcb0540000000cda30800000000000000108185225b00000806e
:20888400785e5030000439e821540000014605b3300000050c33b3c000201c0000000000c2
:0d88a40000d88d6a94000000001c896c0053
:2088b1000000000070d0000000000346c0000000202019b02a800020042000000000001057
:2088d10000825880000002b6021000102000bc14000020000000000000800b6580000002d1
:2088f1004050f1004000b00042bc00000363dd0cf008002918902a8040013c01feab00000f
:0d8911000071ed01540000004002096000fb
:20891e00000008000000000000006203c000000000400fb3a95000002e0000000000008162
:20893e0087a25b040800007c884000080000963d540040000000000007005265b040001e0a
:20895e0072ec5102000081e3fabc040000e01eec00202007890795400000800059a76000b4
:0d897e008091dfe294020002061e896c0069
:20898b0000000005008000000004c2c25408100008500eba0940100c3c7c000000002a10dc
:2089ab00008258400000003e01200000000b9a10880000000000002000000a258000200007
:2089cb0027500000000000ff82bc400000c7c50cc0002b5018f2f30000a01c4010550881de
:0d89eb0030700703300000004002096000fa
:2089f8000000000270b00000000002002ee4702010239ddf501040020c6000000000049840
:208a180005a25b400004068e88480000000056d4100000000000000000005a65b04040006b
:208a3800395a80020108001f7bfc000021e23fe3312000200e16ccc0204a0070e85500020b
:0d8a5800007805e0cd0800026016896c0072
:208a650000000000d8bf8128800004e3ae0c60000109093403c01000007fedd000000000da
:208a8500000258400000000209600001808bfc000000008000000000010002258000002478
:208aa50000c9f7010000b0900000000096400dd69000010000bff30000001c78e04200807e
:0d8ac5000078f7fb300000000000096000a1
:208ad20000000000f813b91508100246efcc50200001989f001000040666ffd50000000094
:208af20005a25b84080006848968000005183e80808000400000000008187a65b400001e6f
:208b120003fbf5080000d880000000000a0000c9600002818ef78cc01000067c7ce2420037
:0d8b320008d0e5f4cc0000000016896c00ae
:208b3f000002000500b34204000000400efe0000004d00de98c000000001f08100000000d5
:208b5f000002582100000002096000000d1b3c00000080000000002800180b2580008000bc
:208b7f003fd050004000700fa800220000078305500030000d0c154020477c774ca6000025
:0d8b9f000000d1c2800204c0000009600087
:208bac0000000032781fa11c08000000259d500000280096e8c000000003da47020000007d
:208bcc0007a25b800000001e89680000200a13280400420000000010018f3265b400000060
:208bec00700aa0000000000f7d28000001c716e5500020000012954000803c25eea9000009
:0d8c0c0000019b73d4000800001e896c005d
:208c190000000000f0036e88000000223605300030001800000000003e6560e60000300064
:208c390080825800000002c2096000000580000f00000000000000000b080a658000003cc2
:208c59003830a0000030000f7a3004000803de0aa000000710f831424000000060180081b8
:0d8c790000b08940cc00000002020960003c
:208c8600000100008009b29c000001e066c034200801df00000000003e216ac1020000180f
:208ca60015225b4100400014896800001d18000f008000000000000000011a25b000002cb6
:208cc60079eea02000005805fc30000010000cea508000501eb2b01080001c627cb84200b4
:0d8ce6000200f97b310800006054896c0029
:208cf3000000300570eb039800c083c4240e600000000e3c324004400c03ced000000000f0
:208d13008082582004034400096008201008581480000000000000000b10036580040004db
:208d33006bc05000108000a942a8004201400000000328038f0028000400007860560010d8
:0d8d530000100702a8000060020209600085
:208d600000003002000dab0408400202b5ec102000001cf6b14084002e015ad50000000102
:208d800095225b600a0002948968001025011e29c080000000000000001e5a25b0040000c2
:208da000241aa0001930001871544044e2000000000110039f57a8000c00002ccea60230b9
:0d8dc0000080c871540000000654896c004a
:208dcd00800020009003bf4000800003fefd00020009003ee60008000001e053102000003b
:208ded00000258044000000099600202878a3a400000000000000200030d0b258018000066
:208e0d0042d05000200200f0415440800040000000020010003831400800003810550020bc
:0d8e2d0000f80501540080000000096000fd
:208e3a000000a8008003f75400a001c067ad5002801000f7f9400a060002fa0342280000a2
:208e5a0007225b6100080000896802800d0bb2a0000000000000028001801225b00a000634
:208e7a00680ea01028000011615400a0120000000002a80000b2b01a8a001e057c55002846
:0d8e9a0000f9c7629401a000001c896c0063
:208ea7001800000801000000000a0000000000004005001efc8200014536c8f1000000006a
:208ec70000025810000022c009602000500a5b77c040010000000020010d02258100004073
:208ee7003ffb6428000010eb736004000003dcc330800a808c901400004e0437fbcc000077
:0d8f0700005003ef30000000000009604042
:208f14000000000000800000000600028000000040001a57a88000008007dca20000000057
:208f340007225b610001428489680010200a973fc00000000000000308185225b200014023
:208f54006dc9a4400405800babf1010240007cbcc40000051807a80000802060eb3300008a
:0d8f740000800ff0cd000000001c896c0093
:208f81000000010000000000000000025e055000000b00b0398000000203c00f00000810ba
:208fa100008258200003c61d050000000010082bc00000000000000000000b658200400492
:208fc10021f05001000004f9403c02040067dc9d1080000d80b83c400042006000000000dc
:0d8fe10020b18d00cc20000040020960008e
:208fee000000060011a000000000a06057ca540000881c9ab04080015c01eaf05000208160
:20900e0087a25bc104020721ca00000000087e2bc00000000000000000001a65b0008026bf
:20902e00065af54000301805e3c0000a00e2778a0500000300b33c00c060046c0000000029
:0d904e000078f1eb31080002061e896c006d
:20905b00000000203109014c8000d1c35dbe000000090bb7f9800000043df0cc10000004ca
:20907b000082582000b1c0000000000001000029424000000000000000000a25800000000f
:20909b002150a0000200f0abc3d40004142400000000002f0054014000010e4240a000003f
:0d90bb0001008f803c0000004002096000b1
:2090c8000000000019c3280d08000bc644cd50001001815be90000441e07c83342020118a6
:2090e80005a25b64000a600000000000080e1029506000000000000020405a65b02006069e
:20910800077ef55100009817ba80020209e3800000000059883e80004000be221a500000fa
:0d9128000200ef73c00000026016896c00a9
:209135000000000099070364000002442c0550000109007269c000004c00205500000000e6
:2091550000025882000263fd05f0000000185af28000004000000000010f0b25840040009f
:209175000348ad01013870018280a00001c3d700f200280390d800c800003400f0f0000099
:0d919500000900c2408004000000096000d5
:2091a2000000000059a17304080000073fca540000081c174048000080314e550000200099
:2091c20005a25b000001e027ea500000001f3e32420000000000000089993a65b000800087
:2091e20003eb85400000100dfbd540000207a5ef0010380b0cd2a8d0c0401c03ec0f4000ed
:0d920200007987ea400802400016896c00e0
:20920f0000000280f0e74144000000001d9e000000400c182a80000000305acc00401000f2
:20922f000002582000004694ccc1000800101fcb0800004000000000000803258000000242
:20924f000250f500000201808258800000222e0c0200000d1c1830000000403850cc000078
:0d926f00000001403c00000000000960000c
:20927c0000000100301373c40800000714cd5000002000dfa9500040007dcb330000000064
:20929c0007a25b400001e3bdc3301010000eb741100000800000000001815265b000000e2d
:2092bc0001eea040000100e37258080000c017ec542401080c1f0c00800a0007c8334200c4
:0d92dc000011c7b3c00000e0001e896c0047
:2092e9000000001808034398001000022605500000078f7c28000000044150cc000004003b
:2093090080825800000003c6b4a000000b8bdc0000000000000000000b080a658000001445
:209329003c000000000701c1803c00040063ad0500000800087433000008042b40690001b2
:0d93490003000f803c0002000202096000da
:20935600000000001889b304081000063dca540000071e9abd5000003e6afa33020000186b
:2093760015225b810008464dd40600008500f2a80000000000000010001f5a25b02000248e
:2093960060000000000359e173c08008124021ca00001380009b8cc0800160021c96020011
:0d93b600853089fbc10404006054896c00ff
:2093c30000003400b5056f400000a2c71f0e201000010c0c140014029c200055200000f4bf
:2093e3008082580000400000000000000d0ef03e8040080000000000030003658000004292
:20940300005972000100000903e884c004002e0030050010009733004c003c0000550030f7
:0d9423000000b543300000000202096000a7
:209430000000340081cba35400004207d4c810202009181294141c403c386a550002008183
:2094500095225b430880000000000000001b83bd400006000000000000005a25b010021c21
:20947000020eb14000800001ba8100c000003fea342108010ef34cc00c0026004a550030ca
:0d94900000100170cd0800000654896c002a
:20949d0000002000900383980080e003adbd100238011f703d4009087e0250cc08200000e8
:2094bd00000258048016e0060a000a00018018060000800000000200038c0b258008002e0b
:2094dd0000e05000200800912f888280e3e02401800200090fd0000218402c3450550020fc
:0d94fd000210cff330008000000009600075
:20950a0000002800040fb30408a00003019e200288080cf6a8180a00842a6a3342280000d2
:20952a0007225bc0a80a4024ef5402900f00fe84008000000000028007801225b40a0036ad
:20954a00004ef550280038183f4500a003c00e08102283800ffaa8044a24267fd8a5002857
:0d956a0019801178cc00a000001c896c0055
:209577000000000070f76f40000001e2df8f1000000510d015400000bc00305500011000d1
:2095970000025808000062c5b0b00000008013404000004000000040110d0225800000046f
:2095b700206a5b00000001800000000400161cecc200005109578c0210000201faa100401d
:0d95d7000298a000000004000000096020c0
:2095e40000000000008ba754000000e05dea2000000808d7a95000204060ec550000800039
:2096040005225b810017404cd04700000780dac0000000800000000008181825b8000020b3
:209624000178a16040001990000000080003e6c330042020003e880400001c6bf802000050
:0d96440011701000000002e0001c896c0095
:209651000000000000bb42a8000012460ea62010120f00bc154000000222e00f00000510be
:209671000b33c4000010000000000000000fdc2840000000000000000700f8014200000230
:2096910024000000000000a0000000080003efc6a00c00009f00000000091e401033004000
:0d96b1001018f0c014020002c000000000fc
:2096be0080000000701bba950000086245ba1000200000da2958000004065af02000370093
:2096de0005f6880400080000000000000018fe2d5080000000000000098073000000001cb2
:2096fe00000000000000181000000000000024ca541003010b0000000000be381c3302007c
:0d971e00001001f014000002000000000027
:20972b00800000000101bbe8000000142d0a0000000f0e5abc4040003c00f0550002000870
:20974b00000000000003e42c081000000000d23ec200000000000000001f000000000002e0
:20976b0022f05200000000000000000000236e9ad000000b100c3d4000200038d0cc0000e7
:0d978b0000f80fe8cc000000038000000093
:209798000000000010e7e204000000669fef54040001815fe88000a22403eca54101007033
:2097b8000000000000a3c386a470200000009f3fc400000000000040001a00000000420e25
:2097d800065cb5430000000000000004e0e016ca44080000085a3d480000163ff8330200be
:0d97f80000f1a37f3100000003800000009d
:209805000e000000908f73d400001823b505500000000034154000001402ec81000000f886
:2098250000000000000002250e6000000000501408000000000000080008943d42000154aa
:209845002010f5000000b1db43d4020000030100500000078090140000016c3410330000d6
:0d986500000880000000000000000000006e
:20987200480000005189620440000d603eca5400000108da29500000063141e74000809c2e
:209892000000000000c0c047ac1020000780b6bd50000400000000100000fb28100000a0e2
:2098b2007ceaf500001801cfea81000000060da05100030d000728004000a0041e3302026c
:0d98d20080380000000000000000000000d1
:2098df00000000000001430000000002000f5200018010963448000124000000000000708a
:2098ff000d417c000400279ffd0000000700343d4000000000000001878e00000000a0004a
:20991f003ef0ab000205b00300c0040001c3950aa000000100743e8200804029e00f008041
:0d993f008001072b30000003c00000000075
:20994c00000000005803fb140c0000e387af510010100e02f890000080380000000080f03b
:20996c0089b2940208006244cd50000020005a281000000000000000090900000000401e1d
:20998c0025cca1020002900168512800414380e55100100800823d4000401e724cf00080d6
:0d99ac000001cf78cd002002000000000077
:2099b9000000000001d501400000c3c3d70a000030090e9c154000003c02d0a000028400a4
:2099d9000b63c4000010200f0a3100000118f81542000000000000005010000000000000fa
:2099f9003b40aa00010010090014000003c20fd7011000000e0000000000002670fa080198
:0d9a19000019054154010000100205500025
:209a26000078000001912bd4000001e05eaf548020099852295000042e01f8f560010859e7
:209a4600c3228800082947af80342020098ad6295000000000000000200e00000000001c4c
:209a6600064ea5000280f1c36a1408000203c4af240840000000000000000001c8a040029c
:0d9a860080f9c9f2940000000014c55000e2
:209a9300000000007801f7a800002bc03d00f00800018fd29c4000200440d0550000121989
:209ab300000154044000c0140c900000200000000000000000000000000ed815400020040b
:209ad30041e9d000000018000280000000201d00f0030010000c2bc000000001f04a00105d
:0d9af300001800000000000004000000004a
:209b000000000000f803fe14200002060f8f0004282f995bac480040267b6ca5600000f4e9
:209b2000a3795400400006bdcc502001d01800000000000000000000001dd32940004026ce
:209b400062ccd5000000f0016a80000009c6168006030000007a2bc0000000016e40025053
:0d9b600000b80000000000000780000000b9
:209b6d000000200508994140408000002d055002028100b41540480e003dc0f5202200082f
:209b8d0000638800802bc24fce0002000f8b000000000000000002000000be3fc0180000d0
:209bad0003c0a0002200000f003c018000003c0aa0120000009028000800003ed0a00020c1
:0d9bcd0000f185c154000000000000000000
:209bda000000280218116bd400a001e79cca54028008007229500a0000054ea06028007825
:209bfa00072b8900a012e034cd500280078000000000000000000280005c5736900a0c0093
:209c1a00036af5402900000d73c000a0000000a550028000000314000a0c00780c500028df
:0d9c3a000081b5f294000000000000000061
:209c470010280004f1017b4400000d4244d5108040000d98280400008038d05500011c000d
:209c6700c539980100000780000000039f10d23f8400008000000000200000280000001c94
:209c8700296050000100000b0280000000026fbcc08010210013f3000000003270550000bb
:0d9ca7000000d7bf300000c0033e94a000b5
:209cb4000004000201a06f8800001e0047ba100041000972bd50004f00014ca550008a18c7
:209cd400050295000000074000000000101a9f3fc00000400000000051807b2808000020e9
:209cf40035eaf550008878ab2bd504002006b7e33100086008774cd0000000624ca50000f6
:0d9d1400000011f0cd000000001de4000073
:209d210000000000518000000000efc21e0550000bd00814280040800c36e0550080010056
:209d4100800000000000222d05000000200d00000000000000000000000d9c14000000ac98
:209d61000150a0008004000043440000000400000000000008b4154000002440000000006d
:0d9d81000000e1c3d4020050222c0f50005e
:209d8e000000000030e0000000001a6076aa540010200136bd50000026056ea540000010b5
:209dae000000000000e1f3ffaf5400004001000000000000000000000799f7bd5000005c7e
:209dce0001faf55000020001eb450a00004600000000400180bf294000000c20000000009d
:0d9dee00000187aa81000009e01fca0000e3
:209dfb00000000000180000000008402170a000000001894140000003e21e9810000180877
:209e1b000983e80000000235e7200420a098000000000000000000000b08f7dc80000000b3
:209e3b002000000000009003e160000803e00000000000070c36480000000c00000000018a
:0d9e5b0000d1f3401c0002000400000000d4
:209e68000000000000f000000000100045ef540040018f97bd5020000604e1e7400000713b
:209e8800ad6bc10400000061fb140000019900000000000000000000079f86ac5020020089
:209ea800040000000508980da100000003e000000000000800160d0000003e0000000002f5
:0d9ec80000009f3804880001c780000000e2
:209ed50000000032b00f014c000000000c05500000000010280000000040c05500008000c1
:209ef5009d038c01020003ce0aa0000010000000000000000000000050003a30c000000019
:209f1500404d72000000d00000000000a0e01d055000000b19181440000e1d7760f00000e9
:0d9f35000070d94280000089e02c0500007a
:209f420000000005b007b00d0c0014001eaa540002000016bd5800800e21eea5400100009a
:209f6200106b4d08040062b5ea5418012000000000000000000000100500dbf45000000049
:209f8200221bb140000070000000000001c68fea500000081e933c408080063d5e0f40006c
:0d9fa2000080107140000003c000ea0000c4
:209faf0000000000b0c7039800000000140a0000000f0090140000000201c0a0000000004c
:209fcf0007616c0004000000000000000000f015480040000000000000000000000000000d
:209fef003c0000000019000503d4000004203c0a0000001b00b4140000260230e033000069
:0da00f000000004154000000c0010a0000e4
:20a01c000000000481e96304080001c00daf541000000016bd5010401c79daf5400000004f
:20a03c0009e40800020160000000000000005e29580080000000000000000000000040000d
:20a05c000000000000010185ba810000c8c6a0c5000000080083a80000001c7a4ecc42000a
:0da07c00000005a9540500820704ca000079
:20a0890000000000f00b32c800042043f605501008010e14280040000402e0550002981088
:20a0a900adfdc420021540270aa0000021801c28020000000000000001185c154000000030
:20a0c90002e0f500000510ebf02c0000000000000000007000fa788c40000402decc000620
:0da0e9008070000000000403c03d0e2080c8
:20a0f600000000009005f6c40002020634aa54001009991abd50000020614ea540013d985c
:20a11600bba6c400040a061fca5400029f0092bd5840000000000000801dd3a950100006ac
:20a13600634aa040000281912c118400000000000000027000d610920000a001df332001e9
:0da1560080800000000002006620ad142093
:20a16300000030001003020400000063970a020040000094140000000401f0a001002800e7
:20a18300f0000000000044260f50100000005c3d40000000000000000f007428005000bc63
:20a1a30003705001000209e0c280000000001e05200000090b98148204810060605200008f
:0da1c3000071d34314000003403c0a10005b
:20a1d0000000300001edf91c0800026654ef540040011813bd5000002661eef54000000012
:20a1f00000000000000207bdaf0400000198f7a810200000000000800998f3bd50000156f6
:20a2100060eef540000458b56280000000000dc0202028080e9280808c008030ec020a00a7
:0da230000001fd3b000800600615c0202065
:20a23d0000002000000fc3980080000006055002000b0f18280408000021c055082080f066
:20a25d008f839800800002c0000002000080103d4000000000000200000018140008204050
:20a27d000000000020289005014020001c42a40e6002000508d42ac008a00030f055002009
:0da29d000000e9830000809044240e600062
:20a2aa0000002801700b230408a0000004aa560280000173bd500a0140074ea5402d005018
:20a2ca00ff3b0408a0e00040000002800700d3a81000000000000280018c72bd500a00962c
:20a2ea0000000000280080ad3bd500021e073f8c102280059f7a28408a4000027ca50028b0
:0da30a00000017731408a00a03adac10206a
:20a317000000000000edbf4000084027d40a0010000f0e543e8020000001c0a01000080015
:20a33700e9ee28000008001c0f500000000c000000000000000000082000782800000002ae
:20a3570002c00f080002f1b0000000000002a79c200000008fb0140000000442c0a000000c
:0da37700020009c1540000000006bd0000f6
:20a38400000000005017af54000001e7c4af5400031d0016a81011814000eaf540000001c0
:20a3a400a17f940000000634ca0500000001000000000000000000001500fabd58000004b3
:20a3c400005ef000000480e000000002c00047de600001051983a8000002203a1a50000070
:0da3e40004308fa294000001e027bd50005e
:20a3f10000000000000d42800200084627ef20000001981c280000000222d0a00000007016
:20a4110083c15400101002010a00000101001770c0000000000000000000000000004000dd
:20a43100405c000900005085e898810002402f0551001000100825800000003400000000c8
:0da4510000f180000000020000000000008b
:20a45e000000000178ebebd5000016637dfa2008280f0d1ebd5040001e26faf541003070df
:20a47e0015b295000009e69faa02000019803bf45000000000000000001c00000000a00054
:20a49e007b7a015100009811a495020001e02eea50002000187a25800000062000000000ad
:0da4be000080f0000000040000000000001d
:20a4cb00000000000000815400040006350a000000070e9c154200008023f0500000000068
:20a4eb009b42800000000002055004000098942a82400000000000000108bf6a40100104fa
:20a50b0063d05500801810814280000020065f82609400008003e58800402423f0aa0000b1
:0da52b000011f9439800000000000000003e
:20a53800000000000001e1540400000777ef541000081d7aa95000000606fef540000d0014
:20a55800057bd5200060600785500000010ddea950000000000000000d81db29500000a467
:20a57800395ca50000008013fbd500000163d6f2550000571a0225a000a0266efaa500405a
:0da598000080ef3b04080000000000000000
:20a5a50000000000100d0280200008000505500001000813b88000002566d0a00000040022
:20a5c5000fbb8c000000034dfd8004100b0dd43d4800000000000040000f5f30c0000034fc
:20a5e500005c0b280000f80743d4000000074c05a00000000e00258000003c0150f5000183
:0da60500000101c340000000000000000043
:20a61200000000001009ebd500000403bfaa541000510006b4520020003be8f550003a104c
:20a63200056fdc0000006061fe4400000819ff281000000000000000019eb77450200036ed
:20a652006b7a04410000d00fb28100000062000a54000000017225a040000023eea0480279
:0da67200047089ab540800000000000000d7
:20a67f000000000000cf415400008010360a0000280f807415400000003c60500100000812
:20a69f00f00000000040022d055000200010db380800200000000000571c00000001000008
:20a6bf002760f508000071a1c3e820000003a6d000000005100825800080022020f5000226
:0da6df0000000fc15400000000000000004a
:20a6ec0000000000000dea950000000035ef5400100100faa95040000000faf540000030a7
:20a70c00100000000001c276aa550000000cb7fd1000000000000000280f00000000000cd2
:20a72c00025aa06000008089b28100000067cde1010400880e1225a0004e1c39cef5000187
:0da74c00100009a2940000000000000000b1
:20a759000000000010bd4280040002c407055010000f001c2802000a0402f0a0010285f8a6
:20a7790003003c00020066ff0f500010010e000000008000000000000708bc1544000004f4
:20a799000060f0004100110d215c20020002000000000000000025800040347fdcd100000b
:0da7b900000005f01c000000000000000082
:20a7c60000000000999fabd50000020395aa540000099872bd5000002062eaf540013239f6
:20a7e60089abc080040247748a048008001a000000004000000000008801d7a95000003e17
:20a80600636e5000008031e5f68400040000400000000000003225a24000203aea504000b0
:0da826000000013c040000000000000000e4
:20a83300000000000081c15400000043f70a000000010f082c4000000600f050000000d889
:20a853008b7b8801000003ad0aa00028000d7c154000008000000000000e7e6880000024de
:20a8730000c96400008070a1c3d4000014000000500000000a08258040000002fb81014155
:0da8930000500f82140000000000000000c3
:20a8a00000000000799d6a95010016666eef560000085976ac5880002462eef5600400b07b
:20a8c000902f45000000064caa540410000072a95020014000000000001872a918100000e9
:20a8e000025ce5000500d0177a810000c0000ec050001000013225a000a01e61cdf569827c
:0da900000080c7a9008800000000000000d2
:20a90d0000002000990364040082a0002505500210000f3f000268000002e0a0002080700e
:20a92d00e0000000801c2424f72002080088000000000000000002000000142a80090100d3
:20a94d000078c308208019e18154448000c00f05a00800000a0825800800000140f5000003
:0da96d000001f7f5280000000000000000c8
:20a97a000000280011a8300800a401e315aa5412885001ff008c3a800002cef5406900006b
:20a99a0010000000a018e780fb140280038100000000000000000280000037a9500a008617
:20a9ba0000c943006900d9d5b28100a0c2000c8a66200000011a25a00a000003caa0500002
:0da9da000170e9ad00000000000000000069
:20a9e70000000000090b2a000400a024360a00000000083415400000042d60501000000088
:20aa070009008410100006170aa000000180142a8200000000000008001eb7654020008256
:20aa27006be05000000070a58140020000031ed100000010100b6584000004007c190800f5
:0daa47003831b143e80000000000000000bd
:20aa54001800000038e17394000201e3a4af541000418052a95800000004eaf540000000d6
:20aa74000da21040100003b6ca5008000b801ea95040000000000010019ff2295000810e4c
:20aa940037cef54000301801bbd5000014002de9100000200a5065a0000020685f25480082
:0daab4000001e023d40000000000000000bd
:20aac1000000000230f0000000001c200f0a00801000981c2800000004394f330000007063
:20aae1000d004880041000150f5000000000082008100100000000005f18fc2802400100d9
:20ab01002c0000000000008b2908200200202db580003a8588b836800d400203705011c010
:0dab21000000c00000000000000000000067
:20ab2e000000000100d00000000018401daf540020070f76bd5040000006edcc600430f181
:20ab4e00afa2120002080037aa04000000005320008000000000000007087ebd5000009e6a
:20ab6e00040000000000001f691d07040062b7f64400300d81d7a9488c201c00680000808a
:0dab8e0000000000000002000000000000b8
:20ab9b000000002009800000000008062e0aa000000010ba4b8010001e00603301000000b4
:20abbb0009004800000002250aa00000000f12c000000000000000038f1e043d40000a003c
:20abdb00400000000000010782d4200000043c02100800000a043cc00000006c00000000cc
:0dabfb00000000c014000000000000000079
:20ac08000000000431f000000000006764ca540000019eff4950002004035ecc4200000054
:20ac28000da212800000606cca541000018116e0000000000000000008083f3d400000008d
:20ac48003800000000001087b0810800400706884000000000023cc080a000280000000089
:0dac6800000007f0140200000000000000d2
:20ac750000000002010f014c040200020c0a008001808f10280000aa2c21e00f0002005042
:20ac95000980480000d44200000000000000b2788000040000000000050ef02800200000bf
:20acb5004000000000059180000c00000000060120080005101ebfc20000040020f5100011
:0dacd50000910b8280400000000000000094
:20ace200000000443087680d0801000045af54000405807ebd5020500c785cf0000170804c
:20ad020007a21200010a000000000004001806f45040000000000005050b36bd5800100e47
:20ad220020000000006a38e0300c280100063488480007859c9efdc000b40600dcf50100f1
:0dad4200c001ed73d400010000000000000e
:20ad4f000000000008074398000000034405510010000ef0140200002c307bcc0000000096
:20ad6f00018048000000040e055000000110940140000000000000002b00183e8400001c8d
:20ad8f003c6efd0801007801c000000080043601200000000874204000003620d0000000de
:0dadaf00000800000000000000000000008f
:20adbc00000000007007fb040800014076ca540008000196bd50000000057c3340800059ab
:20addc00a322120000e16225aa540000081c5701c8800000000000005000bba81000001e75
:20adfc0007fdff0000807001e840080000422c884804000000ff9000a0001404cea0010417
:0dae1c0000380000000000000000000000f1
:20ae2900000000000001a590000000400f0a000000010014280000002621c0aa0002857095
:20ae4900f9004800000bc0160a00000005000401400040000000000009005c038200403ccd
:20ae69000040cc01000210f083d40002000602096000000d10f802800000040350a0000062
:0dae890000000000000000000000000000bc
:20ae96000000000038a7ab940010e2660caf560040099852bd50100006001c5500000280cc
:20aeb60013a2120000f166358f540000599a1e01400020000000001009989f030880283e93
:20aed60002da33420005980773d4000401620689680000018a360000000020001850000079
:0daef600000000000000020000000000004d
:20af030000001000910f42040000c04006055000002180903e8044003c3dc0aa00010000c6
:20af2300010048000000002f055000000700000000004000000000200100f016c00500000e
:20af430003d00f10000090fb8000000005c40009600000000b5716820000002e4000000057
:0daf630000000000000000000000000000e1
:20af700000001000518b711c080002063cca5410001f981628100c0200601c556000880002
:20af900007a212400000063cca559002081a0000000080000000001008003ebfc08d0200ad
:20afb00000dcf0000000181d69400000a00614896880000018ba500000000000f8026280ae
:0dafd0000000c000000000000000000000b4
:20afdd0000002100d003439800800a400c0a020200008c102800080024000096000000d04b
:20affd00f9004800800142140f500210070fb03d40100100000002000b0853ffc408002ef6
:20b01d00000000002000010343d4008000224009600008058b903c8008400032505b000084
:0db03d000000000000000000000000000006
:20b04a00000028800009eb0408a004001eef540281078153bd502a0000016e96428001805c
:20b06a0011a21280a0a20064ea040288081d76a810004a000000028000013ffdc00a0e0e21
:20b08a0000000000280000ed228100a000605e89680013850006bc42fa0016044e0302009c
:0db0aa000000000000000000000000000099
:20b0b70000000001089d3f40000001c004055000000088b0140000001466ebcc000001f0cc
:20b0d7000100480800014000000000282f0e365c80000140000000000000f03d40000000a2
:20b0f70000005530000090b000000000000034012040000d90143c0000001436605f0000e9
:0db117000000004280040000000000000065
:20b124000000000019c3ab5400000007b4ca540800050112bd50000000224a33000000018a
:20b14400e322120000020680000000100d8103ec540000800000000000007aa818000000b1
:20b16400007a5500002000000000000000002c88488000050a12bd40000020675aa50000bc
:0db1840000000372800000000000000000c9
:20b191000000000000c94280000000026d0cc21000408f9003c801000038000000001cf156
:20b1b100d0000000000806af0550000047000000000000000000010000900014024000006e
:20b1d1002430a320000001ab83d40000000000096200000018942800000024600000000081
:0db1f1000000000000000000000000000051
:20b1fe0000000000700d6bd5000004002683302000238196bc1001008404000000001800d0
:20b21e0090000000000007d7ea541000205c00000000000000000300211c5b940040015d0b
:20b23e0061fca342000001ddf2810008000006896800000019debd500000207c00000000be
:0db25e0000000000000000000000000000e3
:20b26b0000000200780942a8000211c24e00f010000f09983c020000022000000003807828
:20b28b00fd6b04200007c396ecc00040009e57b3000000000000000280097c380000042cb4
:20b2ab007750d5000000b0ebe5440400140002096000000008bc34400000002370f51000d0
:0db2cb000000000000000000000000000076
:20b2d80000000000f00d629520040a0036af0080010000bb83d0000e1e6400000001b0f887
:20b2f80083631c000800405fa33010680709370cc0000400000000010100f6b100800020e2
:20b31800260eea020000d19fea854000080016896800000181b7a8108000007df8a0400001
:0db338000000000000000000000000000008
:20b345000000000008af3680000003c001fe400000018f0000000000027c109600808a00bb
:20b365008fb73000001cc00c0cc108005100fe0cc0004c000000002027091c3f4040000201
:20b3850037dc72000000998d6f88840400000ca12000100009367fc22000003800f30000d6
:0db3a5000000000000000014000000000087
:20b3b2000000004010093b9c02010002178e4400042b9e00000000509e7c6a9602004700dd
:20b3d2009faccc000117c02583302014200c5e7310402000000000075b003ebd40c0101c6a
:20b3f200060cb1000040b5df220500090160209848000f8581f2bdc84010000418f3020026
:0db412000000000000000008000000000025
:20b41f0000000000f0d1710c0000814006cf200000008e04154001003c2e5acc0000003869
:20b43f00e303ec000002c001055000000008000000000000000000000900363fc040003647
:20b45f0028db00004000009f43d402000002800960002000109bffc000048223d0ff1000d5
:0db47f0000000000000000000000000000c0
:20b48c000000000001ff238c0000000005aa201000030c33154001000c04eb33000000f05c
:20b4ac00d12b7c080002039da550000007810000000000000000000001801e3dc000001e27
:20b4cc0035db02000280000dba81000001605489680000500af2fdc020011c05eaf70200b0
:0db4ec000000000000000000000000000053
:20b4f9000000000000094280000003c303fe400040050004258401400402f0f5080100003a
:20b519000743b800040863b60f501400070f00000000000000000008001900000000000041
:20b539002ccd630000021091c154020012428009600000008ed672800000000030f5000024
:0db5590000000000000000140000000000d1
:20b5660000000000018d2bd500000262558e44000001007f259080047c03dca0408210180e
:20b586000971dc080001c615aa0400200009000000000000000000280719000000000096b6
:20b5a6002e5ea3000039819f7a95000003405689680080079887315400000000d8f500006c
:0db5c6000000000000000008000000000070
:20b5d30000000000b887c154201001e0340a0009008080343308004000734ecc00100070f0
:20b5f3000d7f0420000803cd0aa013002080302a800000000000000000097281020000007b
:20b613003de00000000010e57750000002400209600002850fbaa00000000076cd511000fd
:0db63300000000000000000000000000000a
:20b6400000000000119d62950010c1c620e50503002380938cc08020007d6c3300300070c3
:20b6600087631c0000144660e550830011008695401000000000000000003b40000000005b
:20b6800006cca0000000f813a390000002000689680000058bf6395000a0007c6da1400088
:0db6a000000000000000000000000000009d
:20b6ad0000002000718fc398008002c3a4fd5002000f19f003c008007400009600200000bd
:20b6cd00a000cc018802c000055002000089dc33004000000000020050903402a008c000f7
:20b6ed000020f50020000001c3e80000e1c00209600200000dd617400800142bf9ff0800cd
:0db70d00000000000000000000000000002f
:20b71a0000002801809bb30408a0020016be000293080e9abc080a0420004c96022c00014e
:20b73a00c068cd08a040000ec55102838100b78cd080000000000280259e07815e0a2400fc
:20b75a0001daf50028007807ea81200002028c89680280019d176b580a00367c7ef7000021
:0db77a0000000000000000000000000000c2
:20b78700100000855199af4000002046c18a300000490052730000203c39fdcc00001810bf
:20b7a70007e730000000c000000000000000081540000000000000000d807a810020a004fb
:20b7c7004070fa00000000ff03d42000000000096020001500000000000000000000000024
:0db7e7000000000000000000000000000055
:20b7f4000000013201e7f354000017c744ea3400002700beccd800402003ee33000020d88e
:20b814000734cc000002000000000028000077954000004000000000010053400000416022
:20b834006148a040000019ad3a810000c0000c8968000008180000000000003000000000dd
:0db8540000000000000000000000000000e7
:20b86100000000007105817c0000004400000000000009fc03c0000106725eca00010001a5
:20b88100a3803c0000540400000000205b9e0000000001000000002000009a260000002cca
:20b8a1006e591800003010800000000009420f0c000028298c00000000015e00d9ef00403e
:0db8c100200003b9280000800000000000f6
:20b8ce000000000091a7aa94040001620000000000001d7b3c08000096261dc540828000c1
:20b8ee00e563c00000204780000000082f1d00000000008000000000001ab629000000205e
:20b90e0022fa1441800098f0000000000742e5ae4420101500000000000eb400cde70000c5
:0db92e0000000bf10004000000000000000c
:20b93b00000000007105815400000003c0000000002d0d0015401000063bd00f008001702e
:20b95b000f003c80000be000000000000b0f000000000000000000000008000000000000f4
:20b97b0002dfc0000018000f83d400000000150a528000070000280000000000000000006d
:0db99b0000b00000000000000000000000ef
:20b9a8000000003099cbaa9404000160000000000288001b954010001c62c8f00102828083
:20b9c8008b6bc0000806e3800000002808010000000000000000000001810000000001463e
:20b9e800225ee441800000cffa810000006024a5f000000d8077a8080000063000000000cd
:0dba08000000000000000000000000000031
:20ba1500000000000893028000000343f6d000000051003650c200ae3c75dc07088402007f
:20ba35000f373020000b401c0a0008000000fe708200000000000000000814000000007660
:20ba550021605000020501dd43d4000000c03e980000000d8dbe430000002630e00100009c
:0dba75000078d0000000000000000000007c
:20ba82000000000011e9ebd5000000000ea02000002780def8c00040867c4b014000017997
:20baa200cb60cc000000c00daf54000001805ff1c00006000000000000001fa80000001e41
:20bac20005faf54000020097ba818000034035ee540402838137410000001404ee0a02008e
:0dbae20000d810000000000000000000006f
:20baef000000010008d7003cc00005e017d0600408400b103300000000035fcc00010271f3
:20bb0f00c0401480040a4296fc2004000f10582ec000000000000000470a303d4000001405
:20bb2f0023d0f5000000f00f0280000000c3c5c5100020000d742a8000002424d8000000c5
:0dbb4f0000000000000000000000000000e9
:20bb5c00000000007019b3c00000eb678cb0200053a59c5b0cc481000e32ec33000205f089
:20bb7c00e570158002000077dc7000280f8efab7408001000000000008005e281000003ce9
:20bb9c00077aa040000278097bd5000002006ffa141000000fdea95000043c3eec10000066
:0dbbbc00000000000000000000000000007c
:20bbc900000000000009f874000000001c0cf0000005185803c001000075ff0100410038a8
:20bbe900914330040a1403450ff09000111f7f3080000000000000000100f41406000a04c3
:20bc0900200000000000f0094148000ae0001eaff01000010ad7344000000001f0f5000086
:0dbc2900000000000000000000000000000e
:20bc36000000000018072895000001e02dcf302000071e1f3c0011200069ca07410282f144
:20bc56009968cc080468606ecf7020002b9c5fb1c800000000000000080032bd5000002654
:20bc7600600000000000000b6008080009462d8f700000080182f8980000066358a060007c
:0dbc960000000000000000000000000000a1
:20bca3000000041850058294000003c226eee00008070000000001a34001e0cc004081d010
:20bcc300afc330000000001d0ef000000300103fc0000000000000000f0e34280000008693
:20bce3002eda6a08400110fb4398000000478000000000000f00000000001441dd30010067
:0dbd03000000000000000000000000000033
:20bd10000000040050e12940020002603cb77000130f800000000140807178330281028129
:20bd3000e1a8cc08000006848f70200008003ebcc0800c000000000008185bbd50000d7c8e
:20bd500004caa5410000900b730408020202400000000000190000000100007a69b1000011
:0dbd700000000000000000000000000000c6
:20bd7d000000200030038280000010034e0ff10010108ebaffc00880020000550020005971
:20bd9d00036f300080002426077000100010703300000000000002000d0050154028000004
:20bdbd0000c0f500200409f5a34000800040250f5002280090dbd6840800007c605811002c
:0dbddd000000000000000000000000000059
:20bdea0000002800f80b3bd5020aa8005eef722021018f12ccc00a008e60fe550029809098
:20be0a008db4cc00a2c066b5eee02020201ab78cc080000000000280038c7329501a0000ac
:20be2a006bcca048290271fbaf5400a00207bdea040290050c13e5580b0e163d7ae55a00d3
:0dbe4a0000000000000002000000000000e9
:20be570000000005000b29c4000a0160158ff00000010ff42a8000002443ffcc00000010df
:20be7700004154000000277e9c2010000700fee900100000000000002780be3040000002d0
:20be970043c0a0000000080f43d400004006cd0aa08400010917144000003403ddef000001
:0dbeb700000000000000000000000000007e
:20bec40000000002018faac4000400e6248f70000008008795400000007afe3308000080ba
:20bee4000779540000e066d7cc7000000000b6f940000000000000000900f2b1c40000149e
:20bf040073eaf5400003780d7a810000414295ea54000008001ee85000002629495e00005e
:0dbf24000000000000000000000000000010
:20bf310000003000100082580000c0002f8141000089007e7c8000a000016c28208318f042
:20bf5100f00000001001c025dc3008282d8f04154000000000000000000800000000001c75
:20bf71003a60fa00000008db0144000000000000000008090000000000a002000000000041
:0dbf91000000000000001000000000000093
:20bf9e0000003000d005a259800000002cb245000b8000b22880404204027b244000801004
:20bfbe00f000000000020005be20002b83007a154010000000000000078100000000000079
:20bfde0023faa0400000300ff3c4080000000000000010000e000000004e1c780000000048
:0dbffe000000000000000000000000000036
:20c00b000000000000008258000c00060000501001bb100001400020bc21f00f0000300090
:20c02b0005403c040208622d0aa00000071900000000000000000010000d37b8800000265b
:20c04b0043f0f5180000b0904280000000038000000000050db2108000000040000000007c
:0dc06b0000000000000000000000000000c8
:20c07800000000001805a25b800200e3d7805408003f8e3e01544081000658f010000000f7
:20c09800056bc00000b3c061a5500000081800000000000000000008000087f45210001c6e
:20c0b8007b7ea04000101805fa80000001604000000000081b7b91c00000007000000000e8
:0dc0d800000000000000000000000000005b
:20c0e5000000000000000258000000424d814080108099102800404c263c4c14000000085a
:20c10500f0000000080a677700f180030090bc33c0000000000000000f003adc80000000e2
:20c1250000000000000018000000000003c00f00f20400001c540f0010a0020000000000e9
:0dc1450000000000000000000000000000ed
:20c15200000000000005a25b8000026666b2440000011e83941440a086027b2440c02039dd
:20c17200c0000000040053af8f000000011c1b3fc080820000000001019ab6bdd000000040
:20c1920038000000000070e00000000003602d80500400001c1e0b12e04014000000000016
:0dc1b2000000000000000000000000000080
:20c1bf000000000000e00258000001c3f6c0720428000f0001481001407cc00a004080005f
:20c1df00d7f708800000000d0ff100084018d82ec000000000000000000a343d40000000fc
:20c1ff00034fcc000000000541482000000380000000000b08502840000002000000000004
:0dc21f000000000000000000000000000012
:20c22c00000000000017a25b840002038d901400104001560150000080261c055001001004
:20c24c0019731c000000003cef302010001dffb740800000000000000001df2818000000ec
:20c26c0001fa3320800000eba0080800000040000000000d01da968080001e00000000006d
:0dc28c0000000000000000000000000000a5
:20c2990000000000b0808258040001c0040a000400409914280010a02e3eda69000088f0b8
:20c2b900b581540000214245ccc000100008bf3080400e0000000008018000000000ae0e8d
:20c2d9006260fa000000f8ef82880000e004000000000055107c16800000000060a000003d
:0dc2f9000500000000000000000000000033
:20c30600000000001995225b4200020020a5060000050e87141800402404089600000830d9
:20c326001d6295040000079cb33000200008f2f1c0000000000000100d0000000000041459
:20c346002deea0480038f185fa9c0800000780000000002188b3a80000000001ca00000032
:0dc3660002000000000000000000000000c8
:20c37300000010000080825800000826b6e0101010210e080146008034416d0100800030bb
:20c393000f433000000004240ee0002800101a3300000000000000400109000000000080a3
:20c3b3004360ff000000100042bc0000004000000000000100503d400000000000000000ac
:0dc3d300000000000000000000000000005d
:20c3e000000030000195225b020001e21d8074140358015601540000003bdd074900087108
:20c400008bf8cc080001c627a7702010001c9b8cc00200000000000008000000000000463d
:20c420006ae0a500001080077abc00000a0000000000000800b6388080001600000000002a
:0dc4400000000000000000000000000000ef
:20c44d00000020000000025801800260040a0012108100b83b8408053c7b70a0102000f056
:20c46d00054330200003c2a4bf000010af1dd43300002240000002000000000000080000a0
:20c48d0001e050102000000d4154048000037cc4a0020005989e4f00000000026cff01002b
:0dc4ad000000000000000000000000000082
:20c4ba00000028000007225b82a0006020c50402c00d40de9dc08a202676caf5002808804c
:20c4da000570cc080401e0059d100020481ffa0cc08000000000028000000000000a000009
:20c4fa0061eaf5402800000f229580a0c0004ef460028005093fcd0000000001fef70000a0
:0dc51a000000000000000000000000000014
:20c527000000028010002258440014003ddff00001000ef63080000004654807080080513e
:20c54700012b30040801c005a83000000709d7fc400000000000000000003828000000004b
:20c5670000000000000001e943d400000020340a0090000510df30c000000243c05000008c
:0dc5870000000000000000000000000000a7
:20c59400060001008005825b010a094004bcc00083800876f1c00002202fdc014000028127
:20c5b40087b4cc000000429e8e3000038f8013ac08000000000000000000f2bd50100000da
:20c5d40060000000000201f532810000014024af5400000008f720c000a014281ca000005d
:0dc5f400000000000000000000000000003a
:20c601000000000001a00000000003e02fc2800820010d0801400000000040a50044a09943
:20c6210000401402100bc400000000100900040140100000000000000080f029400040003d
:20c641000000000000000100000000000000000000000000000000000000000000000000d8
:0dc6610000000000000000000000000000cc
:20c66e000000000000800000000002461fd244001008013681501000003ae00048011110fb
:20c68e008730150106e36780000000082f1e7a015400000000000000010e50001800000054
:20c6ae0000000000000001c0000000000000000000000000000000000000000000000000ab
:0dc6ce00000000000000000000000000005f
:20c6db000000000010072a64000002c7ec907080000f09000c084000007c10500000000419
:20c6fb00f77fcc000a17e39e00f000000000fa10c440000000000000015e08140040000082
:20c71b0000205520000000c00000000000000000000000000c00000000000000000000009d
:0dc73b0000000000000000000000000000f1
:20c748000000000011a001980000020775d01410100800030c10800200386e5059000019f4
:20c76800ad6ff000000be05cef000002038097b8c00000000000000001cf76141000000071
:20c7880001785500000018100000000000000000000000000000000000000000000000009b
:0dc7a8000000000000000000000000000084
:20c7b5000000000008a9c03c00040a4247c14000000080b731c82008942860a500010a08f3
:20c7d50001b96c0008a0234e8c200013af1c143e80000f00000000038008f82940000000ae
:20c7f5000360a0080000000000000000000000000000000009000000000000000000000010
:0dc815000000000000000000000000000016
:20c82200000000003015f3c00008316625d2460082858036f0c850a11607400040428479e0
:20c842008766840006004034bc70900860093e3fc0000000000000000001700014200000dc
:20c86200015af549000200000000000000000000000000010e00000000000000000000000c
:0dc8820000000000000000000000000000a9
:20c88f000000000800004014800003c42e80700000031d5aa8401000002c005000010408cd
:20c8af00ed41dc0400c0042c09a00010000e00000000400000000020000008140000000028
:20c8cf003c000000000000db03d400000000000000000000009014000000000000000000b7
:0dc8ef00000000000000000000000000003c
:20c8fc000000000000012815010000023dd0140011178f9f841800001e046c504102001097
:20c91c00f363b8080010673faa522002000000000000200000000010001873941400009618
:20c93c000000000000000015aa81000000000000000000000007280000000000000000006c
:0dc95c0000000000000000000000000000ce
:20c96900000000000999f80880000a4607e2e00010010fd3d2800041403970ff00448270cf
:20c989009fa90c20100940040f701422001d1c330000a00000000000000fb42a8400020089
:20c9a900280000000000100000000000000000000000000000000000000000000000000036
:0dc9c9000000000000000000000000000061
:20c9d600000000005995201d4000060655b2540008218bda901c20a08024ecf702050100e6
:20c9f60017678c00000400058ff02400031cb68cc08040000000000080087fa950000a067a
:20ca160004000000000080000000000000000000000000000000000000000000000000007c
:0dca360000000000000000000000000000f3
:20ca430000000020d1ff0168000a02401ffe5000005100968508000004427ffd00028050b9
:20ca630007833000000003a7eff0000000007a90c000000000000020018cbc03c84000042e
:20ca83002650aa100000d00000000000000000000000000000000000000000000000000093
:0dcaa3000000000000000000000000000086
:20cab000000000885083a9400200c0062dca4000002d005fc9100000203b68f70001000003
:20cad0008b70cc0800014604bf700010018017f8c0000e00000000005f809abc002000201a
:20caf00068caa540000000000000000000000000000000000000000000000000000000000f
:0dcb10000000000000000000000000000018
:20cb1d00000020000000c1540080004235a4300200000000014008c20024c8180821029923
:20cb3d0001b70800807fe00100320212009d0b7442004c000000022800809415420840006b
:20cb5d00000000002000000f43d40000000000000000000000000000000000000000000072
:0dcb7d0000000000000000000000000000ab
:20cb8a00000028000005f15481a002607eee300280001c1681581a8016060124502805f91c
:20cbaa008f671c00a00de001e03426a0038f3af45200800000000280010c76a9500a000c4b
:20cbca0000000000280000077a810000000000000000000000000000000000000000000021
:0dcbea00000000000000000000000000003e
:20cbf7000000000000f5ff300400a0238cccc10001870852a840000880434fff0001020034
:20cc170000000000020a6755ba400038070e0c1540000100000000000010f43d400000000b
:20cc370022e0501100000000000000000000000000000000089f694000000000000000002a
:0dcc570000000000000000000000000000d0
:20cc640000000000318dfccc001201e05db3300802a801f284182000de2a5dcc000281588a
:20cc8400000000000416624cce520028099b1e954800008000000000000ed6a814100000b1
:20cca400054af54000000000000000000000000000000000003bd28000000000000000005f
:0dccc4000000000000000000000000000063
:20ccd100000000005083a330040003c37ee0100003801d3c28004000a60000050000005125
:20ccf1000fef30040ad00426b430004801183c3d4020400000000000070e0000000000007a
:20cd1100600000000000008000000000000000000000000000000000000000000000000022
:0dcd310000000000000000000000000000f5
:20cd3e000000000001dfe0cc8000014277e074042000199bbd4820031400fe0560001880ac
:20cd5e00e730cc00000947b59e300090000f5f281400000000000000098100000000001c1f
:20cd7e007400000000300010000000000000000000000000000000000000000000000000e1
:0dcd9e000000000000000000000000000088
:20cdab00000000000005e4b8000001c75c0a01000050085e8a006020003efe142000a000c8
:20cdcb008fa96c040801c3050cc0000000105414080000000000000000007c140040402c47
:20cdeb0001f0550800000081c1400000000000000000000000000000000000000000000058
:0dce0b00000000000000000000000000001a
:20ce18000000000058e7e89502004567a1a5040000a00b5a4910004c002a7b244082801879
:20ce3800eb7e840000020304c3302000018ab7bd50000400000000010000d6bd5000a220d8
:20ce580003fca5410000181bfbd500000000000000000000000000000000000000000000d2
:0dce780000000000000000000000000000ad
:20ce850000000100000102a805041c203ee01090002190377300104e9463ce4a0001315094
:20cea500898374000400602709500010f70e38280000010000000002001014154000a080f8
:20cec50042e0a0004000040f35c800001000000000000380000000000000000000000000a8
:0dcee5000000000000000000000000000040
:20cef200000002005000395480081d472df0740000170e178cc001a3603deb40608290005e
:20cf12000bf1dc080011c01eaa522000310016bd5040060000000000001c7a29500000006b
:20cf320023faf540000000e86ec5000008000000000000000000000000000000000000006a
:0dcf520000000000000000000000000000d2
:20cf5f0000000000000000000000102315fc000000019e16850040001c39caa100400210e2
:20cf7f009da50c00001004000a000010008830154210000000000000000a9828000000002d
:20cf9f0020000000000000058140000000000000000000000000000000000000000000008c
:0dcfbf000000000000000000000000000065
:20cfcc000000000000000000000a41c0449c5100088f0fda491800003c065a1040008500b7
:20cfec00ab7b8c0400006396ca0210280701db29500000000000000200003ebd5040000089
:20d00c00040000000000000bebd50000000000000000000000000000000000000000000035
:0dd02c0000000000000000000000000000f7
:20d0390000000000b9f58330001003e3f4d4a000100d8893c1c84000043a4c4a2000030818
:20d0590001c28000001543d5c40190008100de70804000000000000001187c1542404001f6
:20d07900000000000000100575c80000000000000000000000000000000000000000000045
:0dd09900000000000000000000000000008a
:20d0a60000000000d1ef68cc081801e67ef40700200d013ec05400042005ea40404037115b
:20d0c600a1abd50200400720a8020020899877b1c010260000000000081fd22950000e0631
:20d0e60000000000000098082ec50000000000000000030000000000000000000000000094
:0dd10600000000000000000000000000001c
:20d11300000002a000f14330000208239d0a008010070054284040203c00000000000b0820
:20d13300993b6c20000006340b508400000bb02a8000000000000000000e000000000000f0
:20d1530002d0aa004000100dc14004000000000000000000000000000000000000000000de
:0dd1730000000000000000000000000000af
:20d1800000000100701928cc8904004020a50600000f809b841080409600000000000d79df
:20d1a000810205000400028eea1020000001132954000c000000000800190000000000007b
:20d1c00001dca54040008183bbd500000000000000000000000000000000000000000000b9
:0dd1e0000000000000000000000000000042
:20d1ed0000002028d0037b30808000003cf0700201010f583e8008440242f0bb002000003c
