:02000000ff00ff
:080002004c6174746963650030
:17000a00694345637562653220323031372e30382e32373934300069
:15002100506172743a2069434534304c50384b2d434d3831003f
:1b003600446174653a2041756720323520323031392032313a33323a3537007f
:0200510000ffae
:040053007eaa997e6a
:02005700510056
:0200590001059f
:03005b00920020f0
:03005e00620367d3
:0300610072011019
:0300640082000017
:02006700110086
:02006900010193
:20006b00000000000000000000000000000000000000000000000000000000000000000075
:20008b00000000000000000000000000000000000000000000000000000000000000000055
:2000ab00000000000000000000000000000000000000000000000000000000000000000035
:0d00cb000000000000000000000000000028
:20421d0000000000000000000000000000000000000000000000000400000000000010006d
:20423d00000000000040000000000000000000000000000000000000000000000000000021
:0d425d000000000000000000000000000054
:20426a00000000000000000000000000000000000000000000000000000000000000000034
:20428a00000000000000000000000000000000000000000000000000000000000000000014
:2042aa000000000000000000000000000000000000000000000000000000000000000000f4
:0d42ca0000000000000000000000000000e7
:2042d7000000000000000000000000000000000000000000000000000000000000000000c7
:2042f7000000000000000000000000000000000000000000000000000000000000000000a7
:20431700000000000000000000000000000000000000000000000000000000000000000086
:0d4337000000000000000000000000000079
:20434400000000000000000000000000000000000000000000000000000000000000000059
:20436400000000000000000000000000000000000000000000000000000000000000000039
:20438400000000000000000000000000000000000000000000000000000000000000000019
:0d43a400000000000000000000000000000c
:2043b1000000000000000000000000000000000000000000000000000000000000000000ec
:2043d1000000000000000000000000000000000000000000000000000000000000000000cc
:2043f1000000000000000000000000000000000000000000000000000000000000000000ac
:0d441100000000000000000000000000009e
:20441e0000000000000000000000000000000000000000000000000000000000000000007e
:20443e0000000000000000000000000000000000000000000000000400000000000010004a
:20445e000000000000400000000000010000000000000000000000000000000000000000fd
:0d447e000000000000000000000000000031
:20448b00000000000000000000000000000000000000000000000000000000000000000011
:2044ab000000000000000000000000000000000000000000000000000000000000000000f1
:2044cb000000000000000000000000000000000000000000000000000000000000000000d1
:206dab00780000000000000000000000000000000000000000000000000000000000000050
:0d6dcb000000893dfc0000000000000000f9
:206dd80000000000000000000000000000000000000000000000000000000000000000009b
:206df80000000000000000000000000000000000000000000000000000000000000000007b
:206e180040000000000000000000000000000000000000000000000000000000000000001a
:0d6e380000010be4f8040000000000000061
:206e450000000000000000000000000000000000000000000000000000000000000000002d
:206e650000000000000000000000000000000000000000000000038000000000000e00205c
:206e8500000000003800000063c100e00000000000000000000000000000000000000000b1
:0d6ea50000000000000000000000000000e0
:206eb2000000000000000000000000000000000000000000000000000000000000000000c0
:206ed20000000000000000000000000000000000000000000000000000000000000000049c
:206ef20000000000000000b043c004040000000000000000000000000000000000000000c5
:0d6f12000000b000000000000000000000c2
:206f1f00200000000000000000000000000000000000000000000000000000000000000032
:206f3f000000000000000000000000000000000000000000000001000000073c10040000da
:206f5f000400000010000000000000000000000000000000000000000000000000000000fe
:0d6f7f000000000000000000000000000005
:206f8c001000000000000000000000000000000000000000000000000000000000000000d5
:206fac000000000000000000000000000000000000000000000002000000003c020800007d
:206fcc0028000000200000000000000000000000000000000000000000000000000000005d
:0d6fec000000000000000000000000000098
:206ff900000000000000000000000000000000000000000000000000000000000000000078
:20701900000000000000000000000000000000000000000000000000000000000000000057
:20703900046f80000000000000000000000000000000000000000000000000000000000044
:0d705900000000000000000000000000002a
:2070660000000000000000000000000000000000000000000000000000000000000000000a
:207086000000000000000000000000000000000000000000000000000000000000000000ea
:2070a600234b0000000000000000000000000000000000000000000000000000000000005c
:0d70c60000000000000000000000000000bd
:2070d300000400000000000000000000000000000000000000000000000000000000000099
:2070f300000000000000000000000000000000000000000000000000000000000000001469
:207113000008f06000000000000000002000000000000000000000000000000000000000e4
:0d713300000000000000000000000000004f
:20714000002800000000000000000000000000000000000000000000000000000000000007
:207160000000000000000000000000000000000000000000000000200000000000000002ed
:207180000010f00000000000000000000000000000000000000000000000000000000000ef
:0d71a00000000000000000000000000000e2
:2071ad000000000000000000000000000000000000000000000000000000000000000000c2
:2071cd0000000000000000000000000000000000000000000000000007000000000000009b
:2071ed00000000000000000000000000016000000000080000000000000000000000000019
:0d720d000000100000000000000000000064
:20721a00000000000000000000000000000000000000000000000000000000000000000054
:20723a00000000000000000000000000000000000000000000000000000000000000000034
:20725a000000000000000000000000000020000000000000000000000000000000000000f4
:0d727a000000d00000000000000000000037
:207287000000000000000000000000000000000000000000000000000000000000000000e7
:2072a7000000000000000000000000000000000000000000000000000000000000000016b1
:2072c700000cf040000000000000000000003fca54100000000000000000000000000000fe
:0d72e700000010000000000000000000008a
:2072f40000000000000000000000000000000000000000000000000000000000000000007a
:20731400000000000000000000000000000000000000000000000000000000000000000059
:207334000000f020000000000000000000003e05f0000000000000000000000000000000f6
:0d7354000000f0000000000000000000003c
:2073610000000000000000000000000000000000000000000000000000000000000000000c
:207381000000000000000000000000000000000000000000000000000000000000000000ec
:2073a1000000000000000000000000000003c0000000000000000000000000000000000009
:0d73c10000000000000000000000000000bf
:2073ce0000000000000000000000000000000000000000000000000000000000000000009f
:2073ee0000000000000000000000000000000000000000000000000000000000000000007f
:20740e0000000000000000000000000000020000000000000000000000000000000000005c
:0d742e000000000000000000000000000051
:02743b0000004f
:02743d0011013b
:02743f00010149
:20744100000000000000000000000000000000000000000000000000000000000002000029
:2074610000000000000000000000000000000000000000000000000000000000000000000b
:207481000000000000000000000000000000000000000000000000000000000000000000eb
:0d74a10000000000000000000000000000de
:2074ae000000000000000000000000000000000000000000000000000000000000000000be
:2074ce0000000000000000000000000000000000000000000000000000000000000000009e
:2074ee0000000000000000000000000000000000000000000000000000000000000000007e
:0d750e000000000000000000000000000070
:20751b0000000000000000000004000000000000000000000000000000000000000100004b
:20753b00000000000000000000000000000000000000000000000000000000000000000030
:20755b00000000000000000000000000000000000000000000000000000000000000000010
:0d757b000000000000000000000000000003
:207588000000000000000000000000000000000000000000000000000000000000000000e3
:2075a8000000000000000000000000000000000000000000000000000000000000000000c3
:2075c8000000000000000000000000000000000000000000000000000000000000000000a3
:0d75e8000000000000000000000000000096
:2075f500000000000000000000000000000000000000000000000000000000000002000074
:2076150000080000000000000000000000000000000000000000000000000000000000004d
:20763500000000000000000000000000000000000000000000000000000000000000000035
:0d7655000000000000000000000000000028
:20766200000000000000000000000000000000000000000000000000000000000000000008
:207682000004000000000000000000000000000000000000000000000000000000000000e4
:2076a2000000000000000000000000000000000000000000000000000000000000000000c8
:0d76c20000000000000000000000000000bb
:2076cf00000000000000000000080000000000000000000000000000000000000000003c57
:2076ef0000000000000000000000000000000000000000000000000000000000000000007b
:20770f0000000000000000000000000000000000000000000000000000000000000000005a
:0d772f00000000000000000000000000004d
:20773c0000000000000000000000000000000000000000000000000000000000000000200d
:20775c0000000000000000000000000000000000000000000000000000000000000000000d
:20777c000000000000000000000000000000000000000000000000000000000000000000ed
:0d779c0000000000000000000000000000e0
:2077a9000000000000000000000000001000000000000000000000000002000000000000ae
:2077c900000000000000002000000000000000000000000000000000000000000000000080
:2077e900000000000000000000000000000000000000000000000000000000000000000080
:0d7809000000000000000000000000000072
:20781600000000000000000000000000000000000000000000000000000000000000000052
:20783600000000000000000000000000000000000000000000000000000000000000000032
:20785600000000000000000000000000000000000000000000000000000000000000000012
:0d7876000000000000000000000000000005
:207883000000000000000000000000000000000000000000000000000000010000000000e4
:2078a3000000000000000000000000000000000000000000000000000000000000000000c5
:2078c3000000000000000000000000000000000000000000000000000000000000000000a5
:0d78e3000000000000000000000000000098
:2078f0000000000000000000000000000000000000000000000000800000000000000000f8
:2079100000000000080000000000000000000000000000000000000000000000000000004f
:20793000000000000000000000000000000000000000000000000000000000000000000037
:0d795000000000000000000000000000002a
:20795d0000000000000000000000000000000000000000000000000000000000000000000a
:20797d000000000000000000000000000000000000000000000000000000000000000000ea
:20799d000000000000000000000000000000000000000000000000000000000000000000ca
:0d79bd0000000000000000000000000000bd
:2079ca0000000000000000000000000000000000000000000000004000000000000000005d
:2079ea00000000000400000000000000000000000000000000000000000000000000000079
:207a0a0000000000000000000000000000000000000000000000000000000000000000005c
:0d7a2a00000000000000000000000000004f
:207a37000000000000000000000000001000000000000000000000000f0000000000000010
:207a570004000000000000000000000000000000000000000000000000000000000000000b
:207a77000000000000000000000000000000000000000000000000000000000001000000ee
:0d7a970000000000000000000000000000e2
:207aa40000000000000000000000000000000000000000000000008008000000000000003a
:207ac40000000000080000000000000000000000000000000000000000000000000000009a
:207ae400000000000000000000000000000000000000000000000000000000000000000082
:0d7b04000000000000000000000000000074
:207b1100000000000000000000000000000000000000000000000000000000000000000054
:207b3100000000000000000000000000000000000000000000000000000000000000000034
:207ee60000000000000000000000000000000000000000000000000040000000000001003b
:207f060000000000000000000000000000000000000000000000000000000000000000005b
:207f260000000000000000000000000000000000000000000000000000000000000000003b
:0d7f4600000000000000000000000000002e
:207f530000000000000000000000000000000000000000000000000000000000000000000e
:20873d00000000000000000000000000000000000000000000000000000400000000000018
:0d875d00000000000000000000000000000f
:20876a000000000000000000000000000000000000000000000000000000000000000000ef
:20878a000000000000000000000000000000000000000000000000000000000000000000cf
:2087aa000000000000000000000000000000000000000000000000000000000000000000af
:0d87ca0000000000000000000000000000a2
:2087d700000000000000000000000000000000000000000000000000000000000000000082
:2087f700000000000000000000000000000000000000000000000000000000000000000062
:20881700000000000000000000000000000000000000000000000000000000000000000041
:0d8837000000000000000000000000000034
:20884400000000000000000000000000000000000000000000000000000000000000000014
:208864000000000000000000000000000000000000000000000000000000000000000000f4
:208884000000000000000000000000000000000000000000000000000000000000000000d4
:0d88a40000000000000000000000000000c7
:2088b1000000000000000000000000000000000000000000000000000000000000000000a7
:2088d100000000000000000000000000000000000000000000000100000000000000000086
:2088f100000000000000000000000000000000000000000000000000000000000000000067
:0d8911000000000000000000000000000059
:20891e00000000000000000000000000000000000000000000000000000000000000000039
:20893e00000000000000000000000000000000000000000000000100000000000000000018
:20895e000000000000000000000000000000000000000000000000000000000000000000f9
:0d897e0000000000000000000000000000ec
:20898b000000000000000000000000000000000000000000000000000000000000000000cc
:2089ab000000000000000000000000000000000000000000000000000000000000000000ac
:2089cb0000000000000000000000000000000000000000000000000000000000000000008c
:0d89eb00000000000000000000000000007f
:2089f80000000000000000000000000000000000000000000000000000000000000000005f
:208a180000000000000000000000000000000000000000000000000000000000000000003e
:208a380000000000000000000000000000000000000000000000000000000000000000001e
:0d8a58000000000000000000000000000011
:208a65000000000000000000000000000000000000000000000000000000000000000000f1
:208a85000000000000000000000000000000000000000000000000000000000000000000d1
:208aa5000000000000000000000000000000000000000000000000000000000000000000b1
:0d8ac50000000000000000000000000000a4
:208ad200000000000000000000000000000000000000000000000000000000000000000084
:208af200000000000000000000000000000000000000000000000000000000000000000064
:208b1200000000000000000000000000000000000000000000000000000000000000000043
:0d8b32000000000000000000000000000036
:208b3f00000200000000000000000000000000000000000000000000000000000000000014
:208b5f000000000000000000000000000000000000000000000000000000000000000000f6
:208b7f000000000000000000000000000000000000000000000000000000000000000000d6
:0d8b9f0000000000000000000000000000c9
:208bac000000000000000000000000000000000000000000000000000000000000000000a9
:208bcc00000000000000000000000000000000000000000000000000000000000000000089
:208bec00000000000000000000000000000000000000000000000000000000000000000069
:0d8c0c00000000000000000000000000005b
:208c190000000000000000000000000000000000000000000000000000000000000000003b
:208c3900000000000000000000000000000000000000000000000200000000000000000019
:208c59000000000000000000000000000000000000000000000000000000000000000000fb
:0d8c790000000000000000000000000000ee
:208c86000001000000000000000000000000000000000000000000000000000000000000cd
:208ca6000000000000000000000000000000000000000000000001000000000000000000ad
:208cc60000000000000000000000000000000000000000000000000000000000000000008e
:0d8ce6000000000000000000000000000081
:208cf300000000000000000000000000000000000000000000000000000000000000000061
:208d1300000000000000000000000000000000000000000000000000000000000000000040
:208d3300000000000000000000000000000000000000000000000000000000000000000020
:0d8d53000000000000000000000000000013
:208d60000000000000000000000000000000000000000000000000000000000000000000f3
:208d80000000000000000000000000000000000000000000000000000000000000000000d3
:208da0000000000000000000000000000000000000000000000000000000000000000000b3
:0d8dc00000000000000000000000000000a6
:208dcd00800080000000000000000000000000000000000000000000000000000000000086
:208ded000000000000000000000000000000000000000000000000000100003c02300000f7
:208e0d00000000000000000000000000000000000000000000000000000000000000000045
:0d8e2d000000000000000000000000000038
:208e3a00000000000000000000000000000000000000000000000000000000000000000018
:208e5a000000000000000000000000000000000000000000000003800000003c1000000029
:208e7a000000000000000000000000000000000000000000000000000000000000000000d8
:0d8e9a0000000000000000000000000000cb
:208ea7000000000000000000000000000000000000000000000000000000000000000000ab
:208ec70000000000000000000000000000000000000000000000000000000000000000008b
:208ee70000000000000000000000000000000000000000000000000000000000000000006b
:0d8f0700000000000000000000000000005d
:208f140000000000000000000000000000000000000000000000000000000000000000003d
:208f340000000000000000000000000000000000000000000000000000000000000000001d
:208f54000000000000000000000000000000000000000000000000000000000000000000fd
:0d8f740000000000000000000000000000f0
:208f81000000000000000000000000000000000000000000000000000000000000000000d0
:208fa1000000000000000000000000000000000000000000000000000000000000040000ac
:208fc1000000000000000000000000000000000000000000003af300000000000000000063
:0d8fe1000000000000000000000000000083
:208fee00000000000000000000000000000000000000000000000000000000000000000063
:20900e0000000000000000000000000000000000000000000000000000000000000400003e
:20902e00000000000000000000000000000680000000000700f78cc0000000000000000052
:0d904e000000000000000000000000000015
:20905b000000000000000000000000000000000000000000000000000000000000000000f5
:20907b000000000000000000000000000000000000000000000000000000000000000000d5
:20909b000000000000050000000000000000000000000000000000000000000000000000b0
:0d90bb0000000000000000000000000000a8
:2090c800000000000000000000000000000000000000000000000000000000000000000088
:2090e800000000000000000000000000000000000000000000000000000000000000000068
:2091080000000000000200000000000000000000000000001e000000000000000000000027
:0d912800000000000000000000000000003a
:2091350000000000000000000000000000000000000000000000000000000000000000001a
:209155000000000000000000000000000000000000000000000000000000000000000002f8
:2091750000000000000000000000000000000000000000008000000000000000000000005a
:0d91950000000000000000000000000000cd
:2091a2000000000000000000000000000000000000000000000000000000000000000000ad
:2091c200000000000000000000000000000000000000000000000000000000000000001677
:2091e2000000000000000000000000000000000000000003800000000000000000000000ea
:0d920200000000000000000000000000005f
:20920f0000000000000000000000000000000000000000000000000000000000000000003f
:20922f0000000000000000000000000000000000000000000000000000000000000000001f
:20924f000000f0080000000000000000000000000000000000000000000000000000000007
:0d926f0000000000000000000000000000f2
:20927c000000000000000000000000000000000000000000000000000000000000000000d2
:20929c000000000000000000000000000000000000000000000000000000000000000000b2
:2092bc00001cf0404000000000000000000000000000000000000000000000000000000006
:0d92dc000000000000000000000000000085
:2092e900000000000000000000000000000000000000000000000000000000000000000065
:2093090000000000000000000000000000000000000000000000000000000000000800003c
:20932900000000000000000000000000000000000000000000000000000000000000000024
:0d9349000000000000000000000000000017
:209356000000000000000000000000000000000000000000000000000000000000000000f7
:209376000000000000000000000000000000000000000000000000000000000000040000d3
:20939600000000000000000000000000000380000000000000000000000000000000000034
:0d93b60000000000000000000000000000aa
:2093c30000000000000000000000000000000000000000000000000000000000000000008a
:2093e30000000000000000000000000000000000000000000000000000000000000000006a
:2094030000000000000000000000000002c036fcc00000000800000000000000000000008d
:0d942300000000000000000000000000003c
:2094300000000000000000000000000000000000000000000000000000000000000000001c
:209450000000000000000000000000000000000000000000000000000000000000000000fc
:20947000000000000000000000000040020024b3348000000000000000000000000000000f
:0d94900000000000000000000000000000cf
:20949d000000000000000000000000000000000000000000000000000000000000000000af
:2094bd0000000000000000000000000000000000000000000000000000000000000000048b
:2094dd0000000000000000000000000000000000000000000000000000000000000000006f
:0d94fd000000000000000000000000000062
:20950a00000000000000000000000000000000000000000000000000000000000000000041
:20952a0000000000000000000000000000000000000000000000000000000000000e000013
:20954a000000000000000000000000e0000000000000000000000000000000000000000021
:0d956a0000000000000000000000000000f4
:209577000000000000000000000000000000000000000000000000000000000000000000d4
:209597000000000000000000000000000000000000000000000000000000000000000000b4
:2095b700000000000000000000000000000000000000000000000000000000000000000094
:0d95d7000000000000000000000000000087
:2095e400000000000000000000000000000000000000000000000000000000000000000067
:20960400000000000000000000000000000000000000000000000000000000000000000046
:209624000000000000000000000000000003800000000000000000000000000000000000a3
:0d9644000000000000000000000000000019
:209651000000000000000000000000000000000000000000000000000000000000000000f9
:20967100000000000000000000000000000000000000000000000000010008154800000073
:20969100000000000000000000000040000000000000000000000000000000000000000079
:0d96b10000000000000000000000000000ac
:2096be0040000000000000000000000000000000000000000000000000000000000000004c
:2096de0000000000000000000000000000000000000000000000000008005a1550000000a5
:2096fe0000000000000000000000004000000000000000000000000000000000000000000c
:0d971e00000000000000000000000000003e
:20972b0080000000000000000000000000000000000000000000000000000000000000009e
:20974b0000000000000000000000000000000000000000000000000001000803c000000032
:20976b00000000000100f000000000000000000000000000000000000040000000000000ad
:0d978b0000000000000000000000000000d1
:209798000000000000000000000000000000000000000000000000000000000000000000b1
:2097b80000000000000000000000000000000000000000000000000009805a3c3020000022
:2097d800000000000000800000000000000000000000000000000000008000000000000071
:0d97f8000000000000000000000000000064
:2098050008000000000000000000000000000000000000000000000000000000000000003b
:2098250000000000000000000000000000000000000000000000000000000003c00000243c
:209845000000f008000000e0000000100000010f00100000000000000000000000000000fb
:0d98650000000000000000000000000000f6
:20987200400000000000000000000000000000000000000000000000000000000000000096
:2098920000000000000000000000000000000000000000000000000000005a3c30000020d0
:2098b200000af0400000001000000000000000af0400005000000000000000000000000049
:0d98d2000000000000000000000000000089
:2098df00000000000000000000000000000000000000000000000000000000000000000069
:2098ff0000000000000000000000000000000000000000000000000000000003c000060080
:20991f00000000000000000000000000000000000000000000000000000000000000000028
:0d993f00000000000000000000000000001b
:20994c000000000000000000000000000000000000000000000000000000000000000000fb
:20996c0000000000000000000000000000000000000000000000000000007a3c38000000ed
:20998c000000000000000000000000000000000000000000000000000000000000000000bb
:0d99ac0000000000000000000000000000ae
:2099b90000000000000000000000000000000000000000000000000080000000000000000e
:2099d90000000000000000000000000000000000000000000000000000080803c04000005b
:2099f9000000f0008000000043c0208000000000000000000000000000000000000000003b
:0d9a19000000000000000000000000000040
:209a260000000000000000000000000000000000000000000000000100000000000005001a
:209a46000000000000000000000000000000000000000000000000000199523c3000001692
:209a6600001cf0400000000073c124400000000000000000000000000000000000000000fc
:0d9a860000000000000000000000000000d3
:209a93000000000000000000000000000000000000000000000000000000000000000000b3
:209ab3000000000000000000000000000f000000000000000000000000080803c0000000b1
:209ad300000000000002000003c000000004000f000000000000000000000000000000009b
:0d9af3000000000000000000000000000066
:209b0000000000000000000000000000000000000000000000000000000000000000000045
:209b20000000000000000000000001000000000000000000000000800019523c30040016b3
:209b400000000000100000003bc184000007000f0600000000000000000000000000000059
:0d9b600000000000000000000000000000f8
:209b6d000000000000000000000000000000000000000000000000000000000000000000d8
:209b8d0000000000000000000000000000000000000000000000000000000003c0000000f5
:209bad000000f00800000000000000000040010f00801000000000000000000000000000c0
:0d9bcd00000000000000000000000000008b
:209bda0000000000000000000000000000000000000000000000000000000000000000006b
:209bfa000000000000000000000003800000000000000000000003800000723c300e000059
:209c1a00001af04938000000000000e0000000af0404080000000000000000000000000000
:0d9c3a00000000000000000000000000001d
:209c47000042000000000000000000000000000000000000000000000000000000000000bb
:209c67000000000000000000000000000000003c004000000000000000000003c10000009d
:209c8700000000000000000000000000e0003405a884000000000000000000000000000474
:0d9ca70000000000000000000000000000b0
:209cb400006800000000000000000000000000000000000000000000000000000000000028
:209cd400000000000000000000000000000002bc14000000000000000000723c38000000b8
:209cf4000000000000000000000000000000000a56000000000000000000000000000000f0
:0d9d14000000000000000000000000000042
:209d2100000000000000000000000000000000000000000000000000000000000000000022
:209d410000000000000000000000000000800000000000000000002801000803c00000028c
:209d61000000f00900001007ef3021080002400000000001800000000000000000000000c7
:0d9d810000000000000000000000000000d5
:209d8e000000000000000000000000000000000000000000000000000000000000000000b5
:209dae0000000000000000000000000003000000000000000000001008187a3c3000001c60
:209dce00001af04000000003eccc000000004000000000051e00000000000000000000000d
:0d9dee000000000000000000000000000068
:209dfb00000000000000000000000000000000000000000000000000000000000000000048
:209e1b000000000000000000000000000f000000000000000000000001000803c000200428
:209e3b0031eecc100000f10000000000000780000000000000000000004000000000000054
:0d9e5b0000000000000000000000000000fa
:209e68000000000000000000000000000000000000000000000000000000000000000000da
:209e880000000000000000000000000007800000000000000000000009805a3c3000401e86
:209ea80007cc3340000050e00000000001e2c000000000000000000000a0000000000000e1
:0d9ec800000000000000000000000000008d
:209ed50000000000000000000000000000000000000000000000000000000000000000006d
:209ef50000000000000000000000000000000000000000000000000000000003c000001476
:209f15000010f020000008d5033001000000000000000009009c03c0000000000000000093
:0d9f3500000000000000000000000000001f
:209f42000000000000000000000000000000000000000000000000000000000000000000ff
:209f620000000000000000000000000000000000000000000000000000005a3c30000020f9
:209f82000008f0410000100d30cc080000000000000000000097bc00000000000000000012
:0d9fa20000000000000000000000000000b2
:209faf00000000000000000000000000000000000000000000000000000000000000000092
:209fcf0000000000001540000000000380000000000000000000000000000003c0000100d6
:209fef002c10f0008000518143300000000005ecc0100000000000000000000000000000a0
:0da00f000000000000000000000000000044
:20a01c00000000000000000000000000000000000000000000000000000000000000000024
:20a03c0000000000000806800000000000000000000000000000000000007a3c300000167a
:20a05c00001af050800000a3b0cc0800000007e334000000000000000020000000000000a5
:0da07c0000000000000000000000000000d7
:20a089000000000000000000000000000000000000000000000000000000000000000000b7
:20a0a900000000000001c000000000000000003c004000000000000000080803c000000087
:20a0c9002810f008000058ed003c00000400000000000000000000000000000000000000c2
:0da0e900000000000000000000000000006a
:20a0f60000000000000000000000000000000000000000000000000000000000000000004a
:20a11600000000000000000000000000000003bc18000000000000000181523c30000016fc
:20a136006c0cf0500000f8b76bc0400000068000000010000000000000001c000000000085
:0da1560000000000000000000000000000fc
:20a163000000000000000000000000000000000000000000000000000000000000000000dc
:20a1830000000000001000000000000000000000000000000000000000080803c000810058
:20a1a3000010f011010018b000000000000000000000000000733300000e002800000000e6
:0da1c300000000000000000000000000008f
:20a1d00000000000000000000000000000000000000000000000000000000000000000006f
:20a1f0000000000000080000000001000000000000000000000000280019523c3004410002
:20a210000008f0400280700000000040000000000000000000fe4cc00400000400000000b2
:0da230000000000000000000000000000021
:20a23d00000000000000000000000000000000000000000000000000000000000000000001
:20a25d00000000000000000000000000000b7803c00000000000002000000003c020000296
:20a27d000010f000000090052330000000003f00f004000090000000000600346b330080be
:0da29d0000000000000000000000000000b4
:20a2aa00000000000000000000000000000000000000000000000000000000000000000094
:20a2ca0000000000000000000000038200011fbc10100000000003800000723c300e001470
:20a2ea00001af0680000800b60cc00e001601daf040000039a0000000e4016027acc400091
:0da30a000000000000000000000000000046
:20a31700000000000000000000000000000000000000000000000000000000000000000026
:20a33700000000000a00000e00f0100000000000000000000000002000000003c0c000400b
:20a3570028ce33000000f80b3f30000001400000000003800c00000000000000000000007b
:0da3770000000000000000000000000000d9
:20a384000000000000000000000000000000000000000000000000000000000000000000b9
:20a3a400000000000400000daf0000000000000000000000000000000000723c300000807b
:20a3c4006fd8cc404010f00578cc0000020000000000000001000000000a00000000000090
:0da3e400000000000000000000000000006c
:20a3f10000000000000000000000000000000000000000000000000000000000000000004c
:20a41100a37f30004000034000000000000f00000000000000000100000800000004000634
:20a431004249e0000400f00f003c01400004340cc0000000000000000000400000000000dc
:0da4510000000000000000000000000000fe
:20a45e000000000000000000000000000000000000000000000000000000000000000000de
:20a47e001b24cc404000004000000000000000000000000000000100000000000004003eb0
:20a49e00305d80000000d8016bc0004000038ea330200000000000000000000000000000c9
:0da4be000000000000000000000000000091
:20a4cb00000000000000000000000000000000000000000000000000002000000000000051
:20a4eb0000000000000000010f0800000990000000000000000000000000043c2800a00197
:20a50b003fd05f10000098f78330010003c7800551000000100000000000000000000000bf
:0da52b000000000000000000000000000023
:20a53800000000000000000000000000000000000000000000000000000000000000000003
:20a558000000000000000001ef041000010e00000000000000000000000007bc10004000bd
:20a57800035c18020000780578cc080002071dc5500000001800000000000000000000002e
:0da5980000000000000000000000000000b6
:20a5a500000000000000000000000000000000000000000000000000000000000000000096
:20a5c500000000000000003c05a8040000000000000000000000002001085c03c040002cd5
:20a5e50003c9900000007085f330000015c0010f00000007000000000000000000000000f6
:0da605000000000000000000000000000048
:20a612000000000000000000000000000000000000000000000000000000000000000058d0
:20a6320000000000000000200a5400000000000000000000000000100801173c02000a21f1
:20a6520061fca0000000f809f0cc00000a6000ef04000008000000000000000000000000c9
:0da6720000000000000000000000000000db
:20a67f0000000000000000000000000000000000000000000000000000000000000000506b
:20a69f0000000000000000010f0a0000008e000000000080000000000009043c2000010009
:20a6bf000000f000028008bb21a4000400022efcc000001000000000000e00000000000073
:0da6df00000000000000000000000000006e
:20a6ec0000000000000000000000000000000000000000000000000000000000000000004e
:20a70c000000000000000001ef06000023800000000000000000000b850a07bc1000040023
:20a72c000000f050010038e03e58000a00001dd3300000200e0000000000000000000000c6
:0da74c000000000000000000000000000000
:20a759000000000000000000000000000000000000000000000000000000000000000000e0
:20a77900000000008000003c05a8000000007201c000000000000228000000000008003eb4
:20a79900340000000000f0f0000000800340000000002800009433000000000000000000da
:0da7b9000000000000000000000000000093
:20a7c600000000000000000000000000000000000000000000000000000000000000000073
:20a7e60000000000400000200a570000000012ead00000000000010000000000000400269b
:20a80600000000000000d010000000404200000000001000009b8cc0800000000000000059
:0da826000000000000000000000000000025
:20a83300000000000000000000000000000000000000000000000000000000000000000005
:20a8530000000000000000010f0803000d0f783e8200000000000010770000258000001c2e
:20a873004360cc08000009d5003c000400023c05a8800007009b33000000000000000000f0
:0da8930000000000000000000000000000b8
:20a8a000000000000000000000000000000000000000000000000000002000000000000078
:20a8c0000000000000000001ef0603200f8052b6d08000000000002850003625888040005d
:20a8e000397a3302000010a5b3c0010a0140400a540000080032ccc0000000000000000098
:0da90000000000000000000000000000004a
:20a90d00000000000000000000000000000000000000000000000000002800000000000002
:20a92d000000000000004000000000000000ff3400000000000000000180b803c200800613
:20a94d00784ecc00000170f365a40004044000000000000b10000000000200000000000086
:0da96d0000000000000000000000000000dd
:20a97a000000000000000000000000000000000000000000000000000000000000000000bd
:20a99a0000000000e0000000000003800780b22000000000000003800780373c000e001442
:20a9ba00225b3300000000082a5800e000000000000000080c00000000000000000000004f
:0da9da000000000000000000000000000070
:20a9e70010000000000000000000000000000000000000000000000000025ba400400000ff
:20aa0700c0000000000000010f008000090f0000000020000000000040080000000000045b
:20aa270042405a8000005103f900000000002dfcc004000009000000000000000000000070
:0daa47000000000000000000000000000002
:20aa540000000000000000000000000000000000000000000000000014024e1a0000000064
:20aa74000000000000000001ef050000000100000000000000000000200000000000042088
:20aa94002200a540000080cb6f804000000016b33000000000000000000000000000000028
:0daab4000000000000000000000000000095
:20aac1000000000000000000000000000000000304000000000000000000000000004050de
:20aae10087bcc0004100026405a010440b093417c00001400000002c0b007af80000100099
:20ab0100006d1000004490000000004104000dbcc000040000000000001000000000000001
:0dab21000000000000000000000000000027
:20ab2e000000000000000000000000000000000300038000000000000000000000002881d8
:20ab4e00893c8100400000400a540040091d5706008000000000000000009ba00000000045
:20ab6e000159a100000080000000004008002fb330000000000000000000000000000000f2
:0dab8e0000000000000000000000000000ba
:20ab9b000000000000000000000000000000000000000e00000000003c2368e000000001e4
:20abbb000f24c000000002410f08000000897a240000008000000000008f5417c000aec35b
:20abdb0042dc800000000005f730000000002c05a0100000080000000000000000000000a7
:0dabfb00000000000000000000000000004d
:20ac08000000000000000000000000000000000000000100000000000003ceb00000001892
:20ac2800e5788000040060408f0510000381d728000000000000000007813706008001041a
:20ac4800785d8501000000c3eccd00000000200a5410000000000000000000000000000087
:0dac680000000000000000000000000000df
:20ac75000000000000000000000000000000000000000000000000000000000000000000bf
:20ac950007bcc0000000002405aa1003808f000000000000000000000f807b380000007e67
:20acb500404d1000000000d003c000080343810f0800000000000000000000000000000069
:0dacd5000000000000000000000000000072
:20ace200000000000000000000000000000000000000000000000000000000000000000052
:20ad020009348100000000000a5400000101000000000000000000000f18d3e000000c1419
:20ad220020dba100008071b033c18000006001cf0604000000000000000000000000000026
:0dad42000000000000000000000000000004
:20ad4f000000000000000000000000000000000000000000000000000000000000000810cc
:20ad6f0009810800000000000f001800001098034000000000000000808800000000003cdc
:20ad8f007bd88000000070000000000000002c05a010080d000000000000000010501100fa
:0dadaf000000000000000000000000000097
:20adbc000000000000000000000000000000000000000000000000000000000000000080f7
:20addc0007f90108010000008f000014478a1782028000000000000c271d0000000010005e
:20adfc00785c85010040b800000000010007a00a5410140000000000001000017a504000a0
:0dae1c000000000000000000000000000029
:20ae290000000000000000000000000000000000000000f650a010000040000000000000d3
:20ae490080015400840140169a5000000000f41900000480000000000d00000000010002ae
:20ae690002cccc10000770b3bb3000800006010f000000500a0000000000042800f00000fe
:0dae890000000000000000000000000000bc
:20ae96000000000000000000000000000000000000000012b4500000002000000000000066
:20aeb60011a15400480206b405a80010079edeaf0080014000000000000000000001461c5f
:20aed600015b33400007980164cd0044c002c1cf06000025810000000000200000f040002a
:0daef600000000000000000000000000004f
:20af03000000000000000000000000000000000000001000000000000000000000000050ce
:20af2300a0803c000000020380f00000809f7ed5000002800000000000891c3300000f4022
:20af4300400000000000080001fc200800002c05a8840000001e8cc00c000040000000006e
:0daf630000000000000000000000000000e1
:20af70000000000000000000000000000000000000000e00000000000000000000000000b3
:20af90000523c20000000654e0f80000070b77978000000000000100070c938cd084001e40
:20afb0002000000010005185f1fc08000006200a5401000000da7310240000780000000008
:0dafd0000000000000000000000000000074
:20afdd000000000000000000000000000000000000000000000000000003c05a0000001027
:20affd0080803c000800400190f00000000017508000000000000000050db403c0008cf43f
:20b01d00305d10080000f889c190000200402f00f01000050ef403c00000800000000004dd
:0db03d000000000000000000000000000006
:20b04a00000000000000000000000000000000038000000000000000000040000038009853
:20b06a0017a3c200e000001da0f80000000017a8000000000000038020013a3c000e00408e
:20b08a0005d9a1003828f011aaf008e40000148f0103800801363c100e040000000000007c
:0db0aa000004000000000000000000000095
:20b0b700000000000000000000000000000000000003000000000000240000000000000052
:20b0d700f0643c000001c40200002002038a00000000000000000000001f73540000003e2f
:20b0f700000000000100018fa85400000002000000000000100000000000040050f0100046
:0db11700000000000000000000000000002b
:20b124000000000000000000000000000000000000001800000000000000000000000000f3
:20b1440001efc2000022039e00080000078e00000000000000000000001e7ea04800003c19
:20b1640000000000028001a1647c000000004000000000500a000000000020017a00500042
:0db1840000000000000000000000000000be
:20b191000000000000000000000100040000000004000000000000100000000000004050f5
:20b1b10080000000010003d4f40000140008000000008080000000040b1c981f80001000a4
:20b1d1000000ff0880c008000000000301c256e4208004091a00280000100060100301009c
:0db1f1004000000000000100000000000010
:20b1fe0000000000000000000000000300000000000000000000000000000000000000002e
:20b21e00100000000000003dd8500020000000000000404000000000000d728288800000f2
:20b23e000000ff218160100000000005100076da000004000d3728004010006408030a0041
:0db25e0040000000000001000000000000a2
:20b26b000000000000000000000000000000000000000000000000000000000000000000c3
:20b28b00a14168000000622c04000000011f000000000000000000000018f2b800000002e3
:20b2ab0030000000000100000000000000042700f090000390bfb800000000015000080044
:0db2cb000000000000000000000000000076
:20b2d800000000000000000000000000000000000000000000000000060000000000000050
:20b2f80019f968000003c07dcb542000010e000000000000000000000789b6600000400e3a
:20b318003800000000000000000000000003afef000000090837a0000000060348022a00d7
:0db338000000000000000000000000000008
:20b34500000000000000000000000000010f00000000000000000000040020e308800050f9
:20b36500000000000001c6040f5000000000f641c0002000000000000009043c00400000fe
:20b385002c000000000201c360cc000002440c81c010000588342bc400000024000a000009
:0db3a5000000000000000800000000000093
:20b3b20000000000000000000000000001ef0400000000000000000006017ae34200008061
:20b3d200000000000002e2618fa00000018096ead0004000000000040380073c100010806c
:20b3f20038000000004578e5af314000026627c20410000101b7060080010001cc0a0000c5
:0db4120040000000000001000000000000ec
:20b41f000000000000000000000000000000000000000000000000000001cc8a00000000b6
:20b43f0000000000000000068d3000002000781900000000000000000f9d003c0000004051
:20b45f002b600f00000808000000000001c0150c309000059fb7e00000000637f90a000006
:0db47f0000000000000000000000000000c0
:20b48c0000000000000000000000000000000000000000000000000006005dd00000005815
:20b4ac00000000000000002eac300000100053af1080000000000004870f07bc1040101ef9
:20b4cc0005daf000004018000000000002002e8c742000078e37b800000034067e85010027
:0db4ec000000000000000000000000000053
:20b4f90000000000000000000000000000000000000000000000000000000000000000092a
:20b51900000000000003400000000000011f13db800000000000000801001ec08000013e9b
:20b5390072d80700008108a00000000013e004ae300000071bfed40000000200e07d000050
:0db5590000000043c00200000000000000e0
:20b56600000000000000000000000000000000000000000000000000142800000000001178
:20b586008000000000020000000000000f8a1ad280000000000000000980b7a84800049456
:20b5a6002b7cab600002380000000000084787cc300000001db6e04400000600f87e120042
:0db5c6000000002bc100000000000000008c
:20b5d300000000000000000000000000000000000000000000000000000000000000000058
:20b5f300b9ac80000001400304800300018e9819000000000000002800895bb30004800005
:20b6130002fb0b08008001f9a3400000024034fe010100001000000004002402505000203a
:0db63300000000000000000000000000000a
:20b640000000000000000000000000000000000000000000000000000000000000000000ea
:20b66000057c910000020006e48423000f81f6af00800000000001100701b68cc00402004f
:20b6800028f9ab401100008d72000000020027a8000100039e0000000c0020001ea0003001
:0db6a0000001c000000000000000000000dc
:20b6ad00000000000000000000000000000000000000000000000000000020e3080000f87a
:20b6cd0000000000000340060ff000008b0a5f1500004000000000001000f43300408000d5
:20b6ed006ed04a08028200900000000a0063cc800010000000ff80840080340000f0000029
:0db70d00010000000000000000000000002e
:20b71a00000000000000000000e00000000000000000000000000e0000017ae3423800d079
:20b73a0000000000e00142af8fb02382881b165780008a00000003802780320cd08e400019
:20b75a003fd8df4239117800000000e0034067c04483800000fb68400e00006800f04038c3
:0db77a0000000000000000000000000000c2
:20b787000000000000000000000000000000000000000000000000000000c00a00000000d8
:20b7a700e3a96cc00001c0020f5000000f8a7e81c000400000000010000e04154000008019
:20b7c70033db80000000100bfb30000000040000000000000ed2bf800000006400f0000017
:0db7e7000000000000000000000000000055
:20b7f40000000000000000000000000000000000000000000000000014024caa0000000029
:20b814000f3695000002000eaf5000000d0b16ead000000000000020000e3f954000014cb4
:20b8340004dae0000000800df4cd00000066000000000000005b9f900000002c00f040009c
:0db8540000000000000000000000000000e7
:20b8610000000000000000000000000000000000000000000000000014036e020000021925
:20b88100800280000000002600010000000000000000000000000000000e0000000400006c
:20b8a100000000001000010b016820ca002014800000000d0e00028050002c6770800000f4
:0db8c10000f0b000000000000000000000da
:20b8ce0000000000000000000000000000000000000500000000000020005c00000005d103
:20b8ee00977a800000000034c0a01000000000000000000000000000000100000004001ee2
:20b90e0000000000100000a8029500c400403780400802019a7f0284000020397eb5620037
:0db92e00020000000000000000000000000a
:20b93b000000000000000000000000000000000000000000280000003c00d02a0000000886
:20b95b009b01400000004000000000004b8000000000000000000000000000000000202c99
:20b97b0035f02f000000000043c2200000c0000000000000800000000000004000fa0000b9
:0db99b00000000000000000000000000009f
:20b9a8000000000000000000000000000000000000000036280000002003ca1f02000050c3
:20b9c8000160000000026000000000002b8000000000000000000000059e0000000000004e
:20b9e800064e5f030000180073c10000036000000000000500000000000000205cfa00005f
:0dba08000000000000000000000000000031
:20ba150000000000000000000000000000000000000000000000000014024000000030008b
:20ba35000000000000000016cc60040003000000000000000000000000001340844040341d
:20ba550001c0500000000900000000000143c6020a00000f80000288000002640000000022
:0dba750000000003c00010000000000000f1
:20ba820000000000000000000000000000000000000000000000000026035a80020000009f
:20baa2000000000000006015b81400000900000000000000000000000000db001800a000a7
:20bac200005cf500000018a00000000002e005ab5428000d007f029000001e2000000000f1
:0dbae20000000003c1000000000000000093
:20baef000000000000000000000000000000000000000000000000000200005000000008dd
:20bb0f009940902400034000000000008000000000000000000000038f007612800020000c
:20bb2f00000000000000080003c08000e1401c00800000078808120000000002d000000073
:0dbb4f000000800000000000000000000069
:20bb5c000000000000000000000000000000000000050000000000000600d8500000005046
:20bb7c0017f941080000000000000000000000000000000000000000081e579008004000fb
:20bb9c00000000000000180023c00000406015a0e020000d017e9210c0000003fe05010044
:0dbbbc00000010000000000000000000006c
:20bbc9000000000000000000000000000000000000201000000000000200404000000000aa
:20bbe90007ec000000002000000000000f003394000000000000004000000000000880008b
:20bc09004010f00120000003b69400000363f709c000000100183fc000000000000000002f
:0dbc2900000000000000000000000000000e
:20bc360000000000000000000000000000000000005018000000000006001a800200005094
:20bc56000b6010000001c000000000000f009f20400000000000004001800000000440007f
:20bc7600281af040100000a5056a000201406f8ac0200008007b3ec080000060000000009b
:0dbc960000000000000000000000000000a1
:20bca3000000000000000000000000000000000000050000000000000228e9040000000065
:20bcc300a00000000007440000000000030f002d40000000000000000d0efa81024100001e
:20bce30003405a1040000080bc3c00000042a4c1c000000000003d400000002800000010c0
:0dbd030000000b43c0200000000000000005
:20bd100000000000000000000000000000000000000800000000020014034c0000000000a6
:20bd3000000000000000060000000000000056ad588000000000000008015640041000005f
:20bd50000200a56000000195743e000002003d96e00000800037bd40000000040000001007
:0dbd7000000007f801440000000000000082
:20bd7d00000000000000000000000020000000000000803a800000000225f02c00000010f9
:20bd9d00ad00000000000400055000002b0092c0000000000000004000800000000000043f
:20bdbd000010f09000201000743c00000143f59540000000003a324000200002d0aa080098
:0dbddd000000000000000000000000000059
:20bdea00000000000000000000e00140000000000001805fa0000000142e583c023800d8b0
:20be0a0001e90008e000039c8556038010005b8100000000000003c003800000000e000009
:20be2a00001af040380050076c3e00e0b3400f85e003804000b320500e4000020e5500385d
:0dbe4a0000000000000000000000000000eb
:20be5700000000000000000000000000000f000000000000000000000024e90400000008a3
:20be7700a77c00000000000000f04003800000000000000000000000090000000001003c8f
:20be97004000000000000000000008000023a4c0700000000d93820000000000000000002a
:0dbeb7000000c003c00000000000000000fb
:20bec400000000000000000000000000018f0700000000000000000016075c0000002870b6
:20bee4000b3c04000000001c8f0e0000000a00000000000000000000000000000000000030
:20bf040068000000000000018002000001426ecab0000001803f8008320016000000000077
:0dbf240000000003c100000000000000004c
:20bf3100000000000000000000000000000000000000005821480000002a50f300000000c2
:20bf5100e5c020040000400200f200000000000000000000000001000000000000000000d2
:20bf71007a70050000001805b8c00000036235cd0000022000003c02000014280000000029
:0dbf91000251e043c0000000423e06500097
:20bf9e000000000000000000000000000000000000059a179e80800006064af042000000a7
:20bfbe001b20004c0002061e8f0c000000000000000000000000010000000000000000001a
:20bfde007ffc00100000f98938810000c3c65fc80000001700033c10000436040000000029
:0dbffe000081d07bc1060002063faa54203e
:20c00b0000000000000000000000000000000000000009fb7fc000000020edf3000004309e
:20c02b00fdc30c200000400200f20000500000000000000000000000000000000000083c41
:20c04b0039fb9001000470093080000000022de400002810107814c00100000010f020001b
:0dc06b0000700043c0800000000d000000c8
:20c078000000000000000000000000000000000000001af6bf8000000007eaf700000280ef
:20c0980019b90c0800c260168f0c0000201e00000000000000000000000000000000001c75
:20c0b8006dfda0000020980568910000000026fa400000200ebabcc0c00200001ef04000d4
:0dc0d80000800073c1000000000780a00080
:20c0e500000000000000000000000000000000000000001e800000001442401000003800bf
:20c10500813800000080000000f00000070057048a400000000000000009043c0810001450
:20c125003fe020000000118b816800001663d4064000002100df4f800000000000f00801db
:0dc1450000000003c0060000000000000024
:20c152000000000000000000000000000000000000001a1fc80000001638de184200000046
:20c1720019e82000000000168f0c10000180125094400000000000000000073c10000000c1
:20c192003cdc2442000081dbe968000009c00f8bc420000f8c72dfc000400e0018f0408059
:0dc1b2000001a063c100004000000000007b
:20c1bf000000000000000000000000000000000000000900000000000428fd080000000026
:20c1df008b4028000000000000f000004b0000000000000000000000100000000000001ce6
:20c1ff0068e0000002007007a4c000000023ee0ae000000f00003c000000020000f00000c3
:0dc21f000000a043c0060003c3950e5000b0
:20c22c000000000000000000000000000000000000050000000000002007de1c00000000cc
:20c24c001178098c0000001e8f0c00000800000000000000000000002000000000000020b3
:20c26c006dce0a08010080096880000001e01ea58020000000073c1000000e001ef04100ff
:0dc28c000000107bc1000002007fea44208a
:20c29900000000000000000000000000000000000007001c3fc0000000016f00004100d0e2
:20c2b90005c3d4000008020200f00000000fd2c702400000000002000000000000000000e1
:20c2d900400000000000d0800154000002c00de80000000000003c0020004000000000000d
:0dc2f90000010043c004000020248200006a
:20c30600000000000000000000000000000000000008007a37c080001600dd1a00020059b6
:20c32600a9728000001460548f0c00000001b7081800000000000100000000000000000020
:20c34600200000000000181521540000020025de0000018018063c1a00008000000000009b
:0dc366008000c06bc10000016020d100000c
:20c3730000000000000000000000000000000000000f00042bc000003442c0240000000052
:20c39300ab7480640000020200f00000050ef000040000000000000000000000000000008c
:20c3b3004359c30002801000003c00420047bc09c0020013080000000800000000f008a072
:0dc3d30000000003c020000803579c30004c
:20c3e000000000000000000000000000000000000000005babc00000002800184a000000ed
:20c400001da80100000006548f0c001000003aa8040000000000000000000000000000006b
:20c42000304ce2500100d801a3c20044000264aac42300281c0000000c0000000cf0411037
:0dc440000000003bc10000140035ee240098
:20c44d000000000000000000000000000000000000000bbc04800000002fd82f000000113d
:20c46d0005417c000000000000f000000000000000000000000000000100000000000002fa
:20c48d0003d8300000000000803c000200e41702a000000700d417c020083c0000f0100013
:0dc4ad0000700043c0040000203e84308079
:20c4ba0000000000000000000000000000000003800000f214188e000062f8aa003800d027
:20c4da00a822bc00e000001c8f0c038000000000000000000000038000000000000e001ef3
:20c4fa0078ef204038005807a3c200e4024394c1f023a000003e82800e00a0001ef04038ba
:0dc51a0000800033c181e000c7adae3400e9
:20c527001000000000000000000000000000000000008fb80000000016016c100000000802
:20c54700a934104000e0000000f04000270c00000000000000000000100000000000a002b2
:20c567002000000002800180b03c00000263aee100000000000000000009400000f0000078
:0dc5870001000003c00000000200000000e1
:20c594000000000000000000000000000000000000010173014000003c6afda50000005039
:20c5b400106820002000001c8f0c0000580000000000000000000003200000000000460c2b
:20c5d4000400000001000085ffc2000000e027ba1000000000000000000080001cf0480057
:0dc5f4000200007bc1a000006040000000bc
:20c60100000000000000000000000000000000000000100817c00c0002000000000005080f
:20c621000b43fc000000400200f000000f000000000000000000000001000000000000006d
:20c64100005bfe010000d00003c00700016207dcc00802c700bf5bc00000243f50cc0100b4
:0dc6610000010b803c040000203c0af000aa
:20c66e00000000000000000000000000000000000000083297c00c001e000000000002509f
:20c68e000bf37c080002061e8f0c0000000000000000000000000000010800000000000040
:20c6ae00695d7e400000800063c1400002e064b3300003081a76d7c400003c02f83302003a
:0dc6ce00000189ebc0000060401de0a000ed
:20c6db0000000000000000000000000000000000000f800000000000002000000000000888
:20c6fb00097bfc000000400200f0000000000000000000000000000000000000000000006d
:20c71b00004cd020040400000000000a0a400c0cc000000510533302004000005acc00008b
:0dc73b0000000043c000000243b5053010af
:20c74800000000000000000000000000000000000007000000000000000400000000007056
:20c7680005aff800000260168f0c00000000000000000000000000000000000000000c00e6
:20c78800707b8000040200000000000000e2bde3302000000e7b8cc000a0062a49330080ad
:0dc7a80000000063c10000004024af3020fd
:20c7b50000000000000000000000000000000000000700bfbfc00000000000000000051109
:20c7d500eda0a8000000000000f00000000000000000000000000000000800000000003cdb
:20c7f5003c0000000000300003c001080360240aa000422f00543c000000443c00f0000248
:0dc81500800083817c0000000006ebf00035
:20c8220000000000000000000000000000000000000d0a97b7c000000000000000000200cf
:20c84200a5eaa180000000168f0c0000000000000000000000000000000000000000000075
:20c8620000000000000018006bc100044263a0a5500041d008df83ca000080041ef040001d
:0dc882000000f3e828800000000ce7a00093
:20c88f000000000000000000000000000000000000000a000000000000000000000000007f
:20c8af00000000000000000000f00000000000000000000000000000200000000000000059
:20c8cf0002d04500000000c92da4000200001d0cc28810050a5003c20002000010f00000ed
:0dc8ef00027000000000148803c405a000c2
:20c8fc000000000000000000000000000000000000001e00000000040000000000000000fa
:20c91c00000000000000001e8f0c00000000000000000000000000001580000000000000ad
:20c93c0003488f6200000008725880040066ade3302028080872bc00000016001ef0600019
:0dc95c000570000000000a0400600a56107b
:20c9690000000000000000000000000000000000000000000000000000000000000000d0de
:20c98900004048240000020200f00000001000000000000000000000000034034000001c4b
:20c9a900717810000000980003c00000000006dcc000100f809c03c40000002410f0000250
:0dc9c900850000029400080040010f0000ee
:20c9d600000000000000000000000000000000000000000000000000160000000000001912
:20c9f60081284909000060548f0c0000001c0000000000000000000000001f174080001ca9
:20ca16007ffba1000000f00073c1800090029783300028091e1b3c08000a06041cf0600037
:0dca36000a580102950000a206018f0400bd
:20ca430000000000000000000000000000000000000080000000000000007af00040007039
:20ca6300b74000000000020200f00000010000000000000000000000000ff7880004000431
:20ca8300340000002000000003c06100000000000000008500d03dc0480002005acc00a0b9
:0dcaa30000300d02a8028000035cb5f01009
:20cab00000000000000000000000000000000000000500000000000000006fe84000088141
:20cad00085628000000006548f0c00000800000000000000000000000001fae84004002e8d
:20caf00000000000300001807bc10000016680000000038508863ec08c019c024933003364
:0dcb1000008181316800c0000645a7e000eb
:20cb1d00000000000000000000000000000000000000000000000000000000000000800177
:20cb3d00000000000000000000f00000000000000000000000000000070000000000003ea3
:20cb5d003d784000000050f043c0040401442d03300002008ab417c00000043800f0000090
:0dcb7d0002b1c003c000000542810f00009e
:20cb8a00000000000000000000000000000000000000000000000e0e00680000003930009e
:20cbaa00a0000000e000001c8f0c038380000000000000000000000000000000000e000e12
:20cbca00066fa4003800000033c1020201663cecc020000380ba82800e0420000af0603890
:0dcbea0005818033c120e00000008f0600af
:20cbf7000000000000000000000000000000000000000f3bbfc0000014000000000000d869
:20cc1700f00000000000000000f040000000d0014600000000000000000000000000001ea8
:20cc37003c6a90000400008d2730000400038005500000000000000000004001cfcc000007
:0dcc570000700f23300000002300000000db
:20cc640000000000000000000000000000000000000000b737c00000200000000000005092
:20cc8400100000000000001c8f0c00000000d7941000000000000000000000000000003618
:20cca4006f5ba0000400181168cc200001404f85500000000a00000000068661ec3300000a
:0dccc4000098092ccc400000e000000000aa
:20ccd100000000000000000000000000000000000000000000000000000000000000000043
:20ccf100000000000000400200f000000000000000000000000000000010000000000000e1
:20cd11000010f0080000090003c0040000400105508000200f043c020040242000a520005a
:0dcd3100005009016802000000010f000819
:20cd3e000000000000000000000000000000000000000000000000000000000000000000d5
:20cd5e00000000000002061e8f0c0000000000000000000000000000000e000000000000e6
:20cd7e00000af050000071c03bc1000002001dc5500000101f07bc100000000440a54000bf
:0dcd9e0000018002950100000000cf04009c
:20cdab00000000000000000000000000000000000000000000000000000000000000000068
:20cdcb00000000000000400200f00000091dbb394000000000000028500ebc2680000000d4
:20cdeb000000f0000000000043c004000020000f0008000f80043c024080002000f0010058
:0dce0b00000100428c00000000010f00003b
:20ce18000000000000000000000000000000000000000000000000000000000000000000fa
:20ce380000000000000260168f0c0000080fdbe154000000000000100000f2a95080000025
:20ce5800000cf0500000180073c10000006001af0400000f8007bc10000000041af040005e
:0dce78000001e5e28c0800000381cf0410ea
:20ce850000000000000000000000000000000000000000000000000000000000000000008d
:20cea500000000000000000000f000000b0f342680000000000000000008982800000000c1
:20cec5002810f0000000000003c0800003e2000f020000000e003c0020008441c05a0002a1
:0dcee500850007773000001002010f0000eb
:20cef200000000000000000000000000000000000000000000000000000000000000000020
:20cf120000000000000000168f0c00000980bf29588000000000000000017e800000000600
:20cf32000418f040000001807bc10100034041cf040000074003bc104001663200a5600189
:0dcf520002018d2ccc0000006641cf0600ce
:20cf5f000000000000000000000000000000000000000000000000000000000000000000b2
:20cf7f00000000000000000000f000000000f8000000000000000000000000000000014267
:20cf9f000000f0080000000043c0000229c0000f0000000f00003c081000003410f00002e4
:0dcfbf0080000da8cc00000003800f0200d0
:20cfcc00000000000000000000000000000000000000000000000000000000000001000044
:20cfec00000000000000001e8f0c0000800072940000000000000000000000000000009e48
:20d00c00681cf050008000002bc10004026000af040800000003bc10000000041cf0600074
:0dd02c00001803fb300000006001cf04007d
:20d039000000000000000000000000000000000000000000000000000000000000000000d7
:20d05900000000000000020200f000000008000000000000000000000000000000000000bb
:20d07900000000000000100043c0000000c01dc3300000000c043c0200000c0000f0000169
:0dd0990012100043c020000000010f000035
:20d0a60000000000000000000000000000000000000000000000000000000000000000006a
:20d0c60000000000000060548f0c00000001000000000000000000000700000000000000f3
:20d0e600000000000028800063c18000026037ccc000205001073c100001160018f068026c
:0dd106008080a03bc10000000000ef06008b
:20d113000000000000000000000000000000000000000000000000000000000000000000fc
:20d13300000000000000020200f000000d0000000000000000000000100f0000000801446f
:20d153000000f020200510f003c0008400c42cacc002000000003c0008001e0360f000200d
:0dd1730000080d83302480e003410f00040c
:20d1800000000000000000000000000000000000000000000000000000000000000100008e
:20d1a00000000000000006548f0c000000000000000000000000000020000000000400a0b6
:20d1c000300af048100280002bc180c212062df33003000000073c101c000c61fc0f00309b
:0dd1e00000518bf8cc0840040000af0600a1
:20d1ed00000000000000000000000000000000000000000000000000000000000000000022
:20d20d00000000000000000000f00000000000000000000000000000000000000000000011
:20d22d002010f020000000f043c000000002400f0080000000003c0200001c03e03300006d
:0dd24d00010009403c04000000010f00003a
:20d25a000000000000000000000000000000000000000000000000000000000000000000b4
:20d27a0000000000e000001c8f0c038000000000000000000000038000000000000e0000e9
:20d29a00041cf040380000007bc144e0000040cf0403800000033c120e002060dacc223817
:0dd2ba002a01ad2bc020e00000008f040809
:20d2c700000000000000000000000000000000000000000000000000000000000000000047
:20d2e700000000000000000000f020000000000000000000000000005000000000000000c7
:20d307000010f0200000000003c08000000024bcc080400000043c0040001c00dacc000001
:0dd3270000000d3f3000000002000f01006b
:20d334000000000000000000000000000000000000000000000000000000000000000000d9
:20d35400000000000000001c8f0c0000000000000000000000000003001e000000000000e1
:20d37400000cf040000000006bc1000014002ec330004a000006bc10000020035833000032
:0dd394000000cfb4cc0000000040cf060028
:20d3a1000000000000000000000000000000000000000000000000003c00000000008000b0
:20d3c1000000000000000400000000000000000000000000000000000000043c00200000e8
:20d3e100016f0008000009a1400000000020000000000020885610020020027b500f080096
:0dd4010082988fb730004000264e0e500874
:20d40e000000000000000000000000000000000000000000000000002000000000010000dd
:20d42e000000000000000200000000000000000000000000000000000000023c100000008e
:20d44e00024a0800000050a933300800006000000000088101fbf80000421e2f6cf001013c
:0dd46e0004501f78cc0040006657c25420c7
:20d47b000000000000000000000000000000000000079000000000000000000000000000fa
:20d49b00000000000002400000000000000000000000000000000000400a00294200000476
:20d4bb0028000000010090977f300000a3d400000000000098003c080042247bdccc000175
:0dd4db000011e043c0000000021df4000835
:20d4e8000000000000000000000000000000000000090e00000000001c00000000000000f1
:20d50800000000000000000000000000000000000000000000000000200110295000000059
:20d528000000000000009803fccc0000016200000000000789073c100000263a6f33000038
:0dd548008000a03bc18000006061f8000879
:20d555000000000000000000000000000000000000000000000000001e00ce0001000400c5
:20d575000000000000000000000000000000000000000000000000000000d016801000041c
:20d59500000000000000d8f0c20000000144070a0000002080003c0000002e2cc00001009f
:0dd5b50000d10043c0400002424cb9a080ec
:20d5c2000000000000000000000000000000000000000000000000003e03dd5e00000200cb
:20d5e200000000000000038000000000000000000000000000000000000080295c000000a1
:20d602000000000000009005a20008000262148f500010078003bc1000003461cc0c02009d
:0dd622003818a063c10000026661d65400f4
:20d62f0000000000000000000000000000000000000080000000000000000000000000005b
:20d64f000000000000000000000000000000000000000000000000000000043c0a00210050
:20d66f000000f001000500e1f450000000039e000080001010d803c00000162df0cc100194
:0dd68f000000c9003c0400a00000000000e5
:20d69c00000000000000000000000000000000000007000000000000000000000000000067
:20d6bc00000000000000000000000000000000000000000000000000058003bc100040803a
:20d6dc00000ef048000000193d04000001e067a801a000001e7e3c0800000e03dc330202f9
:0dd6fc008018b77bc0000000400000000057
:20d7090000000000000000000000000000000000000000000000000000000000000280007e
:20d72900000000000000000000000000000000000000000000000000000b00000000403461
:20d749000000f0080000080fb3300400024004000000000f00003c004100022cf9cc000005
:0dd7690000000b8330000a0002349c3000e9
:20d77600000000000000000000000000000000000000000000000000000000000001000092
:20d79600000000000000000000000000000000000000000000000000000000000000a000d3
:20d7b600001cf0400000718fbccc000003403da20020000580063c1000005432fe330000af
:0dd7d60000000b60cc0804006637c63484e8
:20d7e3000000000000000000000000000000000100000073c00400000000000000000000ee
:20d803000000000000000000000000000000000000000000000002000000003c004800027d
:20d8230001405a0062000005b000000002442c03300200000e043c020000000340110020c8
:0dd84300380805b330040000001e0000008e
:20d85000000000000000000000000000000000010000007301100000000000000000000033
:20d870000000000000000000000000000000000000000000000001038000033c10040c14a1
:20d890000000a54030000009bc40000002029cacc023000018033c1000040002ce8802303a
:0dd8b000007807f4cc8000000025ca0000bd
:20d8bd0000000000000000000000000000000000000000000000000000000000000000004b
:20d8dd00000000000000000000000000000000000000000000000000000d043c00000000de
:20d8fd0003c05a004282790003c00400c0276c09600000091090330400a0022fc069000054
:0dd91d000010d33f30000001c03c0e500050
:20d92a0000000000000000000000000000000003800000000000000000000000000030002a
:20d94a000000000000000000000000000000000000000000000003800001063c140e0000d5
:20d96a000000a5403900d8e07bc10000004661c69023800188968cc080441e001e961238a0
:0dd98a0000800baccc00e002001dc2542058
:20d99700180000000000000000000000000000000000080000000000000000000000000050
:20d9b700000000000000003e0a000000000000000000000000000000000800000000000000
:20d9d7002c000000000091877f3000000002fc9cc00000070cde730000000043e9cc000087
:0dd9f7003000e1b730001000002ef00000fd
:20da0400000000000000000000000000000000000000000000000000000000000000000002
:20da2400000000000000002ee00000000000000000000000000000000501000000000000ce
:20da44000000000000000093fccc400201600dd33000000800728cc000000079f933000049
:0dda640020000bb0cc800000062ed8000082
:20da7100000000000000000000000000000000000000000000000000000000000000000095
:20da91000000000000000000000000000000000000000000000000100000043c001040369f
:20dab1007c0000003281100d6408400401c340000000200b8a00044000a0427000f000100a
:0ddad10005798fab9421000022f607f000cc
:20dade00000000000000000000000000000000000000000000000000000000000000000028
:20dafe00000000000000000000000000000000000000000000000020000002bc1000a00e6c
:20db1e002c0000003102100ba2840000020040000000100d08770440800e863c1cf0615018
:0ddb3e003211fdec95800001e07de3e02058
:20db4b000000000000000000000000000000000000000000000000000000000000000000ba
:20db6b00000000000000000000000000000000000000000000000000000000000000000298
